:100000000C94900E0C94AD0E0C94AD0E0C94AD0EA1
:100010000C94AD0E0C94AD0E0C94AD0E0C94992472
:100020000C94AD0E0C94AD0E0C94B5320C941E33A2
:100030000C94E0320C94AD0E0C94AD0E0C94AD0EFD
:100040000C94AD0E0C94AD0E0C9463330C94983359
:100050000C94AD0E0C94AD0E0C94AD0E0C94AD0E34
:100060000C94AD0E0C94AD0E072C7AA5BA6CC5900D
:10007000DA3B9365FC8BBC53F810FD3C5692834DE4
:10008000BD879D3AB63DCBC9BF5BBE73DA0FC93F92
:1000900005A84CCDB2D44EB93836A9020C50B9914E
:1000A0008688083CA6AAAA2ABE000000803F0664F3
:1000B000EC1B3C04BC163E3BE5B93CC93C37C29E38
:1000C0005A3D660498083EEA69AAAA3E00000080EC
:1000D0003F004750524D430047504747410004EF0F
:1000E00003800204CF00C13005ED6403128104E8EF
:1000F00085007806CB392C00340202F72003EA0091
:100100000002C02302C11003C53E2802C786023682
:1001100048023A5503B1001804B608822702F200DB
:1001200002260110E00F312B0C0E084EF13707109C
:10013000030E090010E1000E1403110731C1480835
:100140000F0C31360F0020435243206572726F72DC
:1001500000204E6F20726573706F6E7365002068AB
:1001600050612F687200207073692F68720020221E
:1001700048672F687200206D6D48672F68720044D1
:100180006F6E6500526573657400003A2000526519
:100190006D6F74652073746174696F6E20005361B4
:1001A00074656C6C697465732000416C7469747556
:1001B00064652000466C6970004175746F0044618D
:1001C000726B004C69676874004175746F00546FFE
:1001D00075636873637265656E005468656D65006C
:1001E0004261636B6C6967687420007073690022F8
:1001F0004867006D6D48670068506100466168722D
:10020000656E686569740043656C73697573004455
:100210005354002B002D0050726573737572650086
:1002200054656D70657261747572650054696D65B1
:10023000207A6F6E650043616E63656C004F6B00E2
:1002400043616C696272617465004E616D65730033
:10025000475053004C434400436F6E666967005536
:1002600073652070656E20746F20746F75636820ED
:10027000636F726E657273206F662073637265655B
:100280006E20746F2063616C6962726174650068CE
:1002900050610070736900224867004867006D6D07
:1002A00000426173652073746174696F6E005265FA
:1002B0006D6F74652073746174696F6E73006D7314
:1002C000006D7300206661696C000D0A424D453275
:1002D000383000206661696C000D0A494C49393399
:1002E00034310041424242454B4E4E5050535757D5
:1002F0005858585A4244484F52555658585A4142F5
:1003000042434647494A4C4D4D5154597105630586
:100310005405390523050D05F304D904C104AE04C1
:1003200093047A045F04460431041C040304EE03BE
:10033000DA03C403AA03910378036403510340035F
:1003400053746F726D79006D756368207261696EA8
:100350000053746F726D79006D617920696D7072F0
:100360006F7665005261696E007665727920756EF0
:10037000736574746C6564005261696E2061740009
:10038000726567756C617220696E74657276616CF6
:1003900000536F6D65207261696E00766572792019
:1003A000756E736574746C6564004F636361736923
:1003B0006F6E616C207261696E00776F7273656E2B
:1003C000696E67004D6F73746C7920766572790081
:1003D000756E736574746C656400556E73657474C2
:1003E0006C656400736F6D65207261696E00556E97
:1003F000736574746C6564007261696E206C6174FD
:10040000657200556E736574746C65640066696E20
:100410006520696E74657276616C73004368616E05
:10042000676561626C6500736F6D65207261696EEE
:100430000053686F77657279206C6573730073651C
:1004400074746C65640053686F77657279206272AA
:100450006967687400696E74657276616C730055C3
:100460006E736574746C6564006C696B656C79207F
:10047000696D70726F76696E670051756974652079
:10048000756E736574746C656400636C6561726924
:100490006E6700466169726C792066696E650073EB
:1004A000686F77657273206C696B656C790043685F
:1004B000616E676561626C65006D656E64696E672B
:1004C0000053686F77657279206561726C79006995
:1004D0006D70726F76696E6700466169726C792023
:1004E00066696E650073686F77657279206C6174F8
:1004F000657200466169726C792066696E65006D8F
:10050000617962652073686F77657273004661690F
:10051000726C792066696E6500696D70726F7669BC
:100520006E670046696E6520706F737369626C65F3
:100530000073686F776572730046696E6520626547
:10054000636F6D696E67006C657373207365747497
:100550006C6564004265636F6D696E672066696EE5
:1005600065000046696E6520776561746865720094
:1005700000536574746C65642066696E6500008C58
:1005800003901F907F940F8C67031F781D7C075E7C
:10059000737D401907225C3940477D077F6C3F7EA1
:1005A0000370071C003F6004700772007F1006781C
:1005B0000F7100C74003781F1840C91800CE8ACBBE
:1005C0008CC9900F0090639077911F91078F1F7CCB
:1005D00088777C0718767D8D0722890778881F7CAD
:1005E0000378790F401F70883F6004700772007FA6
:1005F0001006780F7100C74003781F1840C9180013
:10060000CE8ACB8CC9900F0021402324255E262A58
:10061000282951574552545955494F504153444642
:1006200047484A4B4C1E5A584356424E4D181B00E1
:100630003132333435363738393071776572747901
:1006400075696F706173646667686A6B6C1E7A782F
:100650006376626E6D191B00BFBFBFBFBFBFBFBF58
:10066000BFBF9E07B4CAB2CEAFD0AD3F401FA91FD7
:10067000881FA70F8A1FA51F8C7FA40F8DC79F3FC0
:1006800091C79BC8961F97C8981F95C9991F931F1C
:100690009E0F911F9F0F910FA0078F0FA10F8F0F1C
:1006A000A10F8F0FA1078F0FA1078F0F8801610383
:1006B00078940F0007470778018E1F400747077C93
:1006C000961F606373031F96C738383C7003957F8D
:1006D0003C3C3C7001961F1E1E0E3CA30F0E3EAA12
:1006E0000F0F3EAA07073FA90F0F3EAA070F38AA10
:1006F000470718AA430718B00730B00F20B10F20E2
:10070000B00FB80FB903BFBFBFBF9FBFBFBFBFBF51
:10071000BFBFBFBFBFBFBFBF9BC8B4CCB0D0AD3F92
:10072000401FA91F881FA71F8A1FA60F8B7FA40F1A
:100730008DC7A10F8FC79CC7953F98C9971F95C9B3
:10074000991F931F9E0F911FA007900FA00790075E
:10075000A00F9007A00F8F0FA1079007A007900789
:100760009F0F910F0007070770018E1F00070707F3
:1007700078961F606363033F96C77878787C079507
:100780007F3C3C387C03963F1E1E1E3F9F63616189
:1007900071A70F0F0FAA0F0F0FA90F0F0EAA0F0FA0
:1007A00004AA0707B14707B707B70FB80FB807B7CD
:1007B0000FB903BFBF9FBFBFBFBFBFBFAB03B51F55
:1007C000B73FB73FB77FB8C7B66F03B16703AA0794
:1007D0004707A6CD7801A1CF706F0399D1707F9E96
:1007E0003F401F781F9B1F881F600F991F8B1F7032
:1007F00001970F8BC77E9C0F8DCC9B3F90CA98C8EA
:10080000963F97C9980F94C99A0F921F9E0F920F07
:100810009F0F900FA00F9007A00F9007A00F9007B9
:10082000A00F9007A00F900F8B01014007900F8A37
:100830000707000F920F8907074007921F880F0FC5
:10084000600F94CB78787C3F98CA3C387C0F9AC86C
:100850003C3C7E07A50707B00F0FB1070FB00F0F85
:10086000B10F0FB10707B14707B70FB70FB80FB7F1
:100870000FB80FB9039CBFA607B70FB80FB80FB8D2
:100880000FAC03600360A20F400760039D0F40019F
:1008900078019C1F8F1FA21F8D1FA40F7C4107A4EE
:1008A00047C838A30778C7A5CA7C7B039DD2400FF1
:1008B0009DD2880F9B3F401F870F9A1F881F870F6D
:1008C000981F8A1F004F7F901F8C7F40673F8F0FBC
:1008D0008DC770790F8B1F90C77894C8961F0790AB
:1008E000C898C893C9997F931F9E3F911FA00F90EE
:1008F0000FA04F9007A06F01880FA16F03880FA171
:100900006707880FA1070F89078B010140071E8920
:100910000F8A0707400F388A1F890F0F400F931F58
:10092000880F0F600794CB38387C1F98CA3C3C7EF8
:100930000F9AC738387C07A50F0FB10F0FB00F0EF5
:10094000B10F0FB10707B14707B14307B60FB80F93
:10095000B807B70FB80FB903BFA2BFBFBFBFBFBFB4
:10096000BFBFAA0FB61FB73FB77FB7C7B7C7B64F4E
:1009700003B14F07A8CB7801A3CD7003039AD070C1
:10098000C79E7F700F7C1F9B1F871F701F9A1F8938
:100990001F6007981F8B7F7003970F8CCD9C0F8E65
:1009A000CB99C792C998C8971F96C9990F933F06CC
:1009B000961F921F9F0F910F9F0F900FA1078F0FF0
:1009C000A1078F0FA1078F0FA00F900FA00F900FFF
:1009D0009F1F920F9E0F921F9C1F957F328C693F25
:1009E00097E59AE29EDEBFBFBFBFBFBFBFBFBFBF1D
:1009F000BF91BFBFA803B707B807B807B807AC01D6
:100A0000600120A20F400360019C1F400370019C05
:100A10003F000178019E0F8D1FA31F8C1FA50F7E25
:100A20006303A571C7A7C770CAA3D160079DD2870A
:100A30000F9C7F701F870F9A1F871F870F991F8931
:100A40001F87471F901F8B7F00677F900F8CC760A9
:100A5000791F8D0F8EC770780788C792C81E92C8FD
:100A600097C993C9997F933F06967F921F9F1F91C5
:100A70000F9F0F900FA1678F0FA177038807A167C2
:100A8000078807A00F1F890FA00F1E890F9F0F381F
:100A90008B0F9D1F608C1F9C1F953F0691C798E58B
:100AA0009AE29EDEBFBFBFBFBFBFBFBFBFBFBFBF5A
:100AB00096BFBFBFBFBFBFBFBFBFBFBFBFBF9DC789
:100AC000B4C9B4C9B3CAB41F0FB01F0EB00F1EB162
:100AD0000F1EB00F1CB1071CB00F78B10F78B10F0B
:100AE00078B10F70B10F7001AA0F6003AA0F6003F5
:100AF000AB076003AA0F400FAA1F007FAB0F00C90E
:100B0000A81F877FA93F873FAAC7700FABCFB0CD83
:100B1000B3C8BFBFBFBFBFBFBFBFBFBFBFBFBFBFE8
:100B200099BFBFBFBFBFBF9E03B707B80FB80FB80D
:100B30000FAC01600340A20F400760039C1F4007F9
:100B400070039D1F40017CA41F8D1FA40F8C0FA557
:100B5000077E6001A461C710ACCDB07F7C01AA0FF5
:100B60007003A90F400FAA0F000FA03F388A073F5C
:100B700097C73C8A4F7F97C73C8A4F7F987F388AB8
:100B8000473FA2078707A90F000FAA0F000FAB0F5F
:100B90006003AA7F7C01ABCDAD47C838A70F7C416D
:100BA00007A21F8D1FA21F8F1FA01F000370039C91
:100BB0000F400760039D03600360AF0FB80FB80FCD
:100BC000B80FB80FB903BFBFBFBFBFBFBF99000108
:100BD000080800FF00000000000000007E8195B1C1
:100BE000B195817E7EFFEBCFCFEBFF7E0E1F3F7E68
:100BF0003F1F0E00081C3E7F3E1C080018BAFFFF76
:100C0000FFBA180010B8FCFFFCB810000000183C38
:100C10003C180000FFFFE7C3C3E7FFFF003C66424C
:100C200042663C00FFC399BDBD99C3FF70F8888838
:100C3000FD7F070F004E5FF1F15F4E00C0E0FF7FC8
:100C400005050707C0FF7F0505657F3F995A3CE70B
:100C5000E73C5A997F3E3E1C1C08080008081C1CF3
:100C60003E3E7F00002466FFFF662400005F5F00B9
:100C7000005F5F00060F097F7F017F7F40DABFA51D
:100C8000FD59030200707070707070008094B6FFA0
:100C9000FFB694800004067F7F0604000010307FBA
:100CA0007F3010000808082A3E1C0800081C3E2A55
:100CB000080808003C3C202020202000081C3E089A
:100CC000083E1C0830383C3E3E3C3830060E1E3E86
:100CD0003E1E0E06000000000000000000065F5FE0
:100CE000060000000007070007070000147F7F14BC
:100CF0007F7F1400242E6B6B3A120000466630187A
:100D00000C666200307A4F5D377A480004070300B2
:100D100000000000001C3E63410000000041633EF3
:100D20001C000000082A3E1C1C3E2A0808083E3E03
:100D3000080800000080E0600000000008080808C3
:100D40000808000000006060000000006030180C1F
:100D5000060301003E7F71594D7F3E0040427F7F78
:100D600040400000627359496F66000022634949A0
:100D70007F360000181C16537F7F500027674545BB
:100D80007D3900003C7E4B497930000003037179C6
:100D90000F070000367F49497F360000064F49693A
:100DA0003F1E000000006666000000000080E6664E
:100DB00000000000081C36634100000024242424A5
:100DC00024240000004163361C080000020351592E
:100DD0000F0600003E7F415D5D1F1E007C7E1313E9
:100DE0007E7C0000417F7F49497F36001C3E634185
:100DF00041632200417F7F41633E1C00417F7F4968
:100E00005D416300417F7F491D0103001C3E63413A
:100E1000517372007F7F08087F7F000000417F7F51
:100E200041000000307040417F3F0100417F7F085A
:100E30001C776300417F7F41406070007F7F0E1C04
:100E40000E7F7F007F7F060C187F7F001C3E634172
:100E5000633E1C00417F7F49090F06001E3F217140
:100E60007F5E0000417F7F09197F6600266F4D5924
:100E70007332000003417F7F410300007F7F4040C9
:100E80007F7F00001F3F60603F1F00007F7F3018A2
:100E9000307F7F0043673C183C674300074F7878FA
:100EA0004F070000476371594D677300007F7F4112
:100EB000410000000103060C183060000041417F32
:100EC0007F000000080C0603060C0800808080806C
:100ED00080808080000003070400000020745454C8
:100EE0003C784000417F3F4848783000387C44449B
:100EF0006C280000307848493F7F4000387C5454CB
:100F00005C180000487E7F490302000098BCA4A43E
:100F1000F87C0400417F7F08047C780000447D7DDC
:100F20004000000060E08080FD7D0000417F7F1078
:100F3000386C440000417F7F400000007C7C183802
:100F40001C7C78007C7C04047C780000387C444461
:100F50007C38000084FCF8A4243C1800183C24A42D
:100F6000F8FC8400447C784C041C1800485C545401
:100F70007424000000043E7F442400003C7C404078
:100F80003C7C40001C3C60603C1C00003C7C703899
:100F9000707C3C00446C3810386C44009CBCA0A0B1
:100FA000FC7C00004C64745C4C64000008083E77D4
:100FB0004141000000000077770000004141773E8A
:100FC00008080000020301030203010070784C4688
:100FD0004C7870000E9F91B1FB4A00003A7A404075
:100FE0007A7A4000387C54555D190000022375550B
:100FF000557D7B42217554547D79400021755554AF
:101000007C784000207457577C784000183CA4A49A
:10101000E4400000023B7D55555D1B02397D545470
:101020005D190000397D55545C18000001457C7C39
:10103000410100000203457D7D43020001457D7CA6
:1010400040000000797D1612167D790070782B2BF8
:1010500078700000447C7C55554500002074545441
:101060007C7C54547C7E0B097F7F4900327B49494C
:101070007B320000327A48487A320000327A4A489D
:10108000783000003A7B41417B7A40003A7A424016
:10109000787840009ABAA0A0FA7A000001193C665C
:1010A000663C19013D7D40407D3D0000183C24E731
:1010B000E7242400687E7F49436620002B2FFCFC38
:1010C0002F2B0000FFFF09092FF6F8A040C088FE73
:1010D0007F090302207454557D79400000447D7DD2
:1010E000410000003078484A7A32000038784042A7
:1010F0007A7A40007A7A0A0A7A7000007D7D193186
:101100007D7D000000262F292F2F280000262F2963
:101110002F26000030784D45602000003838080840
:101120000808000008080808383800004F6F301819
:10113000CCEEBB914F6F30186C76FBF90000007B52
:101140007B000000081C3622081C362222361C08B0
:1011500022361C08AA005500AA005500AA55AA5517
:10116000AA55AA55DDFFAA77DDAAFF77000000FF88
:10117000FF000000101010FFFF000000141414FF07
:10118000FF0000001010FFFF00FFFF001010F0F044
:1011900010F0F000141414FCFC0000001414F7F715
:1011A00000FFFF000000FFFF00FFFF001414F4F435
:1011B00004FCFC0014141717101F1F0010101F1F31
:1011C000101F1F001414141F1F000000101010F037
:1011D000F00000000000001F1F1010101010101F62
:1011E0001F101010101010F0F0101010000000FF71
:1011F000FF1010101010101010101010101010FF11
:10120000FF101010000000FFFF1414140000FFFF77
:1012100000FFFF1000001F1F101717140000FCFC38
:1012200004F4F41414141717101717141414F4F406
:1012300004F4F4140000FFFF00F7F714141414145E
:10124000141414141414F7F700F7F71414141417E3
:101250001714141410101F1F101F1F10141414F44F
:10126000F41414141010F0F010F0F01000001F1F10
:10127000101F1F100000001F1F141414000000FC9A
:10128000FC1414140000F0F010F0F0101010FFFF28
:1012900010FFFF10141414FFFF1414141010101F6B
:1012A0001F000000000000F0F0101010FFFFFFFF13
:1012B000FFFFFFFFF0F0F0F0F0F0F0F0FFFFFFFFB6
:1012C0000000000000000000FFFFFFFF0F0F0F0FE6
:1012D0000F0F0F0F387C446C386C4400FCFE2A2A38
:1012E0003E1400007E7E020206060000027E7E02A0
:1012F0007E7E020063775D4963630000387C447C36
:101300003C04040080FE7E20203E1E000406027E77
:101310007C06020099BDE7E7BD9900001C3E6B49C1
:101320006B3E1C004C7E7301737E4C0030784A4F3C
:101330007D390000183C243C3C243C1898FC643C5B
:101340003E273D181C3E6B49490000007E7F01018D
:101350007F7E00002A2A2A2A2A2A000044445F5F4E
:101360004444000040515B4E4440000040444E5B0A
:1013700051400000000000FEFF01070660E080FF12
:101380007F00000008086B6B080800002436123646
:101390002436120000060F090F0600000000001896
:1013A000180000000000001010000000103070C095
:1013B000FFFF0101001F1F011F1E000000191D1764
:1013C0001200000000003C3C3C3C0000000000001B
:1013D0000000000000000D182B10000000000000AD
:1013E00000000000000000000010383838FFFF380F
:1013F0003838100000000000000003030000000067
:1014000000000000000000000000000000000000DC
:1014100000000000000000000000000000000000CC
:10142000907838100000000000000000000000006C
:1014300000000000000000103838383838383838DC
:10144000100000000000000000000000000000008C
:10145000000000000000000000000000000000008C
:10146000000000000000000000000000000040E05C
:10147000E04000000000000002060E0E0E0E0E0EF0
:101480000602000000103838383838383838100074
:10149000000080C0E0E0E0E0E0E0C0800000FCFA96
:1014A000F60E0E0E0E0E0EF6FAFC00EFC7830000CD
:1014B0000000000083C7EF007FBFDFE0E0E0E0E076
:1014C000E0DFBF7F00000000000000000000F0F837
:1014D000FC0000000000000000000083C7EF0000D7
:1014E00000000000000000001F3F7F000002060E09
:1014F0000E0E0E0E0EF6FAFC00E0D0B83838383872
:1015000038383B170F007FBFDFE0E0E0E0E0E0C0ED
:101510008000000002060E0E0E0E0E0EF6FAFC0003
:10152000001038383838383838BBD7EF000080C062
:10153000E0E0E0E0E0E0DFBF7F00FCF8F00000006A
:10154000000000F0F8FC000F173B38383838383806
:10155000BBD7EF000000000000000000001F3F7F2D
:1015600000FCFAF60E0E0E0E0E0E060200000F170D
:101570003B383838383838B8D0E0000080C0E0E078
:10158000E0E0E0E0DFBF7F00FCFAF60E0E0E0E0E8C
:101590000E06020000EFD7BB383838383838B8D0DC
:1015A000E0007FBFDFE0E0E0E0E0E0DFBF7F0000E1
:1015B00002060E0E0E0E0E0EF6FAFC0000000000E3
:1015C000000000000083C7EF0000000000000000E2
:1015D00000001F3F7F00FCFAF60E0E0E0E0E0EF6F8
:1015E000FAFC00EFD7BB383838383838BBD7EF00B3
:1015F0007FBFDFE0E0E0E0E0E0DFBF7F00FCFAF685
:101600000E0E0E0E0E0EF6FAFC000F173B38383891
:10161000383838BBD7EF000080C0E0E0E0E0E0E021
:10162000DFBF7F000000000080C0C080000000001D
:1016300000000000000001010000000000000000A8
:101640000000040E0E040000000000000B102B1020
:101650000000008080E0E0808000000000010303C3
:101660000F0F030301000000000000000000000055
:10167000000000000080E06000000000000000802A
:1016800080808080800000000001030303030303C7
:101690000100000000000000000000000000000049
:1016A0000000C0C00000000000000286868686861A
:1016B000860200000081C3C3C3C3C3C3810000FC12
:1016C0007A0606060606067AFC007EBCC0C0C0C0CC
:1016D000C0C0BC7E00000000000000000078FC00DC
:1016E00000000000000000003C7E000002868686AC
:1016F0008686867AFC007EBDC3C3C3C3C3C3810094
:101700000000028686868686867AFC000081C3C336
:10171000C3C3C3C3BD7E00FC788080808080807896
:10172000FC0000010303030303033D7E00FC7A86F3
:1017300086868686860200000081C3C3C3C3C3C3F6
:10174000BD7E00FC7A8686868686860200007EBD87
:10175000C3C3C3C3C3C3BD7E00000206060606069C
:10176000067AFC0000000000000000003C7E00FC47
:101770007A8686868686867AFC007EBDC3C3C3C30E
:10178000C3C3BD7E00FC7A8686868686867AFC0088
:101790000081C3C3C3C3C3C3BD7E000000000018E3
:1017A00018000000000000000000181800000000F1
:1017B00022080D0E20600402050607080902030333
:1017C00005080204020407040707070707070707BD
:1017D0000202070707080E09080808070709080298
:1017E0000708070B0809070909070808090D070872
:1017F000080404040608030707060707050707028D
:101800000306020A0707070705060507070B060771
:101810000505010507080000000000000000FEFEAD
:1018200018181E1E001E1E000000000090F89E905A
:10183000F89E1C00001C0000183C26FF66CC8804A3
:101840000C183C180C041C221CC0308E4080000078
:101850001804000C100C80CC7E72F2DE0C80000CA0
:101860001C1010101C0C1C101E1E0000F0FC061C8E
:101870007CC006FCF0C07C1C14140E141400000084
:101880000000606060FCFC6060600000000C0C0008
:10189000000000005838C0C0C0C0000000000000B8
:1018A000181800C0380618040000F8FC0E060EFCDC
:1018B000F8040C1C181C0C04180CFEFE00001C1C68
:1018C000181C86C6663E1C181C1C18181818888C14
:1018D000062626FEDC040C1C18180C04C0E0B88C8C
:1018E000FEFE80040404041C1C04707E3E3636F6A2
:1018F000C60C1C1818180C04F8FC6E6666EECC04B6
:101900000C1818181C0C060606E6761E0600001CAD
:101910001C0000009CFE666666FE9C0C1C181818D5
:101920001C0C3C7E666666FCF80C1C18181C0C042B
:1019300018181818181858386060F0F098980C00AB
:1019400000000004040CD8D8D8D8D8D8D80000009B
:10195000000000000C9898F0F060600C0404000097
:101960000000080C06C6E6763C18000000181800B7
:101970000000E03008C4F63A1A1AF2FA7E0408F0C1
:101980000C30604C9C98988C9C9C90484C2000C0DB
:10199000F8BE86BEF8C000181C04040404041C1819
:1019A000FEFE66666666FEDC1C1C181818181C0C09
:1019B000F8FC0E06060E9C08040C1C18181C0C04DF
:1019C000FEFE0606060EFCF81C1C1818181C0C045B
:1019D000FEFE66666666661C1C1818181818FEFE61
:1019E00066666666061C1C0000000000F8FC0E0619
:1019F00006C6CEDCC8040C1C181818180C04FEFE11
:101A000060606060FEFE1C1C000000001C1CFEFEEE
:101A10001C1C8080000000FEFE0C1C1818181C0CFA
:101A2000FEFE603078EC86021C1C000000041C18CE
:101A3000FEFE00000000001C1C1818181818FEFEFE
:101A40000E7CE000E07C0EFEFE1C1C00000C1C0C5A
:101A500000001C1CFEFE1C78E080FEFE1C1C00002A
:101A6000040C1C1CF8FC0E0606060EFCF8040C1CEC
:101A70001818181C0C04FEFE6666667E3C1C1C00D2
:101A800000000000F8FC0E0686060EFCF8040C1C94
:101A900018181C0C1C24FEFE6666E6E6BE1C001C24
:101AA0001C0000000C1C18103C7E666666EECC0C18
:101AB0001C1818181C0C060606FEFE06060600007A
:101AC000001C1C000000FEFE00000000FEFE040CD6
:101AD0001C18181C0C04021EFCE000E0FC1E020096
:101AE00000001C1C1C00000006FEF800F0FE0EFEAC
:101AF000F000F8FE0600001C1C1C0000001C1C1C52
:101B00000000060EF8F0F80E06181C0400041C185D
:101B1000060E38F0F0380E060000001C1C00000015
:101B2000060686E6761E0E06181C1C1818181818CD
:101B3000FEFE0606FCFCC0C00638C000000004180B
:101B40000606FEFEC0C0FCFC20380E0E3820000049
:101B50000000000000000000000000008080808085
:101B6000808080800206040000001098D858F8F0A9
:101B7000000C1C18180C1C10FEFE301838F0E01C6D
:101B80001C0C181C0C04E0F018183830040C181841
:101B90001C0CE0F0381830FEFE040C1C180C1C1C49
:101BA000E0F0D8D8D8F0E0040C181818180818FC81
:101BB000FE1A1A001C1C0000E0F0381830F8F86417
:101BC000ECDCD8CCFC7CFEFE301818F8F01C1C00B5
:101BD00000001C1CFAFA1C1C00FAFAC0FC7CFEFE79
:101BE000E0F098081C1C00041C18FEFE1C1CF8F8F1
:101BF0001018F8F01818F8F01C1C00001C1C00004D
:101C00001C1CF8F8301818F8F01C1C0000001C1CF4
:101C1000E0F0381838F0E0040C1C181C0C04F8F83C
:101C2000301838F0E0FCFC0C181C0C04E0F03818FC
:101C300030F8F8040C1C180CFCFCF8F83018181CD0
:101C40001C00000070F8D8D8D890081818181C0C80
:101C500018FCFE1818000C1C1818F8F8000000F802
:101C6000F80C1C18180C1C1C38F8C000C0F8380000
:101C7000001C1C1C000018F8E000F038F000E0F830
:101C80001800001C1C0C000C1C1C00001838E0E0A4
:101C90003818181C04041C1818F8E000E0F81800A4
:101CA00084FCF83C04001898D878381C1C181818C4
:101CB00080FC7E0606007CFCC0C0FEFC06067EFCA6
:101CC00080C0C0FC7C00603030706060300000007C
:101CD00000000000FE020202020202FE1C101010B0
:101CE0001010101C53756E4D6F6E547565576564FA
:101CF000546875467269536174004A616E46656244
:101D00004D61724170724D61794A756E4A756C41D0
:101D100075675365704F63744E6F7644656300005A
:101D200011241FBECFEFD8E0DEBFCDBF11E0A0E091
:101D3000B1E0E4E6F5E702C005900D92A032B107EC
:101D4000D9F727E0A0E2B1E001C01D92AD34B2079F
:101D5000E1F70E940B250C94B03A0C940000ACE023
:101D6000B0E0E5EBFEE00C94873A8B01BE016F5FBB
:101D70007F4F0E94380FB801CE0101960E942711B3
:101D80002C96E4E00C94A33A8F929F92AF92BF926C
:101D9000CF92DF92EF92FF927C0160912F077091BA
:101DA000300780913107909132070E94503624E32A
:101DB0003EE649E458E40E94A6354B015C01C701A8
:101DC0000E9450106B017C01C501B4010E94E539ED
:101DD0004B015C01C701B60190580E94E5399B0197
:101DE000AC01C501B4010E942A396B017C0120E0DD
:101DF00030E040E85FE30E94253918168CF020E0BF
:101E000030E040E85FEBC701B6010E94713887FF00
:101E10000DC0C12CD12C90E8E92E9FEBF92E06C005
:101E2000C12CD12C80E8E82E8FE3F82EC701B60133
:101E30000E94F33728E433E347E450E40E94A635D8
:101E400020E030EC48EA57E40E942A390E94183614
:101E5000FF90EF90DF90CF90BF90AF909F908F90CA
:101E600008956BE377E00E94380F8BE397E00895C5
:101E7000A4E0B0E0EEE3FFE00C94833A6C017B0158
:101E8000E0914B07F0914C07309729F067E477E039
:101E900009958C0102C00FEF1FEFF60140815181BF
:101EA000628173818091470790914807A09149070B
:101EB000B0914A07840F951FA61FB71F1016110671
:101EC0004CF4A801012E000C660B770B840F951FB4
:101ED000A61FB71F89839A83AB83BC83B701CE014A
:101EE00001960E941B12F701138702872496E8E0EF
:101EF0000C949F3AA0E0B0E0E0E8FFE00C947F3A59
:101F0000EC01EE81FF818F0104561109B9F0CF0178
:101F1000855691096C0197FF03C023E0C20ED11CC6
:101F2000D594C794D594C7946CE97FEF0E940C3781
:101F3000C60ED71E8FEFC81AD80A02C0C12CD12CEA
:101F40002DE631E0D8010E9470370D2C000CEE0810
:101F5000FF08C60ED71EE81EF91E8B81082E000C46
:101F6000990B8C01015011092D8122302CF4222370
:101F700079F1015E1F4F2CC0CF018459984F0E9408
:101F8000E212282F30E0255C3F4F200F311F8D815A
:101F9000082E000C990B02978530910514F02756F6
:101FA0003F4F65E070E00E940C37AC0197FF02C024
:101FB0004F5F5F4F559547959DE3949F8001959F97
:101FC000100D1124020F131F80FF02C0015E1F4F6E
:101FD000C801110FAA0BBB0B9C01AD012C0D3D1DBF
:101FE0004E1D5F1D60E871E581E090E00E94DC36E7
:101FF0004B015C01AA810A2E000CBB0B20E13EE0E4
:102000000E9470376B017C01A9810A2E000CBB0B6A
:102010002CE330E00E947037C60ED71EE81EF91E72
:102020006881862F660F990BAA0BBB0B8C0D9D1D2B
:10203000AE1DBF1DBC01CD01680D791D8A1D9B1D04
:10204000CDB7DEB7ECE00C949B3A90934C078093AD
:102050004B07089560932F077093300780933107E3
:10206000909332072093330730933407409335071A
:102070005093360708950FB6F8946093370770931E
:1020800038078093390790933A070FBE08956093FD
:102090004707709348078093490790934A0708952C
:1020A0008F929F92AF92BF92CF92DF92EF92FF9268
:1020B000FC0180809180A280B380C501B40121E23F
:1020C0003BE841EE51E00E94203760557642824263
:1020D0009E4F0E944E3621EB37E449E95AE40E94B4
:1020E000A6350E9497396B017C01C501B4012DE32F
:1020F00035E841EE51E00E9420376854774A824F1C
:102100009F4F0E944E3621ED35E449E95AE40E9482
:10211000A6354B015C012FED33EE48E05DE3C701CE
:10212000B6010E942A39A50194010E9405380E9437
:1021300076382CE336E741ED5EE30E942A39905869
:10214000FF90EF90DF90CF90BF90AF909F908F90D7
:1021500008958F929F92AF92BF92CF92DF92EF92AB
:10216000FF92CF93DF93FC0180809180A280B380A7
:102170000E94A511EC0160913307709134078091A2
:102180003507909136072FE030E040E050E00E94A4
:10219000423775016401C21AD30AE40AF50AF0EC69
:1021A000CF0EF8EADF1EE11CF11CC501B40120E8E6
:1021B00031E541E050E00E942037A7019601261B3F
:1021C000370B480B590B6E01DD0FEE08FF08CA01F3
:1021D000B9016C197D098E099F09DF91CF91FF909C
:1021E000EF90DF90CF90BF90AF909F908F90089529
:1021F000FC010FB6F8946091370770913807809111
:10220000390790913A070FBE309721F060837183B0
:102210008283938308958F938FB78F93F8948091DF
:1022200037078F5F80933707809138078F4F8093F0
:102230003807809139078F4F8093390780913A078B
:102240008F4F80933A078F918FBF8F910895A0E0B1
:10225000B0E0EDE2F1E10C94833A8C01EB01FC017A
:102260008481682F660F680F8581582F550F580F8E
:102270009E0140E0862F840F90E0A0E08C51934EA9
:10228000AF4FFC018491A7FD8081F90181939F01EB
:10229000852F840F90E0A0E08650934EAF4FFC0155
:1022A0008491A7FD8081F90183834F5F433011F74B
:1022B00080E28F838B83BE01685F7F4FF80183814B
:1022C00040E2082E000C990B0E94F612BE01655FD9
:1022D0007F4FF80182814AE3082E000C990B0E947F
:1022E000F612BE01625F7F4FF80181814AE3082E3A
:1022F000000C990B0E94F612BE016F5E7F4FF80131
:10230000808140E2082E000C990B0E94F612F80121
:102310008681978164E670E08459984F0E940C375B
:102320006B017C01BE016C5E7F4F40E2C6010E94E2
:10233000F612BE016A5E7F4F40E0C7010E94F612AE
:10234000CDB7DEB7E8E00C949F3A8F929F92AF92A0
:10235000BF92CF92DF92EF92FF92FC01808091803A
:10236000A280B380C501B40121E23BE841EE51E017
:102370000E9420376055764282429E4F0E9450361E
:1023800021EB37E449E95AE40E94A6350E949739C7
:102390006B017C01C501B4012DE335E841EE51E04C
:1023A0000E942037DC01CB01805C9D43A34FBF4FCF
:1023B000BC01CD01660F771F881F991F0E94503600
:1023C00021ED35E449E95AE40E94A6354B015C0150
:1023D0002FED33EE48E05DE3C701B6010E942A39D4
:1023E000A50194010E9405380E9497392DEC3CE02C
:1023F00044E154E40E942A394B015C012DEC3CEC91
:1024000045EE53E4C701B6010E942A399B01AC0195
:10241000C501B4010E9405380E9418368827992703
:10242000861B970BFF90EF90DF90CF90BF90AF90FF
:102430009F908F900895A8E0B0E0E1E2F2E10C9463
:10244000833A8B01FC01608171818281938120E854
:1024500031E541E050E00E94203769017A012CE328
:1024600030E040E050E00E94423729833A834B83BA
:102470005C8389819A81AB81BC81F80160836CE3C4
:1024800070E00E940C37DC01CB01F801A18382834C
:10249000C601069667E070E00E94F83684832DEA54
:1024A0003EE840E050E0C701B6010E944237298370
:1024B0003A836D837E838F83988789819A8124E60E
:1024C000289F6001299FD00C11246D817E818F810E
:1024D000988525EB35E040E050E00E9442372983A3
:1024E0003A836D837E83E980FA80EE0CFF1CEE0C4C
:1024F000FF1CEC0CFD1C8D819E81F5E6EF16F104AE
:1025000010F0019604C024E6E216F10419F021E06F
:1025100030E002C020E030E0A90144595E4F481786
:10252000590768F46DE671E0821B930B0E940C372B
:10253000DC01CB01E80EF91ECD0120E030E044E6DD
:10254000E40EF11CF801F782E68291878087255C12
:102550003F4F8217930748F46FE170E00E940C37F9
:10256000DC01CB01F801858322C069E970E0821BA0
:10257000930B0E940C37DC01CB01F82EFF0CFF0CF3
:10258000F80E6DE370E0CD010E940C37DC01CB0149
:10259000E82EEE0C6FE170E0CD010E940C37DC01FB
:1025A000CB0122E0280FF20EFE0CF801F582A38386
:1025B000F8011386128683818F5F83832896E8E073
:1025C0000C949F3A9C0123703327232B59F464E623
:1025D00070E00E940C37892B39F46370772781E013
:1025E000672B19F080E0089581E008951F93CF9341
:1025F000DF93EB01142F6AE070E00E940C37605DFE
:102600006883805D89831A83DF91CF911F9108953C
:102610002A988F778EBD0DB407FEFDCF8EB56EBDA7
:102620000DB407FEFDCF8EB52A9A08952A988068CA
:102630008EBD0DB407FEFDCF8EB51EBC0DB407FEDA
:10264000FDCF8EB52A9A08952A9880688EBD0DB464
:1026500007FEFDCF8EB5FB01415038F01EBC0DB416
:1026600007FEFDCF8EB58193F7CF2A9A0895CF93B9
:10267000229A2A9A84B1886284B980E58CBD8DB58E
:1026800081608DBD80ED0E941613803631F566EBBA
:1026900080EE0E94081383EF0E941613C82FC170AA
:1026A00080FDF9CF48E16DEB73E088E80E942413C8
:1026B00041E065ED73E081EA0E94241347E066ED96
:1026C00073E081EE0E94241361E082EF0E94081300
:1026D00064E284EF0E94081301C0C1E08C2FCF9107
:1026E00008952F923F924F925F926F927F928F92B6
:1026F0009F92AF92BF92CF92DF92EF92FF920F9391
:102700001F93CF93DF93CDB7DEB728970FB6F8941A
:10271000DEBF0FBECDBF7C011B018A0165E284EFE5
:102720000E94081383EF0E94161383FDFBCF48E03D
:10273000BE016F5F7F4F87EF0E942413E091BD03BE
:10274000F091BE034F01A12CB12C2C81822F90E07F
:10275000A0E0B0E0AC01BD01ACE0440F551F661F26
:10276000771FAA95D1F78E8182958F70482B8D8126
:1027700020E1829FC0011124A0E0B0E0842B952BC2
:10278000A62BB72BAC01BD01B3E0759567955795A6
:102790004795BA95D1F7D501C401880F991FAA1F93
:1027A000BB1F9A01AB01281B390B4A0B5B0BA09195
:1027B000BF03B091C0030E9482372B013C01BF01CF
:1027C00034E0769567953A95E1F7CB01A0E0B0E06B
:1027D000BC01CD01681979098A099B099B01AC01EB
:1027E0000E94DC369B01AC016CE05595479537950E
:1027F00027956A95D1F7A091C103B091C2030E94B9
:102800008237EBE07594679457944794EA95D1F733
:10281000DC01CB01FEE0B595A79597958795FA95D4
:10282000D1F7480E591E6A1E7B1E4092DD0350925E
:10283000DE036092DF037092E003A5E0B0E0A30145
:1028400092010E947737DC01CB0180589F4FAF4F38
:10285000BF4F892F9A2FAB2FBB27A7FDBA95F70142
:1028600091838083759467945794479473016201B0
:10287000FAEFDF1AE108F108C701B60142E09595C9
:102880008795779567954A95D1F79B01AC010E9492
:10289000DC362B013C01A091C703B091C8039B011A
:1028A000AC016DE055954795379527956A95D1F719
:1028B0000E9482374B015C0173E0B594A794979412
:1028C00087947A95D1F7A091C503B091C603A7016B
:1028D00096010E948237DC01CB01B595A7959795AB
:1028E0008795880D991DAA1DBB1DF2E1B595A79589
:1028F00097958795FA95D1F79C01AD0130584F4FC8
:102900005F4FA091C303B091C4030E9477374B017E
:102910005C01AFE0B594A79497948794AA95D1F7FA
:1029200081149104A104B10409F4DAC0A301920155
:102930006BE055954795379527956A95D1F7A09106
:10294000CD03B091CE030E9482372B013C01A091B0
:10295000CB03B091CC03A70196010E948237DC0122
:10296000CB01880F991FAA1FBB1F840D951DA61DA3
:10297000B71D6C017D01E2E0F594E794D794C7940C
:10298000EA95D1F7498150E060E070E0FCE0440F47
:10299000551F661F771FFA95D1F78B8182958F702F
:1029A000482B8A8120E1829FC0011124A0E0B0E081
:1029B000482B592B6A2B7B2B8091C9039091CA031A
:1029C000092E000CAA0BBB0BDC01992788278C0D64
:1029D0009D1DAE1DBF1D3CE0B595A79597958795AC
:1029E0003A95D1F79A01AB01280F391F4A1F5B1F97
:1029F000ABECB3EF0E948537805B9C4397FD0BC027
:102A0000660F771F881F991FA50194010E94203728
:102A100069017A010AC0A50194010E942037690169
:102A20007A01CC0CDD1CEE1CFF1CC701B60133E0A3
:102A300096958795779567953A95D1F79B01AC0167
:102A40000E94DC369B01AC016DE0569547953795A9
:102A500027956A95D1F7A091D303B091D4030E9432
:102A600082372B013C017CE075946794579447941E
:102A70007A95D1F7A7019601E2E0569547953795EB
:102A80002795EA95D1F7A091D103B091D2030E9486
:102A90008237DC01CB01FDE0B595A7959795879529
:102AA000FA95D1F7B301A201480F591F6A1F7B1F86
:102AB0008091CF039091D003092E000CAA0BBB0B81
:102AC000840F951FA61FB71F24E0B595A79597956E
:102AD00087952A95D1F7C80ED91EEA1EFB1E03C0A2
:102AE000C12CD12C7601F101C082D182E282F38225
:102AF0008091D9033091DA032091DB038090DD03CC
:102B00009090DE03A090DF03B090E003FCE29F1AF8
:102B1000F1E0AF0AB108CF80D884DC24CD24DC24D6
:102B2000E12CF12C4EE0CC0CDD1CEE1CFF1C4A9578
:102B3000D1F740E18402C0011124432F4F70842B50
:102B4000092E000CAA0BBB0B54E1880F991FAA1F7A
:102B5000BB1F5A95D1F7C81AD90AEA0AFB0A50E1F5
:102B60002502D001112432953F70A32BA5019401B9
:102B70000E948237C61AD70AE80AF90A80E4D80EFA
:102B8000E11CF11C6FE0F594E794D794C7946A9523
:102B9000D1F7A091D803B0E00E9477372B013C0118
:102BA0007BE075946794579447947A95D1F790E8B1
:102BB000590E611C711CA091DC030A2E000CBB0B8A
:102BC0000E948237EAE09595879577956795EA9513
:102BD000D1F7A30192010E94DC36DC01CB01FAE0BF
:102BE000B595A79597958795FA95D1F79C01AD0175
:102BF000405E5F4FA091D603B091D7030E94823709
:102C0000DC01CB01905EAF4FBF4F9C01AD01AEE048
:102C10005595479537952795AA95D1F7C701B601E0
:102C20000E94DC366B017C01BFE095958795779516
:102C30006795BA95D1F79B01AC010E94DC369B01E8
:102C4000AC0187E055954795379527958A95D1F73B
:102C5000A091D503B0E00E947737DC01CB0124E0DE
:102C6000B595A795979587952A95D1F7A7019601D0
:102C7000281B390B4A0B5B0BDA01C90157FF03C054
:102C800080E090E0DC0181309105A10539E1B307D6
:102C900024F080E090E0A0E0B9E12CE0B595A795A4
:102CA000979587952A95D1F7F80180839183A28320
:102CB000B38328960FB6F894DEBF0FBECDBFDF9169
:102CC000CF911F910F91FF90EF90DF90CF90BF9029
:102CD000AF909F908F907F906F905F904F903F90BC
:102CE0002F900895FC019081990F9056292F220F63
:102CF000220F920F218180ED820F890F08958F920C
:102D00009F92AF92BF92CF92DF92EF92FF920F937A
:102D10001F93CF93DF938EE394E00E948A376B0179
:102D20007C01AEE3B4E02D91822F90E0C0970A972A
:102D3000D0F32E32E1F4FD0188EE93E0C0E0D0E064
:102D40000AE010E0219130E0205331092A303105AA
:102D500080F4289FA001299F500D389F500D112409
:102D6000C40FD51FB8010E94F836CB01EBCFC0E0ED
:102D7000D0E0C701B60124E630E040E050E00E9418
:102D800042374B015C0160E47EE785E090E00E9401
:102D9000DC366B017C01A0E7B7E1A50194010E943C
:102DA000773797018601060F171F281F391F46E046
:102DB0004C9FC0014D9F900D11246AE070E00E946D
:102DC000F83668017901C60ED71EE11CF11CC70157
:102DD000B601DF91CF911F910F91FF90EF90DF909F
:102DE000CF90BF90AF909F908F900895CF92DF9239
:102DF000EF92FF920F931F938EE394E00E948A3725
:102E00009B01AC01A4E6B0E00E9477378B019C01E6
:102E100097FF03C0EFE3F4E002C0EEE3F4E0CF017C
:102E20006191462F50E0405351094A305105B8F3A3
:102E30006E3299F4FC0131968AE040E05AE06191EB
:102E400070E0605371096A30710540F4869F400D4F
:102E50001124652F0E94EC36F2CF40E0842F90E0E1
:102E6000A0E0B0E037FF09C068017901C81AD90AAB
:102E7000EA0AFB0AC701B60106C0BC01CD01600F1A
:102E8000711F821F931F1F910F91FF90EF90DF9092
:102E9000CF900895CF93DF938432A9F0E091200181
:102EA000853230F48A30D1F08D3009F050C116C02F
:102EB0008A32A1F08C3209F04AC1909123019827FF
:102EC000909323010BC010922001109221011092C7
:102ED0002201109223011092FE034CC1C82FF0E092
:102EE000E25CFB4F1082D0912101D11116C068ED38
:102EF00070E08EE394E00E94C537892B19F480E2DC
:102F00008093220162ED70E08EE394E00E94C53769
:102F1000892B19F480E680932201809122018F3F52
:102F200009F580913E048062813610F0875501C01A
:102F3000805320E1829FC001112420913F04206230
:102F4000213610F0275501C02053820F911D20918A
:102F5000230130E08217930711F01092FE03809155
:102F6000FE03EAC0882309F4E6C02D2F30E0280FC5
:102F7000311D2832310509F4B4C0A4F424323105DE
:102F800009F479C04CF42232310509F44CC02332E3
:102F9000310509F453C0CFC026323105D9F10CF404
:102FA00075C091C02236310579F1DCF42932310542
:102FB00009F4B7C02136310509F0BDC08EE394E0B5
:102FC0000E9472168093F40380E494E00E947216CB
:102FD0008093F30382E494E00E9472168093F203DC
:102FE000AAC02836310509F475C02936310509F41F
:102FF0007FC02736310509F09EC00E94F6167093F7
:10300000E7036093E60397C081E090913E0491341A
:1030100031F406C081E090913E04913308F480E0E1
:103020008093FE0388C00E947F166093E80370932C
:10303000E9038093EA039093EB037DC080913E0403
:10304000833509F078C08091E8039091E903A0915D
:10305000EA03B091EB03B095A095909581959F4FB1
:10306000AF4FBF4F8093E8039093E903A093EA0327
:10307000B093EB0360C00E947F166093EC037093E3
:10308000ED038093EE039093EF0355C080913E04CF
:10309000873509F050C08091EC039091ED03A09129
:1030A000EE03B091EF03B095A095909581959F4F59
:1030B000AF4FBF4F8093EC039093ED03A093EE03CB
:1030C000B093EF0338C08EE394E00E948A37609398
:1030D000E50331C00E94F6167093F1036093F0038C
:1030E0002AC00E94F616709300046093FF0323C069
:1030F0008EE394E00E9472168093F50380E494E0DE
:103100000E94721681508093F70382E494E00E943B
:10311000721690E08C599F4F9093F9038093F803B7
:103120000AC00E94F6166093E1037093E203809355
:10313000E3039093E40380E0CA3219F49FEF909385
:10314000220110922001DF5FD093210114C0EE30E4
:1031500040F491E09E0F90932001F0E0E25CFB4F81
:103160008083909122019F3F29F09091230189272C
:103170008093230180E0DF91CF9108955E985F985E
:103180008EBD00C000C000C000C000C000C000C0B4
:1031900000C000005E9A5F9A08955E985F988EBDA9
:1031A00000C000C000C000C000C000C000C000C01F
:1031B00000005E9A08955F988EBD00C000C000C0F8
:1031C00000C000C000C000C000C000005F9A0895A9
:1031D0001EBC00C000C000C000C000C000C000C0D5
:1031E00000C000000DB407FEFDCF8EB50895EF922C
:1031F000FF920F931F93CF93DF935C9A8AB1806DF8
:103200008AB984B1886284B980E58CBD8DB581604E
:103210008DBD5F9A5C9887E99AE30197F1F700C04A
:1032200000005C9A9FEFE4E6F4E09150E040F0404B
:10323000E1F700C0000081E00E94BE1887E99AE330
:103240000197F1F700C00000EEEDF0E0CF0101962C
:1032500024910FEF020F2223B9F0EF012296FC0117
:1032600084910E94BE18102F7E01112349F0F701AE
:1032700084910E94DB181150C70101967C01F5CFA3
:10328000FE01E00FF11DE2CF81E10E94BE18E7E9E7
:10329000FAE33197F1F700C0000089E2DF91CF91A6
:1032A0001F910F91FF90EF900C94BE180E94CD18C3
:1032B0000E94E8185F9A0895CF92DF92EF92FF92F2
:1032C0000F931F93CF93DF93D82EC92E162F072F5E
:1032D000F42EE52EE9018AE20E94CD18CEBC00C092
:1032E00000C000C000C000C000C000C000C000009E
:1032F000DEBC00C000C000C000C000C000C000C0F4
:1033000000C00000EEBC00C000C000C000C000C093
:1033100000C000C000C00000FEBC00C000C000C073
:1033200000C000C000C000C000C000008BE20E94CE
:10333000CD180EBD00C000C000C000C000C000C05D
:1033400000C000C000001EBD00C000C000C000C022
:1033500000C000C000C000C00000DEBD00C000C052
:1033600000C000C000C000C000C000C00000CEBD52
:1033700000C000C000C000C000C000C000C000C04D
:1033800000008CE20E94CD185F9ADF91CF911F91CF
:103390000F91FF90EF90DF90CF9008950F931F93C0
:1033A000CF93DF93EA01122F032F20910201309176
:1033B00003018217930708F031C02091000130917A
:1033C00001016217730708F029C0AB014C0F5D1FA4
:1033D0002417350718F4E901C61BD70B9B012150B0
:1033E00031092C0F3D1FAC010E945C195F9820979A
:1033F000A1F00EBD00C000C000C000C000C000C0F1
:1034000000C000C000001EBD00C000C000C000C061
:1034100000C000C00000219761F75F9ADF91CF9153
:103420001F910F9108950F931F93CF93DF93EA019C
:10343000122F032F2091020130910301821793076D
:1034400008F031C0409100015091010164177507E7
:1034500008F029C0AC014C0F5D1F2417350718F484
:10346000E901C81BD90BAC01415051094C0F5D1F3C
:103470009B010E945C195F982097A1F00EBD00C0CF
:1034800000C000C000C000C000C000C000C00000FC
:103490001EBD00C000C000C000C000C000C00000D1
:1034A000219761F75F9ADF91CF911F910F91089556
:1034B000EF92FF920F931F93CF93DF937A01E9016D
:1034C00040910201509103018417950708F042C012
:1034D00020910001309101016217730708F03AC092
:1034E000FC01EE0DFF1D4E175F0718F47A01E81A74
:1034F000F90AAB014C0F5D1F2417350718F4E901D9
:10350000C61BD70B9B01215031092C0F3D1FAC016D
:10351000415051094E0D5F1D0E945C195F98219723
:10352000C0F0C7010097A1F01EBD00C000C000C0E0
:1035300000C000C000C000C000C000000EBD00C040
:1035400000C000C000C000C000C00000019761F7CB
:10355000E6CF5F9ADF91CF911F910F91FF90EF908F
:1035600008950F931F932091000130910101409124
:103570000201509103018C0160E070E080E090E076
:103580000E94581A1F910F910895CF93C82F86E378
:103590000E94BE18C13039F020F0C23089F488E8AA
:1035A00004C088E402C088E20CC00E94DB1880EFEF
:1035B00090E0909303018093020180E491E00BC0BE
:1035C00088EE0E94DB1880E491E0909303018093E1
:1035D000020180EF90E09093010180930001CF9170
:1035E0000895AF92BF92CF92DF92EF92FF920F9326
:1035F0001F93CF93DF937C016B01EA01590198017E
:103600000E94131AB501615071096C0D7D1D98015E
:10361000AE01C7010E94131A9801A501B601C701A6
:103620000E94CE19CE0101979801A501B6018E0D19
:103630009F1DDF91CF911F910F91FF90EF90DF9031
:10364000CF90BF90AF900C94CE194F925F926F9233
:103650007F928F929F92AF92BF92CF92DF92EF9222
:10366000FF920F931F93CF93DF933C012B014901EE
:1036700000271127041B150BE801CC0FDD1F229634
:10368000C12CD12C7601EE0CFF1C9401A701520134
:10369000AC18BD08B501C301801B910B0E94CE1967
:1036A0009401A701B501C801860D971D0E94CE198E
:1036B000CC16DD06ACF08FEFC81AD80A83E0E80E0E
:1036C000F11CEC0EFD1E88279927801B910BC81654
:1036D000D90639F40C171D073CF0C0E0D0E001C05A
:1036E0007E010C171D074CF40F5F1F4FE801CC0F34
:1036F000DD1F2196CE0DDF1D01C0E701101611065A
:103700000CF6DF91CF911F910F91FF90EF90DF901A
:10371000CF90BF90AF909F908F907F906F905F9071
:103720004F9008952F923F924F925F926F927F92A7
:103730008F929F92AF92BF92CF92DF92EF92FF92C1
:103740000F931F93CF93DF93CDB7DEB760970FB67C
:10375000F894DEBF0FBECDBF988B8F874B015A0107
:10376000390126012617370744F4E616F7068CF4CC
:103770006B014901588B4F8706C0E216F3060CF027
:1037800008C16301C501E814F90484F03701580148
:1037900013C06701C801322F272D3B01832E922EC3
:1037A0002B2DAF84B8884F87288B06C03401AF8497
:1037B000B88847010F87188B8C149D0409F03FC00F
:1037C0002F853889A216B3066CF03F8528894F856E
:1037D00058894A155B0514F43A2D2B2DAF84B8880F
:1037E0003F87288B8A159B0544F02F853889281739
:1037F000390714F4988B8F87C5014F855889481B6A
:10380000590B4F5F5F4F9201B40160960FB6F89469
:10381000DEBF0FBECDBFDF91CF911F910F91FF9003
:10382000EF90DF90CF90BF90AF909F908F907F9060
:103830006F905F904F903F902F900C94131AA501BA
:103840002F853889421B530B5A874987A301481992
:1038500059095C874B877C01E21AF30A9601281903
:1038600039093E832D83AC014A195B0958874F8380
:10387000C601861997099E878D876C147D0431F0E7
:103880009301215031093C832B8302C07C826B82DF
:103890008401212C312C1A8219824B815C814017C2
:1038A000510794F189819A816B857C850E940C3740
:1038B000EF85F889E60FF71FC1016D817E810E94B7
:1038C0000C374F855889640F751F89819A81298526
:1038D0003A85820F931F9A8389832E0C3F1C6E17A3
:1038E0007F072CF49E2F8F2FFB01692F782F6E1BE3
:1038F0007F0BAB014F5F5F4F9201B801CF010E9478
:10390000131A0F5F1F4FC9CFC801861997092F815E
:103910003885829F3001839F700C929F700C112418
:10392000C801881999098E9D40018F9D900C9E9D1C
:10393000900C1124C016D1067CF1C3016D857E85E3
:103940000E940C37FB01EA0DFB1DC4016D817E81D5
:103950000E940C374F855889640F751F8F81988599
:10396000680E791E8E0C9F1C6E177F072CF49E2FFD
:103970008F2FFB01692F782F6E1B7F0BAB014F5FE1
:103980005F4F9201B801CF010E94131A0F5F1F4FC2
:10399000D1CF6701C80110CF60960FB6F894DEBF93
:1039A0000FBECDBFDF91CF911F910F91FF90EF9090
:1039B000DF90CF90BF90AF909F908F907F906F904F
:1039C0005F904F903F902F900895909302048093C2
:1039D0000104FC0124913196849190E0922B909304
:1039E00004048093030408952F923F924F925F92B4
:1039F0006F927F928F929F92AF92BF92CF92DF92FF
:103A0000EF92FF920F931F93CF93DF93CDB7DEB763
:103A100028970FB6F894DEBF0FBECDBF5801A09116
:103A20000104B0910204FD013296F4903196149194
:103A3000319604913196549116962090030430905B
:103A40000404C12ED12CF6013796F595E795F5952E
:103A5000E795F595E795FA83E983401BE42FF0E0BD
:103A600002E02016310498F469807A80E69DA00176
:103A7000E79D500DF69D500D1124F49EF001F59E2A
:103A8000F00D11243D016E0E7F1E00E024C0EA0FF0
:103A9000FB1FF490E12FE77019F008E00E1B01C046
:103AA00000E0FD01712C812C912C741631F0649092
:103AB000860C911C73943196F8CF69807A80689C4B
:103AC000F001699CF00D789CF00D1124E50FF11DBB
:103AD0003D016E0E7F1E8F2C912C9C828B824E2C72
:103AE000512CE0910201F0910301AC01FE9C400DCC
:103AF000511D1124E417F50708F4D2C0E09100012C
:103B0000F0910101AB011E9D400D511D1124E417E0
:103B1000F50708F4C5C02A153B0509F4C1C0998012
:103B2000988641E051E02516310409F440E03E83D7
:103B30002D83842E912C2B813C81280D391D249DB1
:103B4000F001259DF00D349DF00D1124FA83E983D9
:103B5000C80CD91CC49C9001C59C300DD49C300D60
:103B60001124AB0141505109240F351FAC014150C4
:103B700051094E0F5F1F0E945C195F98849C600181
:103B8000859CD00C949CD00C11243B2D91E0002EF0
:103B900001C0990F0A94EAF79F8381E08E2C912C43
:103BA0006D817E81AD82112309F457C020E0562D2E
:103BB0002E1509F440C0F3014E2F451B4F1508F098
:103BC00021C04491482319F44D81932F02C0462F00
:103BD000972FD4011097A1F09EBD00C000C000C077
:103BE00000C000C000C000C000C000004EBD00C04A
:103BF00000C000C000C000C000C00000119761F705
:103C00003196DACFF6013097A1F03EBD00C000C07A
:103C100000C000C000C000C000C000C00000AEBCBA
:103C200000C000C000C000C000C000C0000031974C
:103C300061F72F5FBDCF880F71F44B815C81640EFB
:103C4000751E002329F0588551505887513011F0C6
:103C500081E001C08F811150A6CF2A942328F9F06A
:103C600069807A80469CC001479C900D569C900DBF
:103C700011240097A1F0BEBC00C000C000C000C06D
:103C800000C000C000C000C00000AEBC00C000C04A
:103C900000C000C000C000C00000019761F75F9A3B
:103CA00028960FB6F894DEBF0FBECDBFDF91CF913F
:103CB0001F910F91FF90EF90DF90CF90BF90AF904A
:103CC0009F908F907F906F905F904F903F902F903C
:103CD0000895AF92BF92CF92DF92EF92FF920F932F
:103CE0001F93CF93DF935A01E901980121503109C5
:103CF000260F371FAE0141505109480F591F0E942E
:103D00005C195F980C9FC0010D9F900D1C9F900D3A
:103D10001124A0E0B0E0F501181619061A061B06DA
:103D20000CF04CC0249127FF27C0322F3F733F5F18
:103D3000C32FD0E026FD03C02C2D4D2D02C02E2D0B
:103D40004F2D2097A1F04EBD00C000C000C000C0A4
:103D500000C000C000C000C000002EBD00C000C0F8
:103D600000C000C000C000C00000219761F7831BA5
:103D70009109A109B10920C037E020FD02C0A601C8
:103D800001C0A7015EBD00C000C000C000C000C0EF
:103D900000C000C000C000004EBD00C000C000C098
:103DA00000C000C000C000C000C000002695315017
:103DB00021F70797A109B1093196AECF5F9ADF913C
:103DC000CF911F910F91FF90EF90DF90CF90BF9018
:103DD000AF9008952091020130910301821793075B
:103DE00010F0C901019790932701809326018091DB
:103DF0000001909101016817790718F0BC0161502A
:103E00007109709325016093240108952091260182
:103E100030912701FC01318320838091240190910E
:103E20002501FB019183808308959093070180937E
:103E300006017093050160930401089580930801C1
:103E40000895EF920F931F93CF9320910104309127
:103E50000204F901339644913196949160910304E0
:103E6000709104046230710548F0E82FF0E0369656
:103E7000E91BF109E20FF31FC49106C0F901329664
:103E8000C4916130710511F04F5FCF5F8A3099F4B2
:103E9000109227011092260120910801809124019F
:103EA00090912501429F800D911D11249093250131
:103EB0008093240130C0F90135962491891758F177
:103EC000482F50E030E0290F311D421753071CF5F1
:103ED000482F0091040110910501209106013091B5
:103EE00007016091240170912501E0900801809103
:103EF0002601909127010E94F41C209108018091D5
:103F0000260190912701C29F800D911D112490934D
:103F1000270180932601CF911F910F91EF90089573
:103F2000E0910104F09102043396E491809103043E
:103F300090910404019709F0EF5F80910801E89FD8
:103F4000802D112408952091010430910204F9017B
:103F5000349644913196E4918417F8F090E050E063
:103F6000BA016E0F711D86179707BCF460910304A8
:103F7000709104046230710538F0FC013696E41B40
:103F8000F50BE20FF31F02C0F9013296E491809124
:103F90000801E89F802D1124089580E008950F9373
:103FA0001F93CF93DF938C01C0E0D0E0F8018191A3
:103FB0008F01882389F00E94A31F8823B9F3C80FBB
:103FC000D11D8091030490910404019779F38091AD
:103FD0000801C80FD11DEACFCE01DF91CF911F910B
:103FE0000F9108950F931F93CF93DF938C01C0E03F
:103FF000D0E0F8018491882399F00E94A31F8823C0
:1040000061F0C80FD11D80910304909104040197C1
:1040100021F080910801C80FD11D0F5F1F4FE9CF1C
:10402000CE01DF91CF911F910F910895CF93DF9330
:10403000EC018991882319F00E94211FFACFDF91AA
:10404000CF910895CF93DF93FC018491EF012196E6
:10405000882321F00E94211FFE01F7CFDF91CF912D
:1040600008950F931F93CF93DF93EC01E091010428
:10407000F09102043396E49180910304909104043A
:10408000019709F0EF5FA0912601B09127010091FF
:1040900004011091050120910801E29FE02D1124F7
:1040A0002E2F30E0AE014A1B5B0B57FF03C051952A
:1040B000419551096091240170912501CD01CA17E4
:1040C000DB0708F4CE010E94581ADF91CF911F91AF
:1040D0000F910895FC0180819181A281B381B23C4E
:1040E00020F08058924AA149B44BBC01CD016059DF
:1040F000794A8D4E984D20E83AE349E050E00E941D
:104100002037ACE1B0E00E94773725EB35E040E0A6
:1041100050E00E9420376835734018F080E090E04E
:10412000089580E19EE00895CF93DF938091AD01E3
:1041300090E0DC0133E0AA0FBB1F3A95E1F7FD01E7
:10414000E75AFB4F20E1C0E7DEEF67EE73E042EE97
:1041500054E013861286D787C68771876087558794
:1041600044872150BC962111F4CFA05FBB4F1B9612
:104170001C921E921A9720E630EF1F963C932E93C6
:104180001E9723E0880F991F2A95E1F7FC01E85E4E
:10419000FB4F88EE93E09183808384E391E21D9648
:1041A0009C938E931C97DF91CF91089520911301DA
:1041B000213071F044E2489F9001499F300D112455
:1041C000C90164E170E00E940C37CB01805C9E4F16
:1041D0000895803418F4803238F001C08FE32FE75F
:1041E000982F990F291B01C02FE3803208F08FE12F
:1041F00090E0982F8827990F990F990F30E2239F0D
:10420000800D911D112408950F931F9381E08093D9
:10421000AA018091A7019091A8010E94B11A00E122
:1042200014E828EA30E040E451E060E270E080E029
:1042300090E00E94F11A1F910F9108950F931F9320
:10424000CF93DF9300D000D0CDB7DEB7082F0E9408
:10425000901F182FBE016F5F7F4FCE0103960E9403
:10426000061F8EEC9BE00E94E51C802F0E94211F00
:104270008091A7019091A801212F30E028503109A9
:1042800069817A81685F7F4F8C0148E050E08B81C3
:104290009C810E94581A80EB97E10E94E51C0F90C8
:1042A0000F900F900F90DF91CF911F910F91089574
:1042B000CF93C82F89E00E941E2180911301813085
:1042C00011F086E401C083E40E94211FCC2321F079
:1042D00080E2CF910C94211FCF9108950F931F93EB
:1042E0001092AA018091A7019091A8010E94B11A91
:1042F00080EB97E10E94E51C00E114E820EE30E03D
:1043000042ED50E060E070E080E090E00E94F11A41
:1043100060E070E081E090E00E94EA1E60E174E8F5
:1043200080910E0190910F010E94151F8EEA92E07C
:104330000E94222081ED90E00E94312020EE30E0AA
:104340004EE650E060E070E082ED90E00E94F11AED
:1043500060E070E083ED90E00E94EA1E81EA92E066
:104360000E9422208FE391E00E9431206091A701FA
:104370007091A80180910E0190910F010E94151F6C
:104380006FE070E087E291E00E94EA1E80E00E9408
:10439000582168E270E087E291E00E94EA1E85E21F
:1043A0000E94211F61E470E087E291E00E94EA1E12
:1043B00080911501823051F48EE992E00E94222012
:1043C00060E570E087E291E00E94EA1E80911501AD
:1043D000823039F0833041F0843049F08FE892E048
:1043E00008C08BE992E005C087E992E002C083E94A
:1043F00092E00E94222081E080931F071F910F917D
:104400000895CF92DF92EF92FF920F931F9382E075
:104410008093AA018091A7019091A8010E94B11AEE
:1044200060E570E080E090E00E94EA1E8FE592E097
:104430000E94222080E1C82E84E8D82E94E1E92E43
:10444000F12C00E010E020E030E044E150E060E0DA
:1044500070E080E090E00E94921B2FEEE22EF12CA3
:104460000FE311E02FEE30E04BE251E06BED70E036
:104470008FE391E00E94921B1F910F91FF90EF90AC
:10448000DF90CF9008958F929F92AF92BF92CF927C
:10449000DF92EF92FF920F931F93CF93DF938C01E4
:1044A000EB01FC0197FF04C0EE27FF27E81BF90B87
:1044B00041112F5FF12C8AE0C82ED12C5E01A40E91
:1044C000B11C9EE2E92E31E03F0D4E018F0C911C94
:1044D000CF01B6010E94F836805DD4018C9343135E
:1044E00004C032E03F0DD501EC92CF01B6010E942D
:1044F000F836FB01309711F0F32EE5CF3417E0F3D7
:1045000040E3832F90E0321730F4FE01E80FF91FEB
:1045100040833F5FF6CF17FF06C0FE01E80FF91F8B
:104520002DE220833F5FFE01E30FF11D1082CE01DB
:10453000DF91CF911F910F91FF90EF90DF90CF907F
:10454000BF90AF909F908F900C94CE3722E041E0C7
:104550006EE374E00E9443220C94162020E040E0B9
:104560006EE374E00E9443220C941620CF92DF92F7
:10457000EF92FF9269017A0157FD862F0E94211F59
:10458000C701B60120E43EE745E050E00E94423713
:10459000C90137FF04C088279927821B930B0E940B
:1045A000AE2289E00E941E21C701B60120E43EE749
:1045B00045E050E00E9442376B017C0120E737E183
:1045C00040E050E00E944237C90137FF04C088270D
:1045D0009927821B930B0E94AE2287E20E94211F23
:1045E000C701B60120E737E140E050E00E944237C2
:1045F000FB0177FF04C0EE27FF27E61BF70B23E044
:1046000042E06EE374E0CF010E9443220E94162034
:1046100082E2FF90EF90DF90CF900C94211F4F9299
:104620005F926F927F928F929F92AF92BF92CF9242
:10463000DF92EF92FF920F931F93CF93DF93EC01E2
:104640006B014A01422E5F2C0E94901F92E0692E5E
:10465000680EC4010E94F21F0A965C01442029F0F2
:10466000842D0E94A31FA80EB11C002311F0102F4F
:1046700001C011E020912B0730912C07712C2C17D1
:104680003D0798F080912507909126078C159D0590
:1046900060F0A5014C0F5D1F2417350730F493011E
:1046A0002C0D3D1D8217930738F01F112CC00111EE
:1046B000E12CE126512C27C060E174E88091A7012C
:1046C0009091A8010E94151F512E00910E0110918A
:1046D0000F019301A501B601CE010E94F11AB601A6
:1046E0006F5F7F4FCE0106960E94EA1ECE010196B3
:1046F0000E943120C4010E942220442069F0842DB0
:104700000E94211F09C01E11E0CF60910E0170911F
:104710000F01E12E152DD2CFCE0101978A0D9B1DE1
:104720000E9431206091A7017091A80180910E0133
:1047300090910F010E94151F8E2D952DDF91CF9125
:104740001F910F91FF90EF90DF90CF90BF90AF90AF
:104750009F908F907F906F905F904F900895FF9201
:104760000F931F93CF93DF930E94310FEC018A8147
:1047700022E040E06EE374E0082E000C990B0E94EA
:1047800043220EE314E08AE3F82EF801F2828981D5
:1047900022E040E061E474E0082E000C990B0E94D6
:1047A0004322F801F582888122E040E064E474E06D
:1047B000082E000C990B0E944322C801DF91CF9173
:1047C0001F910F91FF900C941620EF92FF920F9380
:1047D0001F93CF93DF938C017B01EA01C90122E093
:1047E00041E06EE374E00E944322C00FD11F8EE3CC
:1047F00094E00E94CF1FB7019E01281B390BC9010D
:104800000E94EA1EC8010E9431208EE394E0DF91ED
:10481000CF911F910F91FF90EF900C941620209153
:10482000170180910E0190910F01233029F42091FE
:10483000A901211110C002C0223069F40196C9F00B
:104840008FEF9FEF90930F0180930E011092A801BC
:104850001092A7010CC0892B61F010920F011092E9
:104860000E018FEF9FEF9093A8018093A70181E045
:10487000089580E008950F931F93CF93DF938C01E9
:10488000EB01CA01B90120911501223061F40E94A7
:10489000503621EB30E545E551E40E94A6350E94F3
:1048A0001836CB0112C0233039F40E94503622EA68
:1048B00034E747E052E412C0243051F02AE030E0FF
:1048C00040E050E00E944237C90122E041E00DC0C3
:1048D0000E94503626E53EEE49E852E40E94A63595
:1048E0000E941836CB0123E042E06EE374E00E94A0
:1048F0004322209749F08EE394E00E94CF1F9E014F
:10490000281B390BC90102C080E090E0B8018D522C
:104910009F4F0E94EA1ECD2B21F083ED90E00E9474
:1049200031208EE394E0DF91CF911F910F910C9491
:1049300016201F920F920FB60F9211242F933F93C0
:104940004F935F936F937F938F939F93AF93BF9397
:10495000EF93FF938091AB019091AC0101969093FE
:10496000AC018093AB018091A5019091A6010196C5
:10497000883E23E0920729F09093A6018093A50139
:1049800039C01092A6011092A5010E940B11E9E511
:10499000F4E081819281019692838183BC9687E0C5
:1049A000E931F807B1F790911E0781E098279093BD
:1049B0001E0780931B079091A4019F5F9C3319F001
:1049C0009093A40117C01092A4012091A2013091EC
:1049D000A3012F5F3F4F3093A3012093A201809347
:1049E0001C072836314031F41092A3011092A20125
:1049F00080931D07FF91EF91BF91AF919F918F9190
:104A00007F916F915F914F913F912F910F900FBECA
:104A10000F901F901895CF93DF93CDB7DEB7AC976B
:104A20000FB6F894DEBF0FBECDBF83E284BD82E037
:104A300085BD9FE798BD559A8093B00094E0909310
:104A4000B1009AEB9093B3008093700080E792E0FE
:104A50000E94C43389ED92E00E9418340E94F71836
:104A60008FE00E945619803C21F083ED92E00E9475
:104A70001834809110010E94C51A0E943B340E9494
:104A80006E218AEC92E00E9418340E94371388232A
:104A900021F084EC92E00E9418340E947F3280E67C
:104AA00080937C0087E880937A000E94942060E1E4
:104AB0007EE080E090E00E9447108AE690E20E944B
:104AC000251001E814E0F0E0CF2EF0E0DF2EF12C0D
:104AD000A3E2EA2E44E050E0B601C8010E943B3A4E
:104AE000D8018C918F3F59F4EC92B9E0BF1510F0CA
:104AF00080E301C087E38F0DF80181831282F39474
:104B0000045D1F4FF4E0CF0ED11C20E1F212E2CF82
:104B10001EA219A218A21FA23FEF398F4091AB012C
:104B20005091AC0159A748A74A992BC08091AA017E
:104B3000811127C081E090911901911101C080E09D
:104B400080933C0480911701809322078091130188
:104B500080932007809115018093210788B5809369
:104B6000580420912D0730912E07809127079091AE
:104B700028072817390719F00E94042102C00E9453
:104B80000122609110018FEF0E94933480911901EE
:104B9000882399F080917C00807F826080937C00E4
:104BA00080917A00806480937A0080917A0086FDFB
:104BB000FCCF80917900809588BD8091AA018130D9
:104BC00009F046C410910C0182E00E941E1FE09083
:104BD0000C01F0900D0101E020E048E552E060E0BA
:104BE00070E080E090E00E940F2390930D0180938D
:104BF0000C017C0102E020E044E552E060E070E05E
:104C000080E690E00E940F2390930D0180930C01A9
:104C10007C0103E020E040E552E060E070E080EAE3
:104C200090E00E940F2390930D0180930C017C0172
:104C300004E020E04AE452E060E070E080EE90E0C2
:104C40000E940F2380930C0190930D01181771F0AF
:104C50000091A7011091A80126EA30E04EE351E04F
:104C600061E270E081E090E00E94581A80910C01AE
:104C7000813009F0E8C00E941E1F65E270E08AE002
:104C800090E00E94EA1E8CE292E00E9422206EE3F5
:104C900070E08AE090E00E94EA1E8091110187FD99
:104CA00003C08BE20E94211F80911101082E000C8D
:104CB000990B0E94AE2287E290E00E9431206BE5C2
:104CC00070E08AE090E00E94EA1E80E292E00E949A
:104CD000222061E970E08AE090E00E94EA1E87E10C
:104CE00092E00E94222082E00E941E1FE0909A0122
:104CF000F0909B0100E020E045E152E066E370E0C7
:104D000088E290E00E940F2380939A0190939B0188
:104D1000882349F080911101853F1CF081508093D8
:104D2000110110929A01E0909801F090990100E031
:104D300020E043E152E066E370E08BE390E00E9404
:104D40000F238093980190939901882349F08091D3
:104D500011018C301CF48F5F809311011092980127
:104D6000E0901B01F0901C0100E020E04FE052E0D9
:104D700066E370E08FE590E00E940F2390931C01A2
:104D800080931B01E0901301F090140101E020E0FA
:104D900047E052E06CE670E08AE090E00E940F236A
:104DA00090931401809313017C0102E020E04CEF0A
:104DB00051E06CE670E086E790E00E940F2390934C
:104DC000140180931301E0901501F090160101E0A9
:104DD00020E048EF51E062EA70E08AE090E00E9453
:104DE0000F2390931601809315017C0102E020E0CF
:104DF00043EF51E062EA70E08CE490E00E940F2300
:104E000090931601809315017C0103E020E04FEEA2
:104E100051E062EA70E08CEA90E00E940F239093E8
:104E20001601809315017C0104E020E04BEE51E077
:104E300062EA70E08CEE90E00E940F2390931601DE
:104E40008093150184C2823009F036C181E00E944E
:104E50001E1F65E270E08AE090E00E94EA1E80EE8C
:104E600091E00E94222088B554E6859FC00111245C
:104E70006FEF70E00E94F836CB010E94AE2285E20F
:104E80000E94211F87E790E00E9431206BE570E0CF
:104E90008AE090E00E94EA1E8AED91E00E942220C2
:104EA00061E970E08AE090E00E94EA1E8EEC91E0F9
:104EB0000E94222082E00E941E1FE8B4F12C0E9472
:104EC000901F8E5FA090A701B090A80160912B0762
:104ED00070912C07C82ED12C6A30710528F1809171
:104EE00025079091260786339105F0F0623D710504
:104EF000D8F496012A5C3F4F82179307A8F4CB01A0
:104F0000A0E0B0E00A97A109B1096627782F892FA0
:104F10009A2F28EC30E040E050E00E9442377901BF
:104F2000E0E1AE2EE4E8BE2E00910E0110910F01DB
:104F3000960148EC50E066E370E08AE090E00E9461
:104F4000F11A22EB30E0D7010E9470372FEF30E0EA
:104F500040E050E00E94423729013A0162E0C61A5F
:104F6000D10885019601A20167E370E08BE090E033
:104F70000E94581A00910E0110910F01C2010B9668
:104F8000960144E150E067E370E00E94581A42EB5A
:104F900050E044195509C2014F968501960167E317
:104FA00070E00E94581AE8BCE0901901F0901A01D4
:104FB00000E020E049EC51E066E370E08CED90E029
:104FC0000E940F2390931A0180931901E09017011A
:104FD000F090180101E020E043EC51E06CE670E055
:104FE0008AE090E00E940F239093180180931701AC
:104FF0007C0102E020E04EEB51E06CE670E08FE5D2
:1050000090E00E940F2390931801809317017C0178
:1050100003E020E049EB51E06CE670E08FEA90E0BD
:105020000E940F2390931801809317010E940F2470
:1050300081110E940421E0900A01F0900B0100E030
:1050400020E044EB51E062EA70E08AE090E00E94E8
:105050000F2380930A0190930B01882359F08091CC
:105060001001813039F483E0809310010E94C51A49
:105070000E94042180910A0181110BC080911001CE
:10508000833039F481E0809310010E94C51A0E9498
:105090000421E090A001F090A10100E020E040E4B4
:1050A00052E062EA70E08BE490E00E940F2390935C
:1050B000A1018093A0014BC1833009F079C081E048
:1050C0000E941E1F65E270E08AE090E00E94EA1EE6
:1050D0008AEA91E00E9422208091190790911A0794
:1050E0000E94AE228DE60E94211F87E790E00E9479
:1050F000312064E370E08AE090E00E94EA1E209193
:10510000E8033091E9034091EA035091EB0363E532
:105110008EE40E94B62287E790E00E94312063E48B
:1051200070E08AE090E00E94EA1E2091EC0330914A
:10513000ED034091EE035091EF0367E585E40E9493
:10514000B62287E790E00E94312062E570E08AE0B5
:1051500090E00E94EA1E82EF93E00E947A0F69833A
:105160007A838B839C836EE374E0CE0101960E9468
:10517000AF0E8EE394E00E94162080EC90E00E9437
:10518000312061E670E08AE090E00E94EA1E8EE93C
:1051900091E00E9422208091E50390E00E94AE22DF
:1051A00087E790E00E94312082E00E941E1FCFC05E
:1051B00081E00E941E1F6FE270E08AE090E00E9492
:1051C000EA1E8EE891E00E9422208091970190E0F3
:1051D0000E94AE228BE891E00E94222080919701EC
:1051E0007CE2879FC00111248F579B4F0E9416209D
:1051F00080911E07882319F08FE50E94211F84EB00
:1052000090E00E9431208EEC9BE00E94E51C82E041
:105210000E941E1FA09197018CE2A89FD00111242B
:10522000AF57BB4FFD0101900020E9F731976F01A7
:10523000CA1ADB0A4C2C43E0842E912C50E5652ED3
:10524000712CDD246CE2562E20918301872D90E095
:10525000FC01222319F0E85FF94F02C0E05DF94F2D
:105260001491112309F46FC0880F991FDC01A75B0B
:10527000BE4F5D01ED90FC90662D70E000E0212FA7
:105280004AE851E0C4010E940F23F5019183808315
:10529000882309F443C01E3109F440C010821092E3
:1052A0008301183131F4809197018823C9F081502E
:1052B00007C0193141F4809197018F3088F48F5FD6
:1052C000809397010DC01B3159F480919701F6012D
:1052D000589EE00DF11D1124E75AFB4F17A21EC086
:1052E000E2E0E415D8F06091970170E0569EC001AD
:1052F000579E900D1124FC01E75AFB4FEC0DFD1D4C
:1053000010A711A6660F771F660F771F60507040B9
:1053100044E050E08F579B4F0E94513AF0E28F0ECD
:10532000911C00E3801601E0900628F016E1610E62
:1053300003E0802E912C739424E1721285CF30E12A
:10534000830E911C81CF80EB97E10E94E51CE090D9
:105350009E01F0909F0100E020E04DE352E06CECF4
:1053600070E080E590E00E940F2390939F0180936E
:105370009E01E0909C01F0909D0120E046E352E008
:105380006CEC70E086E990E00E940F2390939D0101
:1053900080939C0181E00E941E1F8091A0018823C0
:1053A00021F01092A0010E94012280919E01882389
:1053B00041F110929E018091110180931201809120
:1053C0001B0191E0811101C090E090931D018111BA
:1053D00003C080E090E002C08AE690E20E942510BF
:1053E0004091120120E13EE04203B001439F700D65
:1053F0001124072E000C880B990B0E9447100E9465
:105400006E2180919C01882309F497C710929C011A
:10541000809112018093110180911D0180931B01E5
:105420008091580488BD80913C048093190180913B
:1054300020078093130180912107809315018091AB
:105440002207809317010E940F240E946E2175C7C6
:10545000823009F05BC060912507709126072FE12B
:1054600030E043E050E080912B0790912C070E94A0
:10547000251B82E00E941E1FE0904701F09048012A
:1054800000E020E044E851E068E870E088EC90E05B
:105490000E940F239093480180934701E0904501BB
:1054A000F090460120E04FE751E068E870E08CE3BF
:1054B00090E00E940F23909346018093450181E084
:1054C0000E941E1F809147018823B1F0109247016E
:1054D0008FEF9FEF90932A078093290790932407DB
:1054E00080932307909328078093270790932E0794
:1054F00080932D070E94012280914501882309F4A1
:105500001CC7109245010E94042117C780911B07F8
:10551000882309F412C710921B07188E1F8A8091E6
:105520001D07882399F010921D078091AD0190E02E
:105530000196837099278093AD0180911E0184307C
:1055400018F48F5F80931E010E949420AE01435F88
:105550005F4FBE016F5E7F4FCE0147960E94711371
:105560002D853E854F855889AAE0B0E00E947737A7
:105570006B017C011AE0F694E794D794C7941A95CE
:10558000D1F7CD86DE86EF86F88A2F89388D2036D2
:1055900040EF3407DCF2E091AD01F0E0CF01B3E081
:1055A000880F991FBA95E1F7DC01A05FBB4F1A96EF
:1055B0004D915C911B9760E070E04C155D056E05A8
:1055C0007F0520F41B96DC92CE921A97A3E0EE0F93
:1055D000FF1FAA95E1F7E85EFB4F4081518160E033
:1055E00070E0C416D506E606F70610F4D182C08234
:1055F000FC01E05FFB4F468557854217530714F4C3
:1056000037872687FC01E05FFB4F84859585281747
:10561000390714F4358724876091180470911904B0
:105620007B8F6A8F20901A0430901B04A0901C047A
:10563000B0901D0460901E0470901F0490911E0194
:10564000E0E1F4E081E038968917E8F422853385BB
:105650002216330608F4190120853185AA8DBB8DE9
:105660002A173B0710F43B8F2A8F26853785621651
:1056700073060CF43901248535852A153B050CF495
:1056800059018F5FE0CF80911C07882309F425C161
:1056900010921C0710914401812F65E00E94EC36A6
:1056A000B4E09B9FF0011124E05DFE4F89899A8947
:1056B000AB89BC8980839183A283B383E0E3F1E06B
:1056C00024E431E060E070E0CB01C190D190E19042
:1056D000F1906C0D7D1D8E1D9F1D2E173F07A9F7A4
:1056E00025E030E040E050E00E942037DA01C901B7
:1056F0001F5F153B18F41093440103C026E020936C
:10570000440120914401253049F480932C01909369
:105710002D01A0932E01B0932F01DCC02332C1F4E0
:1057200000912C0110912D0120912E0130912F011B
:10573000801B910BA20BB30B20910901BC01CD0181
:10574000660F771F881F991F222309F459C014C0C0
:105750002C33D9F400912C0110912D0120912E01B0
:1057600030912F01BC01CD01601B710B820B930B9B
:10577000209109012223F9F160930C0470930D0428
:1057800080930E0490930F04A5C02F35C1F40091AF
:105790002C0110912D0120912E0130912F01801BA1
:1057A000910BA20BB30B20910901BC01CD01660F37
:1057B000771F881F991F222309F43FC021C0283773
:1057C00021F58093280190932901A0932A01B09399
:1057D0002B0100912C0110912D0120912E0130916F
:1057E0002F01BC01CD01601B710B820B930B20912B
:1057F0000901222329F022E030E040E050E026C0F9
:1058000023E030E040E050E021C02B3951F5009119
:105810002C0110912D0120912E0130912F01801B20
:10582000910BA20BB30B20910901BC01CD01660FB6
:10583000771F881F991F222329F025E030E040E0E0
:1058400050E004C027E030E040E050E00E944237E2
:1058500020930C0430930D0440930E0450930F04D6
:1058600039C0243BB9F500912C0110912D012091F4
:105870002E0130912F01BC01CD01601B710B820BF9
:10588000930B20910901222329F023E030E040E02E
:1058900050E004C024E030E040E050E00E94423795
:1058A00020930C0430930D0440930E0450930F0486
:1058B0008091280190912901A0912A01B0912B019A
:1058C00080932C0190932D01A0932E01B0932F0172
:1058D0001092090181E080931F07CE0109960E9472
:1058E000F81080911F07882309F4C1C110921F0787
:1058F000CE0109960E94310FFC0115818F89988D88
:1059000064E670E00E940C37E0911907F0911A07E5
:1059100000E460027001112489899A89AB89BC89ED
:1059200022273327A901281B390B4A0B5B0BDF0108
:10593000A058B14CAE0DBF1D0E9482379F01205868
:105940003E432E193F09032E000C440B550B0E94B9
:105950004237DA01C901C0900C04D0900D04E090E8
:105960000E04F0900F046AE1C616D104E104F104BC
:105970007CF1145061E0163008F060E070913D0455
:10598000761306C0DA01C901805C9E4FAF4FBF4F4E
:1059900044EE52E961E070E08A019B01081B190B9B
:1059A0002A0B3B0BC901B8012EE332E040E050E086
:1059B0000E944237E22F27FD04C02E301CF0EDE09C
:1059C00001C0E0E00E2E000CFF0BE250FD4F53C073
:1059D00067EEC6166FEFD606E606F6067CF514509F
:1059E00061E0163008F060E070913D04761306C067
:1059F000DA01C90180549140A109B10943E552E996
:105A000061E070E08A019B01081B190B2A0B3B0B1C
:105A1000C901B8012CE832E040E050E00E94423772
:105A2000E22F27FD04C02A301CF0E9E001C0E0E0CD
:105A30000E2E000CFF0BEC50FD4F1DC089EA92E9C1
:105A4000A1E0B0E0BC01CD01621B730B840B950B90
:105A500020EB31E040E050E00E944237E22F27FD8A
:105A600004C021311CF0E0E101C0E0E00E2E000C8A
:105A7000FF0BED51FD4F549012E4151550F080913D
:105A8000A901811103C081EB9AE025C081E29BE06E
:105A900022C024E4251550F08091A901811103C092
:105AA0008AE599E018C082EF99E015C03EE435150B
:105AB00050F08091A901811103C086EB97E00BC0E3
:105AC00086E798E008C048E5451518F08BE097E0B8
:105AD00002C088E596E09E8B8D8BC090A701D09088
