:100000000C94990E0C94B60E0C94B60E0C94B60E7D
:100010000C94B60E0C94B60E0C94B60E0C94A6244A
:100020000C94B60E0C94B60E0C941F330C948833BB
:100030000C944A330C94B60E0C94B60E0C94B60E77
:100040000C94B60E0C94B60E0C94CD330C94023472
:100050000C94B60E0C94B60E0C94B60E0C94B60E10
:100060000C94B60E0C94B60E072C7AA5BA6CC590FB
:10007000DA3B9365FC8BBC53F810FD3C5692834DE4
:10008000BD879D3AB63DCBC9BF5BBE73DA0FC93F92
:1000900005A84CCDB2D44EB93836A9020C50B9914E
:1000A0008688083CA6AAAA2ABE000000803F0664F3
:1000B000EC1B3C04BC163E3BE5B93CC93C37C29E38
:1000C0005A3D660498083EEA69AAAA3E00000080EC
:1000D0003F004750524D430047504747410004EF0F
:1000E00003800204CF00C13005ED6403128104E8EF
:1000F00085007806CB392C00340202F72003EA0091
:100100000002C02302C11003C53E2802C786023682
:1001100048023A5503B1001804B608822702F200DB
:1001200002260110E00F312B0C0E084EF13707109C
:10013000030E090010E1000E1403110731C1480835
:100140000F0C31360F0020435243206572726F72DC
:1001500000204E6F20726573706F6E7365002068AB
:1001600050612F687200207073692F68720020221E
:1001700048672F687200206D6D48672F68720044D1
:100180006F6E6500526573657400003A2000526519
:100190006D6F74652073746174696F6E20005261B5
:1001A000696E626F7700536174656C6C6974657316
:1001B0002000416C746974756465200047505300D9
:1001C00044696769747300466C6970004175746FA7
:1001D000004461726B004C69676874004175746F0C
:1001E00000546F75636873637265656E005468656B
:1001F0006D65004261636B6C6967687420007073A1
:100200006900224867006D6D4867006850610046CC
:10021000616872656E686569740043656C736975C1
:100220007300445354002B002D0050726573737596
:1002300072650054656D7065726174757265005405
:10024000696D65207A6F6E650043616E63656C0051
:100250004F6B0043616C696272617465004E616D41
:10026000657300457463004C434400436F6E6669D8
:1002700067005573652070656E20746F20746F750C
:10028000636820636F726E657273206F662073639C
:100290007265656E20746F2063616C69627261744F
:1002A0006500685061007073690022486700486704
:1002B000006D6D00426173652073746174696F6EC7
:1002C0000052656D6F74652073746174696F6E732D
:1002D000006D73006D7300206661696C000D0A4249
:1002E0004D4532383000206661696C000D0A494C7A
:1002F00049393334310041424242454B4E4E505011
:100300005357575858585A4244484F5255565858C0
:100310005A414242434647494A4C4D4D51545984F3
:1003200005760567054C05360520050605EC04D461
:1003300004C104A6048D047204590444042F041655
:10034000040104ED03D703BD03A4038B0377036407
:1003500003530353746F726D79006D756368207277
:1003600061696E0053746F726D79006D61792069F7
:100370006D70726F7665005261696E007665727994
:1003800020756E736574746C6564005261696E20CB
:10039000617400726567756C617220696E74657254
:1003A00076616C00536F6D65207261696E007665D1
:1003B000727920756E736574746C6564004F636345
:1003C0006173696F6E616C207261696E00776F7224
:1003D00073656E696E67004D6F73746C7920766516
:1003E000727900756E736574746C656400556E7314
:1003F0006574746C656400736F6D65207261696EFD
:1004000000556E736574746C6564007261696E206A
:100410006C6174657200556E736574746C6564000C
:1004200066696E6520696E74657276616C730043EF
:1004300068616E676561626C6500736F6D652072DF
:1004400061696E0053686F77657279206C657373AC
:1004500000736574746C65640053686F77657279B6
:100460002062726967687400696E74657276616C87
:100470007300556E736574746C6564006C696B65AC
:100480006C7920696D70726F76696E67005175695D
:10049000746520756E736574746C656400636C6557
:1004A0006172696E6700466169726C792066696E77
:1004B000650073686F77657273206C696B656C7922
:1004C000004368616E676561626C65006D656E64AE
:1004D000696E670053686F77657279206561726C29
:1004E0007900696D70726F76696E67004661697236
:1004F0006C792066696E650073686F776572792024
:100500006C6174657200466169726C792066696E0F
:1005100065006D617962652073686F77657273003D
:10052000466169726C792066696E6500696D7072EA
:100530006F76696E670046696E6520706F737369C8
:10054000626C650073686F776572730046696E65EB
:10055000206265636F6D696E67006C6573732073ED
:100560006574746C6564004265636F6D696E6720C5
:1005700066696E65000046696E652077656174681E
:1005800065720000536574746C65642066696E65FD
:1005900000008C03901F907F940F8C67031F781DC1
:1005A0007C075E737D401907225C3940477D077FD9
:1005B0006C3F7E0370071C003F6004700772007F71
:1005C0001006780F7100C74003781F1840C9180043
:1005D000CE8ACB8CC9900F0090639077911F9107C2
:1005E0008F1F7C88777C0718767D8D072289077896
:1005F000881F7C0378790F401F70883F6004700764
:1006000072007F1006780F7100C74003781F1840F2
:10061000C91800CE8ACB8CC9900F00214023242515
:100620005E262A282951574552545955494F504161
:1006300053444647484A4B4C1E5A584356424E4D27
:10064000181B00313233343536373839307177651D
:1006500072747975696F706173646667686A6B6CD0
:100660001E7A786376626E6D191B00BFBFBFBFBF75
:10067000BFBFBFBFBF9E07B4CAB2CEAFD0AD3F4071
:100680001FA91F881FA70F8A1FA51F8C7FA40F8D6E
:10069000C79F3F91C79BC8961F97C8981F95C99938
:1006A0001F931F9E0F911F9F0F910FA0078F0FA1E8
:1006B0000F8F0FA10F8F0FA1078F0FA1078F0F882B
:1006C00001610378940F0007470778018E1F4007E8
:1006D00047077C961F606373031F96C738383C70CA
:1006E00003957F3C3C3C7001961F1E1E0E3CA30FE1
:1006F0000E3EAA0F0F3EAA07073FA90F0F3EAA07FB
:100700000F38AA470718AA430718B00730B00F20C0
:10071000B10F20B00FB80FB903BFBFBFBF9FBFBF9E
:10072000BFBFBFBFBFBFBFBFBFBFBF9BC8B4CCB001
:10073000D0AD3F401FA91F881FA71F8A1FA60F8B80
:100740007FA40F8DC7A10F8FC79CC7953F98C997EE
:100750001F95C9991F931F9E0F911FA007900FA06F
:10076000079007A00F9007A00F8F0FA1079007A079
:100770000790079F0F910F0007070770018E1F005A
:1007800007070778961F606363033F96C7787878FA
:100790007C07957F3C3C387C03963F1E1E1E3F9F86
:1007A00063616171A70F0F0FAA0F0F0FA90F0F0E33
:1007B000AA0F0F04AA0707B14707B707B70FB80F6B
:1007C000B807B70FB903BFBF9FBFBFBFBFBFBFABA6
:1007D00003B51FB73FB73FB77FB8C7B66F03B16761
:1007E00003AA074707A6CD7801A1CF706F0399D15F
:1007F000707F9E3F401F781F9B1F881F600F991FAF
:100800008B1F7001970F8BC77E9C0F8DCC9B3F90E9
:10081000CA98C8963F97C9980F94C99A0F921F9E7D
:100820000F920F9F0F900FA00F9007A00F9007A09F
:100830000F9007A00F9007A00F900F8B01014007AA
:10084000900F8A0707000F920F8907074007921F32
:10085000880F0F600F94CB78787C3F98CA3C387C27
:100860000F9AC83C3C7E07A50707B00F0FB1070FD2
:10087000B00F0FB10F0FB10707B14707B70FB70F91
:10088000B80FB70FB80FB9039CBFA607B70FB80FC3
:10089000B80FB80FAC03600360A20F400760039D60
:1008A0000F400178019C1F8F1FA21F8D1FA40F7C7A
:1008B0004107A447C838A30778C7A5CA7C7B039D16
:1008C000D2400F9DD2880F9B3F401F870F9A1F88F1
:1008D0001F870F981F8A1F004F7F901F8C7F4067D4
:1008E0003F8F0F8DC770790F8B1F90C77894C89674
:1008F0001F0790C898C893C9997F931F9E3F911F67
:10090000A00F900FA04F9007A06F01880FA16F0359
:10091000880FA16707880FA1070F89078B01014086
:10092000071E890F8A0707400F388A1F890F0F405B
:100930000F931F880F0F600794CB38387C1F98CA1D
:100940003C3C7E0F9AC738387C07A50F0FB10F0FBC
:10095000B00F0EB10F0FB10707B14707B14307B68C
:100960000FB80FB807B70FB80FB903BFA2BFBFBF0B
:10097000BFBFBFBFBFAA0FB61FB73FB77FB7C7B7CD
:10098000C7B64F03B14F07A8CB7801A3CD700303BF
:100990009AD070C79E7F700F7C1F9B1F871F701F90
:1009A0009A1F891F6007981F8B7F7003970F8CCD4C
:1009B0009C0F8ECB99C792C998C8971F96C9990F5B
:1009C000933F06961F921F9F0F910F9F0F900FA1AD
:1009D000078F0FA1078F0FA1078F0FA00F900FA0F8
:1009E0000F900F9F1F920F9E0F921F9C1F957F329B
:1009F0008C693F97E59AE29EDEBFBFBFBFBFBFBF16
:100A0000BFBFBFBF91BFBFA803B707B807B807B83C
:100A100007AC01600120A20F400360019C1F40034E
:100A200070019C3F000178019E0F8D1FA31F8C1F3A
:100A3000A50F7E6303A571C7A7C770CAA3D16007BE
:100A40009DD2870F9C7F701F870F9A1F871F870F6C
:100A5000991F891F87471F901F8B7F00677F900F0B
:100A60008CC760791F8D0F8EC770780788C792C8B2
:100A70001E92C897C993C9997F933F06967F921F8C
:100A80009F1F910F9F0F900FA1678F0FA177038872
:100A900007A167078807A00F1F890FA00F1E890FE6
:100AA0009F0F388B0F9D1F608C1F9C1F953F0691D9
:100AB000C798E59AE29EDEBFBFBFBFBFBFBFBFBF43
:100AC000BFBFBF96BFBFBFBFBFBFBFBFBFBFBFBF5F
:100AD000BF9DC7B4C9B4C9B3CAB41F0FB01F0EB00D
:100AE0000F1EB10F1EB00F1CB1071CB00F78B10F55
:100AF00078B10F78B10F70B10F7001AA0F6003AA1F
:100B00000F6003AB076003AA0F400FAA1F007FAB63
:100B10000F00C9A81F877FA93F873FAAC7700FABE7
:100B2000CFB0CDB3C8BFBFBFBFBFBFBFBFBFBFBFC9
:100B3000BFBFBF99BFBFBFBFBFBF9E03B707B80F3F
:100B4000B80FB80FAC01600340A20F400760039CD0
:100B50001F400770039D1F40017CA41F8D1FA40F21
:100B60008C0FA5077E6001A461C710ACCDB07F7C5F
:100B700001AA0F7003A90F400FAA0F000FA03F3862
:100B80008A073F97C73C8A4F7F97C73C8A4F7F9819
:100B90007F388A473FA2078707A90F000FAA0F00D7
:100BA0000FAB0F6003AA7F7C01ABCDAD47C838A760
:100BB0000F7C4107A21F8D1FA21F8F1FA01F0003C4
:100BC00070039C0F400760039D03600360AF0FB884
:100BD0000FB80FB80FB80FB903BFBFBFBFBFBFBFBC
:100BE000990001080800FF00000000000000007EDE
:100BF0008195B1B195817E7EFFEBCFCFEBFF7E0E6D
:100C00001F3F7E3F1F0E00081C3E7F3E1C08001841
:100C1000BAFFFFFFBA180010B8FCFFFCB8100000C4
:100C200000183C3C180000FFFFE7C3C3E7FFFF00CC
:100C30003C664242663C00FFC399BDBD99C3FF704C
:100C4000F88888FD7F070F004E5FF1F15F4E00C00E
:100C5000E0FF7F05050707C0FF7F0505657F3F991A
:100C60005A3CE7E73C5A997F3E3E1C1C08080008A6
:100C7000081C1C3E3E7F00002466FFFF6624000027
:100C80005F5F00005F5F00060F097F7F017F7F408D
:100C9000DABFA5FD5903020070707070707000809B
:100CA00094B6FFFFB694800004067F7F0604000020
:100CB00010307F7F3010000808082A3E1C0800080A
:100CC0001C3E2A080808003C3C2020202020000868
:100CD0001C3E08083E1C0830383C3E3E3C3830067E
:100CE0000E1E3E3E1E0E060000000000000000002A
:100CF000065F5F06000000000707000707000014FA
:100D00007F7F147F7F1400242E6B6B3A1200004605
:100D10006630180C666200307A4F5D377A480004FE
:100D200007030000000000001C3E634100000000BB
:100D300041633E1C000000082A3E1C1C3E2A080895
:100D4000083E3E080800000080E060000000000847
:100D5000080808080800000000606000000000604B
:100D600030180C060301003E7F71594D7F3E004054
:100D7000427F7F40400000627359496F6600002245
:100D80006349497F360000181C16537F7F500027A7
:100D90006745457D3900003C7E4B497930000003B2
:100DA0000371790F070000367F49497F360000063E
:100DB0004F49693F1E000000006666000000000009
:100DC00080E66600000000081C3663410000002435
:100DD00024242424240000004163361C080000025F
:100DE0000351590F0600003E7F415D5D1F1E007CD0
:100DF0007E13137E7C0000417F7F49497F36001CB3
:100E00003E634141632200417F7F41633E1C0041BC
:100E10007F7F495D416300417F7F491D0103001CC5
:100E20003E6341517372007F7F08087F7F0000009E
:100E3000417F7F41000000307040417F3F01004111
:100E40007F7F081C776300417F7F41406070007F97
:100E50007F0E1C0E7F7F007F7F060C187F7F001C9B
:100E60003E6341633E1C00417F7F49090F06001E1F
:100E70003F21717F5E0000417F7F09197F66002658
:100E80006F4D597332000003417F7F410300007FA3
:100E90007F40407F7F00001F3F60603F1F00007F5A
:100EA0007F3018307F7F0043673C183C6743000762
:100EB0004F78784F070000476371594D6773000002
:100EC0007F7F41410000000103060C1830600000E4
:100ED00041417F7F000000080C0603060C080080DB
:100EE0008080808080808000000307040000002054
:100EF0007454543C784000417F3F48487830003873
:100F00007C44446C280000307848493F7F400038DA
:100F10007C54545C180000487E7F4903020000980E
:100F2000BCA4A4F87C0400417F7F08047C78000006
:100F3000447D7D4000000060E08080FD7D00004138
:100F40007F7F10386C440000417F7F400000007CB0
:100F50007C18381C7C78007C7C04047C7800003889
:100F60007C44447C38000084FCF8A4243C1800181D
:100F70003C24A4F8FC8400447C784C041C180048F1
:100F80005C54547424000000043E7F442400003C60
:100F90007C40403C7C40001C3C60603C1C00003CB1
:100FA0007C7038707C3C00446C3810386C44009C79
:100FB000BCA0A0FC7C00004C64745C4C6400000885
:100FC000083E7741410000000000777700000041B3
:100FD00041773E080800000203010302030100708C
:100FE000784C464C7870000E9F91B1FB4A00003A55
:100FF0007A40407A7A4000387C54555D19000002EE
:10100000237555557D7B42217554547D79400021CF
:101010007555547C784000207457577C78400018F0
:101020003CA4A4E4400000023B7D55555D1B023901
:101030007D54545D190000397D55545C1800000141
:10104000457C7C410100000203457D7D4302000197
:10105000457D7C40000000797D1612167D79007078
:10106000782B2B78700000447C7C5555450000207F
:101070007454547C7C54547C7E0B097F7F4900322D
:101080007B49497B320000327A48487A320000328C
:101090007A4A48783000003A7B41417B7A40003AF6
:1010A0007A4240787840009ABAA0A0FA7A0000010B
:1010B000193C66663C19013D7D40407D3D000018AD
:1010C0003C24E7E7242400687E7F49436620002B08
:1010D0002FFCFC2F2B0000FFFF09092FF6F8A04082
:1010E000C088FE7F090302207454557D79400000BA
:1010F000447D7D410000003078484A7A3200003853
:101100007840427A7A40007A7A0A0A7A7000007D42
:101110007D19317D7D000000262F292F2F2800000A
:10112000262F292F26000030784D456020000038FA
:101130003808080808000008080808383800004F78
:101140006F3018CCEEBB914F6F30186C76FBF90006
:1011500000007B7B000000081C3622081C3622227F
:10116000361C0822361C08AA005500AA005500AA01
:1011700055AA55AA55AA55DDFFAA77DDAAFF770023
:101180000000FFFF000000101010FFFF000000141F
:101190001414FFFF0000001010FFFF00FFFF0010FD
:1011A00010F0F010F0F000141414FCFC0000001417
:1011B00014F7F700FFFF000000FFFF00FFFF00141F
:1011C00014F4F404FCFC0014141717101F1F001073
:1011D000101F1F101F1F001414141F1F00000010E9
:1011E0001010F0F00000000000001F1F1010101081
:1011F00010101F1F101010101010F0F01010100021
:101200000000FFFF10101010101010101010101020
:101210001010FFFF101010000000FFFF1414140046
:1012200000FFFF00FFFF1000001F1F101717140022
:1012300000FCFC04F4F414141417171017171414FA
:1012400014F4F404F4F4140000FFFF00F7F714148E
:10125000141414141414141414F7F700F7F71414D6
:101260001414171714141410101F1F101F1F10141C
:101270001414F4F41414141010F0F010F0F0100022
:10128000001F1F101F1F100000001F1F1414140048
:101290000000FCFC1414140000F0F010F0F010102A
:1012A00010FFFF10FFFF10141414FFFF141414108C
:1012B00010101F1F000000000000F0F0101010FFC1
:1012C000FFFFFFFFFFFFFFF0F0F0F0F0F0F0F0FFA6
:1012D000FFFFFF0000000000000000FFFFFFFF0F06
:1012E0000F0F0F0F0F0F0F387C446C386C4400FC4D
:1012F000FE2A2A3E1400007E7E020206060000023C
:101300007E7E027E7E020063775D49636300003863
:101310007C447C3C04040080FE7E20203E1E0004B1
:1013200006027E7C06020099BDE7E7BD9900001C1D
:101330003E6B496B3E1C004C7E7301737E4C00304B
:10134000784A4F7D390000183C243C3C243C1898D6
:10135000FC643C3E273D181C3E6B49490000007E62
:101360007F01017F7E00002A2A2A2A2A2A000044BF
:10137000445F5F4444000040515B4E4440000040E5
:10138000444E5B51400000000000FEFF0107066074
:10139000E080FF7F00000008086B6B080800002455
:1013A0003612362436120000060F090F0600000020
:1013B00000001818000000000000101000000010CD
:1013C0003070C0FFFF0101001F1F011F1E00000041
:1013D000191D171200000000003C3C3C3C000000BE
:1013E0000000000000000000000D182B100000009D
:1013F0000000000000000000000000001038383835
:10140000FFFF383838100000000000000003030020
:1014100000000000000000000000000000000000CC
:1014200000000000000000000000000000000000BC
:10143000000000907838100000000000000000005C
:101440000000000000000000000010383838383874
:1014500038383810000000000000000000000000D4
:10146000000000000000000000000000000000007C
:10147000000000000000000000000000000000006C
:101480000040E0E04000000000000002060E0E0EEA
:101490000E0E0E0602000000103838383838383882
:1014A000381000000080C0E0E0E0E0E0E0C0800034
:1014B00000FCFAF60E0E0E0E0E0EF6FAFC00EFC74A
:1014C0008300000000000083C7EF007FBFDFE0E083
:1014D000E0E0E0E0DFBF7F0000000000000000006F
:1014E00000F0F8FC0000000000000000000083C7CE
:1014F000EF000000000000000000001F3F7F000020
:1015000002060E0E0E0E0E0EF6FAFC00E0D0B838F3
:1015100038383838383B170F007FBFDFE0E0E0E0B5
:10152000E0E0C08000000002060E0E0E0E0E0EF669
:10153000FAFC00001038383838383838BBD7EF009C
:101540000080C0E0E0E0E0E0E0DFBF7F00FCF8F01A
:10155000000000000000F0F8FC000F173B3838389E
:10156000383838BBD7EF0000000000000000000052
:101570001F3F7F00FCFAF60E0E0E0E0E0E06020046
:10158000000F173B383838383838B8D0E0000080C2
:10159000C0E0E0E0E0E0E0DFBF7F00FCFAF60E0E26
:1015A0000E0E0E0E06020000EFD7BB383838383862
:1015B00038B8D0E0007FBFDFE0E0E0E0E0E0DFBF90
:1015C0007F000002060E0E0E0E0E0EF6FAFC000054
:1015D000000000000000000083C7EF0000000000D2
:1015E00000000000001F3F7F00FCFAF60E0E0E0EFA
:1015F0000E0EF6FAFC00EFD7BB383838383838BB57
:10160000D7EF007FBFDFE0E0E0E0E0E0DFBF7F009A
:10161000FCFAF60E0E0E0E0E0EF6FAFC000F173B3D
:10162000383838383838BBD7EF000080C0E0E0E009
:10163000E0E0E0DFBF7F000000000080C0C080006D
:101640000000000000000000000101000000000098
:101650000000000000040E0E040000000000000B5B
:10166000102B100000008080E0E08080000000006F
:101670000103030F0F03030100000000000000003E
:10168000000000000000000080E06000000000009A
:101690000000808080808080000000000103030340
:1016A0000303030100000000000000000000000030
:1016B0000000000000C0C00000000000000286869C
:1016C000868686860200000081C3C3C3C3C3C3816C
:1016D0000000FC7A0606060606067AFC007EBCC000
:1016E000C0C0C0C0C0BC7E00000000000000000000
:1016F00078FC0000000000000000003C7E000002BA
:101700008686868686867AFC007EBDC3C3C3C3C335
:10171000C381000000028686868686867AFC0000E9
:1017200081C3C3C3C3C3C3BD7E00FC7880808080F7
:10173000808078FC0000010303030303033D7E0067
:10174000FC7A8686868686860200000081C3C3C333
:10175000C3C3C3BD7E00FC7A868686868686020069
:10176000007EBDC3C3C3C3C3C3BD7E000002060663
:10177000060606067AFC0000000000000000003C9F
:101780007E00FC7A8686868686867AFC007EBDC3CD
:10179000C3C3C3C3C3BD7E00FC7A868686868686A5
:1017A0007AFC000081C3C3C3C3C3C3BD7E00000075
:1017B00000001818000000000000000000181800C9
:1017C00000000022080D0E2060040205060708092B
:1017D00002030305080204020407040707070707BA
:1017E0000707070202070707080E09080808070786
:1017F0000908020708070B0809070909070808096B
:101800000D07080804040406080307070607070570
:101810000707020306020A07070707050605070769
:101820000B06070505010507080000000000000081
:1018300000FEFE18181E1E001E1E00000000009074
:10184000F89E90F89E1C00001C0000183C26FF66C5
:10185000CC88040C183C180C041C221CC0308E4090
:101860008000001804000C100C80CC7E72F2DE0C9C
:1018700080000C1C1010101C0C1C101E1E0000F010
:10188000FC061C7CC006FCF0C07C1C14140E141456
:101890000000000000606060FCFC60606000000010
:1018A0000C0C00000000005838C0C0C0C000000090
:1018B000000000181800C0380618040000F8FC0EDC
:1018C000060EFCF8040C1C181C0C04180CFEFE0080
:1018D000001C1C181C86C6663E1C181C1C181818F8
:1018E00018888C062626FEDC040C1C18180C04C074
:1018F000E0B88CFEFE80040404041C1C04707E3ED0
:101900003636F6C60C1C1818180C04F8FC6E666601
:10191000EECC040C1818181C0C060606E6761E06FB
:1019200000001C1C0000009CFE666666FE9C0C1CF1
:101930001818181C0C3C7E666666FCF80C1C1818FF
:101940001C0C0418181818181858386060F0F09813
:10195000980C0000000004040CD8D8D8D8D8D8D8E7
:10196000000000000000000C9898F0F060600C048B
:101970000400000000080C06C6E6763C18000000D3
:101980001818000000E03008C4F63A1A1AF2FA7E7D
:101990000408F00C30604C9C98988C9C9C90484CAF
:1019A0002000C0F8BE86BEF8C000181C0404040461
:1019B000041C18FEFE66666666FEDC1C1C18181801
:1019C000181C0CF8FC0E06060E9C08040C1C1818BB
:1019D0001C0C04FEFE0606060EFCF81C1C1818184B
:1019E0001C0C04FEFE66666666661C1C1818181839
:1019F00018FEFE66666666061C1C0000000000F805
:101A0000FC0E0606C6CEDCC8040C1C181818180CF0
:101A100004FEFE60606060FEFE1C1C000000001CF6
:101A20001CFEFE1C1C8080000000FEFE0C1C181812
:101A3000181C0CFEFE603078EC86021C1C000000B6
:101A4000041C18FEFE00000000001C1C18181818CA
:101A500018FEFE0E7CE000E07C0EFEFE1C1C00006A
:101A60000C1C0C00001C1CFEFE1C78E080FEFE1C02
:101A70001C0000040C1C1CF8FC0E0606060EFCF8EC
:101A8000040C1C1818181C0C04FEFE6666667E3CCE
:101A90001C1C0000000000F8FC0E0686060EFCF878
:101AA000040C1C18181C0C1C24FEFE6666E6E6BE20
:101AB0001C001C1C0000000C1C18103C7E66666696
:101AC000EECC0C1C1818181C0C060606FEFE0606AA
:101AD000060000001C1C000000FEFE00000000FECE
:101AE000FE040C1C18181C0C04021EFCE000E0FC98
:101AF0001E020000001C1C1C00000006FEF800F086
:101B0000FE0EFEF000F8FE0600001C1C1C0000008B
:101B10001C1C1C0000060EF8F0F80E06181C040031
:101B2000041C18060E38F0F0380E060000001C1CCD
:101B3000000000060686E6761E0E06181C1C181805
:101B4000181818FEFE0606FCFCC0C00638C00000CF
:101B50000004180606FEFEC0C0FCFC20380E0E383D
:101B600020000000000000000000000000000080D5
:101B7000808080808080800206040000001098D859
:101B800058F8F0000C1C18180C1C10FEFE30183809
:101B9000F0E01C1C0C181C0C04E0F0181838300481
:101BA0000C18181C0CE0F0381830FEFE040C1C1841
:101BB0000C1C1CE0F0D8D8D8F0E0040C1818181849
:101BC0000818FCFE1A1A001C1C0000E0F03818303F
:101BD000F8F864ECDCD8CCFC7CFEFE301818F8F089
:101BE0001C1C0000001C1CFAFA1C1C00FAFAC0FCA9
:101BF0007CFEFEE0F098081C1C00041C18FEFE1C75
:101C00001CF8F81018F8F01818F8F01C1C00001C4C
:101C10001C00001C1CF8F8301818F8F01C1C000000
:101C2000001C1CE0F0381838F0E0040C1C181C0CE8
:101C300004F8F8301838F0E0FCFC0C181C0C04E038
:101C4000F0381830F8F8040C1C180CFCFCF8F830CC
:101C500018181C1C00000070F8D8D8D89008181864
:101C6000181C0C18FCFE1818000C1C1818F8F800AA
:101C70000000F8F80C1C18180C1C1C38F8C000C028
:101C8000F83800001C1C1C000018F8E000F038F0C8
:101C900000E0F81800001C1C0C000C1C1C000018B4
:101CA00038E0E03818181C04041C1818F8E000E0AC
:101CB000F8180084FCF83C04001898D878381C1CEC
:101CC00018181880FC7E0606007CFCC0C0FEFC06CE
:101CD000067EFC80C0C0FC7C0060303070606030EC
:101CE00000000000000000FE020202020202FE1CD0
:101CF0001010101010101C53756E4D6F6E547565DA
:101D0000576564546875467269536174004A616E20
:101D10004665624D61724170724D61794A756E4AD5
:101D2000756C4175675365704F63744E6F7644658B
:101D3000630011241FBECFEFD8E0DEBFCDBF11E09E
:101D4000A0E0B1E0E8E3F6E702C005900D92A23210
:101D5000B107D9F727E0A2E2B1E001C01D92A13599
:101D6000B207E1F70E9418250C941A3B0C9400006E
:101D7000ACE0B0E0EEEBFEE00C94F13A8B01BE017A
:101D80006F5F7F4F0E94460FB801CE0101960E94FF
:101D900035112C96E4E00C940D3B8F929F92AF92FC
:101DA000BF92CF92DF92EF92FF927C016091330756
:101DB0007091340780913507909136070E94BA36AA
:101DC00024E33EE649E458E40E9410364B015C01EE
:101DD000C7010E945E106B017C01C501B4010E9425
:101DE0004F3A4B015C01C701B60190580E944F3A2F
:101DF0009B01AC01C501B4010E9494396B017C01C7
:101E000020E030E040E85FE30E948F3918168CF044
:101E100020E030E040E85FEBC701B6010E94DB380C
:101E200087FF0DC0C12CD12C90E8E92E9FEBF92E35
:101E300006C0C12CD12C80E8E82E8FE3F82EC70114
:101E4000B6010E945D3828E433E347E450E40E9481
:101E5000103620E030EC48EA57E40E9494390E94A2
:101E60008236FF90EF90DF90CF90BF90AF909F9021
:101E70008F900895621B730B840B950B08956FE38D
:101E800077E00E94460F8FE397E00895A4E0B0E06A
:101E9000ECE4FFE00C94ED3A6C017B01E0914F071C
:101EA000F0915007309729F06BE477E009958C01A9
:101EB00002C00FEF1FEFF6014081518162817381F3
:101EC00080914B0790914C07A0914D07B0914E0720
:101ED000840F951FA61FB71F101611064CF4A801FA
:101EE000012E000C660B770B840F951FA61FB71FE2
:101EF00089839A83AB83BC83B701CE0101960E948C
:101F00002912F701138702872496E8E00C94093B15
:101F1000A0E0B0E0EEE8FFE00C94E93AEC01EE81DD
:101F2000FF818F0104561109B9F0CF01855691093F
:101F30006C0197FF03C023E0C20ED11CD594C79457
:101F4000D594C7946CE97FEF0E947637C60ED71EF2
:101F50008FEFC81AD80A02C0C12CD12C2DE631E06F
:101F6000D8010E94DA370D2C000CEE08FF08C60ECF
:101F7000D71EE81EF91E8B81082E000C990B8C01D0
:101F8000015011092D8122302CF4222379F1015EB8
:101F90001F4F2CC0CF018459984F0E94F012282F58
:101FA00030E0255C3F4F200F311F8D81082E000C43
:101FB000990B02978530910514F027563F4F65E045
:101FC00070E00E947637AC0197FF02C04F5F5F4F11
:101FD000559547959DE3949F8001959F100D112481
:101FE000020F131F80FF02C0015E1F4FC801110FB7
:101FF000AA0BBB0B9C01AD012C0D3D1D4E1D5F1DA1
:1020000060E871E581E090E00E9446374B015C0199
:10201000AA810A2E000CBB0B20E13EE00E94DA37B9
:102020006B017C01A9810A2E000CBB0B2CE330E074
:102030000E94DA37C60ED71EE81EF91E6881862F69
:10204000660F990BAA0BBB0B8C0D9D1DAE1DBF1D02
:10205000BC01CD01680D791D8A1D9B1DCDB7DEB772
:10206000ECE00C94053B9093500780934F07089544
:102070006093330770933407809335079093360746
:1020800020933707309338074093390750933A0726
:1020900008950FB6F89460933B0770933C078093C4
:1020A0003D0790933E070FBE089560934B077093D2
:1020B0004C0780934D0790934E0708958F929F92FF
:1020C000AF92BF92CF92DF92EF92FF92FC0180809D
:1020D0009180A280B380C501B40121E23BE841EECA
:1020E00051E00E948A376055764282429E4F0E949C
:1020F000B83621EB37E449E95AE40E9410360E94D1
:10210000013A6B017C01C501B4012DE335E841EED4
:1021100051E00E948A376854774A824F9F4F0E944D
:10212000B83621ED35E449E95AE40E9410364B01F6
:102130005C012FED33EE48E05DE3C701B6010E947C
:102140009439A50194010E946F380E94E0382CE375
:1021500036E741ED5EE30E9494399058FF90EF908E
:10216000DF90CF90BF90AF909F908F9008958F9207
:102170009F92AF92BF92CF92DF92EF92FF92CF9356
:10218000DF93FC0180809180A280B3800E94B31114
:10219000EC01609137077091380780913907909171
:1021A0003A072FE030E040E050E00E94AC37750184
:1021B0006401C21AD30AE40AF50AF0ECCF0EF8EA79
:1021C000DF1EE11CF11CC501B40120E831E541E04E
:1021D00050E00E948A37A7019601261B370B480B57
:1021E000590B6E01DD0FEE08FF08CA01B9016C1929
:1021F0007D098E099F09DF91CF91FF90EF90DF90CD
:10220000CF90BF90AF909F908F900895FC010FB634
:10221000F89460913B0770913C0780913D07909145
:102220003E070FBE309721F06083718382839383D2
:1022300008958F938FB78F93F89480913B078F5FAA
:1022400080933B0780913C078F4F80933C078091A0
:102250003D078F4F80933D0780913E078F4F8093BE
:102260003E078F918FBF8F910895A0E0B0E0EBE320
:10227000F1E10C94ED3A8C01EB01FC018481682FB3
:10228000660F680F8581582F550F580F9E0140E04B
:10229000862F840F90E0A0E08950934EAF4FFC0151
:1022A0008491A7FD8081F90181939F01852F840F7F
:1022B00090E0A0E0835F924EAF4FFC018491A7FDB8
:1022C0008081F90183834F5F433011F780E28F8370
:1022D0008B83BE01685F7F4FF801838140E2082E47
:1022E000000C990B0E940413BE01655F7F4FF8013B
:1022F00082814AE3082E000C990B0E940413BE0150
:10230000625F7F4FF80181814AE3082E000C990B30
:102310000E940413BE016F5E7F4FF801808140E28E
:10232000082E000C990B0E940413F80186819781F6
:1023300064E670E08459984F0E9476376B017C0107
:10234000BE016C5E7F4F40E2C6010E940413BE01D5
:102350006A5E7F4F40E0C7010E940413CDB7DEB72D
:10236000E8E00C94093B8F929F92AF92BF92CF927C
:10237000DF92EF92FF92FC0180809180A280B38077
:10238000C501B40121E23BE841EE51E00E948A37E9
:102390006055764282429E4F0E94BA3621EB37E466
:1023A00049E95AE40E9410360E94013A6B017C010F
:1023B000C501B4012DE335E841EE51E00E948A37B2
:1023C000DC01CB01805C9D43A34FBF4FBC01CD011D
:1023D000660F771F881F991F0E94BA3621ED35E4DA
:1023E00049E95AE40E9410364B015C012FED33EEAF
:1023F00048E05DE3C701B6010E949439A50194014C
:102400000E946F380E94013A2DEC3CE044E154E414
:102410000E9494394B015C012DEC3CEC45EE53E4F9
:10242000C701B6010E9494399B01AC01C501B401FA
:102430000E946F380E94823688279927861B970B47
:10244000FF90EF90DF90CF90BF90AF909F908F90D4
:102450000895A8E0B0E0EFE2F2E10C94ED3A8B01D0
:10246000FC01608171818281938120E831E541E046
:1024700050E00E948A3769017A012CE330E040E0A5
:1024800050E00E94AC3729833A834B835C83898177
:102490009A81AB81BC81F80160836CE370E00E949B
:1024A0007637DC01CB01F801A1838283C601069651
:1024B00067E070E00E94623784832DEA3EE840E0E6
:1024C00050E0C701B6010E94AC3729833A836D837F
:1024D0007E838F83988789819A8124E6289F600173
:1024E000299FD00C11246D817E818F81988525EBE9
:1024F00035E040E050E00E94AC3729833A836D8399
:102500007E83E980FA80EE0CFF1CEE0CFF1CEC0CC5
:10251000FD1C8D819E81F5E6EF16F10410F0019609
:1025200004C024E6E216F10419F021E030E002C014
:1025300020E030E0A90144595E4F4817590768F47C
:102540006DE671E0821B930B0E947637DC01CB01B4
:10255000E80EF91ECD0120E030E044E6E40EF11C67
:10256000F801F782E68291878087255C3F4F8217CA
:10257000930748F46FE170E00E947637DC01CB01ED
:10258000F801858322C069E970E0821B930B0E94E9
:102590007637DC01CB01F82EFF0CFF0CF80E6DE353
:1025A00070E0CD010E947637DC01CB01E82EEE0C05
:1025B0006FE170E0CD010E947637DC01CB0122E0B3
:1025C000280FF20EFE0CF801F582A383F8011386A2
:1025D000128683818F5F83832896E8E00C94093B01
:1025E0009C0123703327232B59F464E670E00E948A
:1025F0007637892B39F46370772781E0672B19F0E0
:1026000080E0089581E008951F93CF93DF93EB015D
:10261000142F6AE070E00E947637605D6883805D09
:1026200089831A83DF91CF911F9108952A988F771C
:102630008EBD0DB407FEFDCF8EB56EBD0DB407FE89
:10264000FDCF8EB52A9A08952A9880688EBD0DB464
:1026500007FEFDCF8EB51EBC0DB407FEFDCF8EB5B7
:102660002A9A08952A9880688EBD0DB407FEFDCF82
:102670008EB5FB01415038F01EBC0DB407FEFDCFF6
:102680008EB58193F7CF2A9A0895CF93229A2A9AEA
:1026900084B1886284B980E58CBD8DB581608DBDC3
:1026A00080ED0E942413803631F566EB80EE0E94A7
:1026B000161383EF0E942413C82FC17080FDF9CF39
:1026C00048E16FEB73E088E80E94321341E067ED68
:1026D00073E081EA0E94321347E068ED73E081EE17
:1026E0000E94321361E082EF0E94161364E284EFCD
:1026F0000E94161301C0C1E08C2FCF9108952F9234
:102700003F924F925F926F927F928F929F92AF9281
:10271000BF92CF92DF92EF92FF920F931F93CF93CE
:10272000DF93CDB7DEB728970FB6F894DEBF0FBEA4
:10273000CDBF7C011B018A0165E284EF0E94161364
:1027400083EF0E94241383FDFBCF48E0BE016F5F3F
:102750007F4F87EF0E943213E091BF03F091C003D7
:102760004F01A12CB12C2C81822F90E0A0E0B0E091
:10277000AC01BD01ACE0440F551F661F771FAA9541
:10278000D1F78E8182958F70482B8D8120E1829FB9
:10279000C0011124A0E0B0E0842B952BA62BB72B11
:1027A000AC01BD01B3E07595679557954795BA950E
:1027B000D1F7D501C401880F991FAA1FBB1F9A0129
:1027C000AB01281B390B4A0B5B0BA091C103B091E5
:1027D000C2030E94EC372B013C01BF0134E0769527
:1027E00067953A95E1F7CB01A0E0B0E0BC01CD01DF
:1027F000681979098A099B099B01AC010E94463737
:102800009B01AC016CE055954795379527956A95E6
:10281000D1F7A091C303B091C4030E94EC37EBE061
:102820007594679457944794EA95D1F7DC01CB01EE
:10283000FEE0B595A79597958795FA95D1F7480E3F
:10284000591E6A1E7B1E4092DF035092E003609285
:10285000E1037092E203A5E0B0E0A30192010E94BF
:10286000E137DC01CB0180589F4FAF4FBF4F892F1D
:102870009A2FAB2FBB27A7FDBA95F70191838083D1
:10288000759467945794479473016201FAEFDF1AC5
:10289000E108F108C701B60142E095958795779563
:1028A00067954A95D1F79B01AC010E9446372B01F1
:1028B0003C01A091C903B091CA039B01AC016DE03A
:1028C00055954795379527956A95D1F70E94EC372E
:1028D0004B015C0173E0B594A794979487947A9523
:1028E000D1F7A091C703B091C803A70196010E9438
:1028F000EC37DC01CB01B595A79597958795880DA9
:10290000991DAA1DBB1DF2E1B595A79597958795D1
:10291000FA95D1F79C01AD0130584F4F5F4FA09110
:10292000C503B091C6030E94E1374B015C01AFE0E3
:10293000B594A79497948794AA95D1F7811491049C
:10294000A104B10409F4DAC0A30192016BE055952A
:102950004795379527956A95D1F7A091CF03B09108
:10296000D0030E94EC372B013C01A091CD03B09124
:10297000CE03A70196010E94EC37DC01CB01880F42
:10298000991FAA1FBB1F840D951DA61DB71D6C01A5
:102990007D01E2E0F594E794D794C794EA95D1F7E6
:1029A000498150E060E070E0FCE0440F551F661F75
:1029B000771FFA95D1F78B8182958F70482B8A818A
:1029C00020E1829FC0011124A0E0B0E0482B592BE8
:1029D0006A2B7B2B8091CB039091CC03092E000CAA
:1029E000AA0BBB0BDC01992788278C0D9D1DAE1D02
:1029F000BF1D3CE0B595A795979587953A95D1F77A
:102A00009A01AB01280F391F4A1F5B1FABECB3EFD4
:102A10000E94EF37805B9C4397FD0BC0660F771FCA
:102A2000881F991FA50194010E948A3769017A01C4
:102A30000AC0A50194010E948A3769017A01CC0C71
:102A4000DD1CEE1CFF1CC701B60133E0969587958F
:102A5000779567953A95D1F79B01AC010E9446376F
:102A60009B01AC016DE056954795379527956A9582
:102A7000D1F7A091D503B091D6030E94EC372B017A
:102A80003C017CE075946794579447947A95D1F70C
:102A9000A7019601E2E05695479537952795EA9567
:102AA000D1F7A091D303B091D4030E94EC37DC019D
:102AB000CB01FDE0B595A79597958795FA95D1F748
:102AC000B301A201480F591F6A1F7B1F8091D103D8
:102AD0009091D203092E000CAA0BBB0B840F951FFB
:102AE000A61FB71F24E0B595A795979587952A95BA
:102AF000D1F7C80ED91EEA1EFB1E03C0C12CD12C73
:102B00007601F101C082D182E282F3828091DB03FF
:102B10003091DC032091DD038090DF039090E0038F
:102B2000A090E103B090E203FCE29F1AF1E0AF0A4B
:102B3000B108CF80D884DC24CD24DC24E12CF12C16
:102B40004EE0CC0CDD1CEE1CFF1C4A95D1F740E199
:102B50008402C0011124432F4F70842B092E000CD6
:102B6000AA0BBB0B54E1880F991FAA1FBB1F5A95D4
:102B7000D1F7C81AD90AEA0AFB0A50E12502D001A6
:102B8000112432953F70A32BA50194010E94EC37CC
:102B9000C61AD70AE80AF90A80E4D80EE11CF11C2B
:102BA0006FE0F594E794D794C7946A95D1F7A09114
:102BB000DA03B0E00E94E1372B013C017BE0759421
:102BC0006794579447947A95D1F790E8590E611C11
:102BD000711CA091DE030A2E000CBB0B0E94EC3787
:102BE000EAE09595879577956795EA95D1F7A301E2
:102BF00092010E944637DC01CB01FAE0B595A7951A
:102C000097958795FA95D1F79C01AD01405E5F4F8E
:102C1000A091D803B091D9030E94EC37DC01CB011D
:102C2000905EAF4FBF4F9C01AD01AEE0559547950B
:102C300037952795AA95D1F7C701B6010E94463767
:102C40006B017C01BFE09595879577956795BA955F
:102C5000D1F79B01AC010E9446379B01AC0187E094
:102C600055954795379527958A95D1F7A091D70324
:102C7000B0E00E94E137DC01CB0124E0B595A795D7
:102C8000979587952A95D1F7A7019601281B390BAF
:102C90004A0B5B0BDA01C90157FF03C080E090E0EB
:102CA000DC0181309105A10539E1B30724F080E012
:102CB00090E0A0E0B9E12CE0B595A79597958795B0
:102CC0002A95D1F7F80180839183A283B383289654
:102CD0000FB6F894DEBF0FBECDBFDF91CF911F912D
:102CE0000F91FF90EF90DF90CF90BF90AF909F90AB
:102CF0008F907F906F905F904F903F902F900895AE
:102D0000FC019081990F9056292F220F220F920FCC
:102D1000218180ED820F890F08958F929F92AF924B
:102D2000BF92CF92DF92EF92FF920F931F93CF93B8
:102D3000DF9382E494E00E94F4376B017C01A2E40B
:102D4000B4E02D91822F90E0C0970A97D0F32E32F5
:102D5000E1F4FD0188EE93E0C0E0D0E00AE010E08D
:102D6000219130E0205331092A30310580F4289F29
:102D7000A001299F500D389F500D1124C40FD51F5D
:102D8000B8010E946237CB01EBCFC0E0D0E0C701B1
:102D9000B60124E630E040E050E00E94AC374B0141
:102DA0005C0160E47EE785E090E00E9446376B01BD
:102DB0007C01A0E7B7E1A50194010E94E1379701EA
:102DC0008601060F171F281F391F46E04C9FC001C0
:102DD0004D9F900D11246AE070E00E9462376801F7
:102DE0007901C60ED71EE11CF11CC701B601DF91A7
:102DF000CF911F910F91FF90EF90DF90CF90BF90F8
:102E0000AF909F908F900895CF92DF92EF92FF92B4
:102E10000F931F9382E494E00E94F4379B01AC016E
:102E2000A4E6B0E00E94E1378B019C0197FF03C04C
:102E3000E3E4F4E002C0E2E4F4E0CF016191462F64
:102E400050E0405351094A305105B8F36E3299F4BD
:102E5000FC0131968AE040E05AE0619170E06053F5
:102E600071096A30710540F4869F400D1124652F69
:102E70000E945637F2CF40E0842F90E0A0E0B0E00F
:102E800037FF09C068017901C81AD90AEA0AFB0AA2
:102E9000C701B60106C0BC01CD01600F711F821FC2
:102EA000931F1F910F91FF90EF90DF90CF900895A7
:102EB0001F93CF93DF938432A9F0E09122018532F2
:102EC00030F48A30C1F08D3009F04DC114C08A321F
:102ED00091F08C3209F047C1909125019827909389
:102EE000250109C0109222011092230110922401A1
:102EF000109225014BC1D82FF0E0EE5BFB4F108202
:102F0000C091420410912301CC2309F420C1111176
:102F100016C068ED70E082E494E00E942F38892B9F
:102F200019F480E28093240162ED70E082E494E081
:102F30000E942F38892B19F480E680932401809118
:102F400024018F3F19F581E0809302042C2F206229
:102F5000213610F0275501C0205380E1289F9001B1
:102F60001124809143048062813610F0875501C09E
:102F70008053280F311D8091250190E028173907D3
:102F800011F01092020480910204E2C0882309F437
:102F9000DEC0212F30E0280F311D2832310509F421
:102FA000ACC0A4F42432310509F473C04CF42232CD
:102FB000310509F448C02332310509F44FC0C7C0B8
:102FC00026323105C9F10CF46FC089C022363105B3
:102FD00079F1DCF42932310509F4AFC0213631052D
:102FE00009F0B5C082E494E00E9480168093F60355
:102FF00084E494E00E9480168093F50386E494E0D4
:103000000E9480168093F403A2C02836310509F48B
:103010006DC02936310509F477C02736310509F02E
:1030200096C00E9404177093E9036093E8038FC071
:1030300081E0C13421F404C081E0C13308F480E0B0
:103040008093030484C00E948D166093EA037093FA
:10305000EB038093EC039093ED0379C0C33509F043
:1030600076C08091EA039091EB03A091EC03B091BC
:10307000ED03B095A095909581959F4FAF4FBF4FB1
:103080008093EA039093EB03A093EC03B093ED03DA
:103090005EC00E948D166093EE037093EF038093E1
:1030A000F0039093F10353C0C73509F050C08091ED
:1030B000EE039091EF03A091F003B091F103B0956E
:1030C000A095909581959F4FAF4FBF4F8093EE0392
:1030D0009093EF03A093F003B093F10338C082E420
:1030E00094E00E94F4376093E70331C00E94041714
:1030F0007093F3036093F2032AC00E940417709345
:1031000001046093000423C082E494E00E948016CE
:103110008093F70384E494E00E94801681508093AA
:10312000F90386E494E00E94801690E08C599F4F4A
:103130009093FB038093FA030AC00E9404176093E4
:10314000E3037093E4038093E5039093E60380E048
:10315000DA3219F49FEF90932401109222011F5F3D
:103160001093230114C0EE3040F491E09E0F909331
:103170002201F0E0EE5BFB4F8083909124019F3FA2
:1031800029F09091250189278093250180E0DF9126
:10319000CF911F9108955E985F988EBD00C000C0CA
:1031A00000C000C000C000C000C000C000005E9AA7
:1031B0005F9A08955E985F988EBD00C000C000C001
:1031C00000C000C000C000C000C000005E9A0895AA
:1031D0005F988EBD00C000C000C000C000C000C02D
:1031E00000C000C000005F9A08951EBC00C000C06F
:1031F00000C000C000C000C000C000C000000DB48E
:1032000007FEFDCF8EB50895EF92FF920F931F93A7
:10321000CF93DF935C9A8AB1806D8AB984B188625A
:1032200084B980E58CBD8DB581608DBD5F9A5C9859
:1032300087E99AE30197F1F700C000005C9A9FEFDD
:10324000E4E6F4E09150E040F040E1F700C0000017
:1032500081E00E94CB1887E99AE30197F1F700C05B
:103260000000EEEDF0E0CF01019624910FEF020F88
:103270002223B9F0EF012296FC0184910E94CB1821
:10328000102F7E01112349F0F70184910E94E81864
:103290001150C70101967C01F5CFFE01E00FF11D31
:1032A000E2CF81E10E94CB18E7E9FAE33197F1F729
:1032B00000C0000089E2DF91CF911F910F91FF9034
:1032C000EF900C94CB180E94DA180E94F5185F9AC0
:1032D0000895CF92DF92EF92FF920F931F93CF93B7
:1032E000DF93D82EC92E162F072FF42EE52EE901D5
:1032F0008AE20E94DA18CEBC00C000C000C000C044
:1033000000C000C000C000C00000DEBC00C000C0A3
:1033100000C000C000C000C000C000C00000EEBC83
:1033200000C000C000C000C000C000C000C000C09D
:103330000000FEBC00C000C000C000C000C000C053
:1033400000C000C000008BE20E94DA180EBD00C071
:1033500000C000C000C000C000C000C000C000002D
:103360001EBD00C000C000C000C000C000C000C042
:1033700000C00000DEBD00C000C000C000C000C032
:1033800000C000C000C00000CEBD00C000C000C032
:1033900000C000C000C000C000C000008CE20E945D
:1033A000DA185F9ADF91CF911F910F91FF90EF9004
:1033B000DF90CF9008950F931F93CF93DF93EA018F
:1033C000122F032F209102013091030182179307DE
:1033D00008F031C02091000130910101621773079C
:1033E00008F029C0AB014C0F5D1F2417350718F4F6
:1033F000E901C61BD70B9B01215031092C0F3D1F42
:10340000AC010E9469195F982097A1F00EBD00C021
:1034100000C000C000C000C000C000C000C000006C
:103420001EBD00C000C000C000C000C000C0000041
:10343000219761F75F9ADF91CF911F910F910895C6
:103440000F931F93CF93DF93EA01122F032F209145
:103450000201309103018217930708F031C04091B7
:103460000001509101016417750708F029C0AC01F3
:103470004C0F5D1F2417350718F4E901C81BD90B41
:10348000AC01415051094C0F5D1F9B010E9469190D
:103490005F982097A1F00EBD00C000C000C000C022
:1034A00000C000C000C000C000001EBD00C000C0C1
:1034B00000C000C000C000C00000219761F75F9A03
:1034C000DF91CF911F910F910895EF92FF920F938B
:1034D0001F93CF93DF937A01E9014091020150914C
:1034E00003018417950708F042C020910001309134
:1034F00001016217730708F03AC0FC01EE0DFF1DD1
:103500004E175F0718F47A01E81AF90AAB014C0F5D
:103510005D1F2417350718F4E901C61BD70B9B0163
:10352000215031092C0F3D1FAC01415051094E0D66
:103530005F1D0E9469195F982197C0F0C70100972D
:10354000A1F01EBD00C000C000C000C000C000C08F
:1035500000C000C000000EBD00C000C000C000C020
:1035600000C000C00000019761F7E6CF5F9ADF91CD
:10357000CF911F910F91FF90EF9008950F931F939C
:10358000209100013091010140910201509103010D
:103590008C0160E070E080E090E00E94651A1F916D
:1035A0000F910895CF93C82F86E30E94CB18C130A6
:1035B00039F020F0C23089F488E804C088E402C001
:1035C00088E20CC00E94E81880EF90E0909303011D
:1035D0008093020180E491E00BC088EE0E94E8181D
:1035E00080E491E0909303018093020180EF90E0EA
:1035F0009093010180930001CF910895AF92BF9203
:10360000CF92DF92EF92FF920F931F93CF93DF93AE
:103610007C016B01EA01590198010E94201AB50151
:10362000615071096C0D7D1D9801AE01C7010E94AA
:10363000201A9801A501B601C7010E94DB19CE012D
:1036400001979801A501B6018E0D9F1DDF91CF91C5
:103650001F910F91FF90EF90DF90CF90BF90AF90B0
:103660000C94DB194F925F926F927F928F929F9290
:10367000AF92BF92CF92DF92EF92FF920F931F9380
:10368000CF93DF933C012B01490100271127041B35
:10369000150BE801CC0FDD1F2296C12CD12C760131
:1036A000EE0CFF1C9401A7015201AC18BD08B50136
:1036B000C301801B910B0E94DB199401A701B50186
:1036C000C801860D971D0E94DB19CC16DD06ACF0F3
:1036D0008FEFC81AD80A83E0E80EF11CEC0EFD1E2D
:1036E00088279927801B910BC816D90639F40C1727
:1036F0001D073CF0C0E0D0E001C07E010C171D07A3
:103700004CF40F5F1F4FE801CC0FDD1F2196CE0D4B
:10371000DF1D01C0E701101611060CF6DF91CF91F5
:103720001F910F91FF90EF90DF90CF90BF90AF90DF
:103730009F908F907F906F905F904F9008952F9201
:103740003F924F925F926F927F928F929F92AF9231
:10375000BF92CF92DF92EF92FF920F931F93CF937E
:10376000DF93CDB7DEB760970FB6F894DEBF0FBE1C
:10377000CDBF988B8F874B015A013901260126173F
:10378000370744F4E616F7068CF46B014901588BB1
:103790004F8706C0E216F3060CF008C16301C501AD
:1037A000E814F90484F03701580113C06701C80117
:1037B000322F272D3B01832E922E2B2DAF84B888DC
:1037C0004F87288B06C03401AF84B88847010F8724
:1037D000188B8C149D0409F03FC02F853889A216E0
:1037E000B3066CF03F8528894F8558894A155B05DB
:1037F00014F43A2D2B2DAF84B8883F87288B8A1577
:103800009B0544F02F8538892817390714F4988BC5
:103810008F87C5014F855889481B590B4F5F5F4FF4
:103820009201B40160960FB6F894DEBF0FBECDBF13
:10383000DF91CF911F910F91FF90EF90DF90CF908C
:10384000BF90AF909F908F907F906F905F904F90C0
:103850003F902F900C94201AA5012F853889421B88
:10386000530B5A874987A301481959095C874B872D
:103870007C01E21AF30A9601281939093E832D8347
:10388000AC014A195B0958874F83C601861997090D
:103890009E878D876C147D0431F09301215031098E
:1038A0003C832B8302C07C826B828401212C312CCF
:1038B0001A8219824B815C814017510794F18981EA
:1038C0009A816B857C850E947637EF85F889E60FB3
:1038D000F71FC1016D817E810E9476374F8558891F
:1038E000640F751F89819A8129853A85820F931FFC
:1038F0009A8389832E0C3F1C6E177F072CF49E2F12
:103900008F2FFB01692F782F6E1B7F0BAB014F5F51
:103910005F4F9201B801CF010E94201A0F5F1F4F25
:10392000C9CFC801861997092F813885829F300138
:10393000839F700C929F700C1124C80188199909FB
:103940008E9D40018F9D900C9E9D900C1124C01661
:10395000D1067CF1C3016D857E850E947637FB011F
:10396000EA0DFB1DC4016D817E810E9476374F8573
:103970005889640F751F8F819885680E791E8E0C8B
:103980009F1C6E177F072CF49E2F8F2FFB01692F32
:10399000782F6E1B7F0BAB014F5F5F4F9201B80119
:1039A000CF010E94201A0F5F1F4FD1CF6701C801BE
:1039B00010CF60960FB6F894DEBF0FBECDBFDF917B
:1039C000CF911F910F91FF90EF90DF90CF90BF901C
:1039D000AF909F908F907F906F905F904F903F90AF
:1039E0002F9008959093050480930404FC01249182
:1039F0003196849190E0922B909307048093060473
:103A000008952F923F924F925F926F927F928F9282
:103A10009F92AF92BF92CF92DF92EF92FF920F935D
:103A20001F93CF93DF93CDB7DEB728970FB6F894E7
:103A3000DEBF0FBECDBF5801A0910404B0910504B4
:103A4000FD013296F490319614913196049131969D
:103A5000549116962090060430900704C12ED12C64
:103A6000F6013796F595E795F595E795F595E79580
:103A7000FA83E983401BE42FF0E002E020163104D2
:103A800098F469807A80E69DA001E79D500DF69D2F
:103A9000500D1124F49EF001F59EF00D11243D010E
:103AA0006E0E7F1E00E024C0EA0FFB1FF490E12F92
:103AB000E77019F008E00E1B01C000E0FD01712C59
:103AC000812C912C741631F06490860C911C7394A7
:103AD0003196F8CF69807A80689CF001699CF00D7E
:103AE000789CF00D1124E50FF11D3D016E0E7F1E37
:103AF0008F2C912C9C828B824E2C512CE0910201B8
:103B0000F0910301AC01FE9C400D511D1124E417FE
:103B1000F50708F4D2C0E0910001F0910101AB017A
:103B20001E9D400D511D1124E417F50708F4C5C072
:103B30002A153B0509F4C1C09980988641E051E0FF
:103B40002516310409F440E03E832D83842E912C08
:103B50002B813C81280D391D249DF001259DF00D00
:103B6000349DF00D1124FA83E983C80CD91CC49C40
:103B70009001C59C300DD49C300D1124AB014150F7
:103B80005109240F351FAC01415051094E0F5F1FE1
:103B90000E9469195F98849C6001859CD00C949C5C
:103BA000D00C11243B2D91E0002E01C0990F0A94F6
:103BB000EAF79F8381E08E2C912C6D817E81AD820E
:103BC000112309F457C020E0562D2E1509F440C0EA
:103BD000F3014E2F451B4F1508F021C04491482397
:103BE00019F44D81932F02C0462F972FD4011097BF
:103BF000A1F09EBD00C000C000C000C000C000C059
:103C000000C000C000004EBD00C000C000C000C029
:103C100000C000C00000119761F73196DACFF601BD
:103C20003097A1F03EBD00C000C000C000C000C081
:103C300000C000C000C00000AEBC00C000C000C09A
:103C400000C000C000C00000319761F72F5FBDCFFA
:103C5000880F71F44B815C81640E751E002329F07E
:103C6000588551505887513011F081E001C08F8143
:103C70001150A6CF2A942328F9F069807A80469CB7
:103C8000C001479C900D569C900D11240097A1F007
:103C9000BEBC00C000C000C000C000C000C000C06A
:103CA00000C00000AEBC00C000C000C000C000C02A
:103CB00000C00000019761F75F9A28960FB6F8944C
:103CC000DEBF0FBECDBFDF91CF911F910F91FF904F
:103CD000EF90DF90CF90BF90AF909F908F907F90AC
:103CE0006F905F904F903F902F900895AF92BF924A
:103CF000CF92DF92EF92FF920F931F93CF93DF93B8
:103D00005A01E901980121503109260F371FAE01F0
:103D100041505109480F591F0E9469195F980C9F23
:103D2000C0010D9F900D1C9F900D1124A0E0B0E0EC
:103D3000F501181619061A061B060CF04CC0249142
:103D400027FF27C0322F3F733F5FC32FD0E026FDF0
:103D500003C02C2D4D2D02C02E2D4F2D2097A1F0EC
:103D60004EBD00C000C000C000C000C000C000C008
:103D700000C000002EBD00C000C000C000C000C0D8
:103D800000C00000219761F7831B9109A109B109C7
:103D900020C037E020FD02C0A60101C0A7015EBD22
:103DA00000C000C000C000C000C000C000C000C013
:103DB00000004EBD00C000C000C000C000C000C078
:103DC00000C000C000002695315021F70797A109D7
:103DD000B1093196AECF5F9ADF91CF911F910F91CC
:103DE000FF90EF90DF90CF90BF90AF90089520911B
:103DF0000201309103018217930710F0C901019766
:103E000090932901809328018091000190910101F4
:103E10006817790718F0BC01615071097093270188
:103E20006093260108952091280130912901FC0119
:103E3000318320838091260190912701FB0191839A
:103E40008083089590930701809306017093050184
:103E5000609304010895809308010895EF920F93F1
:103E60001F93CF932091040430910504F9013396F8
:103E700044913196949160910604709107046230E8
:103E8000710548F0E82FF0E03696E91BF109E20FE2
:103E9000F31FC49106C0F9013296C49161307105D7
:103EA00011F04F5FCF5F8A3099F410922901109280
:103EB0002801209108018091260190912701429FBD
:103EC000800D911D1124909327018093260130C00D
:103ED000F90135962491891758F1482F50E030E0C8
:103EE000290F311D421753071CF5482F009104017B
:103EF0001091050120910601309107016091260182
:103F000070912701E090080180912801909129018A
:103F10000E94011D209108018091280190912901A2
:103F2000C29F800D911D1124909329018093280137
:103F3000CF911F910F91EF900895E0910404F091BB
:103F400005043396E491809106049091070401974B
:103F500009F0EF5F80910801E89F802D11240895FA
:103F60002091040430910504F9013496449131966E
:103F7000E4918417F8F090E050E0BA016E0F711DE3
:103F800086179707BCF460910604709107046230AD
:103F9000710538F0FC013696E41BF50BE20FF31FB8
:103FA00002C0F9013296E49180910801E89F802DCA
:103FB0001124089580E008950F931F93CF93DF930A
:103FC0008C01C0E0D0E0F80181918F01882389F055
:103FD0000E94B01F8823B9F3C80FD11D8091060439
:103FE00090910704019779F380910801C80FD11DC2
:103FF000EACFCE01DF91CF911F910F9108950F93DA
:104000001F93CF93DF938C01C0E0D0E0F80184913F
:10401000882399F00E94B01F882361F0C80FD11D3A
:104020008091060490910704019721F08091080186
:10403000C80FD11D0F5F1F4FE9CFCE01DF91CF9188
:104040001F910F910895CF93DF93EC0189918823FD
:1040500019F00E942E1FFACFDF91CF910895CF93D0
:10406000DF93FC018491EF012196882321F00E94C7
:104070002E1FFE01F7CFDF91CF9108950F931F936D
:10408000CF93DF93EC01E0910404F09105043396A3
:10409000E4918091060490910704019709F0EF5F85
:1040A000A0912801B091290100910401109105010E
:1040B00020910801E29FE02D11242E2F30E0AE0167
:1040C0004A1B5B0B57FF03C0519541955109609105
:1040D000260170912701CD01CA17DB0708F4CE0134
:1040E0000E94651ADF91CF911F910F910895FC01F5
:1040F00080819181A281B381B23C20F08058924AA4
:10410000A149B44BBC01CD016059794A8D4E984DFF
:1041100020E83AE349E050E00E948A37ACE1B0E0A1
:104120000E94E13725EB35E040E050E00E948A37FD
:104130006835734018F080E090E0089580E19EE0DB
:104140000895CF93DF938091AF0190E0DC0133E0DD
:10415000AA0FBB1F3A95E1F7FD01E35AFB4F20E19F
:10416000C0E7DEEF67EE73E042EE54E0138612869E
:10417000D787C68771876087558744872150BC964B
:104180002111F4CFAD5EBB4F1B961C921E921A9765
:1041900020E630EF1F963C932E931E9723E0880F66
:1041A000991F2A95E1F7FC01E55EFB4F88EE93E04D
:1041B0009183808384E391E21D969C938E931C9758
:1041C000DF91CF91089520911501213071F044E2E3
:1041D000489F9001499F300D1124C90164E170E0AE
:1041E0000E947637CB01805C9E4F0895803418F48E
:1041F000803238F001C08FE32FE7982F990F291BE9
:1042000001C02FE3803208F08FE190E0982F8827DB
:10421000990F990F990F30E2239F800D911D112462
:1042200008950F931F9381E08093AC018091A901C1
:104230009091AA010E94BE1A00E114E828EA30E039
:1042400040E451E060E270E080E090E00E94FE1AFD
:104250001F910F9108950F931F93CF93DF9300D079
:1042600000D0CDB7DEB7082F0E949D1F182FBE01CA
:104270006F5F7F4FCE0103960E94131F81EE9BE07C
:104280000E94F21C802F0E942E1F8091A901909104
:10429000AA01212F30E02850310969817A81685FB5
:1042A0007F4F8C0148E050E08B819C810E94651A11
:1042B00083EC97E10E94F21C0F900F900F900F90EB
:1042C000DF91CF911F910F910895CF93C82F89E06F
:1042D0000E942B2180911501813011F086E401C0EC
:1042E00083E40E942E1FCC2321F080E2CF910C9416
:1042F0002E1FCF9108950F931F931092AC018091C0
:10430000A9019091AA010E94BE1A83EC97E10E9434
:10431000F21C00E114E820EE30E042ED50E060E0F5
:1043200070E080E090E00E94FE1A60E070E081E0C2
:1043300090E00E94F71E60E174E880910E01909178
:104340000F010E94221F81EC92E00E942F2081ED3C
:1043500090E00E943E2020EE30E04EE650E060E02B
:1043600070E082ED90E00E94FE1A60E070E083ED64
:1043700090E00E94F71E84EB92E00E942F208FE3D2
:1043800091E00E943E206091A9017091AA01809164
:104390000E0190910F010E94221F6FE070E087E2F2
:1043A00091E00E94F71E80E00E94652168E270E0C3
:1043B00087E291E00E94F71E85E20E942E1F61E4D1
:1043C00070E087E291E00E94F71E80911701823031
:1043D00051F481EB92E00E942F2060E570E087E2CB
:1043E00091E00E94F71E80911701823039F08330EE
:1043F00041F0843049F082EA92E008C08EEA92E00F
:1044000005C08AEA92E002C086EA92E00E942F206C
:1044100081E0809323071F910F910895CF92DF923F
:10442000EF92FF920F931F9382E08093AC018091F3
:10443000A9019091AA010E94BE1A60E570E080E097
:1044400090E00E94F71E82E792E00E942F2080E118
:10445000C82E84E8D82E94E1E92EF12C00E010E07B
:1044600020E030E044E150E060E070E080E090E087
:104470000E949F1B2FEEE22EF12C0FE311E02FEE96
:1044800030E04BE251E06BED70E08FE391E00E9491
:104490009F1B1F910F91FF90EF90DF90CF90089599
:1044A0008F929F92AF92BF92CF92DF92EF92FF9244
:1044B0000F931F93CF93DF938C01EB01FC0197FFC8
:1044C00004C0EE27FF27E81BF90B41112F5FF12CE9
:1044D0008AE0C82ED12C5E01A40EB11C9EE2E92E0A
:1044E00031E03F0D4E018F0C911CCF01B6010E94AF
:1044F0006237805DD4018C93431304C032E03F0DDA
:10450000D501EC92CF01B6010E946237FB013097D2
:1045100011F0F32EE5CF3417E0F340E3832F90E062
:10452000321730F4FE01E80FF91F40833F5FF6CFEA
:1045300017FF06C0FE01E80FF91F2DE220833F5F41
:10454000FE01E30FF11D1082CE01DF91CF911F918B
:104550000F91FF90EF90DF90CF90BF90AF909F9022
:104560008F900C94383822E041E062E474E00E94BD
:1045700050220C94232020E040E062E474E00E948A
:1045800050220C942320CF92DF92EF92FF92690188
:104590007A0157FD862F0E942E1FC701B60120E425
:1045A0003EE745E050E00E94AC37C90137FF04C048
:1045B00088279927821B930B0E94BB2289E00E94C7
:1045C0002B21C701B60120E43EE745E050E00E9400
:1045D000AC376B017C0120E737E140E050E00E94FE
:1045E000AC37C90137FF04C088279927821B930B7A
:1045F0000E94BB2287E20E942E1FC701B60120E75E
:1046000037E140E050E00E94AC37FB0177FF04C087
:10461000EE27FF27E61BF70B23E042E062E474E09D
:10462000CF010E9450220E94232082E2FF90EF904F
:10463000DF90CF900C942E1F4F925F926F927F92DB
:104640008F929F92AF92BF92CF92DF92EF92FF92A2
:104650000F931F93CF93DF93EC016B014A01422E1E
:104660005F2C0E949D1F92E0692E680EC4010E947B
:10467000FF1F0A965C01442029F0842D0E94B01F80
:10468000A80EB11C002311F0102F01C011E02091E1
:104690002F0730913007712C2C173D0798F080912F
:1046A000290790912A078C159D0560F0A5014C0FF4
:1046B0005D1F2417350730F493012C0D3D1D821723
:1046C000930738F01F112CC00111E12CE126512C69
:1046D00027C060E174E88091A9019091AA010E942D
:1046E000221F512E00910E0110910F019301A5017F
:1046F000B601CE010E94FE1AB6016F5F7F4FCE0158
:1047000006960E94F71ECE0101960E943E20C4012B
:104710000E942F20442069F0842D0E942E1F09C082
:104720001E11E0CF60910E0170910F01E12E152D49
:10473000D2CFCE0101978A0D9B1D0E943E20609131
:10474000A9017091AA0180910E0190910F010E9420
:10475000221F8E2D952DDF91CF911F910F91FF90EC
:10476000EF90DF90CF90BF90AF909F908F907F9011
:104770006F905F904F900895FF920F931F93CF9388
:10478000DF930E943F0FEC018A8122E040E062E467
:1047900074E0082E000C990B0E94502202E414E0F1
:1047A0008AE3F82EF801F282898122E040E065E494
:1047B00074E0082E000C990B0E945022F801F5823B
:1047C000888122E040E068E474E0082E000C990B38
:1047D0000E945022C801DF91CF911F910F91FF904D
:1047E0000C942320EF92FF920F931F93CF93DF93AC
:1047F0008C017B01EA01C90122E041E062E474E03E
:104800000E945022C00FD11F82E494E00E94DC1F5E
:10481000B7019E01281B390BC9010E94F71EC80170
:104820000E943E2082E494E0DF91CF911F910F918E
:10483000FF90EF900C9423202091190180910E019C
:1048400090910F01233029F42091AB01211110C068
:1048500002C0223069F40196C9F08FEF9FEF909368
:104860000F0180930E011092AA011092A9010CC0B1
:10487000892B61F010920F0110920E018FEF9FEFC4
:104880009093AA018093A90181E0089580E00895A2
:104890000F931F93CF93DF938C01EB01CA01B901F2
:1048A00020911701223061F40E94BA3621EB30E5E5
:1048B00045E551E40E9410360E948236CB0112C0B9
:1048C000233039F40E94BA3622EA34E747E052E452
:1048D00012C0243051F02AE030E040E050E00E9465
:1048E000AC37C90122E041E00DC00E94BA3626E58E
:1048F0003EEE49E852E40E9410360E948236CB0117
:1049000023E042E062E474E00E945022209749F0E4
:1049100082E494E00E94DC1F9E01281B390BC90130
:1049200002C080E090E0B8018D529F4F0E94F71EB8
:10493000CD2B21F083ED90E00E943E2082E494E0B4
:10494000DF91CF911F910F910C9423201F920F9212
:104950000FB60F9211242F933F934F935F936F9352
:104960007F938F939F93AF93BF93EF93FF93809128
:10497000AD019091AE0101969093AE018093AD018F
:104980008091A7019091A8010196883E23E09207AB
:1049900029F09093A8018093A70139C01092A80133
:1049A0001092A7010E941911EDE5F4E08181928136
:1049B000019692838183BC9687E0ED31F807B1F7C9
:1049C0009091220781E098279093220780931F07F8
:1049D0009091A6019F5F9C3319F09093A60117C098
:1049E0001092A6012091A4013091A5012F5F3F4FA5
:1049F0003093A5012093A4018093200728363140ED
:104A000031F41092A5011092A40180932107FF9127
:104A1000EF91BF91AF919F918F917F916F915F9136
:104A20004F913F912F910F900FBE0F901F901895AF
:104A3000CF93DF93CDB7DEB7AD970FB6F894DEBF57
:104A40000FBECDBF83E284BD82E085BD9FE798BDE8
:104A5000559A8093B00094E09093B1009AEB9093B4
:104A6000B3008093700080E792E00E942E348CEEB9
:104A700092E00E9482340E9404198FE00E94631920
:104A8000803C21F086EE92E00E94823480911001F9
:104A90000E94D21A0E94A5340E947B218DED92E0E3
:104AA0000E9482340E944513882321F087ED92E012
:104AB0000E9482340E94E93280E680937C0087E87D
:104AC00080937A000E94A12060E17EE080E090E087
:104AD0000E94551087E790E20E94331005E814E029
:104AE00040E0C42E40E0D42EF12C53E2E52E44E009
:104AF00050E0B601C8010E94A53AD8018C918F3FC1
:104B000059F4EC92B9E0BF1510F080E301C087E3DF
:104B10008F0DF80181831282F394045D1F4FF4E03E
:104B2000CF0ED11C20E1F212E2CF1AA61BA61CA6C2
:104B30001DA619A218A21CA23FEF398F4091AD010A
:104B40005091AE015EA34DA34A9933C08091AC0150
:104B500081112FC081E090911B01911101C080E073
:104B6000809340048091190180932607809115015C
:104B700080932407809117018093250781E090910D
:104B80001301911101C080E080933F0488B58093A8
:104B90005C04209131073091320780912B0790916E
:104BA0002C072817390719F00E94112102C00E9412
:104BB0000E22609110018FEF0E94FD3480911B0145
:104BC000882399F080917C00807F826080937C00B4
:104BD00080917A00806480937A0080917A0086FDCB
:104BE000FCCF80917900809588BD8091AC018130A7
:104BF00009F075C410910C0182E00E942B1FE09017
:104C00000C01F0900D0101E020E04BE652E060E085
:104C100070E080E090E00E941C2390930D0180934F
:104C20000C017C0102E020E047E652E060E070E029
:104C300080E690E00E941C2390930D0180930C016C
:104C40007C0103E020E043E652E060E070E080EAAF
:104C500090E00E941C2390930D0180930C017C0135
:104C600004E020E04DE552E060E070E086ED90E089
:104C70000E941C2380930C0190930D01181771F072
:104C80000091A9011091AA0126EA30E04EE351E01B
:104C900061E270E081E090E00E94651A80910C0171
:104CA000813009F0E8C00E942B1F65E270E08AE0C5
:104CB00090E00E94F71E8FE392E00E942F206EE3A7
:104CC00070E08AE090E00E94F71E8091110187FD5C
:104CD00003C08BE20E942E1F80911101082E000C50
:104CE000990B0E94BB2287E290E00E943E206BE578
:104CF00070E08AE090E00E94F71E83E392E00E9459
:104D00002F2061E970E08AE090E00E94F71E8AE2BD
:104D100092E00E942F2082E00E942B1FE0909C01D5
:104D2000F0909D0100E020E048E252E066E370E090
:104D300088E290E00E941C2380939C0190939D0147
:104D4000882349F080911101853F1CF081508093A8
:104D5000110110929C01E0909A01F0909B0100E0FB
:104D600020E046E252E066E370E08BE390E00E94D0
:104D70001C2380939A0190939B01882349F0809192
:104D800011018C301CF48F5F8093110110929A01F5
:104D9000E0901D01F0901E0100E020E042E252E0B0
:104DA00066E370E08FE590E00E941C2390931E0163
:104DB00080931D01E0901501F090160101E020E0C4
:104DC0004AE152E06CE670E08AE090E00E941C2329
:104DD00090931601809315017C0102E020E04FE0E2
:104DE00052E06CE670E086E790E00E941C2390930E
:104DF000160180931501E0901701F090180101E071
:104E000020E04BE052E062EA70E08AE090E00E942D
:104E10001C2390931801809317017C0102E020E08D
:104E200046E052E062EA70E08CE490E00E941C23CD
:104E300090931801809317017C0103E020E042E089
:104E400052E062EA70E08CEA90E00E941C239093AA
:104E50001801809317017C0104E020E04EEF51E03F
:104E600062EA70E08CEE90E00E941C23909318019F
:104E700080931701AFC2823009F036C181E00E94F1
:104E80002B1F65E270E08AE090E00E94F71E83EF3E
:104E900091E00E942F2088B554E6859FC00111241F
:104EA0006FEF70E00E946237CB010E94BB2285E267
:104EB0000E942E1F87E790E00E943E206BE570E085
:104EC0008AE090E00E94F71E8DEE91E00E942F2074
:104ED00061E970E08AE090E00E94F71E81EE91E0C7
:104EE0000E942F2082E00E942B1FC8B4D12C0E9468
:104EF0009D1F8E5FA090A901B090AA0160912F071D
:104F000070913007E82EF12C6A30710528F18091FC
:104F1000290790912A0786339105F0F0623D7105CB
:104F2000D8F497012A5C3F4F82179307A8F4CB016E
:104F3000A0E0B0E00A97A109B1096627782F892F70
:104F40009A2F28EC30E040E050E00E94AC37690135
:104F500030E1A32E34E8B32E00910E0110910F0121
:104F6000970148EC50E066E370E08AE090E00E9430
:104F7000FE1A22EB30E0D6010E94DA372FEF30E044
:104F800040E050E00E94AC3729013A0162E0E61AA5
:104F9000F10885019701A20167E370E08BE090E0E2
:104FA0000E94651A00910E0110910F01C2010B962B
:104FB000970144E150E067E370E00E94651A42EB1C
:104FC00050E044195509C2014F968501970167E3E6
:104FD00070E00E94651AC8BCE0901B01F0901C01B3
:104FE00000E020E04CED51E066E370E08CED90E0F5
:104FF0000E941C2390931C0180931B01E0901901D7
:10500000F0901A0101E020E046ED51E06CE670E01E
:105010008AE090E00E941C2390931A01809319016A
:105020007C0102E020E041ED51E06CE670E08FE5AC
:1050300090E00E941C2390931A01809319017C0137
:1050400003E020E04CEC51E06CE670E08FEA90E089
:105050000E941C2390931A01809319010E941C2422
:1050600081110E941121E0900A01F0900B0100E0F3
:1050700020E047EC51E062EA70E08AE090E00E94B4
:105080001C2380930A0190930B01882359F080918F
:105090001001813039F483E0809310010E94D21A0C
:1050A0000E94112180910A0181110BC08091100191
:1050B000833039F481E0809310010E94D21A0E945B
:1050C0001121E090A201F090A30100E020E043E56F
:1050D00052E062EA70E08BE490E00E941C2390931F
:1050E000A3018093A20176C1833009F0A4C081E0BE
:1050F0000E942B1F65E270E08AE090E00E94F71E9C
:1051000080EC91E00E942F206BE570E08AE090E057
:105110000E94F71E8CEB91E00E942F2080910204E8
:10512000882309F472C06CE670E08AE090E00E9487
:10513000F71E82EB91E00E942F2080911D07909135
:105140001E070E94BB228DE60E942E1F87E790E07B
:105150000E943E206BE770E08AE090E00E94F71E1C
:105160002091EA033091EB034091EC035091ED0361
:1051700063E58EE40E94C32287E790E00E943E2010
:105180006AE870E08AE090E00E94F71E2091EE034A
:105190003091EF034091F0035091F10367E585E40E
:1051A0000E94C32287E790E00E943E2069E970E0F8
:1051B0008AE090E00E94F71E84EF93E00E94880F3F
:1051C00069837A838B839C8362E474E0CE010196C9
:1051D0000E94B80E82E494E00E94232080EC90E0CC
:1051E0000E943E2068EA70E08AE090E00E94F71E8C
:1051F00086EA91E00E942F208091E70390E00E94D0
:10520000BB2287E790E00E943E2082E00E942B1F95
:10521000E0901301F090140100E020E04EE951E02D
:1052200066E370E08AE090E00E941C2390931401F2
:1052300080931301CFC081E00E942B1F6FE270E0CA
:105240008AE090E00E94F71E8EE891E00E942F20F5
:105250008091990190E00E94BB228BE891E00E942E
:105260002F20809199017CE2879FC00111248B57E8
:105270009B4F0E94232080912207882319F08FE5FD
:105280000E942E1F84EB90E00E943E2081EE9BE066
:105290000E94F21C82E00E942B1FA09199018CE2D7
:1052A000A89FD0011124AB57BB4FFD0101900020F6
:1052B000E9F731976F01CA1ADB0A3C2C13E0812E03
:1052C000912C00E5602E712CDD248CE2582E20916B
:1052D0008501872D90E0FC01222319F0E55EF94F4E
:1052E00002C0ED5BF94F1491112309F46FC0880FD0
:1052F000991FDC01A55BBE4F5D01ED90FC90662D12
:1053000070E000E0212F4AE851E0C4010E941C2314
:10531000F50191838083882309F443C01E3109F489
:1053200040C0108210928501183131F480919901AA
:105330008823C9F0815007C0193141F48091990147
:105340008F3088F48F5F809399010DC01B3159F421
:1053500080919901F601589EE00DF11D1124E35A48
:10536000FB4F17A21EC0E2E0E315D8F0609199014F
:1053700070E0569EC001579E900D1124FC01E35A27
:10538000FB4FEC0DFD1D10A711A6660F771F660FD2
:10539000771F6050704044E050E08B579B4F0E9455
:1053A000BB3AF0E28F0E911C00E3801601E09006FC
:1053B00028F016E1610EF3E08F2E912C739424E116
:1053C000721285CF30E1830E911C81CF83EC97E17F
:1053D0000E94F21CE090A001F090A10100E020E00A
:1053E00040E552E06CEC70E080E590E00E941C2308
:1053F0009093A1018093A001E0909E01F0909F0105
:1054000020E049E452E06CEC70E086E990E00E9414
:105410001C2390939F0180939E0181E00E942B1F8B
:105420008091A201882321F01092A2010E940E22F5
:105430008091A001882341F11092A0018091110177
:105440008093120180911D0191E0811101C090E0D3
:1054500090931F01811103C080E090E002C087E7B4
:1054600090E20E9433104091120120E13EE042039D
:10547000B001439F700D1124072E000C880B990B6F
:105480000E9455100E947B2180919E01882309F47F
:10549000ADC710929E0180911201809311018091FD
:1054A0001F0180931D0180915C0488BD80914004A0
:1054B00080931B018091240780931501809125071B
:1054C00080931701809126078093190180913F04F2
:1054D000809313010E941C240E947B2187C7823085
:1054E00009F05BC06091290770912A072FE130E035
:1054F00043E050E080912F07909130070E94321BCB
:1055000082E00E942B1FE0904901F0904A0100E0E8
:1055100020E044E851E068E870E088EC90E00E9408
:105520001C2390934A0180934901E0904701F09039
:10553000480120E04FE751E068E870E08CE390E03C
:105540000E941C23909348018093470181E00E94B0
:105550002B1F809149018823B1F0109249018FEFF0
:105560009FEF90932E0780932D07909328078093A9
:10557000270790932C0780932B07909332078093F3
:1055800031070E940E2280914701882309F42EC71B
:10559000109247010E94112129C780911F0788237B
:1055A00009F424C710921F07188E1F8A80912107C3
:1055B000882399F0109221078091AF0190E0019625
:1055C000837099278093AF0180912001843018F473
:1055D0008F5F809320010E94A120AE01435F5F4F47
:1055E000BE016F5E7F4FCE0147960E947F132D85CF
:1055F0003E854F855889AAE0B0E00E94E1376B01F3
:105600007C01EAE0F694E794D794C794EA95D1F741
:10561000CD86DE86EF86F88A2F89388D203640EFDA
:105620003407DCF2E091AF01F0E0CF0173E0880FC6
:10563000991F7A95E1F7DC01AD5EBB4F1A964D914B
:105640005C911B9760E070E04C155D056E057F0571
:1056500020F41B96DC92CE921A9763E0EE0FFF1FA8
:105660006A95E1F7E55EFB4F4081518160E070E0B3
:10567000C416D506E606F70610F4D182C082FC01F6
:10568000ED5EFB4F468557854217530714F4378765
:105690002687FC01ED5EFB4F848595852817390729
:1056A00014F43587248760911B0470911C047B8F50
:1056B0006A8F20901D0430901E04A0901F04B090AB
:1056C0002004609021047090220490912001E3E175
:1056D000F4E081E038968917E8F4228533852216B4
:1056E000330608F4190120853185AA8DBB8D2A1750
:1056F0003B0710F43B8F2A8F268537856216730689
:105700000CF43901248535852A153B050CF4590123
:105710008F5FE0CF80912007882309F425C1109284
:10572000200710914601812F65E00E945637B4E0B2
:105730009B9FF0011124EE5CFE4F89899A89AB8909
:10574000BC8980839183A283B383E2E3F1E026E402
:1057500031E060E070E0CB01C190D190E190F19038
:105760006C0D7D1D8E1D9F1D2E173F07A9F725E08F
:1057700030E040E050E00E948A37DA01C9011F5F43
:10578000153B18F41093460103C026E02093460110
:1057900020914601253049F480932E0190932F01EA
:1057A000A0933001B0933101DCC02332C1F40091E9
:1057B0002E0110912F012091300130913101801B79
:1057C000910BA20BB30B20910901BC01CD01660F17
:1057D000771F881F991F222309F459C014C02C3346
:1057E000D9F400912E0110912F01209130013091B8
:1057F0003101BC01CD01601B710B820B930B209119
:1058000009012223F9F160930F047093100480932F
:10581000110490931204A5C02F35C1F400912E01FC
:1058200010912F012091300130913101801B910B9B
:10583000A20BB30B20910901BC01CD01660F771FAC
:10584000881F991F222309F43FC021C0283721F562
:1058500080932A0190932B01A0932C01B0932D01EA
:1058600000912E0110912F012091300130913101D2
:10587000BC01CD01601B710B820B930B20910901C0
:10588000222329F022E030E040E050E026C023E06F
:1058900030E040E050E021C02B3951F500912E015D
:1058A00010912F012091300130913101801B910B1B
:1058B000A20BB30B20910901BC01CD01660F771F2C
:1058C000881F991F222329F025E030E040E050E0B6
:1058D00004C027E030E040E050E00E94AC37209365
:1058E0000F0430931004409311045093120439C0F4
:1058F000243BB9F500912E0110912F012091300128
:1059000030913101BC01CD01601B710B820B930BF7
:1059100020910901222329F023E030E040E050E00B
:1059200004C024E030E040E050E00E94AC37209317
:105930000F0430931004409311045093120480918B
:105940002A0190912B01A0912C01B0912D018093FF
:105950002E0190932F01A0933001B093310110924A
:10596000090181E080932307CE0109960E94061168
:1059700080912307882309F4C1C110922307CE0127
:1059800009960E943F0FFC0115818F89988D64E66E
:1059900070E00E947637E0911D07F0911E0700E449
:1059A00060027001112489899A89AB89BC892227F8
:1059B0003327A901281B390B4A0B5B0BDF01A058C9
:1059C000B14CAE0DBF1D0E94EC379F0120583E43E5
:1059D0002E193F09032E000C440B550B0E94AC37C7
:1059E000DA01C901C0900F04D0901004E0901104B6
:1059F000F09012046AE1C616D104E104F1047CF1CE
:105A0000145061E0163008F060E0709141047613A4
:105A100006C0DA01C901805C9E4FAF4FBF4F44EE14
:105A200052E961E070E08A019B01081B190B2A0B07
:105A30003B0BC901B8012EE332E040E050E00E9488
:105A4000AC37E22F27FD04C02E301CF0EDE001C082
:105A5000E0E00E2E000CFF0BEF5EFC4F53C067EE34
:105A6000C6166FEFD606E606F6067CF5145061E022
:105A7000163008F060E070914104761306C0DA0138
:105A8000C90180549140A109B10943E552E961E09F
:105A900070E08A019B01081B190B2A0B3B0BC90103
:105AA000B8012CE832E040E050E00E94AC37E22F31
:105AB00027FD04C02A301CF0E9E001C0E0E00E2E12
:105AC000000CFF0BE95FFC4F1DC089EA92E9A1E0E1
:105AD000B0E0BC01CD01621B730B840B950B20EB76
