:100000000C94570F0C94740F0C94740F0C94740F81
:100010000C94740F0C94740F0C94740F0C94E91BD3
:100020000C94740F0C94740F0C94740F0C94A11B0B
:100030000C94740F0C94740F0C94740F0C94740F34
:100040000C94740F0C94740F0C94A4240C94D92465
:100050000C94740F0C94740F0C94740F0C94740F14
:100060000C94740F0C94740F04EF03800204CF00FF
:10007000C13005ED6403128104E885007806CB39B0
:100080002C00340202F72003EA000002C02302C160
:100090001003C53E2802C786023648023A5503B10E
:1000A000001804B608822702F20002260110E00FB1
:1000B000312B0C0E084EF1370710030E090010E12A
:1000C000000E1403110731C148080F0C31360F0020
:1000D000432000432000435243206572726F720038
:1000E0004E6F20726573706F6E736500206850618B
:1000F0002F6872004320004320006D730068506138
:1001000000426173652073746174696F6E0052659B
:100110006D6F74652073746174696F6E730055013F
:100120004F0148013F0132012A01756E6B6E6F77F6
:100130006E007468756E64657273746F726D0075AD
:100140006E737461626C6500636C6F7564790073C3
:10015000756E6E7900737461626C65009809980B16
:100160009805980798039801801F00F0FF017CC054
:10017000031E000F873F0EE37F08F0F00138800375
:100180001C0003801F00C07F00C0700040400000C2
:100190001F00001B00001F00000000000000000006
:1001A000000000000000000000000000000000004F
:1001B000000000000000000000000000000000003F
:1001C000000000000000000000000000000000002F
:1001D000000000000000000000000000000000001F
:1001E000000000000000000000000000000000000F
:1001F00000000000000000000000000000000000FF
:1002000000000000000000000000000000000000EE
:1002100000000000FE03000000000080FF0F00004F
:10022000000000E0FF3F0000000000F09F7F0000A2
:10023000000000F801FC00000000F0FD00F00100EB
:100240000000FC3F00E003000000FF3F00C003008F
:100250000080FF1F00C0070000800F8C1F80070078
:1002600000C007C03F80070000C003E07F00070018
:1002700000E001F0FB000F0000E001F0F0000F00D3
:1002800000E001F0F0000F0000F801F0F0000700BE
:1002900000FC0160F8803F0000FE01007C80FF0050
:1002A000003F00003E80FF01800F00001E00F003B1
:1002B000800700000F00E003800700000F00C00768
:1002C000C00300000F008007C00300000F00000FF4
:1002D000C00300000600000FC00300000000000F74
:1002E000C00300000F00000FC00300000F00000F4C
:1002F000800700000F008007800F00000F00C0077C
:10030000001F00000000E003007F00000000F80371
:1003100000FEFFFFFFFFFF0100F8FFFFFFFFFF00F0
:1003200000F0FFFFFFFF3F000080FFFFFFFF07001F
:1003300000000000000000000000000000000000BD
:1003400000000000000000000000000000000000AD
:10035000000000000000000000000000000000009D
:10036000000000000000000000000000000000008D
:10037000000000000000000000000000000000007D
:10038000000000000000000000000000000000006D
:10039000000000000000000000000000000000005D
:1003A000000000000000000000000000000000004D
:1003B000000000000000000000000000000000003D
:1003C000000000000000000000000000FC0300002E
:1003D00000000080FF0F0000000000C0FF3F000091
:1003E000000000F0FF7F0000000000F803FC0000A8
:1003F0000000F0F900F801000000FC7F00E00100BF
:100400000000FE3F00C003000000FF1F00C0070007
:1004100000800F0E0080070000C007080080070062
:1004200000C003000000070000E0010000000F0012
:1004300000E0010000000F0000E0010000000F00DC
:1004400000F001000000070000FC010000003F0078
:1004500000FE010000807F00003F00000080FF01DF
:10046000001F00000080F803800700000000E00388
:10047000800700000000C007C003000000008007E4
:10048000C00300000000000FC00300003800000F90
:10049000C00300003C00000FC00300003C00000F40
:1004A000C00300003E00000F800700001F0080070F
:1004B000800F00000F008007001F00800700C003AE
:1004C000003F00C00700F00300FE7FE003FCFF01D7
:1004D00000FCFFE001FCFF0000F0FFF001FC3F002A
:1004E00000807FF87FF80F00000000F87F00000018
:1004F000000000FC7F0000000080E1FC3F0C0700D2
:1005000000C0E3001E1E070000C0F3001F9E07008E
:1005100000E0F1000F8F070000E0798007CF0300B3
:1005200000F0788087C7030000F03CC083E701003B
:1005300000783CE0C3E3010000781CE0C1E3000068
:1005400000301CF080E10000000000F0000000001E
:1005500000000078000000000000007C00000000A7
:100560000000003C000000000000001C0000000033
:100570000000001800000000000000000000000063
:10058000000000000000000000000000000000006B
:10059000000000000000000000000000000000005B
:1005A000000000000000000000000000000000004B
:1005B000000000000000000000000000000000003B
:1005C000000000000000000000000000FC0100002E
:1005D00000000080FF0F0000000000C0FF3F00008F
:1005E000000000E0FF7F0000000000F003FE0000BC
:1005F0000000E0F900F801000000FC7F00E00100CD
:100600000000FE3F00C003000000FF1F00C0030009
:1006100000801F1E0080070000C007080080070040
:1006200000C0030000000F0000E0010000000F0008
:1006300000E0010000000F0000E0010000000F00DA
:1006400000F001000000070000FC030000001F0094
:1006500000FE030000807F0000BF01000080FF015A
:10066000001F00000080F901800F00000000E0037F
:10067000800700000000C007C003000000008007E2
:10068000C00300000000800FC00300000000000F46
:10069000C00300000000000FC00300000000000FB6
:1006A000C00300000000000F800700100C0180074D
:1006B000800700389E038007000F003CDF03C0075F
:1006C000003F003CCF03F00300FE3F3ECFFBFF01A5
:1006D00000FC7F9EE7FDFF0000F07F9EE7FD7F00AE
:1006E00000C03FCFF3F80F00000000CFF300000080
:1006F000000080E7FB000000000080E779000000B8
:10070000000080E7790000000000C0F33C0000001A
:100710000000C0F33C0000000000E0793E00000053
:100720000000E0791E0000000000E0791E000000DB
:100730000000F03C0F0000000000F03C0F00000043
:100740000000601E060000000000001E0000000007
:100750000000001F000000000000000F000000006B
:100760000000000F00000000000000070000000073
:100770000000000300000000000000000000000076
:100780000000000000000000000000000000000069
:100790000000000000000000000000000000000059
:1007A0000000000000000000000000000000000049
:1007B0000000000000000000000000000000000039
:1007C0000000000000000000000000000000000029
:1007D000000000001C000000000000001C000000E1
:1007E000000000001C000000000000001C000000D1
:1007F000000000001C000000000000001C000000C1
:10080000000000001C000C00000038001C001E004E
:10081000000078000C001F000000F80000800F00AE
:100820000000F00100C007000000E083FFC00300EB
:100830000000C0E3FFC30100000080F1FF070000DB
:10084000000000FCF30F00000000007C001F00000F
:100850000000003E003E00000000001F007C000081
:100860000000000F00780000000080070078000002
:100870000000800700F0000000E08F0700F0F801A2
:1008800000F09F0700F0FC0700F09F0700F0FC0756
:1008900000E09F0700F0FC030000800700F000006C
:1008A0000000000300F000000000000000780000DD
:1008B00000000006007C00000000C03F003C00007B
:1008C0000000F0FF003F00000000F8FFC11F000023
:1008D00000C0FFF0E30F000000F07FC0F3C701008D
:1008E00000F03F80E7C1030000F81C8007C007004C
:1008F0000078188007C00F000038000007801F0034
:10090000003E00800F001F00003F00803F000E00EF
:10091000803F00807F000000800700807F00000093
:10092000C0030000F8000000C0030000F000000059
:10093000C0030000F0000000C0030000F000000051
:10094000C0070000F0000000800F0000F800000069
:1009500080FFFFFF7F00000000FFFFFF3F0000005F
:1009600000FEFFFF1F00000000F8FFFF070000006F
:100970000000000000000000000000000000000077
:100980000000000000000000000000000000000067
:100990000000000000000000000000000000000057
:1009A0000000000000000000000000000000000047
:1009B0000000000000000000000000000000000037
:1009C0000000000000000000000000000000000027
:1009D0000000000000000000000000000000000017
:1009E0000000000000000000000000000000000007
:1009F00000000000000000000000000000000000F7
:100A000000000000000000000000000000000000E6
:100A100000000000FC03000000000080FF0F000049
:100A2000000000C0FF3F0000000000F0FF7F00005A
:100A3000000000F803FC00000000F0F900F00100E5
:100A40000000FC7F00E003000000FE3F00C0030048
:100A50000080FF1F00C0070000800F1C00800700FF
:100A600000C007080080070000C003000000070066
:100A700000E0010000000F0000E0010000000F0096
:100A800000E0010000000F0000F00100000007007E
:100A900000FC010000803F0000FE010000807F009C
:100AA000003F00000080FF01000F00000080F803FD
:100AB000800700000000E003800700000000C0077E
:100AC000C003000000008007C00300000000000F0A
:100AD000C00300000000000FC00300000000000F72
:100AE000C00300000000000FC00300000000000F62
:100AF0008007000000008007800F000000008007D2
:100B0000001F00000000C003003F00000000F003D1
:100B100000FEFFFFFFFFFF0100FCFFFFFFFFFF00E4
:100B200000F0FFFFFFFF3F000080FFFFFFFF0F000F
:100B300000000000000000000000000000000000B5
:100B400000000000000000000000000000000000A5
:100B50000000000000000000000000000000000095
:100B60000000000000000000000000000000000085
:100B70000000000000000000000000000000000075
:100B80000000000000000000000000000000000065
:100B90000000000000000000000000000000000055
:100BA0000000000000000000000000000000000045
:100BB0000000000000000000000000000000000035
:100BC0000000000000000000000000000000000025
:100BD0000000000000000000000000000000000015
:100BE0000000000000000000000000000000000005
:100BF000000000000300000000000080070000006B
:100C000000000080070000000000008007000000D6
:100C1000000000800700000000000F800780030034
:100C200000001F8007C0030000003F0003E0030036
:100C300000007E0000F0030000007C0000F80100CE
:100C4000000078C00FF80000000070F03F7800004E
:100C5000000000FCFF0000000000007EF801000022
:100C60000000001FE00300000000800FC00700002C
:100C700000008007800700000000C003000F000094
:100C80000000C001000E00000000C001000E0000C6
:100C900000F0C701008E3F0000F0C701008E3F004A
:100CA00000F0C701008E3F000000C001008E3F0031
:100CB0000000C001000E00000000C003000F000093
:100CC00000008007800700000000800FC0070000C0
:100CD0000000001FE00300000000007EF80100009B
:100CE000000000FCFF000000000070F03F38000032
:100CF000000078C00F78000000007C0000F80000C1
:100D000000007E0000F8010000003F0003F0030037
:100D100000001F8007E0030000000F8007C00300F1
:100D200000000080070000000000008007000000B5
:100D300000000080070000000000008007000000A5
:100D400000000000030000000000000000000000A0
:100D50000000000000000000000000000000000093
:100D60000000000000000000000000000000000083
:100D70000000000000000000000000000000000073
:100D80000000000000000000000000000000000063
:100D900000000000000000000001080800FF000043
:100DA0000000000000007E8195B1B195817E7EFF3C
:100DB000EBCFCFEBFF7E0E1F3F7E3F1F0E00081CC8
:100DC0003E7F3E1C080018BAFFFFFFBA180010B89B
:100DD000FCFFFCB810000000183C3C180000FFFFAE
:100DE000E7C3C3E7FFFF003C664242663C00FFC327
:100DF00099BDBD99C3FF70F88888FD7F070F004E2D
:100E00005FF1F15F4E00C0E0FF7F05050707C0FFFF
:100E10007F0505657F3F995A3CE7E73C5A997F3E3D
:100E20003E1C1C08080008081C1C3E3E7F000024D5
:100E300066FFFF662400005F5F00005F5F00060F33
:100E4000097F7F017F7F40DABFA5FD590302007053
:100E50007070707070008094B6FFFFB694800004CC
:100E6000067F7F0604000010307F7F3010000808E6
:100E7000082A3E1C0800081C3E2A080808003C3CC2
:100E8000202020202000081C3E08083E1C08303886
:100E90003C3E3E3C3830060E1E3E3E1E0E06000016
:100EA00000000000000000065F5F06000000000771
:100EB000070007070000147F7F147F7F1400242E93
:100EC0006B6B3A120000466630180C666200307A8E
:100ED0004F5D377A48000407030000000000001C43
:100EE0003E63410000000041633E1C000000082AF0
:100EF0003E1C1C3E2A0808083E3E080800000080F0
:100F0000E060000000000808080808080000000071
:100F10006060000000006030180C060301003E7F96
:100F200071594D7F3E0040427F7F40400000627318
:100F300059496F660000226349497F360000181C3A
:100F400016537F7F5000276745457D3900003C7E62
:100F50004B4979300000030371790F070000367F99
:100F600049497F360000064F49693F1E00000000D6
:100F70006666000000000080E66600000000081CB5
:100F8000366341000000242424242424000000416E
:100F900063361C080000020351590F0600003E7F13
:100FA000415D5D1F1E007C7E13137E7C0000417F2F
:100FB0007F49497F36001C3E634141632200417FE7
:100FC0007F41633E1C00417F7F495D416300417F5B
:100FD0007F491D0103001C3E6341517372007F7FF6
:100FE00008087F7F000000417F7F410000003070D3
:100FF00040417F3F0100417F7F081C776300417FB4
:101000007F41406070007F7F0E1C0E7F7F007F7FDE
:10101000060C187F7F001C3E6341633E1C00417F2D
:101020007F49090F06001E3F21717F5E0000417F4E
:101030007F09197F6600266F4D5973320000034106
:101040007F7F410300007F7F40407F7F00001F3F84
:1010500060603F1F00007F7F3018307F7F00436754
:101060003C183C674300074F78784F070000476300
:1010700071594D677300007F7F41410000000103FB
:10108000060C183060000041417F7F000000080C12
:101090000603060C0800808080808080808000002D
:1010A000030704000000207454543C784000417F42
:1010B0003F4848783000387C44446C280000307841
:1010C00048493F7F4000387C54545C180000487EFB
:1010D0007F490302000098BCA4A4F87C0400417F6F
:1010E0007F08047C780000447D7D4000000060E0C3
:1010F0008080FD7D0000417F7F10386C44000041FE
:101100007F7F400000007C7C18381C7C78007C7C51
:1011100004047C780000387C44447C38000084FC63
:10112000F8A4243C1800183C24A4F8FC8400447C57
:10113000784C041C1800485C5454742400000004CB
:101140003E7F442400003C7C40403C7C40001C3CF2
:1011500060603C1C00003C7C7038707C3C00446C3F
:101160003810386C44009CBCA0A0FC7C00004C648F
:10117000745C4C64000008083E77414100000000A8
:101180000077770000004141773E08080000020325
:1011900001030203010070784C464C7870000E9FEA
:1011A00091B1FB4A00003A7A40407A7A4000387C9C
:1011B00054555D19000002237555557D7B422175FC
:1011C00054547D794000217555547C78400020743A
:1011D00057577C784000183CA4A4E4400000023B30
:1011E0007D55555D1B02397D54545D190000397DD4
:1011F00055545C18000001457C7C4101000002034D
:10120000457D7D43020001457D7C40000000797DE5
:101210001612167D790070782B2B78700000447CB4
:101220007C5555450000207454547C7C54547C7E7D
:101230000B097F7F4900327B49497B320000327ABB
:1012400048487A320000327A4A48783000003A7BC7
:1012500041417B7A40003A7A4240787840009ABA1D
:10126000A0A0FA7A000001193C66663C19013D7D98
:1012700040407D3D0000183C24E7E7242400687EC0
:101280007F49436620002B2FFCFC2F2B0000FFFF23
:1012900009092FF6F8A040C088FE7F0903022074D8
:1012A00054557D79400000447D7D41000000307838
:1012B000484A7A320000387840427A7A40007A7A96
:1012C0000A0A7A7000007D7D19317D7D00000026BC
:1012D0002F292F2F280000262F292F2600003078B5
:1012E0004D4560200000383808080808000008084C
:1012F0000808383800004F6F3018CCEEBB914F6FA4
:1013000030186C76FBF90000007B7B000000081CA5
:101310003622081C362222361C0822361C08AA0057
:101320005500AA005500AA55AA55AA55AA55DDFF91
:10133000AA77DDAAFF77000000FFFF000000101071
:1013400010FFFF000000141414FFFF000000101035
:10135000FFFF00FFFF001010F0F010F0F000141479
:1013600014FCFC0000001414F7F700FFFF0000005D
:10137000FFFF00FFFF001414F4F404FCFC0014143D
:101380001717101F1F0010101F1F101F1F0014140D
:10139000141F1F000000101010F0F00000000000EB
:1013A000001F1F1010101010101F1F101010101011
:1013B00010F0F0101010000000FFFF1010101010BF
:1013C000101010101010101010FFFF10101000005F
:1013D00000FFFF1414140000FFFF00FFFF100000C7
:1013E0001F1F101717140000FCFC04F4F41414144D
:1013F0001717101717141414F4F404F4F41400005D
:10140000FFFF00F7F7141414141414141414141414
:10141000F7F700F7F7141414141717141414101016
:101420001F1F101F1F10141414F4F41414141010A0
:10143000F0F010F0F01000001F1F101F1F10000030
:10144000001F1F141414000000FCFC1414140000EE
:10145000F0F010F0F0101010FFFF10FFFF10141448
:1014600014FFFF1414141010101F1F0000000000C0
:1014700000F0F0101010FFFFFFFFFFFFFFFFF0F084
:10148000F0F0F0F0F0F0FFFFFFFF000000000000C0
:101490000000FFFFFFFF0F0F0F0F0F0F0F0F387C24
:1014A000446C386C4400FCFE2A2A3E1400007E7E08
:1014B000020206060000027E7E027E7E0200637744
:1014C0005D4963630000387C447C3C04040080FE7A
:1014D0007E20203E1E000406027E7C06020099BD8E
:1014E000E7E7BD9900001C3E6B496B3E1C004C7E3B
:1014F0007301737E4C0030784A4F7D390000183CF0
:10150000243C3C243C1898FC643C3E273D181C3E7F
:101510006B49490000007E7F01017F7E00002A2A7E
:101520002A2A2A2A000044445F5F444400004051B4
:101530005B4E4440000040444E5B514000000000C0
:1015400000FEFF01070660E080FF7F000000080842
:101550006B6B080800002436123624361200000691
:101560000F090F060000000000181800000000001E
:10157000001010000000103070C0FFFF0101001FBC
:101580001F011F1E000000191D171200000000009F
:101590003C3C3C3C0000000000000000000000005B
:1015A0000D182B10000000000000000000000000DB
:1015B00000000010383838FFFF38383810000000BD
:1015C0000000000003030000000000000000000015
:1015D000000000000000000000000000000000000B
:1015E00000000000000000000000907838100000AB
:1015F00000000000000000000000000000000000EB
:1016000000103838383838383838100000000000FA
:1016100000000000000000000000000000000000CA
:1016200000000000000000000000000000000000BA
:10163000000000000000000040E0E040000000006A
:10164000000002060E0E0E0E0E0E06020000001026
:1016500038383838383838381000000080C0E0E0BA
:10166000E0E0E0E0C0800000FCFAF60E0E0E0E0E88
:101670000EF6FAFC00EFC78300000000000083C7ED
:10168000EF007FBFDFE0E0E0E0E0E0DFBF7F0000F1
:101690000000000000000000F0F8FC000000000066
:1016A000000000000083C7EF000000000000000001
:1016B00000001F3F7F000002060E0E0E0E0E0EF6FB
:1016C000FAFC00E0D0B83838383838383B170F000B
:1016D0007FBFDFE0E0E0E0E0E0C080000000020665
:1016E0000E0E0E0E0E0EF6FAFC00001038383838CA
:1016F000383838BBD7EF000080C0E0E0E0E0E0E041
:10170000DFBF7F00FCF8F0000000000000F0F8FCF4
:10171000000F173B383838383838BBD7EF00000097
:10172000000000000000001F3F7F00FCFAF60E0ED4
:101730000E0E0E0E060200000F173B3838383838F0
:1017400038B8D0E0000080C0E0E0E0E0E0E0DFBFDB
:101750007F00FCFAF60E0E0E0E0E0E06020000EFD3
:10176000D7BB383838383838B8D0E0007FBFDFE032
:10177000E0E0E0E0E0DFBF7F000002060E0E0E0EAC
:101780000E0EF6FAFC0000000000000000000083CE
:10179000C7EF000000000000000000001F3F7F00B6
:1017A000FCFAF60E0E0E0E0E0EF6FAFC00EFD7BB8C
:1017B000383838383838BBD7EF007FBFDFE0E0E09B
:1017C000E0E0E0DFBF7F00FCFAF60E0E0E0E0E0E1C
:1017D000F6FAFC000F173B383838383838BBD7EFEB
:1017E000000080C0E0E0E0E0E0E0DFBF7F0000005C
:1017F000000080C0C0800000000000000000000069
:10180000010100000000000000000000040E0E04B2
:101810000000000000000B102B100000008080E092
:10182000E08080000000000103030F0F03030100AC
:101830000000000000000000000000000000008028
:10184000E060000000000000008080808080800058
:101850000000000103030303030301000000000074
:10186000000000000000000000000000C0C00000F8
:1018700000000000028686868686860200000081BF
:10188000C3C3C3C3C3C3810000FC7A0606060606B1
:10189000067AFC007EBCC0C0C0C0C0C0BC7E0000D8
:1018A0000000000000000078FC00000000000000C4
:1018B00000003C7E0000028686868686867AFC00D2
:1018C0007EBDC3C3C3C3C3C3810000000286868636
:1018D0008686867AFC000081C3C3C3C3C3C3BD7EB2
:1018E00000FC7880808080808078FC000001030309
:1018F000030303033D7E00FC7A8686868686860285
:1019000000000081C3C3C3C3C3C3BD7E00FC7A868D
:1019100086868686860200007EBDC3C3C3C3C3C35A
:10192000BD7E0000020606060606067AFC000000E0
:101930000000000000003C7E00FC7A8686868686D9
:10194000867AFC007EBDC3C3C3C3C3C3BD7E00FC97
:101950007A8686868686867AFC000081C3C3C3C3E6
:10196000C3C3BD7E00000000001818000000000086
:101970000000000018180000000022080D0E206072
:10198000040205060708090203030508020402040D
:1019900007040707070707070707020207070708E3
:1019A0000E0908080807070908020708070B0809B5
:1019B000070909070808090D0708080404040608B0
:1019C000030707060707050707020306020A0707BA
:1019D000070705060507070B0607050501050708A4
:1019E0000000000000000000FEFE18181E1E001E71
:1019F0001E000000000090F89E90F89E1C00001C45
:101A00000000183C26FF66CC88040C183C180C0417
:101A10001C221CC0308E408000001804000C100CEA
:101A200080CC7E72F2DE0C80000C1C1010101C0C9E
:101A30001C101E1E0000F0FC061C7CC006FCF0C042
:101A40007C1C14140E14140000000000606060FC84
:101A5000FC6060600000000C0C00000000005838C2
:101A6000C0C0C0C0000000000000181800C0380648
:101A700018040000F8FC0E060EFCF8040C1C181CE0
:101A80000C04180CFEFE00001C1C181C86C6663ECA
:101A90001C181C1C18181818888C062626FEDC0436
:101AA0000C1C18180C04C0E0B88CFEFE8004040462
:101AB000041C1C04707E3E3636F6C60C1C18181822
:101AC0000C04F8FC6E6666EECC040C1818181C0C9E
:101AD000060606E6761E0600001C1C0000009CFEA2
:101AE000666666FE9C0C1C1818181C0C3C7E66660C
:101AF00066FCF80C1C18181C0C0418181818181878
:101B000058386060F0F098980C0000000004040C55
:101B1000D8D8D8D8D8D8D8000000000000000C9839
:101B200098F0F060600C040400000000080C06C689
:101B3000E6763C180000001818000000E03008C4E9
:101B4000F63A1A1AF2FA7E0408F00C30604C9C98AF
:101B5000988C9C9C90484C2000C0F8BE86BEF8C073
:101B600000181C04040404041C18FEFE6666666665
:101B7000FEDC1C1C181818181C0CF8FC0E06060EAF
:101B80009C08040C1C18181C0C04FEFE0606060E0D
:101B9000FCF81C1C1818181C0C04FEFE6666666611
:101BA000661C1C1818181818FEFE66666666061C69
:101BB0001C0000000000F8FC0E0606C6CEDCC804BF
:101BC0000C1C181818180C04FEFE60606060FEFE05
:101BD0001C1C000000001C1CFEFE1C1C8080000061
:101BE00000FEFE0C1C1818181C0CFEFE603078EC71
:101BF00086021C1C000000041C18FEFE00000000F1
:101C0000001C1C1818181818FEFE0E7CE000E07C62
:101C10000EFEFE1C1C00000C1C0C00001C1CFEFE1A
:101C20001C78E080FEFE1C1C0000040C1C1CF8FC50
:101C30000E0606060EFCF8040C1C1818181C0C04E2
:101C4000FEFE6666667E3C1C1C0000000000F8FC80
:101C50000E0686060EFCF8040C1C18181C0C1C241E
:101C6000FEFE6666E6E6BE1C001C1C0000000C1CA6
:101C700018103C7E666666EECC0C1C1818181C0CFE
:101C8000060606FEFE0606060000001C1C000000FC
:101C9000FEFE00000000FEFE040C1C18181C0C04C4
:101CA000021EFCE000E0FC1E020000001C1C1C00E8
:101CB000000006FEF800F0FE0EFEF000F8FE060042
:101CC000001C1C1C0000001C1C1C0000060EF8F070
:101CD000F80E06181C0400041C18060E38F0F03824
:101CE0000E060000001C1C000000060686E6761E9C
:101CF0000E06181C1C1818181818FEFE0606FCFC08
:101D0000C0C00638C000000004180606FEFEC0C0B1
:101D1000FCFC20380E0E38200000000000000000FF
:101D200000000000000080808080808080800206AB
:101D3000040000001098D858F8F0000C1C18180C7B
:101D40001C10FEFE301838F0E01C1C0C181C0C0493
:101D5000E0F018183830040C18181C0CE0F0381893
:101D600030FEFE040C1C180C1C1CE0F0D8D8D8F077
:101D7000E0040C181818180818FCFE1A1A001C1C8D
:101D80000000E0F0381830F8F864ECDCD8CCFC7CCB
:101D9000FEFE301818F8F01C1C0000001C1CFAFA9B
:101DA0001C1C00FAFAC0FC7CFEFEE0F098081C1C2B
:101DB00000041C18FEFE1C1CF8F81018F8F0181887
:101DC000F8F01C1C00001C1C00001C1CF8F830184B
:101DD00018F8F01C1C0000001C1CE0F0381838F04B
:101DE000E0040C1C181C0C04F8F8301838F0E0FC67
:101DF000FC0C181C0C04E0F0381830F8F8040C1C2B
:101E0000180CFCFCF8F83018181C1C00000070F8C6
:101E1000D8D8D890081818181C0C18FCFE181800F0
:101E20000C1C1818F8F8000000F8F80C1C18180C16
:101E30001C1C38F8C000C0F83800001C1C1C000036
:101E400018F8E000F038F000E0F81800001C1C0C56
:101E5000000C1C1C00001838E0E03818181C0404A2
:101E60001C1818F8E000E0F8180084FCF83C0400A6
:101E70001898D878381C1C18181880FC7E060600A4
:101E80007CFCC0C0FEFC06067EFC80C0C0FC7C0062
:101E90006030307060603000000000000000FE0222
:101EA0000202020202FE1C1010101010101C11245D
:101EB0001FBECFEFD8E0DEBFCDBF11E0A0E0B1E0A4
:101EC000ECEAFCE402C005900D92AC30B107D9F702
:101ED00025E0ACE0B1E001C01D92A832B207E1F705
:101EE0000E94381E0C9454260C940000CF93DF936C
:101EF000D82FC62F8CEE0E9449248D2F0E947C245F
:101F00008C2F0E947C240E947324DF91CF9108952E
:101F1000CF93C82F8CEE0E9449248C2F0E947C24E2
:101F20008DEE0E9470240E949924C82F0E94732471
:101F30008C2FCF910895CF93DF93C82F8CEE0E9402
:101F400049248C2F0E947C248DEE0E9470240E94D4
:101F50008E24C82FD0E0DC2FCC270E949924C82BD8
:101F60000E947324CE01DF91CF9108950E949B0FB0
:101F70009827892798270895CF92DF92EF92FF92B2
:101F8000F82E8CEE0E9449248F2D0E947C248DEE29
:101F90000E9470240E948E24C82ED12CE12CF12C9A
:101FA0000B2EBCE0CC0CDD1CEE1CFF1CBA95D1F74F
:101FB000B02D0E948E2490E0A0E0B0E0880F991F21
:101FC000AA1FBB1F880F991FAA1FBB1F880F991F2D
:101FD000AA1FBB1F880F991FAA1FBB1FC82AD92A77
:101FE000EA2AFB2A0E94992482958F70C82A0E94AF
:101FF0007324C701B601FF90EF90DF90CF90089552
:102000001F93CF93DF930E94432480ED0E94880F9B
:10201000803609F076C088E80E94B60FC8E3D2E0A7
:10202000998388838AE80E94B60F9B838A838CE811
:102030000E94B60F9D838C838EE80E94B60F9F830B
:102040008E8380E90E94B60F9987888782E90E9473
:10205000B60F9B878A8784E90E94B60F9D878C877D
:1020600086E90E94B60F9F878E8788E90E94B60F87
:10207000998B888B8AE90E94B60F9B8B8A8B8CE99F
:102080000E94B60F9D8B8C8B8EE90E94B60F9F8BA2
:102090008E8B81EA0E94880F888F81EE0E94B60F96
:1020A0009A8F898F83EE0E94880F8B8F84EE0E9417
:1020B000880F182F85EE0E94880F90E1199F9001DC
:1020C00011248F70282B3D8F2C8F86EE0E94880F55
:1020D000182F85EE0E94880F90E1199F900111241E
:1020E00082958F70282B3F8F2E8F87EE0E94880F4E
:1020F00088A361E082EF0E94760F64E284EF0E9481
:10210000760FDF91CF911F9108952F923F924F92BA
:102110005F926F927F928F929F92AF92BF92CF9277
:10212000DF92EF92FF920F931F93CF93DF9300D034
:1021300000D0CDB7DEB77C018B011A0165E284EFD8
:102140000E94760F8AEF0E94BC0FA8E3B2E0ED91E7
:10215000FC912F01612C712CAB01BC01689412F829
:1021600076956795579547951694D1F7D301C20197
:10217000880F991FAA1FBB1F9A01AB01281B390B9F
:102180004A0B5B0BA0913A02B0913B020E94CD2515
:102190004B015C01F295E295EF70EF27FF70EF279E
:1021A000CF01A0E0B0E0BC01CD016419750986093A
:1021B00097099B01AC010E944E259B01AC01012EA9
:1021C0001CE055954795379527951A95D1F7102D11
:1021D000A0913C02B0913D020E94CD25072E7BE0EC
:1021E000B594A794979487947A95D1F7702DDC01D4
:1021F000CB01072E7EE0B595A795979587957A95A3
:10220000D1F7702D880E991EAA1EBB1E809259020E
:1022100090925A02A0925B02B0925C02D501C40176
:10222000880F991FAA1FBB1F880F991FAA1FBB1FCA
:10223000880E991EAA1EBB1EB0E88B0E911CA11C15
:10224000B11C892C9A2CAB2CBB24F7019182808283
:1022500087EF0E94BC0F69837A838B839C83C09035
:102260005902D0905A02E0905B02F0905C02F59423
:10227000E794D794C794FAEFDF1AE108F108C70191
:10228000B6019595879577956795959587957795F7
:1022900067959B01AC010E944E252B013C01A0914A
:1022A0004202B09143029B01AC01012E1DE0559505
:1022B0004795379527951A95D1F7102D0E94CD2572
:1022C0004B015C01689412F8B594A7949794879495
:1022D0001694D1F7A0914002B0914102A701960156
:1022E0000E94CD25DC01CB01B595A79597958795E3
:1022F000880D991DAA1DBB1D072E72E1B595A795E6
:10230000979587957A95D1F7702D9C01AD0130583E
:102310004F4F5F4FA0913E02B0913F020E94C225F5
:102320004B015C01072E7FE0B594A79497948794A6
:102330007A95D1F7702D81149104A104B10409F4A8
:10234000C4C0A3019201012E1BE055954795379516
:1023500027951A95D1F7102DE8E3F2E0A089B1890D
:102360000E94CD252B013C01A685B785A7019601CA
:102370000E94CD25DC01CB01880F991FAA1FBB1F2E
:10238000480E591E6A1E7B1E759467945794479495
:10239000759467945794479484859585092E000C0D
:1023A000AA0BBB0BDC0199278827840D951DA61D60
:1023B000B71D072E7CE0B595A795979587957A95DB
:1023C000D1F7702D29813A814B815C81280F391F0B
:1023D0004A1F5B1FABECB3EF0E94D025805B9C4390
:1023E00099235CF0660F771F881F991FA501940140
:1023F0000E94722569017A010AC0A50194010E9418
:10240000722569017A01CC0CDD1CEE1CFF1CC70192
:10241000B601689412F89695879577956795169406
:10242000D1F79B01AC010E944E259B01AC01012E0E
:102430001DE056954795379527951A95D1F7102D9C
:10244000E8E3F2E0A689B7890E94CD254B015C0143
:10245000072E7CE0B594A794979487947A95D1F74A
:10246000702DA70196015695479537952795569556
:10247000479537952795A489B5890E94CD25DC011C
:10248000CB01072E7DE0B595A795979587957A9511
:10249000D1F7702D880D991DAA1DBB1D4289538946
:1024A000052E000C660B770B840F951FA61FB71F18
:1024B000689413F8B595A795979587951694D1F7D5
:1024C0008C0D9D1DAE1DBF1D03C080E090E0DC01A2
:1024D000F80180839183A283B3838DEF0E949B0FC9
:1024E000E8E3F2E081A092A0A3A0B4A02CE2921AAB
:1024F00021E0A20AB1086C01E12CF12C0B2EBEE008
:10250000CC0CDD1CEE1CFF1CBA95D1F7B02D448D10
:10251000558D052E000C660B770B032E34E1440F0E
:10252000551F661F771F3A95D1F7302DC41AD50A6B
:10253000E60AF70AA68DB78DA50194010E94CD2564
:10254000C61AD70AE80AF90A30E4D30EE11CF11CD6
:102550000B2EBFE0F594E794D794C794BA95D1F7C2
:10256000B02DA38DB0E0A50194010E94C2252B01DE
:102570003C01032E3BE075946794579447943A9539
:10258000D1F7302D40E8540E611C711CA0A10A2E19
:10259000000CBB0BA50194010E94CD25052E5AE02D
:1025A00095958795779567955A95D1F7502DA30105
:1025B00092010E944E25DC01CB01072E7AE0B595F1
:1025C000A795979587957A95D1F7702D9C01AD01C8
:1025D000405E5F4FA18DB28D0E94CD25DC01CB0105
:1025E000905EAF4FBF4F9C01AD01012E1EE055958F
:1025F0004795379527951A95D1F7102DC701B60144
:102600000E944E256B017C01052E5FE09595879514
:10261000779567955A95D1F7502D9B01AC010E9493
:102620004E259B01AC01689416F855954795379552
:1026300027951694D1F7A08DB0E00E94C225DC0149
:10264000CB01689413F8B595A7959795879516943F
:10265000D1F7A7019601281B390B4A0B5B0BDA0156
:10266000C9011AF480E090E0DC0181309105A105F8
:1026700039E1B30724F080E090E0A0E0B9E1072E53
:102680007CE0B595A795979587957A95D1F7702DAC
:10269000F10180839183A283B3830F900F900F90F9
:1026A0000F90DF91CF911F910F91FF90EF90DF90EE
:1026B000CF90BF90AF909F908F907F906F905F90E2
:1026C0004F903F902F900895289829988EBD00C074
:1026D00000C000C000C000C000C000C000C00000BA
:1026E000289A299A089529988EBD00C000C000C07C
:1026F00000C000C000C000C000C00000299A0895BA
:10270000CF92DF92EF92FF920F931F93CF93DF93BD
:10271000579A5F9A84B1836084B984B18C6284B91A
:1027200080E58CBD8DB581608DBD299A5F988FE065
:1027300097E20197F1F700C000005F9A9FEFEDEE7E
:10274000F2E09150E040F040E1F700C0000081E08D
:102750000E9464138FE097E20197F1F700C0000038
:1027600008E610E0C8010196F801C491CC2329F1D4
:102770006801F2E0CF0ED11CFC0184910E94641329
:102780000F2EFEEFEF2EF02DEC0EC130A1F0F12C4C
:10279000C7010396080F191FE601FE0184910E94EC
:1027A00073132196C017D107C1F787010F5F1F4F21
:1027B0000C0D1D1DD7CF8601D5CF81E10E9464137A
:1027C0008FE097E20197F1F700C0000089E20E94D4
:1027D0006413DF91CF911F910F91FF90EF90DF90E5
:1027E000CF90089528982998EAE2EEBD00C000C075
:1027F00000C000C000C000C000C000C00000289A97
:102800009EBD00C000C000C000C000C000C000C02D
:1028100000C000008EBD00C000C000C000C000C0ED
:1028200000C000C000C000005EBD00C000C000C00D
:1028300000C000C000C000C000C000004EBD00C00D
:1028400000C000C000C000C000C000C000C0000048
:10285000289829988BE28EBD00C000C000C000C03F
:1028600000C000C000C000C00000289A7EBD00C0AB
:1028700000C000C000C000C000C000C000C0000018
:102880006EBD00C000C000C000C000C000C000C0DD
:1028900000C000003EBD00C000C000C000C000C0BD
:1028A00000C000C000C000002EBD00C000C000C0BD
:1028B00000C000C000C000C000C0000028982998D7
:1028C0008CE28EBD00C000C000C000C000C000C0CF
:1028D00000C000C00000289A299A08950F931F9302
:1028E000CF93DF93EA01122F032F20910201309141
:1028F00003018217930708F032C020910001309144
:1029000001016217730708F02AC041505109460FB0
:10291000571F4217530718F0E901C61BD70B9B013D
:10292000215031092C0F3D1FAC010E94F213299850
:102930002097A1F00EBD00C000C000C000C000C0C4
:1029400000C000C000C000001EBD00C000C000C02C
:1029500000C000C000C00000219761F7299ADF91F4
:10296000CF911F910F9108950F931F93CF93DF93F2
:10297000EA01122F032F20910201309103018217E7
:10298000930708F033C04091000150910101641792
:10299000750708F02BC0AE0141505109480F591F6F
:1029A0004217530718F0E901C81BD90BAC0141507D
:1029B00051094C0F5D1F9B010E94F213299820972B
:1029C000A1F00EBD00C000C000C000C000C000C02B
:1029D00000C000C000001EBD00C000C000C000C09C
:1029E00000C000C00000219761F7299ADF91CF91C4
:1029F0001F910F910895EF92FF920F931F93CF9322
:102A0000DF93EA01790120910201309103018217DD
:102A1000930708F048C040910001509101016417EC
:102A2000750708F040C0FE013197E80FF91FE21763
:102A3000F30718F0E901C81BD90B970121503109A0
:102A4000260F371F2417350718F07A01E61AF70A00
:102A50009B01215031092E0D3F1DAC014150510900
:102A60004C0F5D1F0E94F2132998C7010197EF28B0
:102A7000C9F0FE013097A1F01EBD00C000C000C02B
:102A800000C000C000C000C000C000000EBD00C0FB
:102A900000C000C000C000C000C00000319761F756
:102AA000019738F7299ADF91CF911F910F91FF90ED
:102AB000EF9008950F931F93209100013091010131
:102AC00040910201509103018C0160E070E080E0D0
:102AD00090E00E94FB141F910F910895CF93C82F8F
:102AE00086E30E9464138C2F83708130B1F028F04C
:102AF000823019F1833089F13FC088E40E9473135A
:102B000080EF90E0909303018093020180E491E0D4
:102B100090930101809300012FC088E20E947313FB
:102B200080E491E0909303018093020180EF90E0B4
:102B300090930101809300011FC088E80E947313E5
:102B400080EF90E0909303018093020180E491E094
:102B500090930101809300010FC088EE0E947313CF
:102B600080E491E0909303018093020180EF90E074
:102B70009093010180930001CF910895AF92BF928D
:102B8000CF92DF92EF92FF920F931F93CF93DF9339
:102B9000EC017B016A01590198010E94B414B7014C
:102BA0006A0D7B1D9801A601CE010E94B414980104
:102BB000A501B701CE010E946E149801A501B701CD
:102BC000CE018C0D9D1D0E946E14DF91CF911F913F
:102BD0000F91FF90EF90DF90CF90BF90AF9008954E
:102BE0002F923F924F925F926F927F928F929F921D
:102BF000AF92BF92CF92DF92EF92FF920F931F930B
:102C0000CF93DF935C014B01290100271127041B9F
:102C1000150BC1E0D0E0C41BD50BCC0FDD1FC12CC0
:102C2000D12C212C312C3601660C771C9201A3018A
:102C30007401EC18FD08B701C501801B910B0E94BF
:102C40006E149201A301B701C8018A0D9B1D0E9459
:102C50006E14CC16DD06ACF08FEFC81AD80A83E0EC
:102C6000680E711C6C0E7D1E88279927801B910BA6
:102C7000C816D90639F40C171D073CF0C22DD32D08
:102C800001C03E010C171D074CF40F5F1F4FE801F8
:102C9000CC0FDD1F2196C60DD71D01C0E301101614
:102CA00011060CF6DF91CF911F910F91FF90EF90DD
:102CB000DF90CF90BF90AF909F908F907F906F905C
:102CC0005F904F903F902F90089590935E02809375
:102CD0005D02FC0124913196849190E0922B9093B7
:102CE000600280935F0208952F923F924F925F920D
:102CF0006F927F928F929F92AF92BF92CF92DF920C
:102D0000EF92FF920F931F93CF93DF93CDB7DEB770
:102D10002F970FB6F894DEBF0FBECDBF2C0178877A
:102D20006F833A83298368012E2C60915D02709134
:102D30005E02FB013296B4903196A4903196549184
:102D4000319614911B83DB01169680905F02909060
:102D500060022A2D30E0F9013796CF010AF4079678
:102D6000959587959595879595958795451B52E0FF
:102D70008516910460F4849FA0011124B49E300153
:102D8000B59E700C11246A0E7B1E1A862BC0FD01A5
:102D9000E40FF11DB4905A2D577021F0E8E0E51BC7
:102DA000EA8701C01A86442389F0FD01415050E0B2
:102DB000495F5F4F460F571F60E070E01491610F4D
:102DC000711D3196E417F507C9F702C060E070E0A5
:102DD000869F3001879F700C11245B81650E711CEA
:102DE0006A0E7B1E4B2D50E0622D70E07C836B835E
:102DF000FB014E9FB0014F9F700D5E9F700D11241F
:102E0000640D751DE0910201F0910301E617F707CB
:102E100008F4A8C1EB81FC812E9FB0012F9F700D9B
:102E20003E9F700D1124EF81F8856E0F7F1FE0919A
:102E30000001F0910101E617F70708F493C18987B3
:102E400069817A816C157D0509F09CC0882309F49D
:102E500089C181E00A8401C0880F0A94EAF78B8750
:102E60008B819C81880F991F880F991F880F991F4C
:102E70009D878C87822C912C7A01FF86EE86A22C6E
:102E80009A85992309F455C1E985E13009F054C1C7
:102E90003B8454C13FEF231A330A2E143F0408F039
:102EA00042C0F301E20DF31DE491EB2199F352C10D
:102EB000A0E0B0E011967FEF271A370A2E143F04E6
:102EC00030F4F301E20DF31DE491EB2199F7109733
:102ED00051F191E0A9120CC029813A81AD01B601EE
:102EE000C201820D931D8A1B9B0B0E94B4141BC050
:102EF000A89DA001A99D500DB89D500D11249101D0
:102F00002A1B3B0B289DC001299D900D389D900DDB
:102F1000112409811A8194016B817C81840D951D96
:102F20000E94FB1400C02E143F0440F4F301E20D94
:102F3000F31DE491EB2109F4ADCF0CC1BB0C5FEFA5
:102F4000C51AD50A6B817C81680D791D7C836B83E2
:102F50008D819E81C816D90619F0212C312CE3CF22
:102F60002F8138854C855D85240F351F38872F8349
:102F70005985515059876E857F85660E771E511190
:102F80007FCFF0C0EE24E394F12C71E0871691041A
:102F900011F4E12CF12C4E0D5F1D8B819C81489F1B
:102FA0008001499F100D589F100D11242E0D3F1DBB
:102FB000289FA001299F500D389F500D11248F810B
:102FC000988501979A01280F391FA2014150510994
:102FD000400F511F6F817885C2010E94F21329981A
:102FE000AA2009F48AC0EB81FC81EE9DC001EF9D0F
:102FF000900DFE9D900D1124FD2C21E00A8401C04E
:10300000220F0A94EAF7322E61E02FEF2B0D30E009
:10301000A9014F5F5F4F5C834B83222D30E0E98035
:103020005A815B87CF827D2D4B2D50E05A83498397
:103030001E830D8319855CC04491462319F44F818A
:10304000072F02C04E2D0B85D9011097A1F00EBDA0
:1030500000C000C000C000C000C000C000C000C070
:1030600000004EBD00C000C000C000C000C000C0D5
:103070000000119761F73196E415F50509F0DCCFF2
:10308000FC013097A1F0FEBC00C000C000C000C031
:1030900000C000C000C000C00000CEBC00C000C026
:1030A00000C000C000C000C00000319761F75F5F42
:1030B000251206C009C050E04B805C80460C571CAE
:1030C000BB20F1F2F301B8CF660F79F449815A8140
:1030D000640E751E5A85552329F01150113021F4C4
:1030E000632D03C061E001C061E0AA94AA2019F039
:1030F0002110E1CFE9CF0D811E818A948928B9F092
:10310000C8010097A1F0DEBC00C000C000C000C034
:1031100000C000C000C000C00000CEBC00C000C0A5
:1031200000C000C000C000C00000019761F7299AEC
:1031300019C03324339402C0332433948F8198858B
:1031400008969E838D83EF81F8856F01FC83EB8366
:10315000B32C03CFF301E20DF31DE491EB2109F051
:10316000A7CEE1CE2F960FB6F894DEBF0FBECDBF2F
:10317000DF91CF911F910F91FF90EF90DF90CF9053
:10318000BF90AF909F908F907F906F905F904F9087
:103190003F902F9008953F924F925F926F927F924F
:1031A0008F929F92AF92BF92CF92DF92EF92FF9257
:1031B0000F931F93CF93DF9300D000D000D0CDB7F3
:1031C000DEB73901E7E06E0E711C76946794769451
:1031D0006794769467940115110509F464C03E83E1
:1031E0002D835A012B019A838983812C912C312CB8
:1031F000820F931F9C838B837724B201680D791D06
:103200009B014B815C8189819A810E94F2132998EC
:103210002D813E81232B09F43EC0689C9001699C5E
:10322000300D789C300D112480E090E0AC014770A7
:103230005527452B11F036940CC0FC01F695E79507
:10324000F695E795F695E795E20FF31FEA0DFB1D5E
:10325000349030FC03C04C2D5D2D02C04E2D5F2DEF
:103260005EBD00C000C000C000C000C000C000C003
:1032700000C000004EBD00C000C000C000C000C0C3
:1032800000C000C000C0000001964D815E8148175B
:10329000590709F0CBCF299A5FEF851A950A0815CF
:1032A000190509F0AACF26960FB6F894DEBF0FBE17
:1032B000CDBFDF91CF911F910F91FF90EF90DF90E5
:1032C000CF90BF90AF909F908F907F906F905F90C6
:1032D0004F903F9008952091020130910301821791
:1032E000930710F0C901019790930F0180930E018D
:1032F00080910001909101016817790718F0BC01D5
:103300006150710970930D0160930C0108959093C1
:1033100007018093060170930501609304010895ED
:10332000EF920F931F93CF9320915D0230915E0235
:10333000F901339654913196949160915F027091A6
:1033400060026230710548F0E82FF0E03696E91B24
:10335000F109E20FF31FC49106C0F9013296C4913E
:103360006130710511F05F5FCF5F8A3099F4109280
:103370000F0110920E012091080180910C01909193
:103380000D01259F800D911D112490930D018093B7
:103390000C0130C0F90135962491891758F1482F56
:1033A00050E030E0290F311D421753071CF5482F1C
:1033B000009104011091050120910601309107014F
:1033C00060910C0170910D01E090080180910E0157
:1033D00090910F010E9474162091080180910E01B6
:1033E00090910F012C9F800D911D112490930F013E
:1033F00080930E01CF911F910F91EF90089540910E
:103400005D0250915E02FA01349624913196E49166
:10341000821700F190E030E0B9016E0F711D861740
:103420009707D4F460915F02709160026230710579
:1034300040F0FC013696E21BF30BE40FF51FE4911C
:1034400003C0FA013296E49180910801E89F802D33
:103450001124089580E0089580E008950F931F934C
:10346000CF93DF93EC0100E010E00EC00E94FF1943
:10347000882351F0080F111D80915F029091600226
:10348000019711F00F5F1F4F89918111EFCFC80194
:10349000DF91CF911F910F910895CF93DF93EC01AE
:1034A0008881882331F021960E9490198991811199
:1034B000FBCFDF91CF910895CF93DF93EC0121965D
:1034C000FC018491882339F00E949019FE018491B7
:1034D00021968111F9CFDF91CF9108950F931F931A
:1034E000DC01E0915D02F0915E02339624918091BF
:1034F0005F0290916002019709F02F5FE0910E0149
:10350000F0910F01009104011091050130E0CD010F
:103510008E1B9F0BAC0122F444275527481B590BE7
:1035200060910C0170910D01CF01AE17BF0708F437
:10353000CD010E94FB141F910F910895A0913201BB
:10354000B0E0CD01880F991F880F991F880F991F30
:10355000FC01E854FD4F8F5F9A4F60E77EEF47EE26
:1035600053E022EE34E01286118676876587508715
:10357000478334872387B796E817F907A1F7CD016A
:10358000880F991FFC01EA0FFB1FEE0FFF1FEE0FC4
:10359000FF1FE259FD4F16861786108A118A20E612
:1035A00030EF3187208740E050E961E070E04287EA
:1035B00053876487758784E391E2978386830895B0
:1035C000CF93C82F88E99DE00E9465168C2F0E943A
:1035D00090198AE799E10E946516CF9108959F920C
:1035E000AF92BF92CF92DF92EF92FF920F931F9311
:1035F000CF93DF937C01EB01A22EFC01992324F4ED
:10360000EE27FF27E81BF90B50E06E01C40ED11C1A
:103610000F2EFEE29F2EF02DBB24B394B50E8E012B
:10362000050F111D9F01ADECBCEC0E94B3259695D2
:10363000879596958795969587959C01220F331FC0
:10364000880F991F880F991F880F991F820F931F4A
:103650009F01281B390BC901805DD8018C93B412DE
:1036600004C05E5FD6019C9201C05B2D9F01ADEC52
:10367000BCEC0E94B325FC01F695E795F695E7951D
:10368000F695E795309741F65A1548F480E3FE0128
:10369000E50FF11D80835F5FA512F9CF01C0A52E54
:1036A000FF2034F4FE01EA0DF11D8DE28083A39426
:1036B000FE01EA0DF11D1082CE010E944426DF9129
:1036C000CF911F910F91FF90EF90DF90CF90BF901F
:1036D000AF909F90089523E041E064EA72E00E9479
:1036E000EF1A84EA92E00E944D1A0895EF92FF9239
:1036F0000F931F93CF93DF938C017B01EA01C901E4
:1037000023E041E064EA72E00E94EF1A84EA92E06A
:103710000E942E1AC00FD11FB7019E01281B31092C
:10372000C9010E946B19C8010E946E1A84EA92E0D6
:103730000E944D1ADF91CF911F910F91FF90EF9052
:1037400008951F920F920FB60F9211242F938F930B
:103750009F93809131018F5F80933101809131017E
:103760008C3351F4809130018F5F8093300110923F
:10377000310181E080932E01809130018C33C1F4BE
:1037800080912F018F5F80932F01109230019091D3
:103790002F018BEA989F812D112486958695282FDD
:1037A000220F820F880F981303C081E080932D01B0
:1037B00080912F01883111F410922F0181E08093C4
:1037C0000A019F918F912F910F900FBE0F901F9024
:1037D00018951F920F920FB60F9211248F939F93FB
:1037E00080916C0290916D02019690936D0280938E
:1037F0006C029F918F910F900FBE0F901F901895A4
:10380000F89480916C0290916D0278940895ECE7A1
:10381000F0E09081907F8F70892B8083EAE7F0E061
:10382000808180648083808186FDFDCF80917900D6
:1038300008958F929F92AF92BF92CF92DF92EF92B4
:10384000FF920F931F93A0912C012DECA29F212D8D
:10385000112426952695322F330F330F230FEA2F8D
:10386000E21BF0E0EE0FFF1FEE0FFF1FE85EFE4FC2
:103870006083718382839383E8E1F1E04CE251E05D
:1038800060E070E0CB010191119121913191600FC5
:10389000711F821F931FE417F507A9F711E01A0F94
:1038A00010932C01153B20F086E080932C0193C1EE
:1038B0002DEC3CEC4CEC5CEC0E94D52500E20E9427
:1038C0000226822E932EA42EB52ED501C401B695C4
:1038D000A79597958795B695A79597958795153050
:1038E00049F48093140190931501A0931601B093AD
:1038F000170171C1133291F5009114011091150156
:103900002091160130911701801B910BA20BB30B74
:1039100020910901222369F0880F991FAA1FBB1F5C
:103920008093680290936902A0936A02B0936B023D
:1039300056C1BC01CD01660F771F881F991F23E078
:1039400030E040E050E00E949425209368023093DC
:10395000690240936A0250936B0241C11C3379F5AE
:103960000091140110911501209116013091170159
:103970004C015D01801A910AA20AB30A80910901E3
:10398000882349F08092680290926902A0926A02AC
:10399000B0926B0224C1D501C401BB201CF4019676
:1039A000A11DB11DB595A795979587958093680240
:1039B00090936902A0936A02B0936B0210C11F3505
:1039C000D1F500911401109115012091160130914B
:1039D0001701801B910BA20BB30B2091090122232D
:1039E000A9F0BC01CD01660F771F881F991F23E046
:1039F00030E040E050E00E9494252093680230932C
:103A0000690240936A0250936B02E9C0BC01CD0188
:103A1000660F771F881F991F25E030E040E050E0D7
:103A20000E949425209368023093690240936A02B1
:103A300050936B02D4C0183709F040C08093100136
:103A400090931101A0931201B093130100911401FE
:103A5000109115012091160130911701BC01CD0183
:103A6000601B710B820B930B209109012223B9F08B
:103A70008B019C01992324F40F5F1F4F2F4F3F4F61
:103A8000D901C801B595A795979587958093680248
:103A900090936902A0936A02B0936B02A0C023E0E6
:103AA00030E040E050E00E9494252093680230937B
:103AB000690240936A0250936B0291C01B39D1F5A1
:103AC00000911401109115012091160130911701F8
:103AD000801B910BA20BB30B209109012223A9F0AB
:103AE000BC01CD01660F771F881F991F25E030E0CC
:103AF00040E050E00E9494252093680230936902D0
:103B000040936A0250936B026AC0BC01CD01660FFC
:103B1000771F881F991F27E030E040E050E00E94A7
:103B20009425209368023093690240936A0250936F
:103B30006B0255C0143B09F04CC000911401109168
:103B400015012091160130911701BC01CD01601BB8
:103B5000710B820B930B20910901222379F023E052
:103B600030E040E050E00E949425209368023093BA
:103B7000690240936A0250936B0218C08B019C014A
:103B8000992324F40D5F1F4F2F4F3F4F35952795F5
:103B90001795079535952795179507950093680212
:103BA0001093690220936A0230936B028091100196
:103BB00090911101A0911201B09113018093140111
:103BC00090931501A0931601B0931701109209016B
:103BD00006C0133220F480910901811133C0809115
:103BE000680290916902A0916A02B0916B028630DE
:103BF0002FEF9207A207B2073CF18B3F9105A10579
:103C0000B10524F5AC01BD0147505F4F6F4F7F4FA9
:103C1000473C510561057105D8F0AC01BD01435326
:103C2000510961097109473C51056105710590F021
:103C3000C196A11DB11D83369105A105B10560F4A2
:103C400080E00BC085E009C084E007C083E005C0C8
:103C500082E003C081E001C085E01F910F91FF90D9
:103C6000EF90DF90CF90BF90AF909F908F9008958E
:103C7000CF93DF93CDB7DEB76A970FB6F894DEBF68
:103C80000FBECDBF0E94801383E00E946E1580E0BE
:103C900090E00E945A1583E284BD12E015BD8BEAC4
:103CA00088BD559A0E940010109280008DE080938C
:103CB00081008EE18093890083E8809388001093CF
:103CC0006F001093B00083E08093B1008CE7809385
:103CD000B3001093700080EA91E00E9405258AE706
:103CE00099E10E9465160FE716E82FEE30E04DEBE4
:103CF00050E060E070E080E090E00E94BE1560E07F
:103D000070E081E090E00E946B196FE776E880E058
:103D100090E00E9487198EE091E00E945C1A8DEB82
:103D200090E00E946E1A0AEE1BEF2FEE30E047E79C
:103D300050E060E070E088EC90E00E94BE1560E02A
:103D400070E089EC90E00E946B196AEE7BEF80E0F6
:103D500090E00E94871981E091E00E945C1A8FE355
:103D600091E00E946E1A60E070E08FEF9FEF0E947A
:103D700087196FE070E08DE191E00E946B1989E096
:103D80000E94E01A83E40E94901968E270E08DE1DD
:103D900091E00E946B1985E20E94901961E470E045
:103DA0008DE191E00E946B198DEF90E00E945C1A0A
:103DB00080E680937C0087E880937A000E949E1AB8
:103DC00025E52C8B3DEA3D8B1A8E198E1E8A8FEFCE
:103DD000898B0F2EF7E23F2EF02D90EE9A8BE7E0C5
:103DE000EB8B10C08E8B2FEF3FEF3A8F298F30E295
:103DF0003C8B8DEF8D8B198A05C01C8A98EF9D8BAB
:103E0000EFEFE98B80910A01882309F4C1C4109275
:103E10000A010E94001C988F8F8B82E00E94071C71
:103E2000809588BD80912D018823C9F010922D01C5
:103E30008091320190E0019683709078992324F468
:103E400001978C6F9F6F01968093320180910B01D7
:103E5000843018F48F5F80930B010E949E1AAE018C
:103E60004F5F5F4FBE016B5F7F4FCE010B960E948D
:103E700085108091320190E049815A816B817C816B
:103E8000FC01EE0FFF1FE80FF91FEE0FFF1FEE0FF3
:103E9000FF1FE259FD4F06851785208931890417D8
:103EA00015072607370778F4FC01EE0FFF1FE80F10
:103EB000F91FEE0FFF1FEE0FFF1FE259FD4F468760
:103EC0005787608B718BFC01EE0FFF1FE80FF91F06
:103ED000EE0FFF1FEE0FFF1FE259FD4F0285138506
:103EE00024853585401751076207730778F4FC0174
:103EF000EE0FFF1FE80FF91FEE0FFF1FEE0FFF1F62
:103F0000E259FD4F42875387648775872B853C852F
:103F1000FC01EE0FFF1FE80FF91FEE0FFF1FEE0F62
:103F2000FF1FE259FD4F40855185421753076CF43E
:103F3000FC01EE0FFF1FE80FF91FEE0FFF1FEE0F42
:103F4000FF1FE259FD4F31872087FC01EE0FFF1F55
:103F5000E80FF91FEE0FFF1FEE0FFF1FE259FD4F95
:103F600046815781241735076CF4FC01EE0FFF1FC3
:103F7000E80FF91FEE0FFF1FEE0FFF1FE259FD4F75
:103F800037832683E0907402F090750200917602E8
:103F900010917702409078025090790260907A02F6
:103FA00070907B0280907C0290907D02A0907E02B7
:103FB000B0907F0290910B01923080F1EEE6F2E03A
:103FC00081E0DF01428D538D648D758D84169506D9
:103FD000A606B70610F44A015B0156964D915D9115
:103FE0006D917C915997441555056605770510F438
:103FF0002A013B0154962D913C91559702171307C6
:104000000CF4890152962D913C9153972E153F0542
:104010000CF479018F5F3C968913D3CF8EE995E13B
:104020000E94651660E070E080E098EF0E948719BA
:104030008B859C856AE070E00E945E259B0144E5CB
:1040400050E06FE070E089EC90E00E94761B60E049
:1040500070E08FE190E00E94871989819A81AB819D
:10406000BC81AC01BD01440F551F661F771FDB01EA
:10407000CA01880F991FAA1FBB1F880F991FAA1F6B
:10408000BB1F840F951FA61FB71F9C01AD01012EFA
:104090001AE056954795379527951A95D1F7102D23
:1040A00044E550E068E270E089EC90E00E94761B05
:1040B00060E070E08FEF9FEF0E9487196D817E8135
:1040C0008F8198852AE030E040E050E00E94722520
:1040D00044E550E061E470E089EC90E00E94761BDA
:1040E0008AE799E10E9465166AEA70E080ED90E047
:1040F0000E946B1989E10E94E01AC7016AE070E032
:104100000E945E25CB010E946B1B87EF90E00E940E
:104110005C1A440C551C661C771CD301C201880F25
:10412000991FAA1FBB1F880F991FAA1FBB1F480EEC
:10413000591E6A1E7B1ED301C201072E7AE0B69576
:10414000A795979587957A95D1F7702D0E946B1B4F
:1041500085E20E9490198FE391E00E946E1A6AEB4B
:1041600070E080ED90E00E946B1988E10E94E01AF7
:10417000C8016AE070E00E945E25CB010E946B1BC3
:1041800084EF90E00E945C1A880C991CAA1CBB1C4E
:10419000D501C401880F991FAA1FBB1F880F991F43
:1041A000AA1FBB1F880E991EAA1EBB1ED501C401E3
:1041B000072E7AE0B695A795979587957A95D1F7CA
:1041C000702D0E946B1B85E20E9490198FE391E095
:1041D0000E946E1A68ED70E080ED90E00E946B190D
:1041E00080912F0122E040E064EA72E090E00E94BA
:1041F000EF1A04EA12E00F2EFAE3FF2EF02DF80179
:10420000F2828091300122E040E067EA72E090E0C3
:104210000E94EF1AF801F5828091310122E040E01E
:104220006AEA72E090E00E94EF1AC8010E944D1AFB
:1042300089E091E00E946E1A80912E01882309F492
:1042400010C310922E016D817E818F8198850E940E
:10425000191CA82EB12CAA0CBB1CB501645A7E4FA8
:1042600042E050E0CE0109960E943B2649855A85DE
:10427000C12CD12CEE24EA94FE2C00E410E020E4C2
:1042800030E06AE570E080ED90E00E94CB18B50167
:10429000625E7E4F42E050E0CE0109960E943B26CE
:1042A0006AE970E080ED90E00E946B1989859A853B
:1042B0000E945C1A8FE391E00E946E1A68EC70E035
:1042C00080ED90E00E946B19609168027091690224
:1042D00080916A0290916B022AE030E040E050E069
:1042E0000E949425DA01C90123E041E064EA72E00A
:1042F0000E94EF1A84EA92E00E944D1A8CEE90E040
:104300000E945C1A8FE391E00E946E1AAAC28F8409
:1043100098887E866D86F3018081882309F4FAC12E
:1043200080913101282F30E0418180913101841743
:1043300018F080E090E002C08CE390E0820F931FC1
:10434000841B91090A9724F022E0ED85FE852083E5
:10435000ED85FE854381548120913201822F90E0CA
:10436000389CF001399CF00D112438E0239FE00DBA
:10437000F11D1124E854FD4F21853285241735079E
:1043800098F4389C9001399C300D1124BC01660FC3
:10439000771F660F771F660F771F260F371FF901EC
:1043A000E854FD4F52874187389C9001399C300D6D
:1043B0001124BC01660F771F660F771F660F771FEA
:1043C000260F371FF901E854FD4F2781308542172A
:1043D000530798F4389C9001399C300D1124BC018E
:1043E000660F771F660F771F660F771F260F371F21
:1043F000F901E854FD4F50874783ED85FE854581DF
:104400005681389C9001399C300D1124BC01660FF7
:10441000771F660F771F660F771F260F371FF9016B
:10442000E854FD4F25853685241735079CF4389CC4
:104430009001399C300D1124BC01660F771F660F67
:10444000771F660F771F260F371FF901E854FD4FBE
:1044500056874587389C9001399C300D1124BC014A
:10446000660F771F660F771F660F771F260F371FA0
:10447000F901E854FD4F23853485421753076CF446
:10448000CB01389CF001399CF00D11248E0F9F1F39
:10449000FC01E854FD4F54874387ED85FE85A780D6
:1044A000B084C184D284E384F48405851685909118
:1044B0000B01923028F1F30181E0DF01218932897B
:1044C000C216D30608F469011F962D913C915097AE
:1044D0002A153B0508F4590155962D913C915697A4
:1044E000021713070CF4890153962D913C915497B0
:1044F0002E153F050CF479018F5F38968913DDCFB7
:10450000ED85FE858081823019F02A893B8902C0C1
:1045100020E038EF45E050E0B2016A5E7F4F86E070
:1045200090E00E94F015B20181E090E00E946B19CA
:104530008AE799E10E94651683E20E949019FF853F
:10454000FA3018F087E0820D01C0822D0E94901988
:1045500080E20E949019389CF001399CF00D1124E2
:10456000E654FD4F808182958F7083708130C9F44D
:1045700080EE90E00E945C1A8DEB90E00E946E1A33
:10458000B201615F7F4F00E010E02EE030E041EBD0
:1045900050E08CE090E00E94FB1421E1420E511C9F
:1045A000A7C08230C9F486ED90E00E945C1A8DEBC2
:1045B00090E00E946E1AB201615F7F4F00E010E050
:1045C0002EE030E041EB50E08CE090E00E94FB14E4
:1045D00031E1430E511C8CC084E198E10E946516C4
:1045E000ED85FE85258136814CE350E0B20182E104
:1045F00090E00E94761B89E00E94E01A83E40E940A
:104600009019B20183E690E00E946B1989E10E9443
:10461000E01AC7010E946B1B83ED90E00E945C1AB8
:10462000389CF001399CF00D1124E654FD4F808137
:104630008295869586958370813031F4C5010E94FC
:104640006B1B85E20E9490198DEB90E00E946E1A20
:10465000B201615F7F4F83E690E00E946B1988E1B1
:104660000E94E01AC8010E946B1B80ED90E00E943E
:104670005C1A389CF001399CF00D1124E654FD4F72
:1046800080818295869586958370813031F4C6014C
:104690000E946B1B85E20E9490198DEB90E00E94B6
:1046A0006E1AF1E14F0E511C389CF001399CF00D4F
:1046B0001124E654FD4F80818295869586958370FE
:1046C0008130B1F484E198E10E946516ED85FE85A4
:1046D000238134814CE350E0B20182E190E00E94FA
:1046E000761B8AE799E10E94651685E20E9490197F
:1046F000B2016F5E7F4F2FE736E84DEB50E080E070
:1047000090E00E94B414F2E14F0E511C2FEE4216BD
:10471000510460F48F8598890196988B8F8797E272
:10472000690E711C2394EFE32E12F1CDC12CD12C14
:10473000EC88FD8800E110E024E130E048E651E03B
:1047400062E770E080E291E00E94CB1868ED70E0D3
:104750008EE091E00E946B190E94001C20E040E076
:1047600064EA72E0EF89F88D8E1B9F0B0E94EF1AAE
:1047700084EA92E00E944D1A8AEF90E00E945C1A4F
:104780008FE391E00E946E1AF5E5FC8B2DEA2D8BEC
:104790000E944025892B09F433C00E9420253E89C0
:1047A000353519F4853509F41DCB9989973038F5DD
:1047B0009530D8F4298D3A8D2827922F92959227FB
:1047C000092E969596959025092E96959025977089
:1047D000022E232F969507949795302D292706941E
:1047E0009795302529273A8F298F2989E22FF0E0E4
:1047F000EF59FD4F80838E8B2F5F298B01C08E8BED
:104800003989373009F0FECA8091660290916702BB
:10481000E98DFA8DE817F90709F0EFCAE1E6F2E051
:104820008081E82FEF703E9EF0011124E854FD4F87
:1048300091E0908390913101918382838091640211
:1048400090916502968385838091620290916302C4
:1048500094838383F0EEFC8B27E02D8B3FEF398B25
:10486000D1CA0F2EF8EB6F2EF2E07F2EF02D0F2E17
:10487000F0E32F2EF02D188A1F860F2EFFE04F2E0B
:10488000512CF02D44CD1092B90080E28093B800F5
:10489000089594EA9093BC00ECEBF0E090819923AA
:1048A000ECF79091B900987F983011F09031A1F415
:1048B0008093BB0084E88093BC00ECEBF0E0808147
:1048C0008823ECF79091B900987F983139F081E016
:1048D000903429F480E0089581E0089580E00895FF
:1048E0000E944924089584E98093BC00ECEBF0E039
:1048F000808184FDFDCF08958093BB0084E8809380
:10490000BC00ECEBF0E080818823ECF79091B900DB
:10491000987F81E0983209F480E0089584EC8093D8
:10492000BC00ECEBF0E080818823ECF78091BB00C9
:10493000089584E88093BC00ECEBF0E0808188234C
:10494000ECF78091BB0008951F920F920FB60F9263
:1049500011242F933F934F935F938F939F93EF93E4
:10496000FF932091C0003091C600287180913501DD
:1049700090E001968F7799274091340150E0841799
:10498000950739F080933501FC01E85CFE4F3083D8
:1049900001C022E020933301FF91EF919F918F910D
:1049A0005F914F913F912F910F900FBE0F901F90ED
:1049B00018951F920F920FB60F9211248F939F9309
:1049C000EF93FF939091370180913601981779F01A
:1049D0008091360190E001968F7799278093360178
:1049E000FC01E854FE4F80818093C60005C0E1ECD5
:1049F000F0E080818F7D8083FF91EF919F918F9177
:104A00000F900FBE0F901F901895F89410923701D9
:104A10001092360110923501109234017894992346
:104A200024F422E02093C0009F779093C5008093E8
:104A3000C40088E98093C10086E08093C200089595
:104A4000F8949091350180913401981304C07894C2
:104A500080E091E0089578948091340190E001968F
:104A60008F77992780933401FC01E85CFE4F208109
:104A70008091330190E0982F8827820F911D08952F
:104A8000F8948091350120913401789490E0805819
:104A90009F4F821B91098F7799270895DB018F9390
:104AA0009F930E94C225BF91AF91A29F800D911D3F
:104AB000A39F900DB29F900D1124089597FB072E90
:104AC00016F4009407D077FD09D00E941E2607FC3B
:104AD00005D03EF4909581959F4F0895709561950E
:104AE0007F4F0895A1E21A2EAA1BBB1BFD010DC02A
:104AF000AA1FBB1FEE1FFF1FA217B307E407F5078E
:104B000020F0A21BB30BE40BF50B661F771F881F69
:104B1000991F1A9469F760957095809590959B01FF
:104B2000AC01BD01CF010895052E97FB1EF4009442
:104B30000E94AB2557FD07D00E94722507FC03D0C9
:104B40004EF40C94AB2550954095309521953F4FF0
:104B50004F4F5F4F089590958095709561957F4F69
:104B60008F4F9F4F0895A29FB001B39FC001A39F95
:104B7000700D811D1124911DB29F700D811D112496
:104B8000911D08950E94B325A59F900DB49F900D8F
:104B9000A49F800D911D11240895B7FF0C94C22588
:104BA0000E94C225821B930B0895E894DF93CF9354
:104BB000FC01DB010E94B3257F936F93E9019A0109
:104BC000AC01BF93AF933F932F93DF010E94B325B6
:104BD00026F46C1B7D0B820B930B9E01EB01FC01F9
:104BE0000E943226AF91BF912F913F910E943226B1
:104BF000BE01CF01F9012F913F91CF91DF9108952F
:104C000097FB10F8169400080F93083098F008509E
:104C1000232F342F452F562F672F782F892F902D34
:104C2000F4CF059497958795779567955795479510
:104C3000379527950A95AAF70F910895AA1BBB1BD4
:104C400051E107C0AA1FBB1FA617B70710F0A61B8C
:104C5000B70B881F991F5A95A9F780959095BC01AD
:104C6000CD0108950E94B325460F571FC81FD91FB5
:104C700008F431960895FB01DC0102C005900D9205
:104C800041505040D8F70895DC01FC01672F719125
:104C90007723E1F7329704C07C916D937083629122
:0C4CA000AE17BF07C8F30895F894FFCFCB
:0C4CAC004001F000FFFFFFFF01010101CB
:00000001FF
