:100000000C94B00F0C94CD0F0C94CD0F0C94CD0F1D
:100010000C94CD0F0C94CD0F0C94CD0F0C941E248A
:100020000C94CD0F0C94CD0F0C94212D0C948A2D93
:100030000C944B2D0C94CD0F0C94CD0F0C94CD0F34
:100040000C94CD0F0C94CD0F0C94302E0C94652E87
:100050000C94CD0F0C94CD0F0C94CD0F0C94CD0FB0
:100060000C94CD0F0C94CD0F072C7AA5BA6CC590CB
:10007000DA3B9365FC8BBC53F810FD3C5692834DE4
:10008000BD879D3AB63DCBC9BF5BBE73DA0FC93F92
:1000900005A84CCDB2D44EB93836A9020C50B9914E
:1000A0008688083CA6AAAA2ABE000000803F0664F3
:1000B000EC1B3C04BC163E3BE5B93CC93C37C29E38
:1000C0005A3D660498083EEA69AAAA3E00000080EC
:1000D0003F004750524D430047504747410004EF0F
:1000E00003800204CF00C13005ED6403128104E8EF
:1000F00085007806CB392C00340202F72003EA0091
:100100000002C02302C11003C53E2802C786023682
:1001100048023A5503B1001804B608822702F200DB
:1001200002260110E00F312B0C0E084EF13707109C
:10013000030E090010E1000E1403110731C1480835
:100140000F0C31360F004320004320004352432060
:100150006572726F72004E6F20726573706F6E738E
:100160006500432000432000206850612F68720022
:1001700068506100426173652073746174696F6EC9
:100180000052656D6F74652073746174696F6E736E
:10019000006D7300CB01C501BE01B501A801A0012E
:1001A000756E6B6E6F776E007468756E64657273D2
:1001B000746F726D00756E737461626C6500636C50
:1001C0006F7564790073756E6E7900737461626C1B
:1001D00065000E0A0E0C0E060E080E040E02801F9D
:1001E00000F0FF017CC0031E000F873F0EE37F0875
:1001F000F0F0013880031C0003801F00C07F00C0A6
:100200007000404000001F00001B00001F000000A5
:1002100000000000000000000000000000000000DE
:1002200000000000000000000000000000000000CE
:1002300000000000000000000000000000000000BE
:1002400000000000000000000000000000000000AE
:10025000000000000000000000000000000000009E
:10026000000000000000000000000000000000008E
:10027000000000000000000000000000000000007E
:1002800000000000000000000000FE03000000006D
:100290000080FF0F0000000000E0FF3F00000000B2
:1002A00000F09F7F0000000000F801FC000000004B
:1002B000F0FD00F001000000FC3F00E00300000042
:1002C000FF3F00C003000080FF1F00C00700008048
:1002D0000F8C1F80070000C007C03F80070000C0D0
:1002E00003E07F00070000E001F0FB000F0000E0EA
:1002F00001F0F0000F0000E001F0F0000F0000F846
:1003000001F0F000070000FC0160F8803F0000FEF3
:1003100001007C80FF00003F00003E80FF01800F55
:1003200000001E00F003800700000F00E0038007BC
:1003300000000F00C007C00300000F008007C003CB
:1003400000000F00000FC00300000600000FC003F4
:1003500000000000000FC00300000F00000FC003EA
:1003600000000F00000F800700000F008007800FC3
:1003700000000F00C007001F00000000E003007F26
:1003800000000000F80300FEFFFFFFFFFF0100F880
:10039000FFFFFFFFFF0000F0FFFFFFFF3F000080B7
:1003A000FFFFFFFF0700000000000000000000004A
:1003B000000000000000000000000000000000003D
:1003C000000000000000000000000000000000002D
:1003D000000000000000000000000000000000001D
:1003E000000000000000000000000000000000000D
:1003F00000000000000000000000000000000000FD
:1004000000000000000000000000000000000000EC
:1004100000000000000000000000000000000000DC
:1004200000000000000000000000000000000000CC
:1004300000000000000000000000000000000000BC
:100440000000FC03000000000080FF0F000000001F
:1004500000C0FF3F0000000000F0FF7F0000000030
:1004600000F803FC00000000F0F900F801000000B3
:10047000FC7F00E001000000FE3F00C00300000020
:10048000FF1F00C0070000800F0E0080070000C0A3
:1004900007080080070000C003000000070000E01C
:1004A000010000000F0000E0010000000F0000E06C
:1004B000010000000F0000F001000000070000FC38
:1004C000010000003F0000FE010000807F00003FAF
:1004D00000000080FF01001F00000080F80380077B
:1004E00000000000E003800700000000C007C00318
:1004F000000000008007C00300000000000FC003E0
:1005000000003800000FC00300003C00000FC003D3
:1005100000003C00000FC00300003E00000F8007F9
:1005200000001F008007800F00000F008007001FE1
:1005300000800700C003003F00C00700F00300FE7A
:100540007FE003FCFF0100FCFFE001FCFF0000F086
:10055000FFF001FC3F0000807FF87FF80F000000F3
:1005600000F87F000000000000FC7F000000008019
:10057000E1FC3F0C070000C0E3001E1E070000C0A6
:10058000F3001F9E070000E0F1000F8F070000E05E
:10059000798007CF030000F0788087C7030000F060
:1005A0003CC083E7010000783CE0C3E30100007831
:1005B0001CE0C1E3000000301CF080E100000000FE
:1005C00000F00000000000000078000000000000C3
:1005D000007C000000000000003C00000000000063
:1005E000001C0000000000000018000000000000D7
:1005F00000000000000000000000000000000000FB
:1006000000000000000000000000000000000000EA
:1006100000000000000000000000000000000000DA
:1006200000000000000000000000000000000000CA
:1006300000000000000000000000000000000000BA
:100640000000FC01000000000080FF0F000000001F
:1006500000C0FF3F0000000000E0FF7F000000003E
:1006600000F003FE00000000E0F900F801000000C7
:10067000FC7F00E001000000FE3F00C0030000001E
:10068000FF1F00C0030000801F1E0080070000C085
:1006900007080080070000C0030000000F0000E012
:1006A000010000000F0000E0010000000F0000E06A
:1006B000010000000F0000F001000000070000FC36
:1006C000030000001F0000FE030000807F0000BF49
:1006D00001000080FF01001F00000080F901800F71
:1006E00000000000E003800700000000C007C00316
:1006F000000000008007C00300000000800FC0035E
:1007000000000000000FC00300000000000FC00345
:1007100000000000000FC00300000000000F800771
:1007200000100C018007800700389E038007000F2F
:10073000003CDF03C007003F003CCF03F00300FE96
:100740003F3ECFFBFF0100FC7F9EE7FDFF0000F076
:100750007F9EE7FD7F0000C03FCFF3F80F00000051
:1007600000CFF3000000000080E7FB000000000065
:1007700080E779000000000080E7790000000000B9
:10078000C0F33C0000000000C0F33C00000000008B
:10079000E0793E0000000000E0791E00000000004B
:1007A000E0791E0000000000F03C0F000000000097
:1007B000F03C0F0000000000601E0600000000007A
:1007C000001E000000000000001F000000000000EC
:1007D000000F000000000000000F000000000000FB
:1007E00000070000000000000003000000000000FF
:1007F00000000000000000000000000000000000F9
:1008000000000000000000000000000000000000E8
:1008100000000000000000000000000000000000D8
:1008200000000000000000000000000000000000C8
:1008300000000000000000000000000000000000B8
:10084000000000000000000000001C00000000008C
:1008500000001C000000000000001C000000000060
:1008600000001C000000000000001C000000000050
:1008700000001C000000000000001C000C00000034
:1008800038001C001E00000078000C001F00000053
:10089000F80000800F000000F00100C00700000019
:1008A000E083FFC003000000C0E3FFC301000000BD
:1008B00080F1FF070000000000FCF30F00000000C3
:1008C000007C001F00000000003E003E0000000011
:1008D000001F007C00000000000F007800000000F6
:1008E0008007007800000000800700F0000000E0B2
:1008F0008F0700F0F80100F09F0700F0FC0700F000
:100900009F0700F0FC0700E09F0700F0FC030000D9
:10091000800700F000000000000300F0000000006D
:1009200000000078000000000006007C00000000CD
:10093000C03F003C00000000F0FF003F000000004E
:10094000F8FFC11F000000C0FFF0E30F000000F03F
:100950007FC0F3C7010000F03F80E7C1030000F84B
:100960001C8007C007000078188007C00F000038FF
:10097000000007801F00003E00800F001F00003FA6
:1009800000803F000E00803F00807F000000800755
:1009900000807F000000C0030000F8000000C003DA
:1009A0000000F0000000C0030000F0000000C003E1
:1009B0000000F0000000C0070000F0000000800F01
:1009C0000000F800000080FFFFFF7F00000000FF34
:1009D000FFFF3F00000000FEFFFF1F00000000F8C7
:1009E000FFFF070000000000000000000000000002
:1009F00000000000000000000000000000000000F7
:100A000000000000000000000000000000000000E6
:100A100000000000000000000000000000000000D6
:100A200000000000000000000000000000000000C6
:100A300000000000000000000000000000000000B6
:100A400000000000000000000000000000000000A6
:100A50000000000000000000000000000000000096
:100A60000000000000000000000000000000000086
:100A70000000000000000000000000000000000076
:100A800000000000000000000000FC030000000067
:100A90000080FF0F0000000000C0FF3F00000000CA
:100AA00000F0FF7F0000000000F803FC00000000E1
:100AB000F0F900F001000000FC7F00E003000000FE
:100AC000FE3F00C003000080FF1F00C00700008041
:100AD0000F1C0080070000C007080080070000C04E
:100AE00003000000070000E0010000000F0000E02C
:100AF000010000000F0000E0010000000F0000F006
:100B000001000000070000FC010000803F0000FE23
:100B1000010000807F00003F00000080FF01000F07
:100B200000000080F803800700000000E003800759
:100B300000000000C007C003000000008007C003E1
:100B400000000000000FC00300000000000FC00301
:100B500000000000000FC00300000000000FC003F1
:100B600000000000000F8007000000008007800FD9
:100B7000000000008007001F00000000C003003FCD
:100B800000000000F00300FEFFFFFFFFFF0100FC7C
:100B9000FFFFFFFFFF0000F0FFFFFFFF3F000080AF
:100BA000FFFFFFFF0F00000000000000000000003A
:100BB0000000000000000000000000000000000035
:100BC0000000000000000000000000000000000025
:100BD0000000000000000000000000000000000015
:100BE0000000000000000000000000000000000005
:100BF00000000000000000000000000000000000F5
:100C000000000000000000000000000000000000E4
:100C100000000000000000000000000000000000D4
:100C200000000000000000000000000000000000C4
:100C300000000000000000000000000000000000B4
:100C400000000000000000000000000000000000A4
:100C50000000000000000000000000000000000094
:100C60000000000000000000000003000000000081
:100C70000080070000000000008007000000000066
:100C80000080070000000000008007000000000056
:100C90000F800780030000001F8007C003000000D2
:100CA0003F0003E0030000007E0000F003000000AE
:100CB0007C0000F80100000078C00FF80000000080
:100CC00070F03F780000000000FCFF000000000012
:100CD000007EF80100000000001FE003000000009B
:100CE000800FC007000000008007800700000000A0
:100CF000C003000F00000000C001000E0000000053
:100D0000C001000E000000F0C701008E3F0000F09F
:100D1000C701008E3F0000F0C701008E3F000000B9
:100D2000C001008E3F000000C001000E0000000066
:100D3000C003000F000000008007800700000000D3
:100D4000800FC00700000000001FE003000000004B
:100D5000007EF8010000000000FCFF000000000021
:100D600070F03F380000000078C00F7800000000ED
:100D70007C0000F8000000007E0000F80100000088
:100D80003F0003F0030000001F8007E003000000A5
:100D90000F8007C003000000008007000000000073
:100DA0000080070000000000008007000000000035
:100DB00000800700000000000000030000000000A9
:100DC0000000000000000000000000000000000023
:100DD0000000000000000000000000000000000013
:100DE0000000000000000000000000000000000003
:100DF00000000000000000000000000000000000F3
:100E000000000000000000000000000000000001E1
:100E1000080800FF00000000000000007E8195B17E
:100E2000B195817E7EFFEBCFCFEBFF7E0E1F3F7E25
:100E30003F1F0E00081C3E7F3E1C080018BAFFFF33
:100E4000FFBA180010B8FCFFFCB810000000183CF6
:100E50003C180000FFFFE7C3C3E7FFFF003C66420A
:100E600042663C00FFC399BDBD99C3FF70F88888F6
:100E7000FD7F070F004E5FF1F15F4E00C0E0FF7F86
:100E800005050707C0FF7F0505657F3F995A3CE7C9
:100E9000E73C5A997F3E3E1C1C08080008081C1CB1
:100EA0003E3E7F00002466FFFF662400005F5F0077
:100EB000005F5F00060F097F7F017F7F40DABFA5DB
:100EC000FD59030200707070707070008094B6FF5E
:100ED000FFB694800004067F7F0604000010307F78
:100EE0007F3010000808082A3E1C0800081C3E2A13
:100EF000080808003C3C202020202000081C3E0858
:100F0000083E1C0830383C3E3E3C3830060E1E3E43
:100F10003E1E0E06000000000000000000065F5F9D
:100F2000060000000007070007070000147F7F1479
:100F30007F7F1400242E6B6B3A1200004666301837
:100F40000C666200307A4F5D377A48000407030070
:100F500000000000001C3E63410000000041633EB1
:100F60001C000000082A3E1C1C3E2A0808083E3EC1
:100F7000080800000080E060000000000808080881
:100F80000808000000006060000000006030180CDD
:100F9000060301003E7F71594D7F3E0040427F7F36
:100FA00040400000627359496F660000226349495E
:100FB0007F360000181C16537F7F50002767454579
:100FC0007D3900003C7E4B49793000000303717984
:100FD0000F070000367F49497F360000064F4969F8
:100FE0003F1E000000006666000000000080E6660C
:100FF00000000000081C3663410000002424242463
:1010000024240000004163361C08000002035159EB
:101010000F0600003E7F415D5D1F1E007C7E1313A6
:101020007E7C0000417F7F49497F36001C3E634142
:1010300041632200417F7F41633E1C00417F7F4925
:101040005D416300417F7F491D0103001C3E6341F8
:10105000517372007F7F08087F7F000000417F7F0F
:1010600041000000307040417F3F0100417F7F0818
:101070001C776300417F7F41406070007F7F0E1CC2
:101080000E7F7F007F7F060C187F7F001C3E634130
:10109000633E1C00417F7F49090F06001E3F2171FE
:1010A0007F5E0000417F7F09197F6600266F4D59E2
:1010B0007332000003417F7F410300007F7F404087
:1010C0007F7F00001F3F60603F1F00007F7F301860
:1010D000307F7F0043673C183C674300074F7878B8
:1010E0004F070000476371594D677300007F7F41D0
:1010F000410000000103060C183060000041417FF0
:101100007F000000080C0603060C08008080808029
:101110008080808000000307040000002074545485
:101120003C784000417F3F4848783000387C444458
:101130006C280000307848493F7F4000387C545488
:101140005C180000487E7F490302000098BCA4A4FC
:10115000F87C0400417F7F08047C780000447D7D9A
:101160004000000060E08080FD7D0000417F7F1036
:10117000386C440000417F7F400000007C7C1838C0
:101180001C7C78007C7C04047C780000387C44441F
:101190007C38000084FCF8A4243C1800183C24A4EB
:1011A000F8FC8400447C784C041C1800485C5454BF
:1011B0007424000000043E7F442400003C7C404036
:1011C0003C7C40001C3C60603C1C00003C7C703857
:1011D000707C3C00446C3810386C44009CBCA0A06F
:1011E000FC7C00004C64745C4C64000008083E7792
:1011F0004141000000000077770000004141773E48
:1012000008080000020301030203010070784C4645
:101210004C7870000E9F91B1FB4A00003A7A404032
:101220007A7A4000387C54555D19000002237555C8
:10123000557D7B42217554547D794000217555546C
:101240007C784000207457577C784000183CA4A458
:10125000E4400000023B7D55555D1B02397D54542E
:101260005D190000397D55545C18000001457C7CF7
:10127000410100000203457D7D43020001457D7C64
:1012800040000000797D1612167D790070782B2BB6
:1012900078700000447C7C555545000020745454FF
:1012A0007C7C54547C7E0B097F7F4900327B49490A
:1012B0007B320000327A48487A320000327A4A485B
:1012C000783000003A7B41417B7A40003A7A4240D4
:1012D000787840009ABAA0A0FA7A000001193C661A
:1012E000663C19013D7D40407D3D0000183C24E7EF
:1012F000E7242400687E7F49436620002B2FFCFCF6
:101300002F2B0000FFFF09092FF6F8A040C088FE30
:101310007F090302207454557D79400000447D7D8F
:10132000410000003078484A7A3200003878404264
:101330007A7A40007A7A0A0A7A7000007D7D193143
:101340007D7D000000262F292F2F280000262F2921
:101350002F26000030784D456020000038380808FE
:101360000808000008080808383800004F6F3018D7
:10137000CCEEBB914F6F30186C76FBF90000007B10
:101380007B000000081C3622081C362222361C086E
:1013900022361C08AA005500AA005500AA55AA55D5
:1013A000AA55AA55DDFFAA77DDAAFF77000000FF46
:1013B000FF000000101010FFFF000000141414FFC5
:1013C000FF0000001010FFFF00FFFF001010F0F002
:1013D00010F0F000141414FCFC0000001414F7F7D3
:1013E00000FFFF000000FFFF00FFFF001414F4F4F3
:1013F00004FCFC0014141717101F1F0010101F1FEF
:10140000101F1F001414141F1F000000101010F0F4
:10141000F00000000000001F1F1010101010101F1F
:101420001F101010101010F0F0101010000000FF2E
:10143000FF1010101010101010101010101010FFCE
:10144000FF101010000000FFFF1414140000FFFF35
:1014500000FFFF1000001F1F101717140000FCFCF6
:1014600004F4F41414141717101717141414F4F4C4
:1014700004F4F4140000FFFF00F7F714141414141C
:10148000141414141414F7F700F7F71414141417A1
:101490001714141410101F1F101F1F10141414F40D
:1014A000F41414141010F0F010F0F01000001F1FCE
:1014B000101F1F100000001F1F141414000000FC58
:1014C000FC1414140000F0F010F0F0101010FFFFE6
:1014D00010FFFF10141414FFFF1414141010101F29
:1014E0001F000000000000F0F0101010FFFFFFFFD1
:1014F000FFFFFFFFF0F0F0F0F0F0F0F0FFFFFFFF74
:101500000000000000000000FFFFFFFF0F0F0F0FA3
:101510000F0F0F0F387C446C386C4400FCFE2A2AF5
:101520003E1400007E7E020206060000027E7E025D
:101530007E7E020063775D4963630000387C447CF3
:101540003C04040080FE7E20203E1E000406027E35
:101550007C06020099BDE7E7BD9900001C3E6B497F
:101560006B3E1C004C7E7301737E4C0030784A4FFA
:101570007D390000183C243C3C243C1898FC643C19
:101580003E273D181C3E6B49490000007E7F01014B
:101590007F7E00002A2A2A2A2A2A000044445F5F0C
:1015A0004444000040515B4E4440000040444E5BC8
:1015B00051400000000000FEFF01070660E080FFD0
:1015C0007F00000008086B6B080800002436123604
:1015D0002436120000060F090F0600000000001854
:1015E000180000000000001010000000103070C053
:1015F000FFFF0101001F1F011F1E000000191D1722
:101600001200000000003C3C3C3C000000000000D8
:101610000000000000000D182B100000000000006A
:1016200000000000000000000010383838FFFF38CC
:101630003838100000000000000003030000000024
:10164000000000000000000000000000000000009A
:10165000000000000000000000000000000000008A
:10166000907838100000000000000000000000002A
:10167000000000000000001038383838383838389A
:10168000100000000000000000000000000000004A
:10169000000000000000000000000000000000004A
:1016A000000000000000000000000000000040E01A
:1016B000E04000000000000002060E0E0E0E0E0EAE
:1016C0000602000000103838383838383838100032
:1016D000000080C0E0E0E0E0E0E0C0800000FCFA54
:1016E000F60E0E0E0E0E0EF6FAFC00EFC78300008B
:1016F0000000000083C7EF007FBFDFE0E0E0E0E034
:10170000E0DFBF7F00000000000000000000F0F8F4
:10171000FC0000000000000000000083C7EF000094
:1017200000000000000000001F3F7F000002060EC6
:101730000E0E0E0E0EF6FAFC00E0D0B8383838382F
:1017400038383B170F007FBFDFE0E0E0E0E0E0C0AB
:101750008000000002060E0E0E0E0E0EF6FAFC00C1
:10176000001038383838383838BBD7EF000080C020
:10177000E0E0E0E0E0E0DFBF7F00FCF8F000000028
:10178000000000F0F8FC000F173B383838383838C4
:10179000BBD7EF000000000000000000001F3F7FEB
:1017A00000FCFAF60E0E0E0E0E0E060200000F17CB
:1017B0003B383838383838B8D0E0000080C0E0E036
:1017C000E0E0E0E0DFBF7F00FCFAF60E0E0E0E0E4A
:1017D0000E06020000EFD7BB383838383838B8D09A
:1017E000E0007FBFDFE0E0E0E0E0E0DFBF7F00009F
:1017F00002060E0E0E0E0E0EF6FAFC0000000000A1
:10180000000000000083C7EF00000000000000009F
:1018100000001F3F7F00FCFAF60E0E0E0E0E0EF6B5
:10182000FAFC00EFD7BB383838383838BBD7EF0070
:101830007FBFDFE0E0E0E0E0E0DFBF7F00FCFAF642
:101840000E0E0E0E0E0EF6FAFC000F173B3838384F
:10185000383838BBD7EF000080C0E0E0E0E0E0E0DF
:10186000DFBF7F000000000080C0C08000000000DB
:101870000000000000000101000000000000000066
:101880000000040E0E040000000000000B102B10DE
:101890000000008080E0E080800000000001030381
:1018A0000F0F030301000000000000000000000013
:1018B000000000000080E0600000000000000080E8
:1018C0008080808080000000000103030303030385
:1018D0000100000000000000000000000000000007
:1018E0000000C0C0000000000000028686868686D8
:1018F000860200000081C3C3C3C3C3C3810000FCD0
:101900007A0606060606067AFC007EBCC0C0C0C089
:10191000C0C0BC7E00000000000000000078FC0099
:1019200000000000000000003C7E00000286868669
:101930008686867AFC007EBDC3C3C3C3C3C3810051
:101940000000028686868686867AFC000081C3C3F4
:10195000C3C3C3C3BD7E00FC788080808080807854
:10196000FC0000010303030303033D7E00FC7A86B1
:1019700086868686860200000081C3C3C3C3C3C3B4
:10198000BD7E00FC7A8686868686860200007EBD45
:10199000C3C3C3C3C3C3BD7E00000206060606065A
:1019A000067AFC0000000000000000003C7E00FC05
:1019B0007A8686868686867AFC007EBDC3C3C3C3CC
:1019C000C3C3BD7E00FC7A8686868686867AFC0046
:1019D0000081C3C3C3C3C3C3BD7E000000000018A1
:1019E00018000000000000000000181800000000AF
:1019F00022080D0E206004020506070809020303F1
:101A0000050802040204070407070707070707077A
:101A10000202070707080E09080808070709080255
:101A20000708070B0809070909070808090D07082F
:101A3000080404040608030707060707050707024A
:101A40000306020A0707070705060507070B06072F
:101A50000505010507080000000000000000FEFE6B
:101A600018181E1E001E1E000000000090F89E9018
:101A7000F89E1C00001C0000183C26FF66CC880461
:101A80000C183C180C041C221CC0308E4080000036
:101A90001804000C100C80CC7E72F2DE0C80000C5E
:101AA0001C1010101C0C1C101E1E0000F0FC061C4C
:101AB0007CC006FCF0C07C1C14140E141400000042
:101AC0000000606060FCFC6060600000000C0C00C6
:101AD000000000005838C0C0C0C000000000000076
:101AE000181800C0380618040000F8FC0E060EFC9A
:101AF000F8040C1C181C0C04180CFEFE00001C1C26
:101B0000181C86C6663E1C181C1C18181818888CD1
:101B1000062626FEDC040C1C18180C04C0E0B88C49
:101B2000FEFE80040404041C1C04707E3E3636F65F
:101B3000C60C1C1818180C04F8FC6E6666EECC0473
:101B40000C1818181C0C060606E6761E0600001C6B
:101B50001C0000009CFE666666FE9C0C1C18181893
:101B60001C0C3C7E666666FCF80C1C18181C0C04E9
:101B700018181818181858386060F0F098980C0069
:101B800000000004040CD8D8D8D8D8D8D800000059
:101B9000000000000C9898F0F060600C0404000055
:101BA0000000080C06C6E6763C1800000018180075
:101BB0000000E03008C4F63A1A1AF2FA7E0408F07F
:101BC0000C30604C9C98988C9C9C90484C2000C099
:101BD000F8BE86BEF8C000181C04040404041C18D7
:101BE000FEFE66666666FEDC1C1C181818181C0CC7
:101BF000F8FC0E06060E9C08040C1C18181C0C049D
:101C0000FEFE0606060EFCF81C1C1818181C0C0418
:101C1000FEFE66666666661C1C1818181818FEFE1E
:101C200066666666061C1C0000000000F8FC0E06D6
:101C300006C6CEDCC8040C1C181818180C04FEFECE
:101C400060606060FEFE1C1C000000001C1CFEFEAC
:101C50001C1C8080000000FEFE0C1C1818181C0CB8
:101C6000FEFE603078EC86021C1C000000041C188C
:101C7000FEFE00000000001C1C1818181818FEFEBC
:101C80000E7CE000E07C0EFEFE1C1C00000C1C0C18
:101C900000001C1CFEFE1C78E080FEFE1C1C0000E8
:101CA000040C1C1CF8FC0E0606060EFCF8040C1CAA
:101CB0001818181C0C04FEFE6666667E3C1C1C0090
:101CC00000000000F8FC0E0686060EFCF8040C1C52
:101CD00018181C0C1C24FEFE6666E6E6BE1C001CE2
:101CE0001C0000000C1C18103C7E666666EECC0CD6
:101CF0001C1818181C0C060606FEFE060606000038
:101D0000001C1C000000FEFE00000000FEFE040C93
:101D10001C18181C0C04021EFCE000E0FC1E020053
:101D200000001C1C1C00000006FEF800F0FE0EFE69
:101D3000F000F8FE0600001C1C1C0000001C1C1C0F
:101D40000000060EF8F0F80E06181C0400041C181B
:101D5000060E38F0F0380E060000001C1C000000D3
:101D6000060686E6761E0E06181C1C18181818188B
:101D7000FEFE0606FCFCC0C00638C00000000418C9
:101D80000606FEFEC0C0FCFC20380E0E3820000007
:101D90000000000000000000000000008080808043
:101DA000808080800206040000001098D858F8F067
:101DB000000C1C18180C1C10FEFE301838F0E01C2B
:101DC0001C0C181C0C04E0F018183830040C1818FF
:101DD0001C0CE0F0381830FEFE040C1C180C1C1C07
:101DE000E0F0D8D8D8F0E0040C181818180818FC3F
:101DF000FE1A1A001C1C0000E0F0381830F8F864D5
:101E0000ECDCD8CCFC7CFEFE301818F8F01C1C0072
:101E100000001C1CFAFA1C1C00FAFAC0FC7CFEFE36
:101E2000E0F098081C1C00041C18FEFE1C1CF8F8AE
:101E30001018F8F01818F8F01C1C00001C1C00000A
:101E40001C1CF8F8301818F8F01C1C0000001C1CB2
:101E5000E0F0381838F0E0040C1C181C0C04F8F8FA
:101E6000301838F0E0FCFC0C181C0C04E0F03818BA
:101E700030F8F8040C1C180CFCFCF8F83018181C8E
:101E80001C00000070F8D8D8D890081818181C0C3E
:101E900018FCFE1818000C1C1818F8F8000000F8C0
:101EA000F80C1C18180C1C1C38F8C000C0F83800BE
:101EB000001C1C1C000018F8E000F038F000E0F8EE
:101EC0001800001C1C0C000C1C1C00001838E0E062
:101ED0003818181C04041C1818F8E000E0F8180062
:101EE00084FCF83C04001898D878381C1C18181882
:101EF00080FC7E0606007CFCC0C0FEFC06067EFC64
:101F000080C0C0FC7C006030307060603000000039
:101F100000000000FE020202020202FE1C1010106D
:101F20001010101C53756E4D6F6E547565576564B7
:101F3000546875467269536174004A616E46656201
:101F40004D61724170724D61794A756E4A756C418E
:101F500075675365704F63744E6F76446563000018
:101F600011241FBECFEFD8E0DEBFCDBF11E0A0E04F
:101F7000B1E0E6ECF7E602C005900D92AE30B10795
:101F8000D9F726E0AEE0B1E001C01D92AA37B20752
:101F9000E1F70E94A3260C94E1330C940000ACE01E
:101FA000B0E0E5EDFFE00C94B8338B01BE016F5F4C
:101FB0007F4F0E945810B801CE0101960E9447122F
:101FC0002C96E4E00C94D4338F929F92AF92BF9200
:101FD000CF92DF92EF92FF927C0160915C0670914C
:101FE0005D0680915E0690915F060E94573124E362
:101FF0003EE649E458E40E94AD304B015C01C70164
:102000000E9470116B017C01C501B4010E944D3327
:102010004B015C01C701B60190580E944D339B01F2
:10202000AC01C501B4010E9492326B017C0120E039
:1020300030E040E85FE30E948D3218168CF020E01B
:1020400030E040E85FEBC701B6010E94A33087FF94
:102050000DC0C12CD12C90E8E92E9FEBF92E06C0C3
:10206000C12CD12C80E8E82E8FE3F82EC701B601F1
:102070000E94253028E433E347E450E40E94AD3069
:1020800020E030EC48EA57E40E9492320E941F316F
:10209000FF90EF90DF90CF90BF90AF909F908F9088
:1020A000089568E676E00E94581088E696E0089564
:1020B000A4E0B0E0EEE5F0E10C94B4336C017B01F8
:1020C000E0917806F0917906309729F064E776E0A0
:1020D00009958C0102C00FEF1FEFF601408151817D
:1020E000628173818091740690917506A091760645
:1020F000B0917706840F951FA61FB71F1016110603
:102100004CF4A801012E000C660B770B840F951F71
:10211000A61FB71F89839A83AB83BC83B701CE0107
:1021200001960E943B13F701138702872496E8E08B
:102130000C94D033A0E0B0E0E0EAF0E10C94B033CE
:10214000EC01EE81FF818F0104561109B9F0CF0136
:10215000855691096C0197FF03C023E0C20ED11C84
:10216000D594C794D594C7946CE97FEF0E94EA2E6A
:10217000C60ED71E8FEFC81AD80A02C0C12CD12CA8
:102180002DE631E0D8010E94A3330D2C000CEE089F
:10219000FF08C60ED71EE81EF91E8B81082E000C04
:1021A000990B8C01015011092D8122302CF422232E
:1021B00079F1015E1F4F2CC0CF018459984F0E94C6
:1021C0000214282F30E0255C3F4F200F311F8D81F6
:1021D000082E000C990B02978530910514F02756B4
:1021E0003F4F65E070E00E94EA2EAC0197FF02C00D
:1021F0004F5F5F4F559547959DE3949F8001959F55
:10220000100D1124020F131F80FF02C0015E1F4F2B
:10221000C801110FAA0BBB0B9C01AD012C0D3D1D7C
:102220004E1D5F1D60E871E581E090E00E94DA2EAE
:102230004B015C01AA810A2E000CBB0B20E13EE0A1
:102240000E94A3336B017C01A9810A2E000CBB0BF9
:102250002CE330E00E94A333C60ED71EE81EF91E01
:102260006881862F660F990BAA0BBB0B8C0D9D1DE9
:10227000AE1DBF1DBC01CD01680D791D8A1D9B1DC2
:10228000CDB7DEB7ECE00C94CC3390937906809315
:102290007806089560935C0670935D0680935E06F1
:1022A00090935F0620936006309361064093620628
:1022B0005093630608950FB6F89460936406709384
:1022C000650680936606909367060FBE0895609337
:1022D000740670937506809376069093770608953A
:1022E0008F929F92AF92BF92CF92DF92EF92FF9226
:1022F000FC0180809180A280B380C501B40121E2FD
:102300003BE841EE51E00E94FE2E6055764282424B
:102310009E4F0E94553121EB37E449E95AE40E946F
:10232000AD300E94FF326B017C01C501B4012DE389
:1023300035E841EE51E00E94FE2E6854774A824F04
:102340009F4F0E94553121ED35E449E95AE40E943E
:10235000AD304B015C012FED33EE48E05DE3C7018A
:10236000B6010E949232A50194010E9437300E946A
:10237000A8302CE336E741ED5EE30E94923290589C
:10238000FF90EF90DF90CF90BF90AF909F908F9095
:1023900008958F929F92AF92BF92CF92DF92EF9269
:1023A000FF92CF93DF93FC0180809180A280B38065
:1023B0000E94C512EC0160916006709161068091E7
:1023C0006206909163062FE030E040E050E00E940A
:1023D000202F75016401C21AD30AE40AF50AF0EC51
:1023E000CF0EF8EADF1EE11CF11CC501B40120E8A4
:1023F00031E541E050E00E94FE2EA7019601261B28
:10240000370B480B590B6E01DD0FEE08FF08CA01B0
:10241000B9016C197D098E099F09DF91CF91FF9059
:10242000EF90DF90CF90BF90AF909F908F900895E6
:10243000FC010FB6F8946091640670916506809176
:102440006606909167060FBE309721F06083718316
:102450008283938308958F938FB78F93F89480919D
:1024600064068F5F80936406809165068F4F80932A
:102470006506809166068F4F809366068091670699
:102480008F4F809367068F918FBF8F910895A0E043
:10249000B0E0EDE4F2E10C94B4338C01EB01FC010B
:1024A0008481682F660F680F8581582F550F580F4C
:1024B0009E0140E0862F840F90E0A0E08C5D904E5E
:1024C000AF4FFC018491A7FD8081F90181939F01A9
:1024D000852F840F90E0A0E0865C904EAF4FFC010A
:1024E0008491A7FD8081F90183834F5F433011F709
:1024F00080E28F838B83BE01685F7F4FF801838109
:1025000040E2082E000C990B0E941614BE01655F74
:102510007F4FF80182814AE3082E000C990B0E943C
:102520001614BE01625F7F4FF80181814AE3082ED5
:10253000000C990B0E941614BE016F5E7F4FF801CC
:10254000808140E2082E000C990B0E941614F801BD
:102550008681978164E670E08459984F0E94EA2E44
:102560006B017C01BE016C5E7F4F40E2C6010E94A0
:102570001614BE016A5E7F4F40E0C7010E94161428
:10258000CDB7DEB7E8E00C94D0338F929F92AF9234
:10259000BF92CF92DF92EF92FF92FC0180809180F8
:1025A000A280B380C501B40121E23BE841EE51E0D5
:1025B0000E94FE2E6055764282429E4F0E94573105
:1025C00021EB37E449E95AE40E94AD300E94FF3222
:1025D0006B017C01C501B4012DE335E841EE51E00A
:1025E0000E94FE2EDC01CB01805C9D43A34FBF4FB8
:1025F000BC01CD01660F771F881F991F0E945731BC
:1026000021ED35E449E95AE40E94AD304B015C010B
:102610002FED33EE48E05DE3C701B6010E94923230
:10262000A50194010E9437300E94FF322DEC3CE05E
:1026300044E154E40E9492324B015C012DEC3CECED
:1026400045EE53E4C701B6010E9492329B01AC01F2
:10265000C501B4010E9437300E941F318827992795
:10266000861B970BFF90EF90DF90CF90BF90AF90BD
:102670009F908F900895A8E0B0E0E1E4F3E10C941E
:10268000B4338B01FC01608171818281938120E8E8
:1026900031E541E050E00E94FE2E69017A012CE311
:1026A00030E040E050E00E94202F29833A834B83A2
:1026B0005C8389819A81AB81BC81F80160836CE382
:1026C00070E00E94EA2EDC01CB01F801A183828335
:1026D000C601069667E070E00E94AA2F84832DEA67
:1026E0003EE840E050E0C701B6010E94202F298358
:1026F0003A836D837E838F83988789819A8124E6CC
:10270000289F6001299FD00C11246D817E818F81CB
:10271000988525EB35E040E050E00E94202F29838A
:102720003A836D837E83E980FA80EE0CFF1CEE0C09
:10273000FF1CEC0CFD1C8D819E81F5E6EF16F1046B
:1027400010F0019604C024E6E216F10419F021E02D
:1027500030E002C020E030E0A90144595E4F481744
:10276000590768F46DE671E0821B930B0E94EA2E14
:10277000DC01CB01E80EF91ECD0120E030E044E69B
:10278000E40EF11CF801F782E68291878087255CD0
:102790003F4F8217930748F46FE170E00E94EA2EE2
:1027A000DC01CB01F801858322C069E970E0821B5E
:1027B000930B0E94EA2EDC01CB01F82EFF0CFF0CDC
:1027C000F80E6DE370E0CD010E94EA2EDC01CB0132
:1027D000E82EEE0C6FE170E0CD010E94EA2EDC01E4
:1027E000CB0122E0280FF20EFE0CF801F582A38344
:1027F000F8011386128683818F5F83832896E8E031
:102800000C94D0339C0123703327232B59F464E6B6
:1028100070E00E94EA2E892B39F46370772781E0FB
:10282000672B19F080E0089581E008951F93CF93FE
:10283000DF93EB01142F6AE070E00E94EA2E605DE6
:102840006883805D89831A83DF91CF911F910895FA
:10285000CF93DF93D82FC62F8CEE0E94D52D8D2FCE
:102860000E94082E8C2F0E94082E0E94FF2DDF91BF
:10287000CF910895CF93C82F8CEE0E94D52D8C2F29
:102880000E94082E8DEE0E94FC2D0E94252EC82F3E
:102890000E94FF2D8C2FCF910895CF93DF93C82FE7
:1028A0008CEE0E94D52D8C2F0E94082E8DEE0E945A
:1028B000FC2D0E941A2EC82FD0E0DC2FCC270E94BE
:1028C000252EC82B0E94FF2DCE01DF91CF910895B8
:1028D0000E944D149827892798270895CF92DF9258
:1028E000EF92FF92F82E8CEE0E94D52D8F2D0E9434
:1028F000082E8DEE0E94FC2D0E941A2EC82ED12C7F
:10290000E12CF12C0B2EBCE0CC0CDD1CEE1CFF1CD2
:10291000BA95D1F7B02D0E941A2E90E0A0E0B0E059
:10292000880F991FAA1FBB1F880F991FAA1FBB1FC3
:10293000880F991FAA1FBB1F880F991FAA1FBB1FB3
:10294000C82AD92AEA2AFB2A0E94252E82958F704E
:10295000C82A0E94FF2DC701B601FF90EF90DF90BB
:10296000CF9008951F93CF93DF930E94CF2D80EDDA
:102970000E943A14803609F076C088E80E946814F4
:10298000C9E4D3E0998388838AE80E9468149B8312
:102990008A838CE80E9468149D838C838EE80E9451
:1029A00068149F838E8380E90E94681499878887C2
:1029B00082E90E9468149B878A8784E90E946814D0
:1029C0009D878C8786E90E9468149F878E8788E997
:1029D0000E946814998B888B8AE90E9468149B8BEB
:1029E0008A8B8CE90E9468149D8B8C8B8EE90E94E7
:1029F00068149F8B8E8B81EA0E943A14888F81EE37
:102A00000E9468149A8F898F83EE0E943A148B8FEC
:102A100084EE0E943A14182F85EE0E943A1490E139
:102A2000199F900111248F70282B3D8F2C8F86EEDB
:102A30000E943A14182F85EE0E943A1490E1199FD3
:102A40009001112482958F70282B3F8F2E8F87EE57
:102A50000E943A1488A361E082EF0E94281464E285
:102A600084EF0E942814DF91CF911F9108952F9237
:102A70003F924F925F926F927F928F929F92AF920E
:102A8000BF92CF92DF92EF92FF920F931F93CF935B
:102A9000DF9300D000D0CDB7DEB77C018B011A01E7
:102AA00065E284EF0E9428148AEF0E946E14A9E464
:102AB000B3E0ED91FC912F01612C712CAB01BC01B5
:102AC000689412F876956795579547951694D1F7BF
:102AD000D301C201880F991FAA1FBB1F9A01AB0126
:102AE000281B390B4A0B5B0BA0914B03B0914C0395
:102AF0000E94592F4B015C01F295E295EF70EF2790
:102B0000FF70EF27CF01A0E0B0E0BC01CD01641958
:102B10007509860997099B01AC010E94DA2E9B0179
:102B2000AC01012E1CE055954795379527951A95D0
:102B3000D1F7102DA0914D03B0914E030E94592F53
:102B4000072E7BE0B594A794979487947A95D1F754
:102B5000702DDC01CB01072E7EE0B595A7959795EA
:102B600087957A95D1F7702D880E991EAA1EBB1EE7
:102B700080926A0390926B03A0926C03B0926D03F3
:102B8000D501C401880F991FAA1FBB1F880F991F69
:102B9000AA1FBB1F880E991EAA1EBB1EB0E88B0E73
:102BA000911CA11CB11C892C9A2CAB2CBB24F701C5
:102BB0009182808287EF0E946E1469837A838B836F
:102BC0009C83C0906A03D0906B03E0906C03F090FC
:102BD0006D03F594E794D794C794FAEFDF1AE108F0
:102BE000F108C701B60195958795779567959595F5
:102BF0008795779567959B01AC010E94DA2E2B0192
:102C00003C01A0915303B09154039B01AC01012EF0
:102C10001DE055954795379527951A95D1F7102DB5
:102C20000E94592F4B015C01689412F8B594A79447
:102C3000979487941694D1F7A0915103B0915203C1
:102C4000A70196010E94592FDC01CB01B595A795EC
:102C500097958795880D991DAA1DBB1D072E72E1BA
:102C6000B595A795979587957A95D1F7702D9C0185
:102C7000AD0130584F4F5F4FA0914F03B0915003BB
:102C80000E944E2F4B015C01072E7FE0B594A79464
:102C9000979487947A95D1F7702D81149104A104AB
:102CA000B10409F4C4C0A3019201012E1BE05595A3
:102CB0004795379527951A95D1F7102DE9E4F3E05C
:102CC000A089B1890E94592F2B013C01A685B785A7
:102CD000A70196010E94592FDC01CB01880F991F93
:102CE000AA1FBB1F480E591E6A1E7B1E759467944F
:102CF0005794479475946794579447948485958521
:102D0000092E000CAA0BBB0BDC0199278827840D28
:102D1000951DA61DB71D072E7CE0B595A795979527
:102D200087957A95D1F7702D29813A814B815C8105
:102D3000280F391F4A1F5B1FABECB3EF0E945C2FBB
:102D4000805B9C4399235CF0660F771F881F991F57
:102D5000A50194010E94FE2E69017A010AC0A50115
:102D600094010E94FE2E69017A01CC0CDD1CEE1C40
:102D7000FF1CC701B601689412F896958795779560
:102D800067951694D1F79B01AC010E94DA2E9B0146
:102D9000AC01012E1DE056954795379527951A955C
:102DA000D1F7102DE9E4F3E0A689B7890E94592FE5
:102DB0004B015C01072E7CE0B594A794979487940F
:102DC0007A95D1F7702DA7019601569547953795BD
:102DD00027955695479537952795A489B5890E94DB
:102DE000592FDC01CB01072E7DE0B595A79597956E
:102DF00087957A95D1F7702D880D991DAA1DBB1D59
:102E000042895389052E000C660B770B840F951FA2
:102E1000A61FB71F689413F8B595A7959795879542
:102E20001694D1F78C0D9D1DAE1DBF1D03C080E013
:102E300090E0DC01F80180839183A283B3838DEF5E
:102E40000E944D14E9E4F3E081A092A0A3A0B4A0F5
:102E50002CE2921A21E0A20AB1086C01E12CF12CBB
:102E60000B2EBEE0CC0CDD1CEE1CFF1CBA95D1F77E
:102E7000B02D448D558D052E000C660B770B032E5F
:102E800034E1440F551F661F771F3A95D1F7302D57
:102E9000C41AD50AE60AF70AA68DB78DA5019401D2
:102EA0000E94592FC61AD70AE80AF90A30E4D30E4D
:102EB000E11CF11C0B2EBFE0F594E794D794C79466
:102EC000BA95D1F7B02DA38DB0E0A50194010E9471
:102ED0004E2F2B013C01032E3BE0759467945794D1
:102EE00047943A95D1F7302D40E8540E611C711C7F
:102EF000A0A10A2E000CBB0BA50194010E94592F22
:102F0000052E5AE095958795779567955A95D1F74F
:102F1000502DA30192010E94DA2EDC01CB01072E75
:102F20007AE0B595A795979587957A95D1F7702D05
:102F30009C01AD01405E5F4FA18DB28D0E94592F63
:102F4000DC01CB01905EAF4FBF4F9C01AD01012E64
:102F50001EE055954795379527951A95D1F7102D71
:102F6000C701B6010E94DA2E6B017C01052E5FE0DD
:102F700095958795779567955A95D1F7502D9B0133
:102F8000AC010E94DA2E9B01AC01689416F85595AD
:102F90004795379527951694D1F7A08DB0E00E94FC
:102FA0004E2FDC01CB01689413F8B595A795979542
:102FB00087951694D1F7A7019601281B390B4A0B68
:102FC0005B0BDA01C9011AF480E090E0DC0181308A
:102FD0009105A10539E1B30724F080E090E0A0E07D
:102FE000B9E1072E7CE0B595A795979587957A95D9
:102FF000D1F7702DF10180839183A283B3830F9069
:103000000F900F900F90DF91CF911F910F91FF9034
:10301000EF90DF90CF90BF90AF909F908F907F9078
:103020006F905F904F903F902F900895806281360F
:1030300010F08755089580530895FC019081990FF1
:103040009056292F220F220F920F218180ED820F9F
:10305000890F08950F931F9381ED93E00E94C72F6E
:103060009B01AC01A4E6B0E00E944E2FAB01BC0175
:1030700077231CF4A2EDB3E002C0A1EDB3E02C91E4
:10308000822F90E0C0970A9748F4FD013196DF0146
:103090002191822F90E0C0970A97C8F32E3281F4D5
:1030A00011968C91282F30E0205331092A303105B8
:1030B00048F4880F8056982F990F990F890F03C0F5
:1030C00080E001C080E077234CF48A019B01081B5B
:1030D000110921093109C901B80108C08A019B0100
:1030E000080F111D211D311DC901B8011F910F913C
:1030F00008958F929F92AF92BF92CF92DF92EF92FC
:10310000FF92CF93DF9381ED93E00E94C72F6B0175
:103110007C012091D103822F90E0C0970A9750F450
:10312000E2EDF3E0DF012191822F90E0C0970A9752
:10313000C8F302C0A1EDB3E02E3279F511964C919F
:103140001197842F90E0C0970A9750F5FD013296B1
:1031500028EE33E0C0E0D0E050E040535109429FF8
:10316000C001439F900D529F900D1124C80FD91F8D
:10317000ADECBCEC0E943F2F9C013695279536950F
:103180002795369527954191842F90E0C0970A970F
:1031900048F42230310500F705C0C0E0D0E002C09D
:1031A000C0E0D0E0C701B60124E630E040E050E0E6
:1031B0000E94202F4B015C0160E47EE785E090E0F7
:1031C0000E94DA2E6B017C01A0E7B7E1A501940112
:1031D0000E944E2FC60ED71EE81EF91E9E01220F1A
:1031E000331F2C0F3D1F220F331FADECBCEC0E9490
:1031F0003F2F969587959695879596958795A701E4
:103200009601280F391F411D511DCA01B901DF91D7
:10321000CF91FF90EF90DF90CF90BF90AF909F90B5
:103220008F900895EF92FF920F931F93CF93DF93A8
:1032300010910F0111112AC068ED70E081ED93E04B
:103240000E94F72F892B89F480E091E0909312017E
:103250008093110162ED70E081ED93E00E94F72F01
:10326000892B59F0C0E0D1E03EC062ED70E081ED05
:1032700093E00E94F72F892B49F480E092E090932D
:10328000120180931101C0E0D2E02DC0C091110164
:10329000D0911201CF3FD10519F50F2EF1EDEF2E90
:1032A000F3E0FF2EF02DF70180810E941618082F01
:1032B000F70181810E94161890E0F0E10F9F800DC8
:1032C000911D11242091100130E08217930719F00D
:1032D00010928B0308C080918B0381111AC103C027
:1032E000209709F40FC1CE01810F911D893021E093
:1032F000920709F4FFC010F58430F1E09F0709F44C
:1033000097C058F48230E1E09E0709F467C008F0E6
:1033100071C081309140D9F1F7C08630E1E09E075D
:1033200009F452C008F490C0873021E0920709F4F4
:10333000B1C08830914009F4BDC0E6C08530F2E0EC
:103340009F0709F475C090F48230E2E09E0791F186
:1033500020F481309240D9F0D7C08330E2E09E075C
:10336000E9F18430924009F445C0CEC0873022E0B4
:10337000920709F487C008F467C08830F2E09F071D
:1033800009F490C08930924009F49CC0BDC081ED21
:1033900093E00E941D18CDE7D3E08A8383ED93E08C
:1033A0000E941D18898385ED93E00E941D18888373
:1033B00080E0AFC081E09091D103913409F080E0CA
:1033C00080938B0380E0A5C081E09091D10391337D
:1033D00008F480E080938B0380E09BC00E94791802
:1033E00060937303709374038093750390937603D3
:1033F00080E08FC08091D103833509F087C0809130
:10340000730390917403A0917503B0917603B09506
:10341000A095909581959F4FAF4FBF4F80937303B9
:1034200090937403A0937503B093760380E071C00A
:103430000E947918609377037093780380937903DF
:1034400090937A0380E065C08091D103873509F0BD
:103450005FC08091770390917803A0917903B09138
:103460007A03B095A095909581959F4FAF4FBF4F30
:103470008093770390937803A0937903B0937A03B2
:1034800080E047C00E942A18709372036093710312
:1034900080E03FC081ED93E00E94C72F60937003EE
:1034A00080E037C00E942A1870937C0360937B03EE
:1034B00080E02FC00E942A1870938A0360938903CA
:1034C00080E027C081ED93E00E941D18CDE7D3E096
:1034D0008B8383ED93E00E941D1881508D8385EDD1
:1034E00093E00E941D1890E08C599F4F9F838E831C
:1034F00080E00FC00E942A1870936F0360936E03E0
:1035000080E007C080E005C080E003C080E001C02B
:1035100080E0DF91CF911F910F91FF90EF90089580
:10352000CF93843269F0C82F853228F48A3029F18C
:103530008D30D9F522C08A3201F18C3279F035C054
:1035400010920E0110920F011092120110921101AF
:103550001092100110928B0380E042C090911001F4
:103560008CE2892780931001E0910E01F0E0EF5288
:10357000FC4F10820E94121910C0E0910E01F0E081
:10358000EF52FC4F10820E941219CA3231F42FEF11
:1035900030E0309312012093110110920E019091AE
:1035A0000F019F5F90930F011BC0E0910E01EE3061
:1035B00040F481E08E0F80930E01F0E0EF52FC4F5B
:1035C000C08380911101909112018F3F910539F0D4
:1035D00080911001C827C093100180E001C080E0F5
:1035E000CF9108955E985F988EBD00C000C000C066
:1035F00000C000C000C000C000C000005E9A5F9A1A
:1036000008955F988EBD00C000C000C000C000C01B
:1036100000C000C000C000005F9A0895CF92DF9202
:10362000EF92FF920F931F93CF93DF935C9A8AB12F
:10363000806D8AB984B18C6284B980E58CBD8DB50A
:1036400081608DBD5F9A5C988FE097E20197F1F7FA
:1036500000C000005C9A9FEFEDEEF2E09150E04078
:10366000F040E1F700C0000081E00E94F21A8FE014
:1036700097E20197F1F700C000000EED10E0C801DD
:103680000196F801C491CC2329F16801F2E0CF0E34
:10369000D11CFC0184910E94F21A0F2EFEEFEF2E36
:1036A000F02DEC0EC130A1F0F12CC7010396080FEC
:1036B000191FE601FE0184910E94011B2196C0178B
:1036C000D107C1F787010F5F1F4F0C0D1D1DD7CF0D
:1036D0008601D5CF81E10E94F21A8FE097E201972F
:1036E000F1F700C0000089E20E94F21ADF91CF9149
:1036F0001F910F91FF90EF90DF90CF9008955E980B
:103700005F98EAE2EEBD00C000C000C000C000C08B
:1037100000C000C000C000005E9A9EBD00C000C096
:1037200000C000C000C000C000C000C000008EBDCE
:1037300000C000C000C000C000C000C000C000C089
:1037400000005EBD00C000C000C000C000C000C0DE
:1037500000C000C000004EBD00C000C000C000C0DE
:1037600000C000C000C000C000005E985F988BE2FF
:103770008EBD00C000C000C000C000C000C000C0BE
:1037800000C000005E9A7EBD00C000C000C000C046
:1037900000C000C000C000C000006EBD00C000C07E
:1037A00000C000C000C000C000C000C000003EBD9E
:1037B00000C000C000C000C000C000C000C000C009
:1037C00000002EBD00C000C000C000C000C000C08E
:1037D00000C000C000005E985F988CE28EBD00C003
:1037E00000C000C000C000C000C000C000C0000099
:1037F0005E9A5F9A08950F931F93CF93DF93EA0128
:10380000122F032F20910201309103018217930799
:1038100008F032C020910001309101016217730756
:1038200008F02AC041505109460F571F421753074D
:1038300018F0E901C61BD70B9B01215031092C0F51
:103840003D1FAC010E947F1B5F982097A1F00EBD29
:1038500000C000C000C000C000C000C000C000C068
:1038600000001EBD00C000C000C000C000C000C0FD
:103870000000219761F75F9ADF91CF911F910F911F
:1038800008950F931F93CF93DF93EA01122F032F15
:1038900020910201309103018217930708F033C091
:1038A00040910001509101016417750708F02BC089
:1038B000AE0141505109480F591F4217530718F0E4
:1038C000E901C81BD90BAC01415051094C0F5D1FD8
:1038D0009B010E947F1B5F982097A1F00EBD00C046
:1038E00000C000C000C000C000C000C000C0000098
:1038F0001EBD00C000C000C000C000C000C000006D
:10390000219761F75F9ADF91CF911F910F910895F1
:10391000EF92FF920F931F93CF93DF93EA01790108
:1039200020910201309103018217930708F048C0EB
:1039300040910001509101016417750708F040C0E3
:10394000FE013197E80FF91FE217F30718F0E901BC
:10395000C81BD90B970121503109260F371F241797
:10396000350718F07A01E61AF70A9B012150310950
:103970002E0D3F1DAC01415051094C0F5D1F0E949F
:103980007F1B5F98C7010197EF28C9F0FE013097B0
:10399000A1F01EBD00C000C000C000C000C000C03B
:1039A00000C000C000000EBD00C000C000C000C0CC
:1039B00000C000C00000319761F7019738F75F9AA7
:1039C000DF91CF911F910F91FF90EF9008950F938A
:1039D0001F9320910001309101014091020150910B
:1039E00003018C0160E070E080E090E00E94881CA0
:1039F0001F910F910895CF93C82F86E30E94F21A6A
:103A00008C2F83708130B1F028F0823019F183302F
:103A100089F13FC088E40E94011B80EF90E0909301
:103A200003018093020180E491E09093010180936F
:103A300000012FC088E20E94011B80E491E0909376
:103A400003018093020180EF90E090930101809345
:103A500000011FC088E80E94011B80EF90E0909356
:103A600003018093020180E491E09093010180932F
:103A700000010FC088EE0E94011B80E491E090934A
:103A800003018093020180EF90E090930101809305
:103A90000001CF910895AF92BF92CF92DF92EF9243
:103AA000FF920F931F93CF93DF937C016B01EA0189
:103AB000590198010E94411CB501615071096C0DBA
:103AC0007D1D9801AE01C7010E94411C9801A5010E
:103AD000B601C7010E94FB1BCE0101979801A50109
:103AE000B6018E0D9F1D0E94FB1BDF91CF911F9190
:103AF0000F91FF90EF90DF90CF90BF90AF9008951F
:103B00002F923F924F925F926F927F928F929F92ED
:103B1000AF92BF92CF92DF92EF92FF920F931F93DB
:103B2000CF93DF935C014B01290100271127041B70
:103B3000150BC1E0D0E0C41BD50BCC0FDD1FC12C91
:103B4000D12C212C312C3601660C771C9201A3015B
:103B50007401EC18FD08B701C501801B910B0E9490
:103B6000FB1B9201A301B701C8018A0D9B1D0E9496
:103B7000FB1BCC16DD06ACF08FEFC81AD80A83E029
:103B8000680E711C6C0E7D1E88279927801B910B77
:103B9000C816D90639F40C171D073CF0C22DD32DD9
:103BA00001C03E010C171D074CF40F5F1F4FE801C9
:103BB000CC0FDD1F2196C60DD71D01C0E3011016E5
:103BC00011060CF6DF91CF911F910F91FF90EF90AE
:103BD000DF90CF90BF90AF909F908F907F906F902D
:103BE0005F904F903F902F90089590938D03809316
:103BF0008C03FC0124913196849190E0922B909358
:103C00008F0380938E0308952F923F924F925F927D
:103C10006F927F928F929F92AF92BF92CF92DF92DC
:103C2000EF92FF920F931F93CF93DF93CDB7DEB741
:103C30002F970FB6F894DEBF0FBECDBF2C0178874B
:103C40006F833A83298368012E2C60918C037091D5
:103C50008D03FB013296B4903196A4903196549125
:103C6000319614911B83DB01169680908E03909001
:103C70008F032A2D30E0F9013796CF010AF4079619
:103C8000959587959595879595958795451B52E0D0
:103C90008516910460F4849FA0011124B49E300124
:103CA000B59E700C11246A0E7B1E1A862BC0FD0176
:103CB000E40FF11DB4905A2D577021F0E8E0E51B98
:103CC000EA8701C01A86442389F0FD01415050E083
:103CD000495F5F4F460F571F60E070E01491610F1E
:103CE000711D3196E417F507C9F702C060E070E076
:103CF000869F3001879F700C11245B81650E711CBB
:103D00006A0E7B1E4B2D50E0622D70E07C836B832E
:103D1000FB014E9FB0014F9F700D5E9F700D1124EF
:103D2000640D751DE0910201F0910301E617F7079C
:103D300008F4A8C1EB81FC812E9FB0012F9F700D6C
:103D40003E9F700D1124EF81F8856E0F7F1FE0916B
:103D50000001F0910101E617F70708F493C1898784
:103D600069817A816C157D0509F09CC0882309F46E
:103D700089C181E00A8401C0880F0A94EAF78B8721
:103D80008B819C81880F991F880F991F880F991F1D
:103D90009D878C87822C912C7A01FF86EE86A22C3F
:103DA0009A85992309F455C1E985E13009F054C198
:103DB0003B8454C13FEF231A330A2E143F0408F00A
:103DC00042C0F301E20DF31DE491EB2199F352C1DE
:103DD000A0E0B0E011967FEF271A370A2E143F04B7
:103DE00030F4F301E20DF31DE491EB2199F7109704
:103DF00051F191E0A9120CC029813A81AD01B601BF
:103E0000C201820D931D8A1B9B0B0E94411C1BC08B
:103E1000A89DA001A99D500DB89D500D11249101A0
:103E20002A1B3B0B289DC001299D900D389D900DAC
:103E3000112409811A8194016B817C81840D951D67
:103E40000E94881C00C02E143F0440F4F301E20DD0
:103E5000F31DE491EB2109F4ADCF0CC1BB0C5FEF76
:103E6000C51AD50A6B817C81680D791D7C836B83B3
:103E70008D819E81C816D90619F0212C312CE3CFF3
:103E80002F8138854C855D85240F351F38872F831A
:103E90005985515059876E857F85660E771E511161
:103EA0007FCFF0C0EE24E394F12C71E087169104EB
:103EB00011F4E12CF12C4E0D5F1D8B819C81489FEC
:103EC0008001499F100D589F100D11242E0D3F1D8C
:103ED000289FA001299F500D389F500D11248F81DC
:103EE000988501979A01280F391FA2014150510965
:103EF000400F511F6F817885C2010E947F1B5F9820
:103F0000AA2009F48AC0EB81FC81EE9DC001EF9DDF
:103F1000900DFE9D900D1124FD2C21E00A8401C01E
:103F2000220F0A94EAF7322E61E02FEF2B0D30E0DA
:103F3000A9014F5F5F4F5C834B83222D30E0E98006
:103F40005A815B87CF827D2D4B2D50E05A83498368
:103F50001E830D8319855CC04491462319F44F815B
:103F6000072F02C04E2D0B85D9011097A1F00EBD71
:103F700000C000C000C000C000C000C000C000C041
:103F800000004EBD00C000C000C000C000C000C0A6
:103F90000000119761F73196E415F50509F0DCCFC3
:103FA000FC013097A1F0FEBC00C000C000C000C002
:103FB00000C000C000C000C00000CEBC00C000C0F7
:103FC00000C000C000C000C00000319761F75F5F13
:103FD000251206C009C050E04B805C80460C571C7F
:103FE000BB20F1F2F301B8CF660F79F449815A8111
:103FF000640E751E5A85552329F01150113021F495
:10400000632D03C061E001C061E0AA94AA2019F009
:104010002110E1CFE9CF0D811E818A948928B9F062
:10402000C8010097A1F0DEBC00C000C000C000C005
:1040300000C000C000C000C00000CEBC00C000C076
:1040400000C000C000C000C00000019761F75F9A87
:1040500019C03324339402C0332433948F8198855C
:1040600008969E838D83EF81F8856F01FC83EB8337
:10407000B32C03CFF301E20DF31DE491EB2109F022
:10408000A7CEE1CE2F960FB6F894DEBF0FBECDBF00
:10409000DF91CF911F910F91FF90EF90DF90CF9024
:1040A000BF90AF909F908F907F906F905F904F9058
:1040B0003F902F9008953F924F925F926F927F9220
:1040C0008F929F92AF92BF92CF92DF92EF92FF9228
:1040D0000F931F93CF93DF9300D000D000D0CDB7C4
:1040E000DEB73901E7E06E0E711C76946794769422
:1040F0006794769467940115110509F464C03E83B2
:104100002D835A012B019A838983812C912C312C88
:10411000820F931F9C838B837724B201680D791DD6
:104120009B014B815C8189819A810E947F1B5F98F2
:104130002D813E81232B09F43EC0689C9001699C2F
:10414000300D789C300D112480E090E0AC01477078
:104150005527452B11F036940CC0FC01F695E795D8
:10416000F695E795F695E795E20FF31FEA0DFB1D2F
:10417000349030FC03C04C2D5D2D02C04E2D5F2DC0
:104180005EBD00C000C000C000C000C000C000C0D4
:1041900000C000004EBD00C000C000C000C000C094
:1041A00000C000C000C0000001964D815E8148172C
:1041B000590709F0CBCF5F9A5FEF851A950A08156A
:1041C000190509F0AACF26960FB6F894DEBF0FBEE8
:1041D000CDBFDF91CF911F910F91FF90EF90DF90B6
:1041E000CF90BF90AF909F908F907F906F905F9097
:1041F0004F903F9008952091020130910301821762
:10420000930710F0C901019790931601809315014F
:1042100080910001909101016817790718F0BC01A5
:104220006150710970931401609313010895909384
:1042300007018093060170930501609304010895BE
:10424000EF920F931F93CF9320918C0330918D03A6
:10425000F901339654913196949160918E03709147
:104260008F036230710548F0E82FF0E03696E91BC5
:10427000F109E20FF31FC49106C0F9013296C4910F
:104280006130710511F05F5FCF5F8A3099F4109251
:10429000160110921501209108018091130190914F
:1042A0001401259F800D911D11249093140180937A
:1042B000130130C0F90135962491891758F1482F20
:1042C00050E030E0290F311D421753071CF5482FED
:1042D0000091040110910501209106013091070120
:1042E0006091130170911401E09008018091150113
:1042F000909116010E94041E2091080180911501E1
:10430000909116012C9F800D911D11249093160100
:1043100080931501CF911F910F91EF9008954091D7
:104320008C0350918D03FA01349624913196E491D7
:10433000821700F190E030E0B9016E0F711D861711
:104340009707D4F460918E0370918F0362307105EA
:1043500040F0FC013696E21BF30BE40FF51FE491ED
:1043600003C0FA013296E49180910801E89F802D04
:104370001124089580E0089580E008950F931F931D
:10438000CF93DF93EC0100E010E00EC00E948F217C
:10439000882351F0080F111D80918E0390918F0397
:1043A000019711F00F5F1F4F89918111EFCFC80165
:1043B000DF91CF911F910F910895CF93DF93EC017F
:1043C0008881882331F021960E94202189918111D2
:1043D000FBCFDF91CF910895CF93DF93EC0121962E
:1043E000FC018491882339F00E942021FE018491F0
:1043F00021968111F9CFDF91CF9108950F931F93EB
:10440000DC01E0918C03F0918D033396249180912F
:104410008E0390918F03019709F02F5FE0911501B2
:10442000F0911601009104011091050130E0CD01D9
:104430008E1B9F0BAC0122F444275527481B590BB8
:104440006091130170911401CF01AE17BF0708F4FA
:10445000CD010E94881C1F910F910895FC0180815D
:104460009181A281B381B23C20F08058924AA14947
:10447000B44BBC01CD016059794A8D4E984D20E86E
:104480003AE349E050E00E94FE2EDA01C901880FAC
:10449000991FAA1FBB1F880F991FAA1FBB1F880F38
:1044A000991FAA1FBB1F821B930BA40BB50BBC014A
:1044B000CD01660F771F881F991F660F771F881F12
:1044C000991F25EB35E040E050E00E94FE2E683554
:1044D000734018F080E090E0089580E19EE0089538
:1044E000A0913B01B0E0CD01880F991F880F991F63
:1044F000880F991FFC01E551FC4F8C5C994F60E7D8
:104500007EEF47EE53E022EE34E012861186768786
:1045100065875087478334872387B796E817F9075D
:10452000A1F7CD01880F991FFC01EA0FFB1FEE0FC9
:10453000FF1FEE0FFF1FE556FC4F16861786108AE9
:10454000118A20E630EF3187208740E050E961E0B2
:1045500070E0428753876487758784E391E297838D
:1045600086830895CF93C82F8EE09EE00E94F51DAC
:104570008C2F0E94202180EF99E10E94F51DCF91A0
:1045800008950F931F9380913401909135010E94FB
:10459000E71C80EF99E10E94F51D00E114E820EE90
:1045A00030E04EEB50E060E070E080E090E00E9490
:1045B0004B1D60E070E081E090E00E94FB2060E134
:1045C00074E880910A0190910B010E94172181E803
:1045D00091E00E94EC218DEB90E00E94FE2120EE04
:1045E00030E048E750E060E070E088EC90E00E9446
:1045F0004B1D60E070E089EC90E00E94FB2084E7B6
:1046000091E00E94EC218FE391E00E94FE216091F5
:1046100034017091350180910A0190910B010E9443
:1046200017216FE070E08DE191E00E94FB2089E0AE
:104630000E94B22283E40E94202168E270E08DE1B2
:1046400091E00E94FB2085E20E94202161E470E05D
:104650008DE191E00E94FB2080E791E00E94EC2137
:104660001F910F9108959F92AF92BF92CF92DF92C8
:10467000EF92FF920F931F93CF93DF937C01EB0197
:10468000A22EFC01992324F4EE27FF27E81BF90B47
:1046900050E06E01C40ED11C0F2EFEE29F2EF02DB5
:1046A000BB24B394B50E8E01050F111D9F01ADEC17
:1046B000BCEC0E943F2F9695879596958795969589
:1046C00087959C01220F331F880F991F880F991F10
:1046D000880F991F820F931F9F01281B390BC90157
:1046E000805DD8018C93B41204C05E5FD6019C92A9
:1046F00001C05B2D9F01ADECBCEC0E943F2FFC0183
:10470000F695E795F695E795F695E795309741F696
:104710005A1548F480E3FE01E50FF11D80835F5FC9
:10472000A512F9CF01C0A52EFF2034F4FE01EA0D39
:10473000F11D8DE28083A394FE01EA0DF11D10822C
:10474000CE010E940030DF91CF911F910F91FF9019
:10475000EF90DF90CF90BF90AF909F900895FF9221
:104760000F931F93CF93DF930E945110EC018A8126
:1047700022E040E061ED73E0082E000C990B0E94EE
:10478000332301ED13E00F2EFAE3FF2EF02DF80195
:10479000F282898122E040E064ED73E0082E000C93
:1047A000990B0E943323F801F582888122E040E0D2
:1047B00067ED73E0082E000C990B0E943323C801AB
:1047C0000E94DD21DF91CF911F910F91FF900895FD
:1047D00023E041E061ED73E00E94332381ED93E03B
:1047E0000E94DD210895EF92FF920F931F93CF93C4
:1047F000DF938C017B01EA01C90123E041E061ED17
:1048000073E00E94332381ED93E00E94BE21C00F2C
:10481000D11FB7019E01281B3109C9010E94FB204D
:10482000C8010E94FE2181ED93E00E94DD21DF910D
:10483000CF911F910F91FF90EF9008951F920F92CB
:104840000FB60F9211242F933F934F935F936F9363
:104850007F938F939F93AF93BF93EF93FF93809139
:104860003801909139010196909339018093380174
:104870008091380190913901883E9340A1F51092C2
:104880003901109238010E942B1280913A018F5FFA
:1048900080933A0180915B06816080935B068091F2
:1048A0003A018C3301F510923A01809136019091D2
:1048B00037010196909337018093360180915B0612
:1048C000826080935B068091360190913701883633
:1048D000914049F4109237011092360180915B06A5
:1048E000846080935B06FF91EF91BF91AF919F91A0
:1048F0008F917F916F915F914F913F912F910F9089
:104900000FBE0F901F9018958F929F92AF92BF92FB
:10491000CF92DF92EF92FF920F931F93A0913301FA
:104920002DECA29F212D112426952695322F330F91
:10493000330F230FEA2FE21BF0E0EE0FFF1FEE0F05
:10494000FF1FE15EFE4F6083718382839383EFE1FB
:10495000F1E043E351E060E070E0CB01019111919F
:1049600021913191600F711F821F931FE417F5078A
:10497000A9F711E01A0F10933301153B20F086E0E0
:104980008093330193C12DEC3CEC4CEC5CEC0E9429
:10499000612F00E20E948E2F822E932EA42EB52E20
:1049A000D501C401B695A79597958795B695A79516
:1049B00097958795153049F480931B0190931C01BE
:1049C000A0931D01B0931E0171C1133291F50091A6
:1049D0001B0110911C0120911D0130911E01801BB3
:1049E000910BA20BB30B20910901222369F0880FD0
:1049F000991FAA1FBB1F8093970390939803A093BE
:104A00009903B0939A0356C1BC01CD01660F771F7D
:104A1000881F991F23E030E040E050E00E94202FE3
:104A200020939703309398034093990350939A03EC
:104A300041C11C3379F500911B0110911C0120919B
:104A40001D0130911E014C015D01801A910AA20ADC
:104A5000B30A80910901882349F0809297039092CC
:104A60009803A0929903B0929A0324C1D501C4017E
:104A7000BB201CF40196A11DB11DB595A795979576
:104A800087958093970390939803A0939903B0938D
:104A90009A0310C11F35D1F500911B0110911C0123
:104AA00020911D0130911E01801B910BA20BB30BB5
:104AB000209109012223A9F0BC01CD01660F771FC7
:104AC000881F991F23E030E040E050E00E94202F33
:104AD00020939703309398034093990350939A033C
:104AE000E9C0BC01CD01660F771F881F991F25E023
:104AF00030E040E050E00E94202F20939703309355
:104B000098034093990350939A03D4C0183709F03F
:104B100040C08093170190931801A0931901B0939E
:104B20001A0100911B0110911C0120911D0130916F
:104B30001E01BC01CD01601B710B820B930B2091F8
:104B400009012223B9F08B019C01992324F40F5F02
:104B50001F4F2F4F3F4FD901C801B595A795979586
:104B600087958093970390939803A0939903B093AC
:104B70009A03A0C023E030E040E050E00E94202FE4
:104B800020939703309398034093990350939A038B
:104B900091C01B39D1F500911B0110911C0120918E
:104BA0001D0130911E01801B910BA20BB30B2091B4
:104BB00009012223A9F0BC01CD01660F771F881FD0
:104BC000991F25E030E040E050E00E94202F209324
:104BD0009703309398034093990350939A036AC0C4
:104BE000BC01CD01660F771F881F991F27E030E0B9
:104BF00040E050E00E94202F2093970330939803C9
:104C00004093990350939A0355C0143B09F04CC04C
:104C100000911B0110911C0120911D0130911E017A
:104C2000BC01CD01601B710B820B930B209109011C
:104C3000222379F023E030E040E050E00E94202F72
:104C400020939703309398034093990350939A03CA
:104C500018C08B019C01992324F40D5F1F4F2F4F27
:104C60003F4F3595279517950795359527951795B6
:104C7000079500939703109398032093990330931B
:104C80009A038091170190911801A0911901B09198
:104C90001A0180931B0190931C01A0931D01B093F6
:104CA0001E011092090106C0133220F480910901FF
:104CB000811133C08091970390919803A09199033B
:104CC000B0919A0386302FEF9207A207B2073CF10A
:104CD0008B3F9105A105B10524F5AC01BD014750FD
:104CE0005F4F6F4F7F4F473C510561057105D8F00D
:104CF000AC01BD014353510961097109473C51059C
:104D00006105710590F0C196A11DB11D8336910515
:104D1000A105B10560F480E00BC085E009C084E026
:104D200007C083E005C082E003C081E001C085E0E8
:104D30001F910F91FF90EF90DF90CF90BF90AF90B9
:104D40009F908F900895CF93DF93CDB7DEB7A49750
:104D50000FB6F894DEBF0FBECDBF83E284BD82E004
:104D600085BD559A8093B00094E09093B1009CE784
:104D70009093B300809370000E940E1B83E00E940A
:104D8000FB1C0E94C1220E94B2140E94EA2C80EAFD
:104D900091E00E94912E80E680937C0087E88093CA
:104DA0007A000E94702260E17EE080E090E00E9444
:104DB00067118EE292E20E94451125E528A33DEAA3
:104DC00039A31CA21BA21AA28FEF8D8F90EE9E8F8B
:104DD000E7E0EF8F10C08AA32FEF3FEF3CA32BA398
:104DE00030E238A38DEF89A31D8E05C018A298EF7D
:104DF00099A3EFEFED8F80915B0680FF4DC5ECE747
:104E0000F0E08081807F82608083EAE7F0E080814B
:104E100080648083EAE7F0E0808186FDFBCF8091AB
:104E20007900809588BD80915B0682FF17C08091D4
:104E30003B0190E0019683709078992324F40197C8
:104E40008C6F9F6F019680933B0180910C018430A1
:104E500018F48F5F80930C010E947022AE01435FB3
:104E60005F4FBE016F5E7F4FCE0147960E943715A0
:104E700080913B0190E04D855E856F857889FC01CE
:104E8000EE0FFF1FE80FF91FEE0FFF1FEE0FFF1FC2
:104E9000E556FC4F068517852089318904171507CB
:104EA0002607370778F4FC01EE0FFF1FE80FF91F04
:104EB000EE0FFF1FEE0FFF1FE556FC4F468757878B
:104EC000608B718BFC01EE0FFF1FE80FF91FEE0FD7
:104ED000FF1FEE0FFF1FE556FC4F0285138524854B
:104EE0003585401751076207730778F4FC01EE0F10
:104EF000FF1FE80FF91FEE0FFF1FEE0FFF1FE55614
:104F0000FC4F42875387648775872F89388DFC0152
:104F1000EE0FFF1FE80FF91FEE0FFF1FEE0FFF1F31
:104F2000E556FC4F40855185421753076CF4FC0150
:104F3000EE0FFF1FE80FF91FEE0FFF1FEE0FFF1F11
:104F4000E556FC4F31872087FC01EE0FFF1FE80F6D
:104F5000F91FEE0FFF1FEE0FFF1FE556FC4F4681B6
:104F60005781241735076CF4FC01EE0FFF1FE80F83
:104F7000F91FEE0FFF1FEE0FFF1FE556FC4F3783A3
:104F80002683EBE9F3E026803780208531853A8F50
:104F9000298F428453846484758486849784A0888E
:104FA000B18890910C01923088F181E0A901DF0174
:104FB000028D138D248D358D80169106A206B306C1
:104FC00010F44801590156960D911D912D913C9177
:104FD0005997041515052605370510F428013901E0
:104FE00054962D913C915597421753070CF4A90103
:104FF00052962D913C915397221533050CF41901CB
:105000008F5F3C968913D3CF5A8F498FCE01099673
:105010000E94181280915B0681FFEAC069897A8933
:105020008B899C890E948424182FCE0109960E94A6
:10503000C9116B017C01CE0109960E94E40F9923EE
:1050400024F46F5F7F4F8F4F9F4FDC01CB01B595ED
:10505000A79597958795A7019601280F391F4A1F95
:105060005B1F2D833E834F835887C81AD90AEA0AEB
:10507000FB0AC982DA82EB82FC8289859A85AB853C
:10508000BC858C159D05AE05BF0540F182179307C1
:10509000A407B50718F580910A0190910B01892B9F
:1050A00061F010920B0110920A018FEF9FEF909325
:1050B0003501809334010E94C12261EE70E081ECE1
:1050C00090E00E94FB208FE00E94B22289E10E94C2
:1050D000B222CE0105960E94AF2322C080910A0120
:1050E00090910B01019661F08FEF9FEF90930B0170
:1050F00080930A0110923501109234010E94C1225E
:1051000061EE70E081EC90E00E94FB208FE00E9455
:10511000B22288E10E94B222CE0101960E94AF2302
:1051200089E091E00E94FE21612F70E0CB01880FA1
:10513000991F9C8F8B8FBC016E527E4F42E050E0D6
:10514000CE0145960E94EE2FC0903401D0903501DB
:10515000E0900A01F0900B014D895E8900E410E0B7
:1051600020E430E06AE570E080ED90E00E945B2092
:105170006B8D7C8D6C567E4F42E050E0CE014596A3
:105180000E94EE2F6AE970E089EC90E00E94FB201B
:105190008D899E890E94EC218FE391E00E94FE217F
:1051A00068EC70E089EC90E00E94FB20609197032E
:1051B000709198038091990390919A032AE030E0CE
:1051C00040E050E00E94202FDA01C90123E041E0D5
:1051D00061ED73E00E94332381ED93E00E94DD21B5
:1051E00088E691E00E94EC218FE391E00E94FE218D
:1051F00084E196E10E94F51D6091340170913501C2
:1052000080E098EF0E9417218F89988D0AE010E0C6
:10521000B8010E94EA2E9B0144E550E06FE070E087
:1052200089EC90E00E94F323609134017091350184
:105230008FE190E00E9417218D859E85AF85B8890A
:10524000AC01BD01440F551F661F771FDB01CA016A
:10525000880F991FAA1FBB1F880F991FAA1FBB1F6A
:10526000840F951FA61FB71F9C01AD01012E1AE0E8
:1052700056954795379527951A95D1F7102D44E502
:1052800050E068E270E089EC90E00E94F3236091C6
:1052900034017091350180910A0190910B010E94B7
:1052A000172169897A898B899C892AE030E040E05E
:1052B00050E00E94FE2E44E550E061E470E089EC8D
:1052C00090E00E94F32380EF99E10E94F51D6AEAC5
:1052D00070E089EC90E00E94FB2089E10E94B222FC
:1052E000C101B8010E94EA2ECB010E94E82385E6A5
:1052F00091E00E94EC21440C551C661C771CD301E4
:10530000C201880F991FAA1FBB1F880F991FAA1FD0
:10531000BB1F480E591E6A1E7B1ED301C201072EF9
:105320007AE0B695A795979587957A95D1F7702DE0
:105330000E94E82385E20E9420218FE391E00E94F1
:10534000FE216AEB70E089EC90E00E94FB2088E18E
:105350000E94B222898D9A8DB8010E94EA2ECB015B
:105360000E94E82382E691E00E94EC21880C991CBF
:10537000AA1CBB1CD501C401880F991FAA1FBB1F03
:10538000880F991FAA1FBB1F880E991EAA1EBB1E3D
:10539000D501C401072E7AE0B695A7959795879514
:1053A0007A95D1F7702D0E94E82385E20E94202192
:1053B0008FE391E00E94FE2161EE70E081E090E0D9
:1053C0000E94FB2061ED73E0CE0109960E94CF0F91
:1053D00081ED93E00E94DD2180EC90E00E94FE21AF
:1053E0000F2EFBEE2F2EF3E03F2EF02D0F2EF0E3CD
:1053F0004F2EF02D1C8E1B8E0F2EFFE06F2E712C6A
:10540000F02D0F2EF7E25F2EF02D8B8C9C8C3A8EB8
:10541000298EF1018081882309F4FEC180913A012F
:10542000282F30E0418180913A01841718F080E004
:1054300090E002C08CE390E0820F931F841B9109DF
:105440000A9724F022E0E98DFA8D2083E98DFA8D08
:105450004381548120913B01822F90E0589CF001C0
:10546000599CF00D112438E0239FE00DF11D11240B
:10547000E551FC4F218532852417350798F4589C57
:105480009001599C300D1124BC01660F771F660FE7
:10549000771F660F771F260F371FF901E551FC4F65
:1054A00052874187589C9001599C300D1124BC01B2
:1054B000660F771F660F771F660F771F260F371F40
:1054C000F901E551FC4F278130854217530798F4C5
:1054D000589C9001599C300D1124BC01660F771F18
:1054E000660F771F660F771F260F371FF901E551EB
:1054F000FC4F50874783E98DFA8D45815681589C32
:105500009001599C300D1124BC01660F771F660F66
:10551000771F660F771F260F371FF901E551FC4FE4
:1055200025853685241735079CF4589C9001599C95
:10553000300D1124BC01660F771F660F771F660FB1
:10554000771F260F371FF901E551FC4F5687458716
:10555000589C9001599C300D1124BC01660F771F97
:10556000660F771F660F771F260F371FF901E5516A
:10557000FC4F23853485421753076CF4CB01589CAC
:10558000F001599CF00D11248E0F9F1FFC01E55175
:10559000FC4F54874387E98DFA8DA780B084C1847E
:1055A000D284E384F4840585168590910C019230B1
:1055B00028F1F10181E0DF0121893289C216D30689
:1055C00008F469011F962D913C9150972A153B05CF
:1055D00008F4590155962D913C91569702171307DF
:1055E0000CF4890153962D913C9154972E153F054B
:1055F0000CF479018F5F38968913DDCFE98DFA8D30
:105600008081823019F02E8D3F8D02C020E038EF6E
:1056100045E050E0B3016A5E7F4F86E090E00E9473
:10562000801DB30181E090E00E94FB2080EF99E1B2
:105630000E94F51D83E20E942021FB8DFA3018F0B4
:1056400087E0840D01C0842D0E94202180E20E9409
:105650002021589CF001599CF00D1124E351FC4F7E
:10566000808182958F7083708130D9F486E591E0D6
:105670000E94EC218DEB90E00E94FE21009134010C
:1056800010913501B301615F7F4F2EE030E041EBB7
:1056900050E08CE090E00E94881C21E1620E711CB9
:1056A000A9C08230D9F48CE491E00E94EC218DEB0A
:1056B00090E00E94FE210091340110913501B30168
:1056C000615F7F4F2EE030E041EB50E08CE090E0F6
:1056D0000E94881C31E1630E711C8CC08AE898E13D
:1056E0000E94F51DE98DFA8D258136814CE350E04D
:1056F000B30182E190E00E94F32389E00E94B2228C
:1057000083E40E942021B30183E690E00E94FB2005
:1057100089E10E94B222C7010E94E82389E491E056
:105720000E94EC21589CF001599CF00D1124E3518A
:10573000FC4F80818295869586958370813031F407
:10574000C5010E94E82385E20E9420218DEB90E0B4
:105750000E94FE21B301615F7F4F83E690E00E94CB
:10576000FB2088E10E94B222C8010E94E82386E45F
:1057700091E00E94EC21589CF001599CF00D1124FD
:10578000E351FC4F808182958695869583708130A8
:1057900031F4C6010E94E82385E20E9420218DEBAE
:1057A00090E00E94FE21F1E16F0E711C589CF00107
:1057B000599CF00D1124E351FC4F80818295869510
:1057C000869583708130B1F48AE898E10E94F51DD6
:1057D000E98DFA8D238134814CE350E0B30182E1FD
:1057E00090E00E94F32380EF99E10E94F51D85E28D
:1057F0000E942021B3016F5E7F4F20E134E84DEB22
:1058000050E080E090E00E94411CF2E16F0E711CBC
:1058100020EE6216710460F48B8D9C8D01969C8F36
:105820008B8F97E2290E311C4394EFE34E12EDCD9E
:1058300010925B06C0903401D0903501E8A0F9A029
:1058400000E110E024E130E04EED51E062E770E06D
:1058500080E291E00E945B2061EE70E080E191E0E7
:105860000E94FB20809138019091390120E040E0B6
:1058700061ED73E00E94332381ED93E00E94DD210E
:1058800081E991E00E94EC218FE391E00E94FE21EA
:10589000F5E5F8A32DEA29A30E940A2D882381F1BA
:1058A0000E94102D0E94901A882351F18DE793E0F9
:1058B0000E949A100E945B116091770370917803A7
:1058C0008091790390917A0324E630E040E050E043
:1058D0000E94202F69017A01609173037091740313
:1058E000809175039091760324E630E040E050E02B
:1058F0000E94202FCA01B901A70196010E944A11F6
:105900000E94CC2E892B09F433C00E94AC2E3AA100
:10591000353519F4853509F45ECA9D8D973038F513
:105920009530D8F42BA13CA12827922F929592274D
:10593000092E969596959025092E96959025977007
:10594000022E232F969507949795302D292706949C
:105950009795302529273CA32BA32D8DE22FF0E02E
:10596000E057FC4F80838AA32F5F2D8F01C08AA34D
:105970003D8D373009F03FCA809195039091960391
:10598000EBA1FCA1E817F90709F030CAA0E9B3E0E0
:105990008C91E82FEF7027E2E29FF0011124E5518E
:1059A000FC4F91E0908390913A019183828313960A
:1059B0008D919C9114979683858311968D919C91DE
:1059C00012979483838330EE38A387E089A39FEFF7
:1059D0009D8F11CA80E493E09093890080938800A2
:1059E00080EC8093800089E88093810080E8809338
:1059F00082001092C0011092C2011092C301109255
:105A00003E0110923F01219A80E286BB82E28093A0
:105A10006F00089590913E0180913F01892708957C
:105A20000E940A2D8823E1F3E0913E01F0E0E05C62
:105A3000FE4F808190913E019F5F9F7790933E0142
:105A400008951F920F920FB60F9211242F933F9338
:105A50008F939F932091860030918700C901805ACF
:105A6000914012F48F5B9C4F90938B0080938A003F
:105A70008AE080933C0184E086BB189903C086E0ED
:105A800080936F009F918F913F912F910F900FBE48
:105A90000F901F9018951F920F920FB60F9211241E
:105AA0008F939F93EF93FF9380913C01815080935C
:105AB0003C01882369F0893019F418991FC021C06E
:105AC00080913D0186951899806880933D0119C0A9
:105AD000189B12C080913F018F5F8F7790913E019C
