:100000000C9487100C94A4100C94A4100C94A410BD
:100010000C94A4100C94A4100C94A4100C943527E8
:100020000C94A4100C94A4100C9482320C94EC3216
:100030000C94AD320C94A4100C94A4100C94A41045
:100040000C94A4100C94A4100C9431330C946633CB
:100050000C94A4100C94A4100C94A4100C94A41050
:100060000C94A4100C94A410072C7AA5BA6CC5901B
:10007000DA3B9365FC8BBC53F810FD3C5692834DE4
:10008000BD879D3AB63DCBC9BF5BBE73DA0FC93F92
:1000900005A84CCDB2D44EB93836A9020C50B9914E
:1000A0008688083CA6AAAA2ABE000000803F0664F3
:1000B000EC1B3C04BC163E3BE5B93CC93C37C29E38
:1000C0005A3D660498083EEA69AAAA3E00000080EC
:1000D0003F004750524D430047504747410004EF0F
:1000E00003800204CF00C13005ED6403128104E8EF
:1000F00085007806CB392C00340202F72003EA0091
:100100000002C02302C11003C53E2802C786023682
:1001100048023A5503B1001804B608822702F200DB
:1001200002260110E00F312B0C0E084EF13707109C
:10013000030E090010E1000E1403110731C1480835
:100140000F0C31360F0020435243206572726F72DC
:1001500000204E6F20726573706F6E7365002068AB
:1001600050612F687200202248672F687200446F28
:100170006E6500526573657400003A200052656D2B
:100180006F74652073746174696F6E2000466C69CA
:1001900070004175746F00456E61626C6500417559
:1001A000746F00546F75636873637265656E0044A5
:1001B00061726B206D6F6465004261636B6C69678F
:1001C000687420002248670046616872656E686541
:1001D00069740044535400507265737375726500FE
:1001E0004465677265657300474D54200043616E36
:1001F00063656C004F6B0043616C6962726174658A
:10020000004E616D657300446973706C61790053D1
:10021000657474696E6773005573652070656E2030
:10022000746F20746F75636820636F726E6572738C
:10023000206F662073637265656E20746F20636142
:100240006C696272617465006850610022486700E1
:10025000426173652073746174696F6E0052656DDD
:100260006F74652073746174696F6E73006D7300D1
:100270006D7300206661696C000D0A424D4532388D
:100280003000206661696C000D0A494C49393334ED
:100290003100C902C302BC02B302A6029E02756EFF
:1002A0006B6E6F776E007468756E64657273746FD1
:1002B000726D00756E737461626C6500636C6F754E
:1002C00064790073756E6E7900737461626C650099
:1002D000BC0BBC0DBC07BC09BC05BC030060000026
:1002E000E00300E00F00001E00E03CF8E03BFC8370
:1002F00077DE07660E226E0E78EC1FFEEC9F7F0005
:100300003F70003F30017E9003FE1003FE1107FC9A
:100310000307F80F06F83F06F0FF07C0FF0380FF52
:1003200001003C000000C60000EE00007C00003828
:1003300000007CF800EEFC03C6DE07000E22000E73
:1003400078001FFE009F7F003F70003F30017E90CD
:1003500003FE1003FE1107FC0307F80F06F83F0623
:10036000F0FF07C0FF0380FF01003C002140232471
:10037000255E262A282951574552545955494F5030
:100380004153444647484A4B4C1E5A584356424EE6
:100390004D181B00313233343536373839307177E8
:1003A0006572747975696F706173646667686A6B8A
:1003B0006C1E7A786376626E6D191B000000000077
:1003C000000000000000000000000000000000002D
:1003D000000000000000000000000000000000001D
:1003E000000000000000000000000000000000000D
:1003F00000000000000000000000000000000000FD
:1004000000000000000000000000000000000000EC
:1004100000000000000000000000000000000000DC
:1004200000000000000000000000000000000000CC
:100430000000000000000000FE030000000000803B
:10044000FF0F0000000000E0FF3F0000000000F090
:100450009F7F0000000000F801FC00000000F0FD9C
:1004600000F001000000FC3F00E003000000FF3F3F
:1004700000C003000080FF1F00C0070000800F8C39
:100480001F80070000C007C03F80070000C003E0D6
:100490007F00070000E001F0FB000F0000E001F02A
:1004A000F0000F0000E001F0F0000F0000F801F094
:1004B000F000070000FC0160F8803F0000FE010032
:1004C0007C80FF00003F00003E80FF01800F0000A5
:1004D0001E00F003800700000F00E003800700000B
:1004E0000F00C007C00300000F008007C00300001A
:1004F0000F00000FC00300000600000FC003000043
:100500000000000FC00300000F00000FC003000038
:100510000F00000F800700000F008007800F000011
:100520000F00C007001F00000000E003007F000074
:100530000000F80300FEFFFFFFFFFF0100F8FFFFD0
:10054000FFFFFF0000F0FFFFFFFF3F000080FFFF05
:10055000FFFF070000000000000000000000000096
:10056000000000000000000000000000000000008B
:10057000000000000000000000000000000000007B
:10058000000000000000000000000000000000006B
:10059000000000000000000000000000000000005B
:1005A000000000000000000000000000000000004B
:1005B000000000000000000000000000000000003B
:1005C000000000000000000000000000000000002B
:1005D000000000000000000000000000000000001B
:1005E000000000000000000000000000000000000B
:1005F000FC03000000000080FF0F0000000000C0AE
:10060000FF3F0000000000F0FF7F0000000000F846
:1006100003FC00000000F0F900F801000000FC7F7E
:1006200000E001000000FE3F00C003000000FF1FCB
:1006300000C0070000800F0E0080070000C0070800
:100640000080070000C003000000070000E0010078
:1006500000000F0000E0010000000F0000E00100BA
:1006600000000F0000F001000000070000FC010086
:1006700000003F0000FE010000807F00003F0000FE
:100680000080FF01001F00000080F80380070000C9
:100690000000E003800700000000C007C003000066
:1006A00000008007C00300000000000FC00300002E
:1006B0003800000FC00300003C00000FC003000022
:1006C0003C00000FC00300003E00000F8007000048
:1006D0001F008007800F00000F008007001F0080B0
:1006E0000700C003003F00C00700F00300FE7FE0EA
:1006F00003FCFF0100FCFFE001FCFF0000F0FFF045
:1007000001FC3F0000807FF87FF80F00000000F838
:100710007F000000000000FC7F0000000080E1FC82
:100720003F0C070000C0E3001E1E070000C0F300DE
:100730001F9E070000E0F1000F8F070000E07980A6
:1007400007CF030000F0788087C7030000F03CC0AB
:1007500083E7010000783CE0C3E3010000781CE07F
:10076000C1E3000000301CF080E10000000000F058
:100770000000000000000078000000000000007C85
:10078000000000000000003C000000000000001C11
:100790000000000000000018000000000000000041
:1007A0000000000000000000000000000000000049
:1007B0000000000000000000000000000000000039
:1007C0000000000000000000000000000000000029
:1007D0000000000000000000000000000000000019
:1007E0000000000000000000000000000000000009
:1007F000FC01000000000080FF0F0000000000C0AE
:10080000FF3F0000000000E0FF7F0000000000F05C
:1008100003FE00000000E0F900F801000000FC7F8A
:1008200000E001000000FE3F00C003000000FF1FC9
:1008300000C0030000801F1E0080070000C00708E2
:100840000080070000C0030000000F0000E001006E
:1008500000000F0000E0010000000F0000E00100B8
:1008600000000F0000F001000000070000FC030082
:1008700000001F0000FE030000807F0000BF010099
:100880000080FF01001F00000080F901800F0000C0
:100890000000E003800700000000C007C003000064
:1008A00000008007C00300000000800FC0030000AC
:1008B0000000000FC00300000000000FC003000094
:1008C0000000000FC00300000000000F80070010B0
:1008D0000C018007800700389E038007000F003C52
:1008E000DF03C007003F003CCF03F00300FE3F3EA4
:1008F000CFFBFF0100FC7F9EE7FDFF0000F07F9E25
:10090000E7FD7F0000C03FCFF3F80F00000000CFED
:10091000F3000000000080E7FB000000000080E71B
:1009200079000000000080E7790000000000C0F3BB
:100930003C0000000000C0F33C0000000000E07933
:100940003E0000000000E0791E0000000000E07999
:100950001E0000000000F03C0F0000000000F03C12
:100960000F0000000000601E060000000000001ED6
:10097000000000000000001F000000000000000F49
:10098000000000000000000F000000000000000751
:100990000000000000000003000000000000000054
:1009A0000000000000000000000000000000000047
:1009B0000000000000000000000000000000000037
:1009C0000000000000000000000000000000000027
:1009D0000000000000000000000000000000000017
:1009E0000000000000000000000000000000000007
:1009F00000000000000000001C00000000000000DB
:100A00001C000000000000001C00000000000000AE
:100A10001C000000000000001C000000000000009E
:100A20001C000000000000001C000C00000038004A
:100A30001C001E00000078000C001F000000F800E1
:100A400000800F000000F00100C007000000E083FC
:100A5000FFC003000000C0E3FFC30100000080F1FD
:100A6000FF070000000000FCF30F00000000007C06
:100A7000001F00000000003E003E00000000001FBC
:100A8000007C00000000000F0078000000008007DC
:100A9000007800000000800700F0000000E08F07F1
:100AA00000F0F80100F09F0700F0FC0700F09F073E
:100AB00000F0FC0700E09F0700F0FC030000800747
:100AC00000F000000000000300F000000000000043
:100AD0000078000000000006007C00000000C03F1D
:100AE000003C00000000F0FF003F00000000F8FFA5
:100AF000C11F000000C0FFF0E30F000000F07FC046
:100B0000F3C7010000F03F80E7C1030000F81C803C
:100B100007C007000078188007C00F0000380000E9
:100B200007801F00003E00800F001F00003F008074
:100B30003F000E00803F00807F00000080070080A3
:100B40007F000000C0030000F8000000C0030000A8
:100B5000F0000000C0030000F0000000C00300002F
:100B6000F0000000C0070000F0000000800F00004F
:100B7000F800000080FFFFFF7F00000000FFFFFF84
:100B80003F00000000FEFFFF1F00000000F8FFFF15
:100B9000070000000000000000000000000000004E
:100BA0000000000000000000000000000000000045
:100BB0000000000000000000000000000000000035
:100BC0000000000000000000000000000000000025
:100BD0000000000000000000000000000000000015
:100BE0000000000000000000000000000000000005
:100BF00000000000000000000000000000000000F5
:100C000000000000000000000000000000000000E4
:100C100000000000000000000000000000000000D4
:100C200000000000000000000000000000000000C4
:100C30000000000000000000FC0300000000008035
:100C4000FF0F0000000000C0FF3F0000000000F0A8
:100C5000FF7F0000000000F803FC00000000F0F936
:100C600000F001000000FC7F00E003000000FE3FF8
:100C700000C003000080FF1F00C0070000800F1CA1
:100C80000080070000C007080080070000C00300C4
:100C90000000070000E0010000000F0000E001007C
:100CA00000000F0000E0010000000F0000F0010054
:100CB0000000070000FC010000803F0000FE010072
:100CC00000807F00003F00000080FF01000F000057
:100CD0000080F803800700000000E00380070000A8
:100CE0000000C007C003000000008007C003000030
:100CF0000000000FC00300000000000FC003000050
:100D00000000000FC00300000000000FC00300003F
:100D10000000000F8007000000008007800F000027
:100D200000008007001F00000000C003003F00001B
:100D30000000F00300FEFFFFFFFFFF0100FCFFFFCC
:100D4000FFFFFF0000F0FFFFFFFF3F000080FFFFFD
:100D5000FFFF0F0000000000000000000000000086
:100D60000000000000000000000000000000000083
:100D70000000000000000000000000000000000073
:100D80000000000000000000000000000000000063
:100D90000000000000000000000000000000000053
:100DA0000000000000000000000000000000000043
:100DB0000000000000000000000000000000000033
:100DC0000000000000000000000000000000000023
:100DD0000000000000000000000000000000000013
:100DE0000000000000000000000000000000000003
:100DF00000000000000000000000000000000000F3
:100E000000000000000000000000000000000000E2
:100E1000000000000000000003000000000000804F
:100E200007000000000000800700000000000080B4
:100E300007000000000000800700000000000F8095
:100E40000780030000001F8007C0030000003F0070
:100E500003E0030000007E0000F0030000007C00BF
:100E600000F80100000078C00FF80000000070F0EA
:100E70003F780000000000FCFF0000000000007E42
:100E8000F80100000000001FE00300000000800FD8
:100E9000C007000000008007800700000000C003BA
:100EA000000F00000000C001000E00000000C001A3
:100EB000000E000000F0C701008E3F0000F0C701E7
:100EC000008E3F0000F0C701008E3F000000C0010F
:100ED000008E3F000000C001000E00000000C003B3
:100EE000000F000000008007800700000000800F56
:100EF000C00700000000001FE00300000000007EAB
:100F0000F8010000000000FCFF000000000070F08D
:100F10003F380000000078C00F78000000007C001F
:100F200000F8000000007E0000F8010000003F0013
:100F300003F0030000001F8007E0030000000F80A3
:100F400007C00300000000800700000000000080D0
:100F50000700000000000080070000000000008083
:100F60000700000000000000030000000000000077
:100F70000000000000000000000000000000000071
:100F80000000000000000000000000000000000061
:100F90000000000000000000000000000000000051
:100FA0000000000000000000000000000000000041
:100FB0000000000000000000000000000001080820
:100FC00000FF00000000000000007E8195B1B19597
:100FD000817E7EFFEBCFCFEBFF7E0E1F3F7E3F1F5C
:100FE0000E00081C3E7F3E1C080018BAFFFFFFBA27
:100FF000180010B8FCFFFCB810000000183C3C18AA
:101000000000FFFFE7C3C3E7FFFF003C6642426604
:101010003C00FFC399BDBD99C3FF70F88888FD7F70
:10102000070F004E5FF1F15F4E00C0E0FF7F050546
:101030000707C0FF7F0505657F3F995A3CE7E73CFE
:101040005A997F3E3E1C1C08080008081C1C3E3EA6
:101050007F00002466FFFF662400005F5F00005FE2
:101060005F00060F097F7F017F7F40DABFA5FD5932
:10107000030200707070707070008094B6FFFFB64D
:1010800094800004067F7F0604000010307F7F30CC
:1010900010000808082A3E1C0800081C3E2A080800
:1010A00008003C3C202020202000081C3E08083E70
:1010B0001C0830383C3E3E3C3830060E1E3E3E1E7C
:1010C0000E06000000000000000000065F5F060042
:1010D00000000007070007070000147F7F147F7FD0
:1010E0001400242E6B6B3A120000466630180C6612
:1010F0006200307A4F5D377A480004070300000031
:101100000000001C3E63410000000041633E1C00E3
:101110000000082A3E1C1C3E2A0808083E3E08081B
:1011200000000080E06000000000080808080808CF
:10113000000000006060000000006030180C060332
:1011400001003E7F71594D7F3E0040427F7F40400D
:101150000000627359496F660000226349497F3677
:101160000000181C16537F7F5000276745457D39C6
:1011700000003C7E4B4979300000030371790F0772
:101180000000367F49497F360000064F49693F1EFF
:10119000000000006666000000000080E6660000B7
:1011A0000000081C36634100000024242424242469
:1011B0000000004163361C080000020351590F066D
:1011C00000003E7F415D5D1F1E007C7E13137E7C10
:1011D0000000417F7F49497F36001C3E63414163E7
:1011E0002200417F7F41633E1C00417F7F495D417A
:1011F0006300417F7F491D0103001C3E6341517321
:1012000072007F7F08087F7F000000417F7F4100E0
:101210000000307040417F3F0100417F7F081C7714
:101220006300417F7F41406070007F7F0E1C0E7F16
:101230007F007F7F060C187F7F001C3E6341633E6A
:101240001C00417F7F49090F06001E3F21717F5E10
:101250000000417F7F09197F6600266F4D59733268
:10126000000003417F7F410300007F7F40407F7F7C
:1012700000001F3F60603F1F00007F7F3018307FFD
:101280007F0043673C183C674300074F78784F075F
:101290000000476371594D677300007F7F41410033
:1012A00000000103060C183060000041417F7F0000
:1012B0000000080C0603060C0800808080808080F7
:1012C00080800000030704000000207454543C7820
:1012D0004000417F3F4848783000387C44446C28C7
:1012E0000000307848493F7F4000387C54545C18F7
:1012F0000000487E7F490302000098BCA4A4F87C4B
:101300000400417F7F08047C780000447D7D40001C
:10131000000060E08080FD7D0000417F7F10386C20
:10132000440000417F7F400000007C7C18381C7C1A
:1013300078007C7C04047C780000387C44447C3851
:10134000000084FCF8A4243C1800183C24A4F8FCF9
:101350008400447C784C041C1800485C5454742469
:10136000000000043E7F442400003C7C40403C7C64
:1013700040001C3C60603C1C00003C7C7038707C71
:101380003C00446C3810386C44009CBCA0A0FC7C31
:1013900000004C64745C4C64000008083E774141D6
:1013A000000000000077770000004141773E080808
:1013B0000000020301030203010070784C464C78E0
:1013C00070000E9F91B1FB4A00003A7A40407A7A51
:1013D0004000387C54555D19000002237555557D39
:1013E0007B42217554547D794000217555547C7899
:1013F0004000207457577C784000183CA4A4E44077
:101400000000023B7D55555D1B02397D54545D192A
:101410000000397D55545C18000001457C7C410179
:1014200000000203457D7D43020001457D7C4000B4
:101430000000797D1612167D790070782B2B78705C
:101440000000447C7C5555450000207454547C7C3D
:1014500054547C7E0B097F7F4900327B49497B32A3
:101460000000327A48487A320000327A4A487830AE
:1014700000003A7B41417B7A40003A7A42407878DA
:1014800040009ABAA0A0FA7A000001193C66663CB6
:1014900019013D7D40407D3D0000183C24E7E724D4
:1014A0002400687E7F49436620002B2FFCFC2F2BF5
:1014B0000000FFFF09092FF6F8A040C088FE7F0951
:1014C0000302207454557D79400000447D7D410025
:1014D00000003078484A7A320000387840427A7A00
:1014E00040007A7A0A0A7A7000007D7D19317D7D8C
:1014F000000000262F292F2F280000262F292F2615
:10150000000030784D456020000038380808080891
:10151000000008080808383800004F6F3018CCEE7B
:10152000BB914F6F30186C76FBF90000007B7B009D
:101530000000081C3622081C362222361C082236DF
:101540001C08AA005500AA005500AA55AA55AA557C
:10155000AA55DDFFAA77DDAAFF77000000FFFF0094
:101560000000101010FFFF000000141414FFFF0013
:1015700000001010FFFF00FFFF001010F0F010F04F
:10158000F000141414FCFC0000001414F7F700FF22
:10159000FF000000FFFF00FFFF001414F4F404FC40
:1015A000FC0014141717101F1F0010101F1F101F0E
:1015B0001F001414141F1F000000101010F0F00082
:1015C00000000000001F1F1010101010101F1F102F
:1015D0001010101010F0F0101010000000FFFF109D
:1015E00010101010101010101010101010FFFF101D
:1015F0001010000000FFFF1414140000FFFF00FF94
:10160000FF1000001F1F101717140000FCFC04F44B
:10161000F41414141717101717141414F4F404F412
:10162000F4140000FFFF00F7F7141414141414143A
:1016300014141414F7F700F7F714141414171714EC
:10164000141410101F1F101F1F10141414F4F4147E
:1016500014141010F0F010F0F01000001F1F101FF5
:101660001F100000001F1F141414000000FCFC14C5
:1016700014140000F0F010F0F0101010FFFF10FF35
:10168000FF10141414FFFF1414141010101F1F0067
:101690000000000000F0F0101010FFFFFFFFFFFF40
:1016A000FFFFF0F0F0F0F0F0F0F0FFFFFFFF0000C0
:1016B000000000000000FFFFFFFF0F0F0F0F0F0FD4
:1016C0000F0F387C446C386C4400FCFE2A2A3E1410
:1016D00000007E7E020206060000027E7E027E7E02
:1016E000020063775D4963630000387C447C3C04FE
:1016F000040080FE7E20203E1E000406027E7C0642
:10170000020099BDE7E7BD9900001C3E6B496B3EA6
:101710001C004C7E7301737E4C0030784A4F7D393B
:101720000000183C243C3C243C1898FC643C3E27B8
:101730003D181C3E6B49490000007E7F01017F7E01
:1017400000002A2A2A2A2A2A000044445F5F4444CF
:10175000000040515B4E4440000040444E5B51400D
:101760000000000000FEFF01070660E080FF7F0030
:10177000000008086B6B0808000024361236243677
:10178000120000060F090F060000000000181800E4
:1017900000000000001010000000103070C0FFFFBB
:1017A0000101001F1F011F1E000000191D1712005C
:1017B000000000003C3C3C3C000000000000000039
:1017C000000000000D182B100000000000000000B9
:1017D0000000000000000010383838FFFF383838AB
:1017E00010000000000000000303000000000000E3
:1017F00000000000000000000000000000000000E9
:1018000000000000000000000000000000009078D0
:101810003810000000000000000000000000000080
:1018200000000000001038383838383838381000D8
:1018300000000000000000000000000000000000A8
:101840000000000000000000000000000000000098
:1018500000000000000000000000000040E0E04048
:1018600000000000000002060E0E0E0E0E0E060214
:101870000000001038383838383838381000000088
:1018800080C0E0E0E0E0E0E0C0800000FCFAF60E9E
:101890000E0E0E0E0EF6FAFC00EFC78300000000DD
:1018A000000083C7EF007FBFDFE0E0E0E0E0E0DFC3
:1018B000BF7F00000000000000000000F0F8FC0006
:1018C00000000000000000000083C7EF00000000DF
:1018D0000000000000001F3F7F000002060E0E0EF9
:1018E0000E0E0EF6FAFC00E0D0B83838383838382A
:1018F0003B170F007FBFDFE0E0E0E0E0E0C08000EA
:10190000000002060E0E0E0E0E0EF6FAFC0000107F
:1019100038383838383838BBD7EF000080C0E0E0BE
:10192000E0E0E0E0DFBF7F00FCF8F0000000000036
:1019300000F0F8FC000F173B383838383838BBD780
:10194000EF000000000000000000001F3F7F00FCCF
:10195000FAF60E0E0E0E0E0E060200000F173B38A2
:101960003838383838B8D0E0000080C0E0E0E0E037
:10197000E0E0DFBF7F00FCFAF60E0E0E0E0E0E0644
:10198000020000EFD7BB383838383838B8D0E0001C
:101990007FBFDFE0E0E0E0E0E0DFBF7F00000206C5
:1019A0000E0E0E0E0E0EF6FAFC00000000000000F7
:1019B00000000083C7EF00000000000000000000EE
:1019C0001F3F7F00FCFAF60E0E0E0E0E0EF6FAFC0E
:1019D00000EFD7BB383838383838BBD7EF007FBF77
:1019E000DFE0E0E0E0E0E0DFBF7F00FCFAF60E0EB3
:1019F0000E0E0E0EF6FAFC000F173B38383838384A
:101A000038BBD7EF000080C0E0E0E0E0E0E0DFBFFF
:101A10007F000000000080C0C080000000000000C7
:101A200000000000010100000000000000000000B4
:101A3000040E0E040000000000000B102B1000002C
:101A4000008080E0E08080000000000103030F0FB1
:101A5000030301000000000000000000000000007F
:101A600000000080E0600000000000000080808036
:101A700080808000000000010303030303030100D2
:101A80000000000000000000000000000000000056
:101A9000C0C000000000000002868686868686029E
:101AA00000000081C3C3C3C3C3C3810000FC7A0626
:101AB00006060606067AFC007EBCC0C0C0C0C0C0D8
:101AC000BC7E00000000000000000078FC00000068
:101AD0000000000000003C7E0000028686868686AC
:101AE000867AFC007EBDC3C3C3C3C3C381000000AC
:101AF000028686868686867AFC000081C3C3C3C3BD
:101B0000C3C3BD7E00FC7880808080808078FC002C
:101B100000010303030303033D7E00FC7A868686EF
:101B20008686860200000081C3C3C3C3C3C3BD7ED3
:101B300000FC7A8686868686860200007EBDC3C348
:101B4000C3C3C3C3BD7E0000020606060606067AAE
:101B5000FC0000000000000000003C7E00FC7A86D3
:101B600086868686867AFC007EBDC3C3C3C3C3C394
:101B7000BD7E00FC7A8686868686867AFC00008199
:101B8000C3C3C3C3C3C3BD7E000000000018180058
:101B900000000000000000001818000000002208EB
:101BA0000D0E20600402050607080902030305085C
:101BB00002040204070407070707070707070202D2
:101BC000070707080E090808080707090802070899
:101BD000070B0809070909070808090D0708080481
:101BE000040406080307070607070507070203069C
:101BF000020A0707070705060507070B060705057D
:101C0000010507080000000000000000FEFE181893
:101C10001E1E001E1E000000000090F89E90F89E00
:101C20001C00001C0000183C26FF66CC88040C1821
:101C30003C180C041C221CC0308E4080000018048C
:101C4000000C100C80CC7E72F2DE0C80000C1C109C
:101C500010101C0C1C101E1E0000F0FC061C7CC08A
:101C600006FCF0C07C1C14140E14140000000000CC
:101C7000606060FCFC6060600000000C0C00000014
:101C800000005838C0C0C0C0000000000000181894
:101C900000C0380618040000F8FC0E060EFCF8041C
:101CA0000C1C181C0C04180CFEFE00001C1C181C3C
:101CB00086C6663E1C181C1C18181818888C062628
:101CC00026FEDC040C1C18180C04C0E0B88CFEFEC8
:101CD00080040404041C1C04707E3E3636F6C60CD8
:101CE0001C1818180C04F8FC6E6666EECC040C1870
:101CF00018181C0C060606E6761E0600001C1C00C2
:101D000000009CFE666666FE9C0C1C1818181C0CD5
:101D10003C7E666666FCF80C1C18181C0C0418182F
:101D20001818181858386060F0F098980C000000E7
:101D30000004040CD8D8D8D8D8D8D80000000000A7
:101D400000000C9898F0F060600C040400000000A3
:101D5000080C06C6E6763C180000001818000000C3
:101D6000E03008C4F63A1A1AF2FA7E0408F00C3091
:101D7000604C9C98988C9C9C90484C2000C0F8BE6D
:101D800086BEF8C000181C04040404041C18FEFEDF
:101D900066666666FEDC1C1C181818181C0CF8FC1D
:101DA0000E06060E9C08040C1C18181C0C04FEFEE3
:101DB0000606060EFCF81C1C1818181C0C04FEFE67
:101DC00066666666661C1C1818181818FEFE66669D
:101DD0006666061C1C0000000000F8FC0E0606C625
:101DE000CEDCC8040C1C181818180C04FEFE606029
:101DF0006060FEFE1C1C000000001C1CFEFE1C1C83
:101E00008080000000FEFE0C1C1818181C0CFEFE42
:101E1000603078EC86021C1C000000041C18FEFEDA
:101E200000000000001C1C1818181818FEFE0E7C7C
:101E3000E000E07C0EFEFE1C1C00000C1C0C0000F0
:101E40001C1CFEFE1C78E080FEFE1C1C0000040C26
:101E50001C1CF8FC0E0606060EFCF8040C1C1818D8
:101E6000181C0C04FEFE6666667E3C1C1C0000000E
:101E70000000F8FC0E0686060EFCF8040C1C181870
:101E80001C0C1C24FEFE6666E6E6BE1C001C1C0044
:101E900000000C1C18103C7E666666EECC0C1C180C
:101EA00018181C0C060606FEFE0606060000001C9E
:101EB0001C000000FEFE00000000FEFE040C1C18CA
:101EC000181C0C04021EFCE000E0FC1E02000000D6
:101ED0001C1C1C00000006FEF800F0FE0EFEF000C8
:101EE000F8FE0600001C1C1C0000001C1C1C00004E
:101EF000060EF8F0F80E06181C0400041C18060E56
:101F000038F0F0380E060000001C1C000000060629
:101F100086E6761E0E06181C1C1818181818FEFEE9
:101F20000606FCFCC0C00638C00000000418060607
:101F3000FEFEC0C0FCFC20380E0E38200000000061
:101F40000000000000000000000080808080808091
:101F500080800206040000001098D858F8F0000CA9
:101F60001C18180C1C10FEFE301838F0E01C1C0C5D
:101F7000181C0C04E0F018183830040C18181C0C4D
:101F8000E0F0381830FEFE040C1C180C1C1CE0F0AD
:101F9000D8D8D8F0E0040C181818180818FCFE1A45
:101FA0001A001C1C0000E0F0381830F8F864ECDC73
:101FB000D8CCFC7CFEFE301818F8F01C1C00000089
:101FC0001C1CFAFA1C1C00FAFAC0FC7CFEFEE0F0B5
:101FD00098081C1C00041C18FEFE1C1CF8F81018A5
:101FE000F8F01818F8F01C1C00001C1C00001C1C49
:101FF000F8F8301818F8F01C1C0000001C1CE0F069
:10200000381838F0E0040C1C181C0C04F8F83018D0
:1020100038F0E0FCFC0C181C0C04E0F0381830F828
:10202000F8040C1C180CFCFCF8F83018181C1C00E8
:10203000000070F8D8D8D890081818181C0C18FC94
:10204000FE1818000C1C1818F8F8000000F8F80C1E
:102050001C18180C1C1C38F8C000C0F83800001CF4
:102060001C1C000018F8E000F038F000E0F8180040
:10207000001C1C0C000C1C1C00001838E0E0381878
:10208000181C04041C1818F8E000E0F8180084FC80
:10209000F83C04001898D878381C1C18181880FCD4
:1020A0007E0606007CFCC0C0FEFC06067EFC80C0EE
:1020B000C0FC7C00603030706060300000000000C8
:1020C0000000FE020202020202FE1C10101010109C
:1020D000101C53756E4D6F6E54756557656454686A
:1020E00075467269536174004A616E4665624D615E
:1020F000724170724D61794A756E4A756C417567AF
:102100005365704F63744E6F76446563000011240D
:102110001FBECFEFD8E0DEBFCDBF11E0A0E0B1E041
:10212000EAEEF4E702C005900D92AE31B107D9F79F
:1021300027E0AEE1B1E001C01D92AC34B207E1F797
:102140000E949A270C94733A0C940000ACE0B0E023
:10215000ECEAF0E10C944A3A8B01BE016F5F7F4FCD
:102160000E942F11B801CE0101960E941E132C96D9
:10217000E4E00C94663A8F929F92AF92BF92CF9216
:10218000DF92EF92FF927C0160912E0770912F07F2
:1021900080913007909131070E941E3624E33EE67D
:1021A00049E458E40E9474354B015C01C7010E9468
:1021B00047126B017C01C501B4010E94A8394B0193
:1021C0005C01C701B60190580E94A8399B01AC017F
:1021D000C501B4010E94ED386B017C0120E030E0C4
:1021E00040E85FE30E94E83818168CF020E030E009
:1021F00040E85FEBC701B6010E94343887FF0DC08D
:10220000C12CD12C90E8E92E9FEBF92E06C0C12CF1
:10221000D12C80E8E82E8FE3F82EC701B6010E948A
:10222000B63728E433E347E450E40E94743520E0F5
:1022300030EC48EA57E40E94ED380E94E635FF9002
:10224000EF90DF90CF90BF90AF909F908F900895C8
:102250006AE377E00E942F118AE397E00895A4E0F3
:10226000B0E0E5E3F1E10C94463A6C017B01E091CA
:102270004A07F0914B07309729F066E477E009951B
:102280008C0102C00FEF1FEFF60140815181628186
:1022900073818091460790914707A0914807B091BC
:1022A0004907840F951FA61FB71F101611064CF47F
:1022B000A801012E000C660B770B840F951FA61F3B
:1022C000B71F89839A83AB83BC83B701CE01019684
:1022D0000E941214F701138702872496E8E00C94F9
:1022E000623AA0E0B0E0E7E7F1E10C94423AEC0199
:1022F000EE81FF818F0104561109B9F0CF01855697
:1023000091096C0197FF03C023E0C20ED11CD59444
:10231000C794D594C7946CE97FEF0E94DA36C60E55
:10232000D71E8FEFC81AD80A02C0C12CD12C2DE6B7
:1023300031E0D8010E943E370D2C000CEE08FF085A
:10234000C60ED71EE81EF91E8B81082E000C990BB5
:102350008C01015011092D8122302CF4222379F1B6
:10236000015E1F4F2CC0CF018459984F0E94D91491
:10237000282F30E0255C3F4F200F311F8D81082E24
:10238000000C990B02978530910514F027563F4FAA
:1023900065E070E00E94DA36AC0197FF02C04F5F43
:1023A0005F4F559547959DE3949F8001959F100D34
:1023B0001124020F131F80FF02C0015E1F4FC801CE
:1023C000110FAA0BBB0B9C01AD012C0D3D1D4E1D29
:1023D0005F1D60E871E581E090E00E94AA364B0144
:1023E0005C01AA810A2E000CBB0B20E13EE00E949A
:1023F0003E376B017C01A9810A2E000CBB0B2CE33C
:1024000030E00E943E37C60ED71EE81EF91E6881D6
:10241000862F660F990BAA0BBB0B8C0D9D1DAE1D55
:10242000BF1DBC01CD01680D791D8A1D9B1DCDB757
:10243000DEB7ECE00C945E3A90934B0780934A072A
:10244000089560932E0770932F0780933007909321
:10245000310720933207309333074093340750936A
:10246000350708950FB6F8946093360770933707D1
:1024700080933807909339070FBE089560934607FD
:1024800070934707809348079093490708958F9268
:102490009F92AF92BF92CF92DF92EF92FF92FC0198
:1024A00080809180A280B380C501B40121E23BE825
:1024B00041EE51E00E94EE366055764282429E4FD8
:1024C0000E941C3621EB37E449E95AE40E94743536
:1024D0000E945A396B017C01C501B4012DE335E836
:1024E00041EE51E00E94EE366854774A824F9F4F8A
:1024F0000E941C3621ED35E449E95AE40E94743506
:102500004B015C012FED33EE48E05DE3C701B601FE
:102510000E94ED38A50194010E94C8370E94393805
:102520002CE336E741ED5EE30E94ED389058FF90D2
:10253000EF90DF90CF90BF90AF909F908F900895D5
:102540008F929F92AF92BF92CF92DF92EF92FF92C3
:10255000CF93DF93FC0180809180A280B3800E94A2
:102560009C13EC016091320770913307809134071E
:10257000909135072FE030E040E050E00E941037A6
:1025800075016401C21AD30AE40AF50AF0ECCF0E11
:10259000F8EADF1EE11CF11CC501B40120E831E5B9
:1025A00041E050E00E94EE36A7019601261B370B52
:1025B000480B590B6E01DD0FEE08FF08CA01B90187
:1025C0006C197D098E099F09DF91CF91FF90EF90E3
:1025D000DF90CF90BF90AF909F908F900895FC01B7
:1025E0000FB6F894609136077091370780913807DD
:1025F000909139070FBE309721F0608371838283F9
:10260000938308958F938FB78F93F89480913607B3
:102610008F5F80933607809137078F4F80933707FE
:10262000809138078F4F80933807809139078F4FFB
:10263000809339078F918FBF8F910895A0E0B0E00C
:10264000E4E2F3E10C94463A8C01EB01FC01848155
:10265000682F660F680F8581582F550F580F9E0100
:1026600040E0862F840F90E0A0E08E529F4DAF4F48
:10267000FC018491A7FD8081F90181939F01852F41
:10268000840F90E0A0E088519F4DAF4FFC018491F2
:10269000A7FD8081F90183834F5F433011F780E20A
:1026A0008F838B83BE01685F7F4FF801838140E297
:1026B000082E000C990B0E94ED14BE01655F7F4F40
:1026C000F80182814AE3082E000C990B0E94ED1458
:1026D000BE01625F7F4FF80181814AE3082E000C42
:1026E000990B0E94ED14BE016F5E7F4FF80180814F
:1026F00040E2082E000C990B0E94ED14F80186812F
:10270000978164E670E08459984F0E94DA366B0135
:102710007C01BE016C5E7F4F40E2C6010E94ED1459
:10272000BE016A5E7F4F40E0C7010E94ED14CDB745
:10273000DEB7E8E00C94623A8F929F92AF92BF921C
:10274000CF92DF92EF92FF92FC0180809180A28075
:10275000B380C501B40121E23BE841EE51E00E94A3
:10276000EE366055764282429E4F0E941E3621EB25
:1027700037E449E95AE40E9474350E945A396B01E2
:102780007C01C501B4012DE335E841EE51E00E9422
:10279000EE36DC01CB01805C9D43A34FBF4FBC01F3
:1027A000CD01660F771F881F991F0E941E3621EDED
:1027B00035E449E95AE40E9474354B015C012FED80
:1027C00033EE48E05DE3C701B6010E94ED38A50194
:1027D00094010E94C8370E945A392DEC3CE044E134
:1027E00054E40E94ED384B015C012DEC3CEC45EECD
:1027F00053E4C701B6010E94ED389B01AC01C5014D
:10280000B4010E94C8370E94E63588279927861BA5
:10281000970BFF90EF90DF90CF90BF90AF909F907D
:102820008F900895A8E0B0E0E8E1F4E10C94463A16
:102830008B01FC01608171818281938120E831E507
:1028400041E050E00E94EE3669017A012CE330E06D
:1028500040E050E00E94103729833A834B835C8329
:1028600089819A81AB81BC81F80160836CE370E05F
:102870000E94DA36DC01CB01F801A1838283C60114
:10288000069667E070E00E94C63684832DEA3EE833
:1028900040E050E0C701B6010E94103729833A8317
:1028A0006D837E838F83988789819A8124E6289F10
:1028B0006001299FD00C11246D817E818F819885C4
:1028C00025EB35E040E050E00E94103729833A8341
:1028D0006D837E83E980FA80EE0CFF1CEE0CFF1CFA
:1028E000EC0CFD1C8D819E81F5E6EF16F10410F0D5
:1028F000019604C024E6E216F10419F021E030E06C
:1029000002C020E030E0A90144595E4F4817590742
:1029100068F46DE671E0821B930B0E94DA36DC01ED
:10292000CB01E80EF91ECD0120E030E044E6E40ED4
:10293000F11CF801F782E68291878087255C3F4F82
:102940008217930748F46FE170E00E94DA36DC01E9
:10295000CB01F801858322C069E970E0821B930BEB
:102960000E94DA36DC01CB01F82EFF0CFF0CF80ECA
:102970006DE370E0CD010E94DA36DC01CB01E82E78
:10298000EE0C6FE170E0CD010E94DA36DC01CB0184
:1029900022E0280FF20EFE0CF801F582A383F80165
:1029A0001386128683818F5F83832896E8E00C94D8
:1029B000623A9C0123703327232B59F464E670E0BC
:1029C0000E94DA36892B39F46370772781E0672B10
:1029D00019F080E0089581E008951F93CF93DF936D
:1029E000EB01142F6AE070E00E94DA36605D6883C4
:1029F000805D89831A83DF91CF911F9108952A9872
:102A00008F778EBD0DB407FEFDCF8EB56EBD0DB4B4
:102A100007FEFDCF8EB52A9A08952A9880688EBD4C
:102A20000DB407FEFDCF8EB51EBC0DB407FEFDCF65
:102A30008EB52A9A08952A9880688EBD0DB407FE37
:102A4000FDCF8EB5FB01415038F01EBC0DB407FE22
:102A5000FDCF8EB58193F7CF2A9A0895CF93229A0E
:102A60002A9A84B1886284B980E58CBD8DB5816075
:102A70008DBD80ED0E940D15803631F566EB80EE40
:102A80000E94FF1483EF0E940D15C82FC17080FDB6
:102A9000F9CF48E166EB73E088E80E941B1541E03E
:102AA0006EEC73E081EA0E941B1547E06FEC73E067
:102AB00081EE0E941B1561E082EF0E94FF1464E228
:102AC00084EF0E94FF1401C0C1E08C2FCF910895C4
:102AD0002F923F924F925F926F927F928F929F922E
:102AE000AF92BF92CF92DF92EF92FF920F931F931C
:102AF000CF93DF93CDB7DEB728970FB6F894DEBF3C
:102B00000FBECDBF7C011B018A0165E284EF0E94EC
:102B1000FF1483EF0E940D1583FDFBCF48E0BE013B
:102B20006F5F7F4F87EF0E941B15E091B603F09116
:102B3000B7034F01A12CB12C2C81822F90E0A0E093
:102B4000B0E0AC01BD01ACE0440F551F661F771F1C
:102B5000AA95D1F78E8182958F70482B8D8120E1C7
:102B6000829FC0011124A0E0B0E0842B952BA62BFE
:102B7000B72BAC01BD01B3E07595679557954795A7
:102B8000BA95D1F7D501C401880F991FAA1FBB1FA1
:102B90009A01AB01281B390B4A0B5B0BA091B803C0
:102BA000B091B9030E9450372B013C01BF0134E0C2
:102BB000769567953A95E1F7CB01A0E0B0E0BC01CE
:102BC000CD01681979098A099B099B01AC010E9412
:102BD000AA369B01AC016CE0559547953795279532
:102BE0006A95D1F7A091BA03B091BB030E94503708
:102BF000EBE07594679457944794EA95D1F7DC011C
:102C0000CB01FEE0B595A79597958795FA95D1F7F5
:102C1000480E591E6A1E7B1E4092D6035092D7035F
:102C20006092D8037092D903A5E0B0E0A3019201AD
:102C30000E944537DC01CB0180589F4FAF4FBF4FFB
:102C4000892F9A2FAB2FBB27A7FDBA95F701918348
:102C50008083759467945794479473016201FAEFE7
:102C6000DF1AE108F108C701B60142E095958795A2
:102C7000779567954A95D1F79B01AC010E94AA36DA
:102C80002B013C01A091C003B091C1039B01AC0199
:102C90006DE055954795379527956A95D1F70E9430
:102CA00050374B015C0173E0B594A79497948794D7
:102CB0007A95D1F7A091BE03B091BF03A701960109
:102CC0000E945037DC01CB01B595A7959795879564
:102CD000880D991DAA1DBB1DF2E1B595A795979585
:102CE0008795FA95D1F79C01AD0130584F4F5F4F52
:102CF000A091BC03B091BD030E9445374B015C011C
:102D0000AFE0B594A79497948794AA95D1F78114CE
:102D10009104A104B10409F4DAC0A30192016BE0AB
:102D200055954795379527956A95D1F7A091C60394
:102D3000B091C7030E9450372B013C01A091C403FE
:102D4000B091C503A70196010E945037DC01CB0169
:102D5000880F991FAA1FBB1F840D951DA61DB71DA7
:102D60006C017D01E2E0F594E794D794C794EA956D
:102D7000D1F7498150E060E070E0FCE0440F551F5E
:102D8000661F771FFA95D1F78B8182958F70482B3C
:102D90008A8120E1829FC0011124A0E0B0E0482B8D
:102DA000592B6A2B7B2B8091C2039091C303092E70
:102DB000000CAA0BBB0BDC01992788278C0D9D1DED
:102DC000AE1DBF1D3CE0B595A795979587953A95A3
:102DD000D1F79A01AB01280F391F4A1F5B1FABECDB
:102DE000B3EF0E945337805B9C4397FD0BC0660F87
:102DF000771F881F991FA50194010E94EE36690173
:102E00007A010AC0A50194010E94EE3669017A0197
:102E1000CC0CDD1CEE1CFF1CC701B60133E09695FF
:102E20008795779567953A95D1F79B01AC010E94FC
:102E3000AA369B01AC016DE05695479537952795CD
:102E40006A95D1F7A091CC03B091CD030E94503781
:102E50002B013C017CE075946794579447947A95D4
:102E6000D1F7A7019601E2E056954795379527954A
:102E7000EA95D1F7A091CA03B091CB030E945037D5
:102E8000DC01CB01FDE0B595A79597958795FA955F
:102E9000D1F7B301A201480F591F6A1F7B1F809110
:102EA000C8039091C903092E000CAA0BBB0B840F19
:102EB000951FA61FB71F24E0B595A79597958795F1
:102EC0002A95D1F7C80ED91EEA1EFB1E03C0C12CDD
:102ED000D12C7601F101C082D182E282F38280910D
:102EE000D2033091D3032091D4038090D6039090E5
:102EF000D703A090D803B090D903FCE29F1AF1E069
:102F0000AF0AB108CF80D884DC24CD24DC24E12CA6
:102F1000F12C4EE0CC0CDD1CEE1CFF1C4A95D1F7C9
:102F200040E18402C0011124432F4F70842B092EED
:102F3000000CAA0BBB0B54E1880F991FAA1FBB1FE3
:102F40005A95D1F7C81AD90AEA0AFB0A50E12502B4
:102F5000D001112432953F70A32BA50194010E944A
:102F60005037C61AD70AE80AF90A80E4D80EE11CDD
:102F7000F11C6FE0F594E794D794C7946A95D1F764
:102F8000A091D103B0E00E9445372B013C017BE0CA
:102F900075946794579447947A95D1F790E8590EB1
:102FA000611C711CA091D5030A2E000CBB0B0E9462
:102FB0005037EAE09595879577956795EA95D1F72B
:102FC000A30192010E94AA36DC01CB01FAE0B5957B
:102FD000A79597958795FA95D1F79C01AD01405E2D
:102FE0005F4FA091CF03B091D0030E945037DC0116
:102FF000CB01905EAF4FBF4F9C01AD01AEE0559548
:10300000479537952795AA95D1F7C701B6010E9434
:10301000AA366B017C01BFE09595879577956795FA
:10302000BA95D1F79B01AC010E94AA369B01AC0175
:1030300087E055954795379527958A95D1F7A091C3
:10304000CE03B0E00E944537DC01CB0124E0B5950A
:10305000A795979587952A95D1F7A7019601281BE3
:10306000390B4A0B5B0BDA01C90157FF03C080E043
:1030700090E0DC0181309105A10539E1B30724F02E
:1030800080E090E0A0E0B9E12CE0B595A795979598
:1030900087952A95D1F7F80180839183A283B38322
:1030A00028960FB6F894DEBF0FBECDBFDF91CF914B
:1030B0001F910F91FF90EF90DF90CF90BF90AF9056
:1030C0009F908F907F906F905F904F903F902F9048
:1030D0000895FC019081990F9056292F220F220FFD
:1030E000920F218180ED820F890F08958F929F9218
:1030F000AF92BF92CF92DF92EF92FF920F931F9306
:10310000CF93DF9380E494E00E9458374B015C0139
:10311000A0E4B4E0FD012D91822F90E0C0970A97C2
:10312000C8F32E3219F58D01359688EE93E0C0E094
:10313000D0E02AE0E22EF12CD8012D918D0130E073
:10314000205331092A30310598F4EA17FB0781F042
:10315000289FA001299F500D389F500D1124C40FA6
:10316000D51FB7010E94C636CB01E6CFC0E0D0E044
:10317000C501B40124E630E040E050E00E94103781
:103180006B017C0160E47EE785E090E00E94AA3656
:103190004B015C01A0E7B7E1A70196010E9445370A
:1031A00095018401060F171F281F391F46E04C9F09
:1031B000C0014D9F900D11246AE070E00E94C63658
:1031C00068017901C60ED71EE11CF11CC701B601CA
:1031D000DF91CF911F910F91FF90EF90DF90CF90F3
:1031E000BF90AF909F908F900895CF92DF92EF9213
:1031F000FF920F931F9380E494E00E9458379B0145
:10320000AC01A4E6B0E00E9445378B019C0197FF1A
:1032100003C0E1E4F4E002C0E0E4F4E0DF01419146
:10322000842F90E0C0970A97C8F34E3271F411963C
:103230009C91892F90E0C0978A30910530F4880FD7
:10324000982F990F990F980F01C090E0492F50E0E7
:1032500060E070E037FF09C068017901C41AD50A3F
:10326000E60AF70AC701B60106C0CB01BA01600F32
:10327000711F821F931F1F910F91FF90EF90DF909E
:10328000CF900895CF93DF938432A9F0E0911E018F
:10329000853230F48A30E1F08D3009F07FC118C0FA
:1032A0008A32B1F08C3209F079C1909120019827CF
:1032B000909320010DC010921E0110921F011092D8
:1032C000220110922101109220011092F5037CC17D
:1032D000C82FF0E0E05CFB4F1082D0911F01D111AC
:1032E0001CC068ED70E080E494E00E948837892B70
:1032F00031F480E091E0909322018093210162ED0E
:1033000070E080E494E00E948837892B31F480E0FB
:1033100092E090932201809321012091210130912C
:1033200022012F3F310509F096C080914004806250
:10333000813610F0875501C0805340E1849FC00161
:103340001124409141044062413610F0475501C0BC
:103350004053840F911D4091200150E08417950740
:1033600011F01092F5038091F503811106C12D0F24
:10337000311D293081E0380709F4F8C048F52430C0
:1033800081E0380709F4B6C060F4223081E03807E4
:1033900009F488C008F091C02130314009F460C0C0
:1033A000EEC0263041E0340709F473C008F4ADC024
:1033B000273041E0340709F4CBC02830314009F010
:1033C000DEC00E94F5187093F7036093F603D7C030
:1033D000253042E0340709F48DC0A0F4223042E0E9
:1033E000340709F450C020F421303240C9F1C7C07D
:1033F000233082E0380709F455C02430324009F404
:103400005CC0BDC0273082E0380709F49AC008F4D8
:103410007CC0283082E0380709F4A1C0293032404E
:1034200009F0ADC080E494E00E9469188093EC0339
:1034300082E494E00E94691881508093EE0384E452
:1034400094E00E94691890E08C599F4F9093F0038C
:103450008093EF0394C02115310509F088CF8FC008
:1034600080E494E00E9469188093EB0382E494E086
:103470000E9469188093EA0384E494E00E9469182A
:103480008093E9037CC081E090914004913431F451
:1034900006C081E090914004913308F480E080936D
:1034A000F5036DC00E9476186093DF037093E0030C
:1034B0008093E1039093E20362C0809140048335DE
:1034C00009F05DC08091DF039091E003A091E103DA
:1034D000B091E203B095A095909581959F4FAF4F25
:1034E000BF4F8093DF039093E003A093E103B09379
:1034F000E20345C00E9476186093E3037093E403EF
:103500008093E5039093E6033AC0809140048735A9
:10351000B1F58091E3039091E403A091E503B091AC
:10352000E603B095A095909581959F4FAF4FBF4F03
:103530008093E3039093E403A093E503B093E60341
:103540001EC00E94F5187093DE036093DD0317C060
:1035500080E494E00E9458376093DC0310C00E941E
:10356000F5187093E8036093E70309C00E94F5180B
:103570007093DB036093DA0302C081E001C080E056
:10358000CA3231F42FEF30E0309322012093210131
:1035900010921E01DF5FD0931F0117C0EE3040F480
:1035A00091E09E0F90931E01F0E0E05CFB4F808362
:1035B00020912101309122012F3F310529F0909176
:1035C000200189278093200180E0DF91CF91089529
:1035D0005E985F988EBD00C000C000C000C000C0F3
:1035E00000C000C000C000005E9A5F9A08955E9817
:1035F0005F988EBD00C000C000C000C000C000C009
:1036000000C000C000005E9A08955F988EBD00C0A3
:1036100000C000C000C000C000C000C000C000006A
:103620005F9A08951EBC00C000C000C000C000C06A
:1036300000C000C000C000000DB407FEFDCF8EB575
:103640000895EF92FF920F931F93CF93DF935C9AAD
:103650008AB1806D8AB984B1886284B980E58CBDF5
:103660008DB581608DBD5F9A5C988FE097E2019780
:10367000F1F700C000005C9A9FEFEDEEF2E0915090
:10368000E040F040E1F700C0000081E00E94E81A4D
:103690008FE097E20197F1F700C00000EEEDF0E057
:1036A000CF01019624910FEF020F2223B9F0EF0111
:1036B0002296FC0184910E94E81A102F7E011123AA
:1036C00049F0F70184910E94051B1150C701019632
:1036D0007C01F5CFFE01E00FF11DE2CF81E10E94F8
:1036E000E81AEFE0F7E23197F1F700C0000089E255
:1036F000DF91CF911F910F91FF90EF900C94E81AFA
:103700000E94F71A0E94121B5F9A0895CF92DF92CF
:10371000EF92FF920F931F93CF93DF93D82EC92E72
:10372000162F072FF42EE52EE9018AE20E94F71AE0
:10373000CEBC00C000C000C000C000C000C000C0BF
:1037400000C00000DEBC00C000C000C000C000C05F
:1037500000C000C000C00000EEBC00C000C000C03F
:1037600000C000C000C000C000C00000FEBC00C01F
:1037700000C000C000C000C000C000C000C0000009
:103780008BE20E94F71A0EBD00C000C000C000C04E
:1037900000C000C000C000C000001EBD00C000C0CE
:1037A00000C000C000C000C000C000C00000DEBDFE
:1037B00000C000C000C000C000C000C000C000C009
:1037C0000000CEBD00C000C000C000C000C000C0EE
:1037D00000C000C000008CE20E94F71A5F9ADF91DF
:1037E000CF911F910F91FF90EF90DF90CF900895B0
:1037F0000F931F93CF93DF93EA01122F032F209192
:103800000201309103018217930708F031C0209123
:103810000001309101016217730708F029C0AB0164
:103820004C0F5D1F2417350718F4E901C61BD70B91
:103830009B01215031092C0F3D1FAC010E94861BBA
:103840005F982097A1F00EBD00C000C000C000C06E
:1038500000C000C000C000C000001EBD00C000C00D
:1038600000C000C000C000C00000219761F75F9A4F
:10387000DF91CF911F910F9108950F931F93CF93D5
:10388000DF93EA01122F032F2091020130910301EF
:103890008217930708F031C0409100015091010157
:1038A0006417750708F029C0AC014C0F5D1F241781
:1038B000350718F4E901C81BD90BAC014150510977
:1038C0004C0F5D1F9B010E94861B5F982097A1F003
:1038D0000EBD00C000C000C000C000C000C000C0DD
:1038E00000C000001EBD00C000C000C000C000C07D
:1038F00000C00000219761F75F9ADF91CF911F917F
:103900000F910895EF92FF920F931F93CF93DF9340
:103910007A01E90140910201509103018417950752
:1039200008F042C020910001309101016217730735
:1039300008F03AC0FC01EE0DFF1D4E175F0718F4AA
:103940007A01E81AF90AAB014C0F5D1F24173507FD
:1039500018F4E901C61BD70B9B01215031092C0F2C
:103960003D1FAC01415051094E0D5F1D0E94861B49
:103970005F982197C0F0C7010097A1F01EBD00C05D
:1039800000C000C000C000C000C000C000C00000F7
:103990000EBD00C000C000C000C000C000C00000DC
:1039A000019761F7E6CF5F9ADF91CF911F910F9159
:1039B000FF90EF9008950F931F9320910001309195
:1039C000010140910201509103018C0160E070E01F
:1039D00080E090E00E94821C1F910F910895CF9388
:1039E000C82F86E30E94E81AC13039F020F0C230B7
:1039F00089F488E804C088E402C088E20CC00E9410
:103A0000051B80EF90E0909303018093020180E416
:103A100091E00BC088EE0E94051B80E491E090933A
:103A200003018093020180EF90E090930101809365
:103A30000001CF910895AF92BF92CF92DF92EF92A3
:103A4000FF920F931F93CF93DF937C016B01EA01E9
:103A5000590198010E943D1CB501615071096C0D1E
:103A60007D1D9801AE01C7010E943D1C9801A50172
:103A7000B601C7010E94F81BCE0101979801A5016C
:103A8000B6018E0D9F1DDF91CF911F910F91FF9079
:103A9000EF90DF90CF90BF90AF900C94F81B4F92B7
:103AA0005F926F927F928F929F92AF92BF92CF92CE
:103AB000DF92EF92FF920F931F93CF93DF933C011E
:103AC0002B01490100271127041B150BE801CC0F1E
:103AD000DD1F2296C12CD12C7601EE0CFF1C940127
:103AE000A7015201AC18BD08B501C301801B910BA1
:103AF0000E94F81B9401A701B501C801860D971D0E
:103B00000E94F81BCC16DD06ACF08FEFC81AD80A5D
:103B100083E0E80EF11CEC0EFD1E88279927801B20
:103B2000910BC816D90639F40C171D073CF0C0E0FC
:103B3000D0E001C07E010C171D074CF40F5F1F4F32
:103B4000E801CC0FDD1F2196CE0DDF1D01C0E7017E
:103B5000101611060CF6DF91CF911F910F91FF9077
:103B6000EF90DF90CF90BF90AF909F908F907F901D
:103B70006F905F904F9008952F923F924F925F9277
:103B80006F927F928F929F92AF92BF92CF92DF926D
:103B9000EF92FF920F931F93CF93DF93CDB7DEB7D2
:103BA00060970FB6F894DEBF0FBECDBF988B8F879E
:103BB0004B015A01390126012617370744F4E6164E
:103BC000F7068CF46B014901588B4F8706C0E2164B
:103BD000F3060CF008C16301C501E814F90484F090
:103BE0003701580113C06701C801322F272D3B014F
:103BF000832E922E2B2DAF84B8884F87288B06C03A
:103C00003401AF84B88847010F87188B8C149D044A
:103C100009F03FC02F853889A216B3066CF03F85A6
:103C200028894F8558894A155B0514F43A2D2B2DA8
:103C3000AF84B8883F87288B8A159B0544F02F8571
:103C400038892817390714F4988B8F87C5014F8559
:103C50005889481B590B4F5F5F4F9201B401609622
:103C60000FB6F894DEBF0FBECDBFDF91CF911F918D
:103C70000F91FF90EF90DF90CF90BF90AF909F900B
:103C80008F907F906F905F904F903F902F900C940B
:103C90003D1CA5012F853889421B530B5A87498744
:103CA000A301481959095C874B877C01E21AF30A82
:103CB0009601281939093E832D83AC014A195B0905
:103CC00058874F83C601861997099E878D876C1484
:103CD0007D0431F09301215031093C832B8302C0D4
:103CE0007C826B828401212C312C1A8219824B81B7
:103CF0005C814017510794F189819A816B857C859D
:103D00000E94DA36EF85F889E60FF71FC1016D8151
:103D10007E810E94DA364F855889640F751F89812C
:103D20009A8129853A85820F931F9A8389832E0C65
:103D30003F1C6E177F072CF49E2F8F2FFB01692FDE
:103D4000782F6E1B7F0BAB014F5F5F4F9201B80165
:103D5000CF010E943D1C0F5F1F4FC9CFC8018619BC
:103D600097092F813885829F3001839F700C929F25
:103D7000700C1124C801881999098E9D40018F9DEE
:103D8000900C9E9D900C1124C016D1067CF1C301AD
:103D90006D857E850E94DA36FB01EA0DFB1DC401AC
:103DA0006D817E810E94DA364F855889640F751FB8
:103DB0008F819885680E791E8E0C9F1C6E177F0769
:103DC0002CF49E2F8F2FFB01692F782F6E1B7F0BFA
:103DD000AB014F5F5F4F9201B801CF010E943D1CC4
:103DE0000F5F1F4FD1CF6701C80110CF60960FB68C
:103DF000F894DEBF0FBECDBFDF91CF911F910F9121
:103E0000FF90EF90DF90CF90BF90AF909F908F90FA
:103E10007F906F905F904F903F902F900895909378
:103E2000F9038093F803FC0124913196849190E08A
:103E3000922B9093FB038093FA0308952F923F9265
:103E40004F925F926F927F928F929F92AF92BF92AA
:103E5000CF92DF92EF92FF920F931F93CF93DF9356
:103E6000CDB7DEB72E970FB6F894DEBF0FBECDBF2D
:103E70003C015B0138872F8318018091F8039091F2
:103E8000F903FC013296149119833196F49031961E
:103E9000A4913196549106964090FA035090FB03FA
:103EA0006F2D70E09B01295F3F4FE3E0359527952B
:103EB000EA95E1F74A1BE42FF0E0A2E04A1651042C
:103EC00088F4E29FA001E39F500DF29F500D112452
:103ED000149FF001159FF00D11244C018E0E9F1EB2
:103EE0001E8627C0E80FF91F14911983EF2DE77084
:103EF00021F0A8E0AE1BAE8701C01E86FC011B822C
:103F0000A0E0B0E01B81141741F01491A10FB11D86
:103F10001B811F5F1B833196F5CF2A9FF0012B9FDA
:103F2000F00D3A9FF00D1124E50FF11D4C018E0E9E
:103F30009F1E5981452F50E05E834D83CE2CD12C9E
:103F40004091020150910301C30119811E9D800D12
:103F5000911D11244817590708F46FC140910001C1
:103F600050910101C501FE9C800D911D112448173F
:103F7000590708F462C12D872F8138852215330532
:103F800009F09BC081E00E8401C0880F0A94EAF713
:103F90008B83A60183E0440F551F8A95E1F75A876A
:103FA0004987DA82C9824D805E80AD85AA2309F4F3
:103FB00044C15E85552319F06D85613019F0FF24E9
:103FC000F39401C0FB80BE82AD82212C312CC12C28
:103FD000D12CB501620D731D7C876B87C414D50489
:103FE00008F050C0C601F401E80FF91FE491EF2179
:103FF00041F4019684159505B0F3A0E0B0E06C01A2
:1040000007C06C01D601A81BB90BC414D50418F065
:10401000109759F4E3CFF401EC0DFD1DE491EF216D
:10402000B9F37FEFC71AD70AEDCF81E0E8120DC0D0
:104030002F813885AD016B857C85C3018C0D9D1D5D
:104040008A1B9B0B0E943D1CC9CFE981FA81EA9F24
:10405000A001EB9F500DFA9F500D112496012A1BD1
:104060003B0B2E9FC0012F9F900D3E9F900D112462
:104070000F8118859F016D817E81860D971D0E949D
:10408000821CACCFFF0CFFEF2F1A3F0A2D813E811F
:1040900049815A81240F351F3E832D8358E0251610
:1040A000310409F094CF89859A85A80EB91E9D85A3
:1040B00091509D87840C951C78CF01E0E1E04E166D
:1040C000510409F400E010E08D819E81800F911F62
:1040D0008C9D90018D9D300D9C9D300D11243C8355
:1040E0002B83600F711F6C9D90016D9D300D7C9D29
:1040F000300D1124C5010197280F391FA30141502C
:1041000051096B817C81460F571FB501C3010E9485
:10411000861B5F98C09E3001C19E700CD09E700CB3
:104120001124332D91E00E8401C0990F0A94EAF70F
:1041300081E0AE2CB12C6F817885122DFF2009F41F
:1041400059C020E0582D2E1509F441C0F4014E2F1E
:10415000451BA9814A1708F021C04491482319F44E
:10416000412F032F02C0462F072FD5011097A1F032
:104170000EBD00C000C000C000C000C000C000C034
:1041800000C000004EBD00C000C000C000C000C0A4
:1041900000C00000119761F73196D9CFF301309735
:1041A000A1F03EBD00C000C000C000C000C000C003
:1041B00000C000C000002EBC00C000C000C000C095
:1041C00000C000C00000319761F72F5FBCCF880F9F
:1041D00079F4ED81FE818E0E9F1EFE85FF2329F06E
:1041E0002D8521502D87213011F081E001C0892FCC
:1041F000FA94A4CF4A944528F9F04B815C81C49E7F
:10420000C001C59E900DD49E900D11240097A1F081
:104210003EBC00C000C000C000C000C000C000C064
:1042200000C000002EBC00C000C000C000C000C024
:1042300000C00000019761F75F9A2E960FB6F894C0
:10424000DEBF0FBECDBFDF91CF911F910F91FF90C9
:10425000EF90DF90CF90BF90AF909F908F907F9026
:104260006F905F904F903F902F9008952F923F92C4
:104270004F925F926F927F928F929F92AF92BF9276
:10428000CF92DF92EF92FF920F931F93CF93DF9322
:1042900000D000D01F92CDB7DEB75C014B013A01D0
:1042A0003D832C832E2D9F2D8C2D2C803D8037E03F
:1042B000230E311C53E0369427945A95E1F7412C94
:1042C000512CC12CEC80FD80EA0CFB1C332429838B
:1042D0009A838B83B201680D791D4016510609F44B
:1042E00049C09B01A701C5010E94861B5F98249CC1
:1042F0009001259C300D349C300D112480E090E01D
:104300004C815D818417950709F42FC0AC0147707B
:104310005527452B11F0C6940BC0FC0143E0F695E0
:10432000E7954A95E1F7E20FF31FE60DF71DC490FC
:10433000C0FC03C04B815D2D02C049815A815EBD26
:1043400000C000C000C000C000C000C000C000C06D
:1043500000004EBD00C000C000C000C000C000C0D2
:1043600000C000C000000196CBCF5F9A5FEF451AF6
:10437000550AB0CF0F900F900F900F900F90DF91D4
:10438000CF911F910F91FF90EF90DF90CF90BF9052
:10439000AF909F908F907F906F905F904F903F90E5
:1043A0002F90089520910201309103018217930705
:1043B00010F0C90101979093260180932501809107
:1043C0000001909101016817790718F0BC01615054
:1043D00071097093240160932301089520912501B0
:1043E00030912601FC01318320838091230190913B
:1043F0002401FB01918380830895909307018093AA
:1044000006017093050160930401089580930801EB
:104410000895EF920F931F93CF932091F80330915B
:10442000F903F90133964491319694916091FA031E
:104430007091FB036230710548F0E82FF0E036968A
:10444000E91BF109E20FF31FC49106C0F90132968E
:10445000C4916130710511F04F5FCF5F8A3099F4DC
:1044600010922601109225012091080180912301CC
:1044700090912401429F800D911D1124909324015D
:104480008093230130C0F90135962491891758F1A2
:10449000482F50E030E0290F311D421753071CF51B
:1044A000482F0091040110910501209106013091DF
:1044B00007016091230170912401E090080180912F
:1044C0002501909126010E941E1F209108018091D4
:1044D000250190912601C29F800D911D112490937A
:1044E000260180932501CF911F910F91EF900895A0
:1044F000E091F803F091F9033396E4918091FA0387
:104500009091FB03019709F0EF5F80910801E89F0C
:10451000802D112408952091F8033091F903F901B9
:10452000349644913196E4918417F8F090E050E08D
:10453000BA016E0F711D86179707BCF46091FA03DC
:104540007091FB036230710538F0FC013696E41B74
:10455000F50BE20FF31F02C0F9013296E49180914E
:104560000801E89F802D1124089580E008950F939D
:104570001F93CF93DF938C01C0E0D0E0F8018191CD
:104580008F01882389F00E948B228823B9F3C80FFA
:10459000D11D8091FA039091FB03019779F38091EB
:1045A0000801C80FD11DEACFCE01DF91CF911F9135
:1045B0000F9108950F931F93CF93DF938C01C0E069
:1045C000D0E0F8018491882399F00E948B228823FF
:1045D00061F0C80FD11D8091FA039091FB03019700
:1045E00021F080910801C80FD11D0F5F1F4FE9CF47
:1045F000CE01DF91CF911F910F910895CF93DF935B
:10460000EC018991882319F00E940922FACFDF91E9
:10461000CF910895CF93DF93FC018491EF01219610
:10462000882321F00E940922FE01F7CFDF91CF916C
:1046300008950F931F93CF93DF93EC01E091F8035C
:10464000F091F9033396E4918091FA039091FB0382
:10465000019709F0EF5FA0912501B091260100912B
:1046600004011091050120910801E29FE02D112421
:104670002E2F30E0AE014A1B5B0B57FF03C0519554
:10468000419551096091230170912401CD01CA1710
:10469000DB0708F4CE010E94821CDF91CF911F91AD
:1046A0000F910895FC0180819181A281B381B23C78
:1046B00020F08058924AA149B44BBC01CD01605909
:1046C000794A8D4E984D20E83AE349E050E00E9447
:1046D000EE36ACE1B0E00E94453725EB35E040E036
:1046E00050E00E94EE366835734018F080E090E0AC
:1046F000089580E19EE008958091A80190E0FC017A
:1047000023E0EE0FFF1F2A95E1F7E55AFB4F20E16A
:10471000A0E7BEEF67EE73E042EE54E01386128628
:10472000B787A68771876087558744872150BC96D5
:104730002111F4CF2CE0289FF001299FF00D1124C6
:10474000E95FFB4F16861786108A118A80E690EF84
:104750009187808780E090E9A1E0B0E0828793872D
:10476000A487B58784E391E2978386830895209197
:104770002007222371F044E2489F9001499F300DA9
:104780001124C90164E170E00E94DA36CB01805C3B
:104790009E4F08950F931F9381E08093A501809110
:1047A000A2019091A3010E94DB1C00E114E828EA19
:1047B00030E040E451E060E270E080E090E00E9490
:1047C0001B1D1F910F9108950F931F93CF93DF939C
:1047D00000D000D0CDB7DEB7082F0E947822182F66
:1047E000BE016F5F7F4FCE0103960E94EE218CEBDE
:1047F0009FE00E940F1F802F0E9409228091A2013A
:104800009091A301212F30E02850310969817A81EC
:10481000685F7F4F8C0148E050E08B819C810E9453
:10482000821C8EE99BE10E940F1F0F900F900F904A
:104830000F90DF91CF911F910F910895CF93C82FC3
:1048400089E00E94E42380912007811102C083E463
:1048500001C086E40E940922CC2321F080E2CF919E
:104860000C940922CF9108950F931F931092A501E4
:104870008091A2019091A3010E94DB1C8EE99BE133
:104880000E940F1F00E114E820EE30E042ED50E0FE
:1048900060E070E080E090E00E941B1D60E070E04E
:1048A00081E090E00E94D22160E174E880910F01E4
:1048B000909110010E94FD218DE592E00E940A2353
:1048C00081ED90E00E94192320EE30E04EE650E0AA
:1048D00060E070E082ED90E00E941B1D60E070E0FF
:1048E00083ED90E00E94D22180E592E00E940A23AD
:1048F0008FE391E00E9419236091A2017091A301BE
:1049000080910F01909110010E94FD216FE070E0F5
:1049100087E291E00E94D22180E00E941E2468E29A
:1049200070E087E291E00E94D22185E20E94092294
:1049300061E470E087E291E00E94D22180913D0421
:10494000811103C088E492E002C08CE492E00E94EE
:104950000A2381E080931F071F910F910895CF9242
:10496000DF92EF92FF920F931F9382E08093A50155
:104970008091A2019091A3010E94DB1C60E570E090
:1049800080E090E00E94D22188E192E00E940A2318
:1049900080E1C82E84E8D82E94E1E92EF12C00E0C5
:1049A00010E020E030E044E150E060E070E080E0C2
:1049B00090E00E94BC1D2FEEE22EF12C0FE311E0DF
:1049C0002FEE30E04BE251E06BED70E08FE391E0D1
:1049D0000E94BC1D1F910F91FF90EF90DF90CF9030
:1049E00008954F925F926F927F928F929F92AF92B3
:1049F000BF92CF92DF92EF92FF920F931F93CF93CC
:104A0000DF93EC016B014A01422E5F2C0E94782259
:104A100092E0692E680EC4010E94DA220A965C01B7
:104A2000442029F0842D0E948B22A80EB11C002363
:104A300011F0102F01C011E020912A0730912B07AF
:104A4000712C2C173D0798F0809124079091250731
:104A50008C159D0560F0A5014C0F5D1F24173507CF
:104A600030F493012C0D3D1D8217930738F01F1170
:104A70002CC00111E12CE126512C27C060E174E823
:104A80008091A2019091A3010E94FD21512E0091DD
:104A90000F01109110019301A501B601CE010E94F2
:104AA0001B1DB6016F5F7F4FCE0106960E94D2217B
:104AB000CE0101960E941923C4010E940A234420BA
:104AC00069F0842D0E94092209C01E11E0CF609177
:104AD0000F0170911001E12E152DD2CFCE0101975B
:104AE0008A0D9B1D0E9419236091A2017091A30160
:104AF00080910F01909110010E94FD218E2D952D26
:104B0000DF91CF911F910F91FF90EF90DF90CF90A9
:104B1000BF90AF909F908F907F906F905F904F90DD
:104B200008958F929F92AF92BF92CF92DF92EF92B1
:104B3000FF920F931F93CF93DF938C01EB01FC0146
:104B400097FF04C0EE27FF27E81BF90B41112F5FE9
:104B5000F12C8AE0C82ED12C5E01A40EB11C9EE27D
:104B6000E92E31E03F0D4E018F0C911CCF01B601B3
:104B70000E94C636805DD4018C93431304C032E09A
:104B80003F0DD501EC92CF01B6010E94C636FB0164
:104B9000309711F0F32EE5CF3417E0F340E3832F85
:104BA00090E0321730F4FE01E80FF91F40833F5FB9
:104BB000F6CF17FF06C0FE01E80FF91F2DE2208394
:104BC0003F5FFE01E30FF11D1082CE01DF91CF9117
:104BD0001F910F91FF90EF90DF90CF90BF90AF901B
:104BE0009F908F900C949137FF920F931F93CF93C8
:104BF000DF930E942811EC018A8122E040E060E40A
:104C000074E0082E000C990B0E94912500E414E03A
:104C10008AE3F82EF801F282898122E040E063E421
:104C200074E0082E000C990B0E949125F801F58282
:104C3000888122E040E066E474E0082E000C990BC5
:104C40000E949125C801DF91CF911F910F91FF9094
:104C50000C94FE2222E041E060E474E00E94912581
:104C600080E494E00C94FE2220E040E060E474E0F4
:104C70000E94912580E494E00C94FE22EF92FF9232
:104C80000F931F93CF93DF938C017B01EA01C9013E
:104C900022E041E060E474E00E949125C00FD11F42
:104CA00080E494E00E94B722B7019E01281B390BD3
:104CB000C9010E94D221C8010E94192380E494E016
:104CC000DF91CF911F910F91FF90EF900C94FE22F6
:104CD0002091160180910F0190911001222369F01B
:104CE0000196C9F08FEF9FEF9093100180930F0111
:104CF0001092A3011092A2010CC0892B61F01092B6
:104D0000100110920F018FEF9FEF9093A3018093FA
:104D1000A20181E0089580E008958F929F92AF9262
:104D2000BF92CF92DF92EF92FF920F931F93CF9398
:104D3000DF936C017B015A010E9478228E5F809084
:104D4000A2019090A30120912A0730912B07C82F30
:104D5000D0E02A30310560F1809124079091250739
:104D60008C33910528F1223D310510F5AE01445CEC
:104D70005F4F84179507E0F4D7011196AC19BD0970
:104D8000A90160E070E09A01AB012A5031094109A4
:104D900051090E94503728EC30E040E050E00E947A
:104DA00010375601A20EB31E80E1882E84E8982E9B
:104DB00000910F01109110019E0148EC50E06CE34E
:104DC00070E08AE090E00E941B1DA5010B2C000CF6
:104DD000660B770BC6010D2C000CAA0BBB0B9A01BE
:104DE000AB01281B390B4A0B5B0BA2EBB0E00E9416
:104DF000453797012C193D09032E000C440B550B28
:104E00000E94103769017A01229784019E01A60150
:104E10006DE370E08BE090E00E94821C00910F0136
:104E200010911001C6010B969E0144E150E06DE324
:104E300070E00E94821C42EB50E04C195D09C601F3
:104E40004F9684019E016DE370E00E94821CC501B3
:104E5000DF91CF911F910F91FF90EF90DF90CF9056
:104E6000BF90AF909F908F9008951F920F920FB6B2
:104E70000F9211242F933F934F935F936F937F93E0
:104E80008F939F93AF93BF93EF93FF938091A6016E
:104E90009091A70101969093A7018093A60180911C
:104EA000A0019091A1010196883E23E0920729F08C
:104EB0009093A1018093A0012CC01092A1011092A7
:104EC000A0010E94021390919F019F5F90939F0108
:104ED00020911E0781E0282720931E0780931B073F
:104EE0009C33B9F410929F0120919D0130919E0155
:104EF0002F5F3F4F30939E0120939D0180931C07AD
:104F00002836314031F410929E0110929D01809319
:104F10001D07FF91EF91BF91AF919F918F917F916D
:104F20006F915F914F913F912F910F900FBE0F9016
:104F30001F901895CF93DF93CDB7DEB7A5970FB627
:104F4000F894DEBF0FBECDBF83E284BD82E085BD95
:104F50009FE798BD559A8093B00094E09093B1007C
:104F60009CE79093B3008093700080EA91E00E94E8
:104F7000923388E892E00E94E6330E94211B8FE082
:104F80000E94801B803C21F082E892E00E94E63380
:104F9000809111010E94EF1C0E9409340E94342468
:104FA00089E792E00E94E6330E942E15882321F0C3
:104FB00083E792E00E94E6330E944B3280E68093C2
:104FC0007C0087E880937A000E947C2360E17EE089
:104FD00080E090E00E943E1282E593E20E941C1263
:104FE00003E814E080E0C82E80E0D82EF12C93E294
:104FF000E92E44E050E0B601C8010E94FE39D80114
:105000008C918F3F59F4EC92B9E0BF1510F080E31A
:1050100001C087E38F0DF80181831282F394045D50
:105020001F4FF4E0CF0ED11C20E1F212E2CF1AA202
:105030001D8E1C8E1BA23FEF398F4091A60150910F
:10504000A7015DA34CA34A991FC08091A5018111BE
:105050001BC081E090911801911101C080E0809304
:105060003F0488B580935A0420912C0730912D0776
:1050700080912607909127072817390719F00E9479
:10508000CA2302C00E94AF24609111018FEF0E94D9
:10509000613480911801882399F080917C00807F91
:1050A000826080937C0080917A00806480937A0093
:1050B00080917A0086FDFCCF80917900809588BD33
:1050C0008091A501813009F0C9C210910D0182E0E3
:1050D0000E940622E0900D01F0900E0101E020E018
:1050E0004FE052E060E070E080E090E00E94F12448
:1050F00090930E0180930D017C0102E020E047E0D7
:1051000052E060E070E088E790E00E94F124909324
:105110000E0180930D017C0103E020E041E052E0AC
:1051200060E070E080EE90E00E94F12480930D0139
:1051300090930E01181771F00091A2011091A30134
:1051400026EA30E04EE351E061E270E081E090E079
:105150000E94821C80910D01813009F077C00E946D
:10516000062268E270E08AE090E00E94D22188EE98
:1051700091E00E940A238091120187FD03C08BE217
:105180000E94092280911201082E000C990B0E94A6
:10519000342684E690E00E9419236CE670E08AE0F1
:1051A00090E00E94D22180EE91E00E940A2364E9FF
:1051B00070E08AE090E00E94D22187ED91E00E94A9
:1051C0000A2382E00E94062240911201042E000C64
:1051D000550B6CE070E084EF9FEF0E948D2680936A
:1051E0001201E0901A01F0901B0100E020E043ED75
:1051F00051E06CE370E08CED90E00E94F12490931C
:105200001B0180931A01E0902007F090210720E015
:1052100048EC51E064E670E082E890E00E94F124FE
:105220009093210780932007E0903D04F0903E0486
:1052300020E044EC51E06CE870E082EE90E00E94E7
:10524000F12490933E0480933D0495C1823009F08F
:10525000C2C081E00E94062268E270E08AE090E02D
:105260000E94D22189EB91E00E940A2388B554E67E
:10527000859FC00111246FEF70E00E94C636CB01FC
:105280000E94342685E20E94092287E790E00E946E
:1052900019236CE670E08AE090E00E94D2218FEA48
:1052A00091E00E940A2364E970E08AE090E00E94A5
:1052B000D22183EA91E00E940A2382E00E94062222
:1052C00048B550E06FEF70E080E090E00E948D26DE
:1052D00088BDE0901801F090190100E020E04EE94F
:1052E00051E06CE370E08CED90E00E94F12490932B
:1052F000190180931801E0901601F090170120E049
:1053000047E951E064E670E082E790E00E94F12412
:105310009093170180931601E0901401F09015010D
:1053200020E042E951E064E670E08CED90E00E94FC
:10533000F1248093140190931501882331F090910A
:10534000A40181E08927809316010E9468268111BB
:105350000E94CA23E0900B01F0900C0100E020E0D5
:105360004DE851E06CE870E087E690E00E94F1249F
:1053700080930B0190930C01882359F080911101C7
:10538000813039F483E0809311010E94EF1C0E9468
:10539000CA2380910B0181110BC0809111018330D0
:1053A00039F481E0809311010E94EF1C0E94CA230E
:1053B000E0909B01F0909C0100E020E047EF51E07D
:1053C0006CE870E086EA90E00E94F12490939C01E2
:1053D00080939B01D0C081E00E9406226FE270E0C2
:1053E0008AE090E00E94D2218DE791E00E940A239A
:1053F0008091960190E00E9434268AE791E00E9415
:105400000A2380919601ACE28A9FC00111248D5736
:105410009B4F0E94FE2280911E07882319F08FE582
:105420000E94092284EB90E00E9419238CEB9FE0FC
:105430000E940F1F82E00E940622A0919601ECE2DA
:10544000AE9FD0011124AD57BB4FFD01019000204C
:10545000E9F731976F01CA1ADB0A3C2CA3E08A2EC8
:10546000912CB0E56B2E712CDD241CE2512E209185
:105470008201872D90E0FC01222319F0E459FC4FB2
:1054800002C0EC56FC4F1491112309F470C0880F30
:10549000991F9C01285B3E4F5901D901ED90FC906A
:1054A000662D70E000E0212F49E751E0C4010E9421
:1054B000F124F50191838083882309F443C01E31D0
:1054C00009F440C0108210928201183131F48091A9
:1054D00096018823C9F0815007C0193141F48091A9
:1054E00096018F3088F48F5F809396010DC01B3139
:1054F00059F480919601F601589EE00DF11D11249A
:10550000E55AFB4F17A21EC022E02315D8F0609188
:10551000960170E0569EC001579E900D1124FC012B
:10552000E55AFB4FEC0DFD1D10A711A6660F771F66
:10553000660F771F6050704044E050E08D579B4FDE
:105540000E94143AF0E28F0E911C20E3821621E0B3
:10555000920628F036E1630E63E0862E912C739458
:1055600044E1741284CF50E1850E911C80CF8EE906
:105570009BE10E940F1FE0909901F0909A0100E0DA
:1055800020E044EF51E06CEC70E080E590E00E9498
:10559000F12490939A0180939901E0909701F09003
:1055A000980120E04DEE51E06CEC70E086E990E06F
:1055B0000E94F124909398018093970181E00E94CA
:1055C000062280919B01882321F010929B010E946A
:1055D000AF2480919901882341F110929901809123
:1055E00012018093130180911A0191E0811101C091
:1055F00090E090931C01811103C080E090E002C014
:1056000082E593E20E941C124091130120E13EE0EA
:105610004203B001439F700D1124072E000C880B2C
:10562000990B0E943E120E94342480919701882396
:1056300009F466C6109297018091130180931201BC
:1056400080911C0180931A0180915A0488BD809139
:105650003F04809318010E94342452C6823009F01E
:105660005BC060912407709125072FE130E043E093
:1056700050E080912A0790912B070E944F1D82E0F5
:105680000E940622E0904601F090470100E020E0F1
:1056900043E751E068E870E088EC90E00E94F12474
:1056A0009093470180934601E0904401F0904501BA
:1056B00020E04EE651E068E870E08CE390E00E9464
:1056C000F124909345018093440181E00E940622D9
:1056D000809146018823B1F0109246018FEF9FEF31
:1056E000909329078093280790932307809322079C
:1056F000909327078093260790932D0780932C077C
:105700000E94AF2480914401882309F4F9C51092C6
:1057100044010E94CA23F4C580911B07882309F421
:10572000EFC510921B07188E1F8A80911D078823D2
:1057300099F010921D078091A80190E00196837066
:1057400099278093A80180911D01843018F48F5F00
:1057500080931D010E947C23AE01435F5F4FBE0119
:105760006F5E7F4FCE0147960E9468158F89988D96
:105770008036A0EF9A0784F3E091A8014D855E85FD
:105780006F8578892E2F30E0BCE0EB9FF00111246B
:10579000E95FFB4FC684D784E088F188C416D5063C
:1057A000E606F70620F446875787608B718BACE0DE
:1057B000A29FF001A39FF00D1124E95FFB4FC2846B
:1057C000D384E484F5844C155D056E057F0520F4D3
:1057D00042875387648775874CE0429FF001439F5F
:1057E000F00D1124E95FFB4F40855185481759079B
:1057F00014F4918780874CE0429FF001439FF00DA5
:105800001124E95FFB4F268137818217930714F437
:1058100097838683E0910D04F0910E04FB8FEA8F4D
:1058200020900F0430901004409011045090120406
:1058300060901304709014048090150490901604E6
:10584000A0901704B090180490911D01E7E0F4E0D7
:1058500081E03C96891738F54685578560897189BE
:1058600084169506A606B70610F44A015B01428528
:10587000538564857585441555056605770510F4CF
:105880002A013B0120853185221633060CF41901CB
:10589000268137814A8D5B8D2417350714F43B8FA1
:1058A0002A8F8F5FD6CFCE0109960E94EF1280918A
:1058B0001C07882309F466C110921C07109143014C
:1058C000812F65E00E94BA3654E0959FF0011124C3
:1058D000E15DFE4F89899A89AB89BC898083918378
:1058E000A283B383EFE2F1E023E431E060E070E013
:1058F000CB01C190D190E190F1906C0D7D1D8E1D7A
:105900009F1D2E173F07A9F725E030E040E050E04B
:105910000E94EE36DA01C9011F5F153B18F410939F
:10592000430103C026E02093430120914301253029
:1059300049F480932B0190932C01A0932D01B093F7
:105940002E01DFC02332C1F400912B0110912C01F4
:1059500020912D0130912E01801B910BA20BB30BD6
:1059600020910901BC01CD01660F771F881F991F87
:10597000222309F459C014C02C33D9F400912B010F
:1059800010912C0120912D0130912E01BC01CD01EF
:10599000601B710B820B930B209109012223F9F1FB
:1059A00060930304709304048093050490930604A9
:1059B000AEC02F35C1F400912B0110912C01209124
:1059C0002D0130912E01801B910BA20BB30B209166
:1059D0000901BC01CD01660F771F881F991F222383
:1059E00009F43FC021C0283721F580932701909307
:1059F0002801A0932901B0932A0100912B01109155
:105A00002C0120912D0130912E01BC01CD01601B94
:105A1000710B820B930B20910901222329F022E0C4
:105A200030E040E050E026C023E030E040E050E0CD
:105A300021C02B3951F500912B0110912C0120919F
:105A40002D0130912E01801B910BA20BB30B2091E5
:105A50000901BC01CD01660F771F881F991F222302
:105A600029F025E030E040E050E004C027E030E0DD
:105A700040E050E00E941037209303043093040468
:105A8000409305045093060442C0243BC1F50091A5
:105A90002B0110912C0120912D0130912E01BC0180
:105AA000CD01601B710B820B930B20910901222306
:105AB00029F023E030E040E050E004C024E030E092
:105AC00040E050E00E941037209303043093040418
:105AD000409305045093060480912701909128017A
