:1000000012C01FC01EC01DC01CC01BC01AC083C2AE
:10001000B5C217C016C015C014C013C012C011C09D
:1000200010C00FC0EDC111241FBECFEDCDBF20E029
:10003000A0E6B0E001C01D92A538B207E1F7E1D11A
:1000400003C3DECF00C000C000C000C000C000C0BD
:1000500000000895BD98BF98C598C7980895BD9AA7
:10006000F1DF1DD00895BF9AEDDFBD98EBDFBF989B
:10007000E9DFBD9AE7DF13D00895082EBD9AE2DFCD
:10008000802D0DD0882311F002D0F8CF0895BF9AAB
:10009000BD9AD8DFBF98D6DFBD98D4DF0895089405
:1000A000881F01C0880F59F0BF9A18F40000BD984E
:1000B00002C0BD9A00C0C6DFBF98C4DFF3CFBF9AAD
:1000C000BD98C0DFBF98B79BFECF8827B59981E068
:1000D000B9DF99270895882701C081E071E0BF9AB0
:1000E000BD98B0DFBF98AEDFB79BFECF8894B599BF
:1000F0000894771FA0F7BF9A813011F0BD9801C016
:10010000BD9AA0DFBF98B79BFECF9CDF872F9927B2
:1001100008957F928F929F92AF92BF92CF92DF927B
:10012000EF92FF920F931F93CF93DF93CDB7DD270D
:10013000C850CDBF6C017B018DDF88EB90DF87EC71
:1001400090E00197F1F700C00000A1DF88EB87DFA6
:10015000782E81116BC083E0A2DF80E0A0DF84E015
:100160009EDF95DFEFE8F1E03197F1F700C0000086
:1001700089EB75DF8E010F5F1F4F4E01F8E08F0E88
:10018000911C5801AADFF50181935F018E169F062D
:10019000C9F7A1DFB82E88877ADF6B2D70E0762F44
:1001A00066278F81682BAE01495F5F4F8FEF9FEF0E
:1001B000F80121918F018227282F22952827022ECE
:1001C000269526952025022E269520252770082E77
:1001D000892F269507942795902D82270694279599
:1001E000902582274E175F0719F76817790709F5D9
:1001F0008B8190E0982F88272C81822BF6019183A8
:1002000080832D81822F8F7790E0982F88273E81E1
:10021000832B222324F0F701918380830DC09195D5
:1002200081959109F7019183808306C077247394A7
:1002300003C06894772471F8872DC85FCDBFDF9124
:10024000CF911F910F91FF90EF90DF90CF90BF90D3
:10025000AF909F908F907F9008959FB7F894C59826
:10026000BD9A20EA2A95F1F7BD9884E18A95F1F7C5
:1002700086B32CE82A95F1F79FBF807208959FB747
:10028000F894C598BD9A00008111BD9884E18A95C3
:10029000F1F7BD989FBF08959FB7F894C598BD9A90
:1002A0000000BD9824E02A95F1F700C086B32FE046
:1002B0002A95F1F79FBF85FB882780F90895CF9392
:1002C000DF93D8E0C0E0E8DF879588278795C6955B
:1002D000C82BD150C1F78C2FDF91CF910895CF93C8
:1002E000DF93D82FC8E08D2F8170C9DFD695C1501C
:1002F000D1F7DF91CF910895BF92CF92DF92EF9225
:10030000FF920F931F93CF93DF93CDB7DD27C95093
:10031000CDBF6C01A2DFB82E81115FC08CECDFDF96
:1003200084E4DDDFB9DF8823E9F397DF8CECD7DFE6
:100330008EEBD5DFCE0101967C0100E010E0BFDF3F
:10034000F70181937F01083050F4912F982788E0BE
:100350002CE8969508F492278A95D9F7192F0F5F04
:10036000093069F7898518133BC08981382F329588
:100370003F708F7090E02A8127702295207F232B79
:10038000022E000C330BA901440F551F440F551FBB
:10039000240F351F220F331FAC01440F551F429508
:1003A0005295507F5427407F5427481B590B440FC8
:1003B000551F440F551F840F951FAC01440F551F47
:1003C000440F551F840F951F68EE73E029D1260F47
:1003D000371FF6013183208306C0BB24B39403C0CA
:1003E0006894BB24B1F88B2DC75FCDBFDF91CF914F
:1003F0001F910F91FF90EF90DF90CF90BF900895E5
:100400001895CF93DF93CDB7DD27C550CDBF83E3DC
:1004100090E0DBD00F2EFAEAAF2EBA2CF02D512C43
:10042000442443946E0186E0C80ED11C77247A944C
:1004300088248A940F2EF1E66F2EF02DBB82AA82BB
:10044000CE01049659DF813041F4BE016C5F7F4FCD
:10045000CE0102965EDE242D01C0252D98B39F604B
:1004600098BB96B32295220F220F207C8295807F25
:10047000822B90959F70892B8983BC9AC49A85E5BD
:10048000BAD085E5B8D0FE0131967F01072D182D31
:10049000F70191907F01892DAED098012925822FF7
:1004A00082958227082E869586958025082E86952A
:1004B00080258770022E232F869507948795302DEF
:1004C000282706948795302528278901EC14FD04F8
:1004D000F9F6822F90D0812F8ED08FE295E7019789
:1004E000F1F700C00000C49885B7806585BF85B767
:1004F000806285BFA89514BE81B5886181BD61BC4D
:10050000889585B78F7D85BFA89514BE81B5886114
:1005100081BD11BC93CF1F920F920FB60F92112481
:100520002F933F934F935F938F939F93EF93FF93FB
:100530002BB13CB128718091620090E001968F70E0
:1005400099274091610050E08417950739F0809316
:100550006200FC01EB59FF4F308301C022E0209381
:100560006000FF91EF919F918F915F914F913F912B
:100570002F910F900FBE0F901F9018951F920F9202
:100580000FB60F9211248F939F93EF93FF93909147
:10059000640080916300981771F08091630090E08F
:1005A00001968F70992780936300FC01EB58FF4FF1
:1005B00080818CB901C05598FF91EF919F918F91E7
:1005C0000F900FBE0F901F901895F8941092640032
:1005D0001092630010926200109261007894992347
:1005E0001CF422E02BB99F7792B989B988E98AB9BE
:1005F00086E083B908954091640050E04F5F5F4FFB
:100600004F7055272091630030E042175307D1F314
:10061000FA01EB58FF4F808340936400559A089588
:10062000AA1BBB1B51E107C0AA1FBB1FA617B70718
:1006300010F0A61BB70B881F991F5A95A9F7809534
:0C0640009095BC01CD010895F894FFCF07
:00000001FF
