:1000000012C01FC01EC01DC01CC01BC01AC019C01A
:1000100092C317C016C015C014C013C012C011C0BF
:1000200010C00FC0F2C211241FBECFEDCDBF20E023
:10003000A0E6B0E001C01D92A237B207E1F7E6D218
:10004000DCC3DECF00C000C000C000C000C000C0E4
:1000500000000895BD98BF98C598C7980895BD9AA7
:10006000F1DF1DD00895BF9AEDDFBD98EBDFBF989B
:10007000E9DFBD9AE7DF13D00895082EBD9AE2DFCD
:10008000802D0DD0882311F002D0F8CF0895BF9AAB
:10009000BD9AD8DFBF98D6DFBD98D4DF0895089405
:1000A000881F01C0880F59F0BF9A18F40000BD984E
:1000B00002C0BD9A00C0C6DFBF98C4DFF3CFBF9AAD
:1000C000BD98C0DFBF98B79BFECF8827B59981E068
:1000D000B9DF99270895882701C081E071E0BF9AB0
:1000E000BD98B0DFBF98AEDFB79BFECF8894B599BF
:1000F0000894771FA0F7BF9A813011F0BD9801C016
:10010000BD9AA0DFBF98B79BFECF9CDF872F9927B2
:1001100008958F929F92AF92BF92CF92DF92EF920B
:10012000FF920F931F93CF93DF93CDB7DD27C75077
:10013000CDBF4C015B018EDF80E791DF082F81117D
:10014000E8C081E7ACDF81E78EDFC5DF182F9FDFD6
:1001500013FD0FC080E783DF8EEBA1DF88E09FDF18
:1001600080E09DDF94DF83EC99E00197F1F700C018
:10017000000080E774DF8CEA92DF83E390DF80E0A9
:100180008EDF85DFEFE1FEE43197F1F700C000007C
:1001900081E765DFCE0101967C016E0197E0C90E13
:1001A000D11C1FEF9ADFF70181937F01912F9827D0
:1001B00088E021E3990F08F492278A95D9F7192F3F
:1001C000EC15FD0579F787DFF82E61DF1F11A3C05D
:1001D0002C818A8190E0A0E0B0E0072E7CE0880FBF
:1001E000991FAA1FBB1F7A95D1F7702D322F329518
:1001F0003F70832B4B8150E042955295507F54279E
:10020000407F542760E070E0842B952BA62BB72B02
:10021000880F991FAA1FBB1FAC01BD01440F551FBA
:10022000661F771F440F551F661F771F840F951F8A
:10023000A61FB71FAC01BD01440F551F661F771FD6
:10024000440F551F661F771F840F951FA61FB71FEA
:10025000AC01BD01440F551F661F771F440F551F8A
:10026000661F771F840F951FA61FB71F072E72E109
:10027000B695A795979587957A95D1F7702DF40146
:10028000918380832F708D8190E0982F8827A0E044
:10029000B0E0A22B2E81822B880F991FAA1FBB1FB3
:1002A000AC01BD01440F551F661F771F440F551F3A
:1002B000661F771F840F951FA61FB71FAC01BD01D6
:1002C000440F551F661F771F440F551F661F771F6A
:1002D000840F951FA61FB71FAC01BD01440F551F0A
:1002E000661F771F440F551F661F771F840F951FCA
:1002F000A61FB71F072E71E1B695A795979587950D
:100300007A95D1F7702D845F9140F50191838083B8
:1003100003C001E001C002E0802FC95FCDBFDF91C3
:10032000CF911F910F91FF90EF90DF90CF90BF90F2
:10033000AF909F908F9008958F929F92AF92BF92AF
:10034000CF92DF92EF92FF920F931F93CF93DF93A1
:10035000CDB7DD27C850CDBF6C015B017BDE88EBDC
:100360007EDE87EC90E00197F1F700C000008FDEA1
:1003700088EB75DE082F811162C083E090DE80E09B
:100380008EDE84E08CDE83DEEFE8F1E03197F1F77A
:1003900000C0000089EB63DECE0101967C0110E015
:1003A00088248A94982C99DEF70181937F01163076
:1003B000C8F494012827822F82958227082E8695DB
:1003C00086958025082E869580258770022E232FFE
:1003D000869507948795302D282706948795302594
:1003E000282749011F5F1730F1F675DE182F4FDE01
:1003F000812F90E0982F88272F81822B88169906CD
:1004000001F58B8190E0982F88272C81822BF601B3
:10041000918380832D81822F8F7790E0982F88277A
:100420003E81832B222324F0F501918380830AC02F
:10043000919581959109F5019183808303C001E035
:1004400001C002E0802FC85FCDBFDF91CF911F9127
:100450000F91FF90EF90DF90CF90BF90AF909F9063
:100460008F9008959FB7F894C598BD9A20EA2A9571
:10047000F1F7BD9884E18A95F1F786B32CE82A95C7
:10048000F1F79FBF807208959FB7F894C598BD9A01
:1004900000008111BD9884E18A95F1F7BD989FBF56
:1004A00008959FB7F894C598BD9A0000BD9824E0C0
:1004B0002A95F1F700C086B32FE02A95F1F79FBF88
:1004C00085FB882780F90895CF93DF93D8E0C0E0BB
:1004D000E8DF879588278795C695C82BD150C1F747
:1004E0008C2FDF91CF910895CF93DF93D82FC8E061
:1004F0008D2F8170C9DFD695C150D1F7DF91CF9193
:100500000895BF92CF92DF92EF92FF920F931F93C5
:10051000CF93DF93CDB7DD27C950CDBF6C01A2DFEC
:10052000B82E81115FC08CECDFDF84E4DDDFB9DF42
:100530008823E9F397DF8CECD7DF8EEBD5DFCE0194
:1005400001967C0100E010E0BFDFF70181937F019D
:10055000083050F4912F982788E02CE8969508F4FD
:1005600092278A95D9F7192F0F5F093069F7898586
:1005700018133BC08981382F32953F708F7090E0FF
:100580002A8127702295207F232B022E000C330B0B
:10059000A901440F551F440F551F240F351F220F6B
:1005A000331FAC01440F551F42955295507F54277D
:1005B000407F5427481B590B440F551F440F551FAC
:1005C000840F951FAC01440F551F440F551F840F16
:1005D000951F68EE73E0FDD0260F371FF6013183BB
:1005E000208306C0BB24B39403C06894BB24B1F835
:1005F0008B2DC75FCDBFDF91CF911F910F91FF90E2
:10060000EF90DF90CF90BF9008951895CF93DF9330
:10061000CDB7DD27C550CDBF83E390E0B3D00F2E1B
:10062000FAEA8F2E982CF02D512C332433946894B1
:10063000442441F85E0186E0A80EB11C77247A9428
:10064000EE24EA940F2EF1E66F2EF02D9B828A8223
:10065000CE01049656DF813081F4BE016C5F7F4F7E
:10066000CE01029669DE813051F4BE016C5F7F4F8E
:10067000CE0102964EDD242D03C0252D01C0232D71
:1006800098B39F6098BB96B32295220F220F207CCF
:100690008295807F822B90959F70892B8983BC9A4D
:1006A000C49A85E581D085E57FD0FE0131966F0142
:1006B000072D1E2DF601F1906F018F2D75D00F259E
:1006C000802F82958027082E869586958025082E76
:1006D000869580258770002E012F86950794879533
:1006E000102D08270694879510250827AC14BD0403
:1006F00009F7802F59D0812F57D08FE295E70197C6
:10070000F1F700C00000C49885B7806585BF85B744
:10071000806285BFA89514BE81B5886181BD61BC2A
:10072000889585B78F7D85BFA89514BE81B58861F2
:1007300081BD11BC8BCF1F920F920FB60F92112467
:100740008F939F93EF93FF9390916100809160004E
:10075000981771F08091600090E001968F70992752
:1007600080936000FC01EE59FF4F80818CB901C07D
:100770005598FF91EF919F918F910F900FBE0F9021
:100780001F901895F8941092610010926000789470
:1007900099231CF422E02BB99F7792B989B988E09C
:1007A0008AB986E083B908954091610050E04F5FB7
:1007B0005F4F4F7055272091600030E0421753077C
:1007C000D1F3FA01EE59FF4F808340936100559AAF
:1007D0000895AA1BBB1B51E107C0AA1FBB1FA61788
:1007E000B70710F0A61BB70B881F991F5A95A9F7DA
:0E07F00080959095BC01CD010895F894FFCF3F
:00000001FF
