:100000000EC01DC006C31BC01AC047C418C017C00D
:1000100016C015C014C013C0FBC211C0F4C3112414
:100020001FBECFE5D2E0DEBFCDBF20E0A0E6B0E04E
:1000300001C01D92AC37B207E1F70DD351C4E0CF38
:1000400000C000C000C000C000C000C00000089593
:10005000B898BA98C098C2980895B89AF1DF1DD0A0
:100060000895BA9AEDDFB898EBDFBA98E9DFB89A4D
:10007000E7DF13D00895082EB89AE2DF802D0DD067
:10008000882311F002D0F8CF0895BA9AB89AD8DF31
:10009000BA98D6DFB898D4DF08950894881F01C0B5
:1000A000880F59F0BA9A18F40000B89802C0B89AAC
:1000B00000C0C6DFBA98C4DFF3CFBA9AB898C0DFE1
:1000C000BA98B29BFECF8827B09981E0B9DF992713
:1000D0000895882701C081E071E0BA9AB898B0DF2E
:1000E000BA98AEDFB29BFECF8894B0990894771F80
:1000F000A0F7BA9A813011F0B89801C0B89AA0DF81
:10010000BA98B29BFECF9CDF872F9927089580E78E
:10011000A4DF8EEBC2DF88E0C0DF80E0BEDFB5DFAA
:1001200008958F929F92AF92BF92CF92DF92EF92FB
:10013000FF920F931F93CF93DF93CDB7DEB727972F
:100140000FB6F894DEBF0FBECDBF4C015B0180E758
:1001500084DF082F8111CEC08CEA9FDF83E39DDF0F
:1001600080E09BDF92DF8FE19EE40197F1F700C012
:10017000000081E772DFFE0131967F016E01F7E03A
:10018000CF0ED11C1FEFA7DFF70181937F01912FC5
:10019000982788E021E3990F08F492278A95D9F7E8
:1001A000192FEC15FD0579F794DFF82E6EDF1F117E
:1001B000A3C02C818A8190E0A0E0B0E0072E7CE013
:1001C000880F991FAA1FBB1F7A95D1F7702D322F68
:1001D00032953F70832B4B8150E042955295507F72
:1001E0005427407F542760E070E0842B952BA62B8A
:1001F000B72B880F991FAA1FBB1FAC01BD01440F6D
:10020000551F661F771F440F551F661F771F840FEA
:10021000951FA61FB71FAC01BD01440F551F661FD8
:10022000771F440F551F661F771F840F951FA61F4A
:10023000B71FAC01BD01440F551F661F771F440F48
:10024000551F661F771F840F951FA61FB71F072E08
:1002500072E1B695A795979587957A95D1F7702D08
:10026000F401918380832F708D8190E0982F8827EF
:10027000A0E0B0E0A22B2E81822B880F991FAA1F2D
:10028000BB1FAC01BD01440F551F661F771F440FF4
:10029000551F661F771F840F951FA61FB71FAC0140
:1002A000BD01440F551F661F771F440F551F661F62
:1002B000771F840F951FA61FB71FAC01BD01440F08
:1002C000551F661F771F440F551F661F771F840F2A
:1002D000951FA61FB71F072E71E1B695A795979595
:1002E00087957A95D1F7702D845F9140F5019183C0
:1002F000808303C001E001C002E0802F27960FB683
:10030000F894DEBF0FBECDBFDF91CF911F910F914B
:10031000FF90EF90DF90CF90BF90AF909F908F9025
:1003200008958F929F92AF92BF92CF92DF92EF92F9
:10033000FF920F931F93CF93DF93CDB7DEB728972C
:100340000FB6F894DEBF0FBECDBF6C015B0180DE3F
:1003500088EB83DE87EC90E00197F1F700C00000A6
:1003600094DE88EB7ADE082F811162C083E095DE8F
:1003700080E093DE84E091DE88DEEFE8F1E0319703
:10038000F1F700C0000089EB68DECE0101967C0128
:1003900010E088248A94982C9EDEF70181937F01D7
:1003A0001630C8F494012827822F82958227082EC0
:1003B000869586958025082E869580258770022E45
:1003C000232F869507948795302D282706948795A7
:1003D0003025282749011F5F1730F1F67ADE182FE4
:1003E00054DE812F90E0982F88272F81822B88164A
:1003F000990601F58B8190E0982F88272C81822B1C
:10040000F601918380832D81822F8F7790E0982F42
:1004100088273E81832B222324F0F501918380835A
:100420000AC0919581959109F5019183808303C05C
:1004300001E001C002E0802F28960FB6F894DEBFDD
:100440000FBECDBFDF91CF911F910F91FF90EF9025
:10045000DF90CF90BF90AF909F908F9008959FB7FF
:10046000F894C098B89A20EA2A95F1F7B89884E1F0
:100470008A95F1F786B32CE82A95F1F79FBF817032
:1004800008959FB7F894C098B89A00008111B89861
:1004900084E18A95F1F7B8989FBF08959FB7F894C3
:1004A000C098B89A0000B89824E02A95F1F700C0E7
:1004B00086B32FE02A95F1F79FBF81700895CF93FF
:1004C000DF93D8E0C0E0EADF879588278795C69557
:1004D000C82BD150C1F78C2FDF91CF910895CF93C6
:1004E000DF93D82FC8E08D2F8170CBDFD695C15018
:1004F000D1F7DF91CF910895BF92CF92DF92EF9223
:10050000FF920F931F93CF93DF93CDB7DEB7299759
:100510000FB6F894DEBF0FBECDBF6C01A0DFB82EC2
:1005200081115FC08CECDBDF84E4D9DFB7DF882387
:10053000E9F395DF8CECD3DF8EEBD1DFCE010196B2
:100540007C0100E010E0BBDFF70181937F01083000
:1005500050F4912F982788E02CE8969508F492277C
:100560008A95D9F7192F0F5F093069F78985181314
:100570003BC08981382F32953F708F7090E02A817F
:1005800027702295207F232B022E000C330BA9010C
:10059000440F551F440F551F240F351F220F331FC3
:1005A000AC01440F551F42955295507F5427407F10
:1005B0005427481B590B440F551F440F551F840FD8
:1005C000951FAC01440F551F440F551F840F951FF5
:1005D00068EE73E071D1260F371FF6013183208357
:1005E00006C0BB24B39403C06894BB24B1F88B2D20
:1005F00029960FB6F894DEBF0FBECDBFDF91CF9125
:100600001F910F91FF90EF90DF90CF90BF900895D2
:1006100018951F920F920FB60F9211248F939F93EC
:10062000B39912C087E893E10197F1F700C0000089
:10063000B3990AC0809160008F5F809360008091C1
:1006400060008F70809360009F918F910F900FBE1C
:100650000F901F901895C39A8BB780628BBFAB9A8F
:1006600056DD0F2EF7E7AF2EF0E0BF2EF02D0F2E48
:10067000FAEA8F2E982CF02D512C33243394689461
:10068000442441F80F2EFCE7CF2EF0E0DF2EF02DB2
:1006900077247A940FEF0F2EF1E66F2EF02DF501EF
:1006A000928281828AE790E027DF813071F46AE7E5
:1006B00070E088E790E035DE813049F46AE770E069
:1006C00088E790E02EDD942D03C0952D01C0932D79
:1006D000209160009295990F990F907C8295807F70
:1006E000892B822BF5018083BC9AC49A85E56FD053
:1006F00085E56DD00F2EF7E7EF2EF0E0FF2EF02D01
:10070000C72DD02FF70111917F01812F60D0C12714
:100710001C2F12951C27012E169516951025012EBB
:100720001695102517700C2ECD2F1695079417953A
:10073000D02DC12706941795D025C127CE14DF04EC
:1007400009F78C2F44D08D2F42D08FE295E7019787
:10075000F1F700C00000C49885B7877E806185BF2F
:1007600085B7806285BFA89514BE81B5886181BDBB
:1007700061BC889585B78F7D85BFA89514BE81B56E
:10078000886181BD11BC8BCF982F96959575880F88
:100790008A7A982B892F869586958373990F990F5E
:1007A0009C7C892B82950895F89412BE82E083BFC9
:1007B00088BF89B7826089BF84E58DB98FEF8FB913
:1007C0008EB9B99A81E08093630078940895CF93AD
:1007D000C0916500CF5FCF7090916400C917E1F3BD
:1007E000D3DFEC2FF0E0EA59FF4F8083C093650020
:1007F00080916300811105C0809161008111FCCF5F
:10080000D3DFCF9108951F920F920FB60F9211244C
:100810008F939F93EF93FF93809163008823A1F1BF
:1008200080916200882361F0109262008BEF8EB994
:1008300080917600880F880F880F87608FB924C059
:1008400090916500809164009817C1F081E08093D9
:100850006200E0916400EF5FEF70E0936400F0E00D
:10086000EA59FF4F8081809376008BEF8EB980919B
:1008700076008695869580688FB906C010926300D1
:1008800013BEC19AB9981DB8FF91EF919F918F91B6
:100890000F900FBE0F901F9018951F920F920FB6DA
:1008A0000F9211248F9382B7885682BF8F910F9039
:1008B0000FBE0F901F901895AA1BBB1B51E107C0DC
:1008C000AA1FBB1FA617B70710F0A61BB70B881FE0
:1008D000991F5A95A9F780959095BC01CD0108956F
:0408E000F894FFCFBA
:00000001FF
