:1000000016C025C024C023C022C04CC520C01FC0BC
:100010001EC01DC01CC01BC014C319C0F9C474701D
:100020006B66615B554D443C322A20140600112456
:100030001FBECFE5D2E0DEBFCDBF20E0A0E6B0E03E
:1000400001C01D92AB37B207E1F7FCD24EC5D8CF45
:1000500000C000C000C000C000C000C00000089583
:10006000B898BA98C098C2980895B89AF1DF1DD090
:100070000895BA9AEDDFB898EBDFBA98E9DFB89A3D
:10008000E7DF13D00895082EB89AE2DF802D0DD057
:10009000882311F002D0F8CF0895BA9AB89AD8DF21
:1000A000BA98D6DFB898D4DF08950894881F01C0A5
:1000B000880F59F0BA9A18F40000B89802C0B89A9C
:1000C00000C0C6DFBA98C4DFF3CFBA9AB898C0DFD1
:1000D000BA98B29BFECF8827B09981E0B9DF992703
:1000E0000895882701C081E071E0BA9AB898B0DF1E
:1000F000BA98AEDFB29BFECF8894B0990894771F70
:10010000A0F7BA9A813011F0B89801C0B89AA0DF70
:10011000BA98B29BFECF9CDF872F992708958F92C4
:100120009F92AF92BF92CF92DF92EF92FF920F9386
:100130001F93CF93DF93CDB7DEB727970FB6F89411
:10014000DEBF0FBECDBF4C015B018ADF80E78DDFD4
:10015000082F8111E8C081E7A8DF81E78ADFC1DFCE
:10016000182F9BDF13FD0FC080E77FDF8EEB9DDF35
:1001700088E09BDF80E099DF90DF83EC99E00197D6
:10018000F1F700C0000080E770DF8CEA8EDF83E3C8
:100190008CDF80E08ADF81DFEFE1FEE43197F1F769
:1001A00000C0000081E761DFCE0101967C016E0195
:1001B00097E0C90ED11C1FEF96DFF70181937F01F5
:1001C000912F982788E021E3990F08F492278A95C8
:1001D000D9F7192FEC15FD0579F783DFF82E5DDFD0
:1001E0001F11A3C02C818A8190E0A0E0B0E0072E0F
:1001F0007CE0880F991FAA1FBB1F7A95D1F7702D3D
:10020000322F32953F70832B4B8150E042955295AF
:10021000507F5427407F542760E070E0842B952B5B
:10022000A62BB72B880F991FAA1FBB1FAC01BD01BE
:10023000440F551F661F771F440F551F661F771FFA
:10024000840F951FA61FB71FAC01BD01440F551F9A
:10025000661F771F440F551F661F771F840F951F5A
:10026000A61FB71FAC01BD01440F551F661F771FA6
:10027000440F551F661F771F840F951FA61FB71FBA
:10028000072E72E1B695A795979587957A95D1F740
:10029000702DF401918380832F708D8190E0982FD1
:1002A0008827A0E0B0E0A22B2E81822B880F991F17
:1002B000AA1FBB1FAC01BD01440F551F661F771F4E
:1002C000440F551F661F771F840F951FA61FB71F6A
:1002D000AC01BD01440F551F661F771F440F551F0A
:1002E000661F771F840F951FA61FB71FAC01BD01A6
:1002F000440F551F661F771F440F551F661F771F3A
:10030000840F951FA61FB71F072E71E1B695A795FD
:10031000979587957A95D1F7702D845F9140F50177
:100320009183808303C001E001C002E0802F279603
:100330000FB6F894DEBF0FBECDBFDF91CF911F91F6
:100340000F91FF90EF90DF90CF90BF90AF909F9074
:100350008F9008958F929F92AF92BF92CF92DF922B
:10036000EF92FF920F931F93CF93DF93CDB7DEB73A
:1003700028970FB6F894DEBF0FBECDBF6C015B01AE
:100380006FDE88EB72DE87EC90E00197F1F700C03A
:10039000000083DE88EB69DE082F811162C083E0F4
:1003A00084DE80E082DE84E080DE77DEEFE8F1E06C
:1003B0003197F1F700C0000089EB57DECE010196BE
:1003C0007C0110E088248A94982C8DDEF7018193BB
:1003D0007F011630C8F494012827822F8295822746
:1003E000082E869586958025082E8695802587700F
:1003F000022E232F869507948795302D2827069463
:1004000087953025282749011F5F1730F1F669DEEF
:10041000182F43DE812F90E0982F88272F81822B81
:100420008816990601F58B8190E0982F88272C81FA
:10043000822BF601918380832D81822F8F7790E02C
:10044000982F88273E81832B222324F0F501918366
:1004500080830AC0919581959109F50191838083EC
:1004600003C001E001C002E0802F28960FB6F89487
:10047000DEBF0FBECDBFDF91CF911F910F91FF90D7
:10048000EF90DF90CF90BF90AF909F908F900895A6
:100490009FB7F894C098B89A20EA2A95F1F7B898CF
:1004A00084E18A95F1F786B32CE82A95F1F79FBF8E
:1004B000817008959FB7F894C098B89A0000811190
:1004C000B89884E18A95F1F7B8989FBF08959FB7CF
:1004D000F894C098B89A0000B89824E02A95F1F7EB
:1004E00000C086B32FE02A95F1F79FBF8170089571
:1004F000CF93DF93D8E0C0E0EADF87958827879520
:10050000C695C82BD150C1F78C2FDF91CF9108959C
:10051000CF93DF93D82FC8E08D2F8170CBDFD69596
:10052000C150D1F7DF91CF910895BF92CF92DF9262
:10053000EF92FF920F931F93CF93DF93CDB7DEB768
:1005400029970FB6F894DEBF0FBECDBF6C01A0DFB8
:10055000B82E81115FC08CECDBDF84E4D9DFB7DF1C
:100560008823E9F395DF8CECD3DF8EEBD1DFCE016E
:1005700001967C0100E010E0BBDFF70181937F0171
:10058000083050F4912F982788E02CE8969508F4CD
:1005900092278A95D9F7192F0F5F093069F7898556
:1005A00018133BC08981382F32953F708F7090E0CF
:1005B0002A8127702295207F232B022E000C330BDB
:1005C000A901440F551F440F551F240F351F220F3B
:1005D000331FAC01440F551F42955295507F54274D
:1005E000407F5427481B590B440F551F440F551F7C
:1005F000840F951FAC01440F551F440F551F840FE6
:10060000951F68EE73E05DD2260F371FF601318328
:10061000208306C0BB24B39403C06894BB24B1F804
:100620008B2D29960FB6F894DEBF0FBECDBFDF919C
:10063000CF911F910F91FF90EF90DF90CF90BF90DF
:100640000895189583E287B983E886B90F2EF6E7F7
:10065000CF2EF0E0DF2EF02D0F2EFAEA8F2E982C01
:10066000F02D312C0F2EF3E02F2EF02D0F2EFEE16A
:10067000AF2EF0E0BF2EF02D0F2EFBE7EF2EF0E0B7
:10068000FF2EF02D44244A9455245A940F2EF1E65F
:100690006F2EF02DF6019282818289E790E045DF8E
:1006A0008130A9F469E770E087E790E053DE81309C
:1006B00081F469E770E087E790E031DD813059F43B
:1006C00067E770E089E790E072D0422D05C0432DC6
:1006D00003C041E001C042E0369A3699FECFF501F1
:1006E000949125B1921760F0EFE1F0E021E0949150
:1006F00035B1931730F02F5F31962F30C1F701C01D
:1007000020E04295440F440F407C8295807F482B27
:10071000242BF6012083BC9AC49A85E55DD185E53A
:100720005BD106E710E0C42DD52DF80171908F0143
:10073000872D52D1C7258C2F82958C27082E869520
:1007400086958025082E8695802587700C2ECD2FC6
:10075000869507948795D02DC82706948795D02530
:10076000C8270E151F0509F78C2F36D18D2F34D1D0
:100770008FE295E70197F1F700C00000C49885B7B4
:10078000877E806185BF85B7806285BFA89514BECE
:1007900081B5886181BD61BC889585B78F7D85BF36
:1007A000A89514BE81B5886181BD11BC73CF8F92AD
:1007B0009F92AF92BF92CF92DF92EF92FF920F93F0
:1007C0001F93CF93DF938C017B014ADC88E84DDCDB
:1007D000D82F8111CBC084E268DC80E066DC5DDC70
:1007E00087E893E10197F1F700C0000089E83DDC5C
:1007F0007ADCC82ECFEFCC2588E091E3CC0F08F44B
:10080000C9278A95D9F76FDCD82E6DDCCD2598E005
:1008100021E3CC0F08F4C2279A95D9F7C813A8C0D2
:100820008D2D90E0A0E0B0E09C29AC01BD01440F0B
:10083000551F661F771F440F551F661F771F840FB4
:10084000951FA61FB71FAC01BD01440F551F661FA2
:10085000771F440F551F661F771F840F951FA61F14
:10086000B71F4C015D01880C991CAA1CBB1C880C8D
:10087000991CAA1CBB1CAC01BD01480D591D6A1D69
:100880007B1DDB01CA01880F991FAA1FBB1F880FA0
:10089000991FAA1FBB1F880F991FAA1FBB1F841B6C
:1008A000950BA60BB70B072E7FE0B595A7959795EF
:1008B00087957A95D1F7702D825C9140F8019183EC
:1008C000808311DC082FCFEFC02788E091E3CC0FA5
:1008D00008F4C9278A95D9F706DC182F02DCC1274E
:1008E00098E021E3CC0F08F4C2279A95D9F7C813F2
:1008F00041C0812F90E0A0E0B0E0902BAC01BD01A1
:10090000440F551F661F771F440F551F661F771F23
:10091000840F951FA61FB71FAC01BD01440F551FC3
:10092000661F771F440F551F661F771F840F951F83
:10093000A61FB71FAC01BD01440F551F661F771FCF
:10094000440F551F661F771F840F951FA61FB71FE3
:10095000072E7DE0B695A795979587957A95D1F75F
:10096000702DF7019183808398DB05C0D1E003C02F
:10097000D2E001C0D2E08D2FDF91CF911F910F9176
:10098000FF90EF90DF90CF90BF90AF909F908F90AF
:100990000895982F96959575880F8A7A982B892FA8
:1009A000869586958373990F990F9C7C892B8295E8
:1009B0000895F89412BE82E083BF88BF89B7826031
:1009C00089BF84E58DB98FEF8FB98EB9B99A81E06F
:1009D0008093620078940895CF93C0916400CF5FB4
:1009E000CF7090916300C917E1F3D3DFEC2FF0E0F3
:1009F000EB59FF4F8083C0936400809162008111A6
:100A000005C0809160008111FCCFD3DFCF910895A4
:100A10001F920F920FB60F9211248F939F93EF9313
:100A2000FF93809162008823A1F180916100882367
:100A300061F0109261008BEF8EB980917500880F84
:100A4000880F880F87608FB924C0909164008091CF
:100A500063009817C1F081E080936100E09163002A
:100A6000EF5FEF70E0936300F0E0EB59FF4F8081A0
:100A7000809375008BEF8EB9809175008695869571
:100A800080688FB906C01092620013BEC19AB998EF
:100A90001DB8FF91EF919F918F910F900FBE0F9016
:100AA0001F9018951F920F920FB60F9211248F93DB
:100AB00082B7885682BF8F910F900FBE0F901F9004
:100AC0001895AA1BBB1B51E107C0AA1FBB1FA61785
:100AD000B70710F0A61BB70B881F991F5A95A9F7E7
:0E0AE00080959095BC01CD010895F894FFCF4C
:00000001FF
